{
	"data": {
		"bytecode": {
			"linkReferences": {},
			"object": "608060405234801561000f575f80fd5b5061a4b48061001d5f395ff3fe60806040526004361062000054575f3560e01c80638230343014620000e45780638c6329041462000113578063a1f3fd9f1462000156578063c84abce11462000185578063f1d4b86814620001c857620000e0565b36620000e057620000de62000068620001f7565b73ffffffffffffffffffffffffffffffffffffffff16635c60da1b6040518163ffffffff1660e01b8152600401602060405180830381865afa158015620000b1573d5f803e3d5ffd5b505050506040513d601f19601f82011682018060405250810190620000d79190620009e0565b3462000207565b005b5f80fd5b348015620000f0575f80fd5b50620000fb62000301565b6040516200010a919062000b08565b60405180910390f35b3480156200011f575f80fd5b506200013e600480360381019062000138919062000c98565b62000407565b6040516200014d919062000d56565b60405180910390f35b34801562000162575f80fd5b506200016d62000896565b6040516200017c919062000d8b565b60405180910390f35b34801562000191575f80fd5b50620001b06004803603810190620001aa919062000da6565b620008a1565b604051620001bf919062000df2565b60405180910390f35b348015620001d4575f80fd5b50620001df620008be565b604051620001ee919062000e74565b60405180910390f35b5f62000202620008d6565b905090565b804710156200024d576040517f08c379a0000000000000000000000000000000000000000000000000000000008152600401620002449062000eed565b60405180910390fd5b5f8273ffffffffffffffffffffffffffffffffffffffff1682604051620002749062000f3e565b5f6040518083038185875af1925050503d805f8114620002b0576040519150601f19603f3d011682016040523d82523d5f602084013e620002b5565b606091505b5050905080620002fc576040517f08c379a0000000000000000000000000000000000000000000000000000000008152600401620002f39062000fc8565b60405180910390fd5b505050565b60605f805480602002602001604051908101604052809291908181526020015f905b82821015620003fe578382905f5260205f2090600202016040518060400160405290815f82015f9054906101000a900473ffffffffffffffffffffffffffffffffffffffff1673ffffffffffffffffffffffffffffffffffffffff1673ffffffffffffffffffffffffffffffffffffffff168152602001600182015f9054906101000a900473ffffffffffffffffffffffffffffffffffffffff1673ffffffffffffffffffffffffffffffffffffffff1673ffffffffffffffffffffffffffffffffffffffff16815250508152602001906001019062000323565b50505050905090565b5f8262000413620001f7565b73ffffffffffffffffffffffffffffffffffffffff16635c60da1b6040518163ffffffff1660e01b8152600401602060405180830381865afa1580156200045c573d5f803e3d5ffd5b505050506040513d601f19601f82011682018060405250810190620004829190620009e0565b73ffffffffffffffffffffffffffffffffffffffff163373ffffffffffffffffffffffffffffffffffffffff1614620004f2576040517f08c379a0000000000000000000000000000000000000000000000000000000008152600401620004e99062001036565b60405180910390fd5b620004fc620001f7565b73ffffffffffffffffffffffffffffffffffffffff16633f683b6a6040518163ffffffff1660e01b8152600401602060405180830381865afa15801562000545573d5f803e3d5ffd5b505050506040513d601f19601f820116820180604052508101906200056b919062001085565b15620005ae576040517f08c379a0000000000000000000000000000000000000000000000000000000008152600401620005a59062001103565b60405180910390fd5b60015f8273ffffffffffffffffffffffffffffffffffffffff1673ffffffffffffffffffffffffffffffffffffffff1681526020019081526020015f205f9054906101000a900460ff16156200063b576040517f08c379a0000000000000000000000000000000000000000000000000000000008152600401620006329062001197565b60405180910390fd5b5f8487876040516200064d9062000960565b6200065b939291906200122b565b604051809103905ff08015801562000675573d5f803e3d5ffd5b5090508073ffffffffffffffffffffffffffffffffffffffff1663f2fde38b866040518263ffffffff1660e01b8152600401620006b3919062000d56565b5f604051808303815f87803b158015620006cb575f80fd5b505af1158015620006de573d5f803e3d5ffd5b505050505f60405180604001604052808373ffffffffffffffffffffffffffffffffffffffff1681526020018773ffffffffffffffffffffffffffffffffffffffff1681525090506001805f8873ffffffffffffffffffffffffffffffffffffffff1673ffffffffffffffffffffffffffffffffffffffff1681526020019081526020015f205f6101000a81548160ff0219169083151502179055505f81908060018154018082558091505060019003905f5260205f2090600202015f909190919091505f820151815f015f6101000a81548173ffffffffffffffffffffffffffffffffffffffff021916908373ffffffffffffffffffffffffffffffffffffffff1602179055506020820151816001015f6101000a81548173ffffffffffffffffffffffffffffffffffffffff021916908373ffffffffffffffffffffffffffffffffffffffff16021790555050503373ffffffffffffffffffffffffffffffffffffffff168273ffffffffffffffffffffffffffffffffffffffff167ff708942ec477396a151a5285651961dcab8e8a82ea4f5b31a5236f92f6c9271060405160405180910390a3819350505050949350505050565b5f8080549050905090565b6001602052805f5260405f205f915054906101000a900460ff1681565b7347e0cdcb3c7705ef6fa57b69539d58ab5570799f81565b5f7347e0cdcb3c7705ef6fa57b69539d58ab5570799f73ffffffffffffffffffffffffffffffffffffffff166343a73d9a6040518163ffffffff1660e01b8152600401602060405180830381865afa15801562000935573d5f803e3d5ffd5b505050506040513d601f19601f820116820180604052508101906200095b9190620009e0565b905090565b61920a806200127583390190565b5f604051905090565b5f80fd5b5f80fd5b5f73ffffffffffffffffffffffffffffffffffffffff82169050919050565b5f620009aa826200097f565b9050919050565b620009bc816200099e565b8114620009c7575f80fd5b50565b5f81519050620009da81620009b1565b92915050565b5f60208284031215620009f857620009f762000977565b5b5f62000a0784828501620009ca565b91505092915050565b5f81519050919050565b5f82825260208201905092915050565b5f819050602082019050919050565b62000a44816200099e565b82525050565b604082015f82015162000a605f85018262000a39565b50602082015162000a75602085018262000a39565b50505050565b5f62000a88838362000a4a565b60408301905092915050565b5f602082019050919050565b5f62000aac8262000a10565b62000ab8818562000a1a565b935062000ac58362000a2a565b805f5b8381101562000afb57815162000adf888262000a7b565b975062000aec8362000a94565b92505060018101905062000ac8565b5085935050505092915050565b5f6020820190508181035f83015262000b22818462000aa0565b905092915050565b5f80fd5b5f80fd5b5f601f19601f8301169050919050565b7f4e487b71000000000000000000000000000000000000000000000000000000005f52604160045260245ffd5b62000b7a8262000b32565b810181811067ffffffffffffffff8211171562000b9c5762000b9b62000b42565b5b80604052505050565b5f62000bb06200096e565b905062000bbe828262000b6f565b919050565b5f67ffffffffffffffff82111562000be05762000bdf62000b42565b5b62000beb8262000b32565b9050602081019050919050565b828183375f83830152505050565b5f62000c1c62000c168462000bc3565b62000ba5565b90508281526020810184848401111562000c3b5762000c3a62000b2e565b5b62000c4884828562000bf8565b509392505050565b5f82601f83011262000c675762000c6662000b2a565b5b813562000c7984826020860162000c06565b91505092915050565b5f8135905062000c9281620009b1565b92915050565b5f805f806080858703121562000cb35762000cb262000977565b5b5f85013567ffffffffffffffff81111562000cd35762000cd26200097b565b5b62000ce18782880162000c50565b945050602085013567ffffffffffffffff81111562000d055762000d046200097b565b5b62000d138782880162000c50565b935050604062000d268782880162000c82565b925050606062000d398782880162000c82565b91505092959194509250565b62000d50816200099e565b82525050565b5f60208201905062000d6b5f83018462000d45565b92915050565b5f819050919050565b62000d858162000d71565b82525050565b5f60208201905062000da05f83018462000d7a565b92915050565b5f6020828403121562000dbe5762000dbd62000977565b5b5f62000dcd8482850162000c82565b91505092915050565b5f8115159050919050565b62000dec8162000dd6565b82525050565b5f60208201905062000e075f83018462000de1565b92915050565b5f819050919050565b5f62000e3662000e3062000e2a846200097f565b62000e0d565b6200097f565b9050919050565b5f62000e498262000e16565b9050919050565b5f62000e5c8262000e3d565b9050919050565b62000e6e8162000e50565b82525050565b5f60208201905062000e895f83018462000e63565b92915050565b5f82825260208201905092915050565b7f416464726573733a20696e73756666696369656e742062616c616e63650000005f82015250565b5f62000ed5601d8362000e8f565b915062000ee28262000e9f565b602082019050919050565b5f6020820190508181035f83015262000f068162000ec7565b9050919050565b5f81905092915050565b50565b5f62000f275f8362000f0d565b915062000f348262000f17565b5f82019050919050565b5f62000f4a8262000f1a565b9150819050919050565b7f416464726573733a20756e61626c6520746f2073656e642076616c75652c20725f8201527f6563697069656e74206d61792068617665207265766572746564000000000000602082015250565b5f62000fb0603a8362000e8f565b915062000fbd8262000f54565b604082019050919050565b5f6020820190508181035f83015262000fe18162000fa2565b9050919050565b7f43616c6c6572206973206e6f742074686520696d706c656d656e746174696f6e5f82015250565b5f6200101e60208362000e8f565b91506200102b8262000fe8565b602082019050919050565b5f6020820190508181035f8301526200104f8162001010565b9050919050565b620010618162000dd6565b81146200106c575f80fd5b50565b5f815190506200107f8162001056565b92915050565b5f602082840312156200109d576200109c62000977565b5b5f620010ac848285016200106f565b91505092915050565b7f4465706c6f79696e672069732073746f707065640000000000000000000000005f82015250565b5f620010eb60148362000e8f565b9150620010f882620010b5565b602082019050919050565b5f6020820190508181035f8301526200111c81620010dd565b9050919050565b7f5468697320616464726573732068617320616c7265616479206465706c6f79655f8201527f642074686973206d6f64756c6500000000000000000000000000000000000000602082015250565b5f6200117f602d8362000e8f565b91506200118c8262001123565b604082019050919050565b5f6020820190508181035f830152620011b08162001171565b9050919050565b5f81519050919050565b5f5b83811015620011e0578082015181840152602081019050620011c3565b5f8484015250505050565b5f620011f782620011b7565b62001203818562000e8f565b935062001215818560208601620011c1565b620012208162000b32565b840191505092915050565b5f606082019050620012405f83018662000d45565b8181036020830152620012548185620011eb565b905081810360408301526200126a8184620011eb565b905094935050505056fe608060405234801562000010575f80fd5b506040516200920a3803806200920a833981810160405281019062000036919062000ddc565b8181815f9081620000489190620010aa565b5080600190816200005a9190620010aa565b5050506200007d62000071620001f560201b60201c565b620001fc60201b60201c565b731820a4b7618bde71dce8cdc73aab6c95905fad2473ffffffffffffffffffffffffffffffffffffffff166329965a1d307f269c8df59f41a76535d4f0bfbf61a8b3e5d0d17e77987df2525b98033693fb6c306040518463ffffffff1660e01b8152600401620000f093929190620011b9565b5f604051808303815f87803b15801562000108575f80fd5b505af11580156200011b573d5f803e3d5ffd5b505050506200014a83604051806080016040528060428152602001620091c860429139620002bf60201b60201c565b731820a4b7618bde71dce8cdc73aab6c95905fad2473ffffffffffffffffffffffffffffffffffffffff166329965a1d307f5774290ebd100eccc4af649e952a7cfe27720495c71895ddc04f6abf0b497392306040518463ffffffff1660e01b8152600401620001bd93929190620011b9565b5f604051808303815f87803b158015620001d5575f80fd5b505af1158015620001e8573d5f803e3d5ffd5b5050505050505062001589565b5f33905090565b5f600b5f9054906101000a900473ffffffffffffffffffffffffffffffffffffffff16905081600b5f6101000a81548173ffffffffffffffffffffffffffffffffffffffff021916908373ffffffffffffffffffffffffffffffffffffffff1602179055508173ffffffffffffffffffffffffffffffffffffffff168173ffffffffffffffffffffffffffffffffffffffff167f8be0079c531659141344cd1fd0a4f28419497f9722a3daafe3b4186f6b6457e060405160405180910390a35050565b5f620002d260126200030f60201b60201c565b9050620002e660126200031b60201b60201c565b620002f883826200032f60201b60201c565b6200030a81836200056b60201b60201c565b505050565b5f815f01549050919050565b6001815f015f828254019250508190555050565b5f73ffffffffffffffffffffffffffffffffffffffff168273ffffffffffffffffffffffffffffffffffffffff1603620003a0576040517f08c379a0000000000000000000000000000000000000000000000000000000008152600401620003979062001252565b60405180910390fd5b620003b1816200061c60201b60201c565b15620003f4576040517f08c379a0000000000000000000000000000000000000000000000000000000008152600401620003eb90620012c0565b60405180910390fd5b620004095f838360016200066460201b60201c565b6200041a816200061c60201b60201c565b156200045d576040517f08c379a00000000000000000000000000000000000000000000000000000000081526004016200045490620012c0565b60405180910390fd5b600160035f8473ffffffffffffffffffffffffffffffffffffffff1673ffffffffffffffffffffffffffffffffffffffff1681526020019081526020015f205f82825401925050819055508160025f8381526020019081526020015f205f6101000a81548173ffffffffffffffffffffffffffffffffffffffff021916908373ffffffffffffffffffffffffffffffffffffffff160217905550808273ffffffffffffffffffffffffffffffffffffffff165f73ffffffffffffffffffffffffffffffffffffffff167fddf252ad1be2c89b69c2b068fc378daa952ba7f163c4a11628f55a4df523b3ef60405160405180910390a4620005675f838360016200067e60201b60201c565b5050565b6200057c826200061c60201b60201c565b620005be576040517f08c379a0000000000000000000000000000000000000000000000000000000008152600401620005b59062001354565b60405180910390fd5b80600a5f8481526020019081526020015f209081620005de9190620010aa565b507ff8e1a15aba9398e019f0b49df1a4fde98ee17ae345cb5f6b5e2c27f5033e8ce78260405162000610919062001385565b60405180910390a15050565b5f8073ffffffffffffffffffffffffffffffffffffffff1662000645836200068460201b60201c565b73ffffffffffffffffffffffffffffffffffffffff1614159050919050565b6200067884848484620006bd60201b60201c565b50505050565b50505050565b5f60025f8381526020019081526020015f205f9054906101000a900473ffffffffffffffffffffffffffffffffffffffff169050919050565b620006d1848484846200084960201b60201c565b600181111562000718576040517f08c379a00000000000000000000000000000000000000000000000000000000081526004016200070f9062001414565b60405180910390fd5b5f8290505f73ffffffffffffffffffffffffffffffffffffffff168573ffffffffffffffffffffffffffffffffffffffff1603620007675762000761816200084f60201b60201c565b620007af565b8373ffffffffffffffffffffffffffffffffffffffff168573ffffffffffffffffffffffffffffffffffffffff1614620007ae57620007ad85826200089360201b60201c565b5b5b5f73ffffffffffffffffffffffffffffffffffffffff168473ffffffffffffffffffffffffffffffffffffffff1603620007fa57620007f481620009f460201b60201c565b62000842565b8473ffffffffffffffffffffffffffffffffffffffff168473ffffffffffffffffffffffffffffffffffffffff1614620008415762000840848262000abf60201b60201c565b5b5b5050505050565b50505050565b60088054905060095f8381526020019081526020015f2081905550600881908060018154018082558091505060019003905f5260205f20015f909190919091505550565b5f6001620008a78462000b3f60201b60201c565b620008b3919062001461565b90505f60075f8481526020019081526020015f205490508181146200098b575f60065f8673ffffffffffffffffffffffffffffffffffffffff1673ffffffffffffffffffffffffffffffffffffffff1681526020019081526020015f205f8481526020019081526020015f205490508060065f8773ffffffffffffffffffffffffffffffffffffffff1673ffffffffffffffffffffffffffffffffffffffff1681526020019081526020015f205f8481526020019081526020015f20819055508160075f8381526020019081526020015f2081905550505b60075f8481526020019081526020015f205f905560065f8573ffffffffffffffffffffffffffffffffffffffff1673ffffffffffffffffffffffffffffffffffffffff1681526020019081526020015f205f8381526020019081526020015f205f905550505050565b5f600160088054905062000a09919062001461565b90505f60095f8481526020019081526020015f205490505f6008838154811062000a385762000a376200149b565b5b905f5260205f2001549050806008838154811062000a5b5762000a5a6200149b565b5b905f5260205f2001819055508160095f8381526020019081526020015f208190555060095f8581526020019081526020015f205f9055600880548062000aa65762000aa5620014c8565b5b600190038181905f5260205f20015f9055905550505050565b5f62000ad18362000b3f60201b60201c565b90508160065f8573ffffffffffffffffffffffffffffffffffffffff1673ffffffffffffffffffffffffffffffffffffffff1681526020019081526020015f205f8381526020019081526020015f20819055508060075f8481526020019081526020015f2081905550505050565b5f8073ffffffffffffffffffffffffffffffffffffffff168273ffffffffffffffffffffffffffffffffffffffff160362000bb1576040517f08c379a000000000000000000000000000000000000000000000000000000000815260040162000ba89062001569565b60405180910390fd5b60035f8373ffffffffffffffffffffffffffffffffffffffff1673ffffffffffffffffffffffffffffffffffffffff1681526020019081526020015f20549050919050565b5f604051905090565b5f80fd5b5f80fd5b5f73ffffffffffffffffffffffffffffffffffffffff82169050919050565b5f62000c328262000c07565b9050919050565b62000c448162000c26565b811462000c4f575f80fd5b50565b5f8151905062000c628162000c39565b92915050565b5f80fd5b5f80fd5b5f601f19601f8301169050919050565b7f4e487b71000000000000000000000000000000000000000000000000000000005f52604160045260245ffd5b62000cb88262000c70565b810181811067ffffffffffffffff8211171562000cda5762000cd962000c80565b5b80604052505050565b5f62000cee62000bf6565b905062000cfc828262000cad565b919050565b5f67ffffffffffffffff82111562000d1e5762000d1d62000c80565b5b62000d298262000c70565b9050602081019050919050565b5f5b8381101562000d5557808201518184015260208101905062000d38565b5f8484015250505050565b5f62000d7662000d708462000d01565b62000ce3565b90508281526020810184848401111562000d955762000d9462000c6c565b5b62000da284828562000d36565b509392505050565b5f82601f83011262000dc15762000dc062000c68565b5b815162000dd384826020860162000d60565b91505092915050565b5f805f6060848603121562000df65762000df562000bff565b5b5f62000e058682870162000c52565b935050602084015167ffffffffffffffff81111562000e295762000e2862000c03565b5b62000e378682870162000daa565b925050604084015167ffffffffffffffff81111562000e5b5762000e5a62000c03565b5b62000e698682870162000daa565b9150509250925092565b5f81519050919050565b7f4e487b71000000000000000000000000000000000000000000000000000000005f52602260045260245ffd5b5f600282049050600182168062000ec257607f821691505b60208210810362000ed85762000ed762000e7d565b5b50919050565b5f819050815f5260205f209050919050565b5f6020601f8301049050919050565b5f82821b905092915050565b5f6008830262000f3c7fffffffffffffffffffffffffffffffffffffffffffffffffffffffffffffffff8262000eff565b62000f48868362000eff565b95508019841693508086168417925050509392505050565b5f819050919050565b5f819050919050565b5f62000f9262000f8c62000f868462000f60565b62000f69565b62000f60565b9050919050565b5f819050919050565b62000fad8362000f72565b62000fc562000fbc8262000f99565b84845462000f0b565b825550505050565b5f90565b62000fdb62000fcd565b62000fe881848462000fa2565b505050565b5b818110156200100f57620010035f8262000fd1565b60018101905062000fee565b5050565b601f8211156200105e57620010288162000ede565b620010338462000ef0565b8101602085101562001043578190505b6200105b620010528562000ef0565b83018262000fed565b50505b505050565b5f82821c905092915050565b5f620010805f198460080262001063565b1980831691505092915050565b5f6200109a83836200106f565b9150826002028217905092915050565b620010b58262000e73565b67ffffffffffffffff811115620010d157620010d062000c80565b5b620010dd825462000eaa565b620010ea82828562001013565b5f60209050601f83116001811462001120575f84156200110b578287015190505b6200111785826200108d565b86555062001186565b601f198416620011308662000ede565b5f5b82811015620011595784890151825560018201915060208501945060208101905062001132565b8683101562001179578489015162001175601f8916826200106f565b8355505b6001600288020188555050505b505050505050565b620011998162000c26565b82525050565b5f819050919050565b620011b3816200119f565b82525050565b5f606082019050620011ce5f8301866200118e565b620011dd6020830185620011a8565b620011ec60408301846200118e565b949350505050565b5f82825260208201905092915050565b7f4552433732313a206d696e7420746f20746865207a65726f20616464726573735f82015250565b5f6200123a602083620011f4565b9150620012478262001204565b602082019050919050565b5f6020820190508181035f8301526200126b816200122c565b9050919050565b7f4552433732313a20746f6b656e20616c7265616479206d696e746564000000005f82015250565b5f620012a8601c83620011f4565b9150620012b58262001272565b602082019050919050565b5f6020820190508181035f830152620012d9816200129a565b9050919050565b7f45524337323155524953746f726167653a2055524920736574206f66206e6f6e5f8201527f6578697374656e7420746f6b656e000000000000000000000000000000000000602082015250565b5f6200133c602e83620011f4565b91506200134982620012e0565b604082019050919050565b5f6020820190508181035f8301526200136d816200132e565b9050919050565b6200137f8162000f60565b82525050565b5f6020820190506200139a5f83018462001374565b92915050565b7f455243373231456e756d657261626c653a20636f6e73656375746976652074725f8201527f616e7366657273206e6f7420737570706f727465640000000000000000000000602082015250565b5f620013fc603583620011f4565b91506200140982620013a0565b604082019050919050565b5f6020820190508181035f8301526200142d81620013ee565b9050919050565b7f4e487b71000000000000000000000000000000000000000000000000000000005f52601160045260245ffd5b5f6200146d8262000f60565b91506200147a8362000f60565b925082820390508181111562001495576200149462001434565b5b92915050565b7f4e487b71000000000000000000000000000000000000000000000000000000005f52603260045260245ffd5b7f4e487b71000000000000000000000000000000000000000000000000000000005f52603160045260245ffd5b7f4552433732313a2061646472657373207a65726f206973206e6f7420612076615f8201527f6c6964206f776e65720000000000000000000000000000000000000000000000602082015250565b5f62001551602983620011f4565b91506200155e82620014f5565b604082019050919050565b5f6020820190508181035f830152620015828162001543565b9050919050565b617c3180620015975f395ff3fe608060405260043610610296575f3560e01c8063715018a611610159578063c41c9a61116100c0578063ece8453f11610079578063ece8453f14610a07578063ee3318c514610a43578063f1d4b86814610a6b578063f2fde38b14610a95578063fea59eea14610abd578063fee666ad14610ae75761029d565b8063c41c9a61146108ed578063c87b56dd14610915578063cb6a9bc614610951578063dc30356d1461097b578063e8788710146109a3578063e985e9c5146109cb5761029d565b80639f35233c116101125780639f35233c14610819578063a22cb4651461082f578063a426198014610857578063b88d4fde14610893578063bff29cee146108bb578063c330cb77146108c55761029d565b8063715018a61461071e5780637315f31214610734578063770dd3e31461075e5780638844addb146107885780638da5cb5b146107c557806395d89b41146107ef5761029d565b806334f318f1116101fd5780635da58ed8116101b65780635da58ed8146105f05780636352211e1461061857806367b88a731461065457806367c84b3f146106905780636c922764146106b857806370a08231146106e25761029d565b806334f318f1146104ec5780633b4b1d50146105145780633b506cef1461053c57806342842e0e1461056457806342966c681461058c5780634f6ccce7146105b45761029d565b8063175f247b1161024f578063175f247b146103e457806318160ddd1461040c5780631dadac521461043657806321821be21461045e57806323b872dd146104885780632f745c59146104b05761029d565b806301ffc9a7146102a157806306fdde03146102dd578063078976f814610307578063081812fc14610344578063095ea7b314610380578063150b7a02146103a85761029d565b3661029d57005b5f80fd5b3480156102ac575f80fd5b506102c760048036038101906102c2919061549c565b610b0f565b6040516102d491906154e1565b60405180910390f35b3480156102e8575f80fd5b506102f1610bf0565b6040516102fe9190615584565b60405180910390f35b348015610312575f80fd5b5061032d600480360381019061032891906156d0565b610c7f565b60405161033b92919061576e565b60405180910390f35b34801561034f575f80fd5b5061036a600480360381019061036591906157bf565b610cb9565b60405161037791906157ea565b60405180910390f35b34801561038b575f80fd5b506103a660048036038101906103a1919061582d565b610cfb565b005b3480156103b3575f80fd5b506103ce60048036038101906103c991906158c8565b610e11565b6040516103db919061595b565b60405180910390f35b3480156103ef575f80fd5b5061040a600480360381019061040591906159c9565b610e25565b005b348015610417575f80fd5b50610420610e90565b60405161042d9190615a14565b60405180910390f35b348015610441575f80fd5b5061045c600480360381019061045791906159c9565b610e9c565b005b348015610469575f80fd5b50610472610f45565b60405161047f9190615584565b60405180910390f35b348015610493575f80fd5b506104ae60048036038101906104a99190615a2d565b610fd5565b005b3480156104bb575f80fd5b506104d660048036038101906104d1919061582d565b611035565b6040516104e39190615a14565b60405180910390f35b3480156104f7575f80fd5b50610512600480360381019061050d9190615ab0565b6110d5565b005b34801561051f575f80fd5b5061053a60048036038101906105359190615b12565b611311565b005b348015610547575f80fd5b50610562600480360381019061055d919061582d565b611342565b005b34801561056f575f80fd5b5061058a60048036038101906105859190615a2d565b611358565b005b348015610597575f80fd5b506105b260048036038101906105ad91906157bf565b611377565b005b3480156105bf575f80fd5b506105da60048036038101906105d591906157bf565b6113d3565b6040516105e79190615a14565b60405180910390f35b3480156105fb575f80fd5b5061061660048036038101906106119190615b3d565b611441565b005b348015610623575f80fd5b5061063e600480360381019061063991906157bf565b611723565b60405161064b91906157ea565b60405180910390f35b34801561065f575f80fd5b5061067a60048036038101906106759190615b3d565b6117a7565b60405161068791906157ea565b60405180910390f35b34801561069b575f80fd5b506106b660048036038101906106b19190615b97565b6117ba565b005b3480156106c3575f80fd5b506106cc6117da565b6040516106d99190615cb6565b60405180910390f35b3480156106ed575f80fd5b5061070860048036038101906107039190615ccf565b6117ff565b6040516107159190615a14565b60405180910390f35b348015610729575f80fd5b506107326118b3565b005b34801561073f575f80fd5b506107486118c6565b6040516107559190615e68565b60405180910390f35b348015610769575f80fd5b50610772611a97565b60405161077f9190615e97565b60405180910390f35b348015610793575f80fd5b506107ae60048036038101906107a99190615ab0565b611aad565b6040516107bc92919061576e565b60405180910390f35b3480156107d0575f80fd5b506107d9611ac1565b6040516107e691906157ea565b60405180910390f35b3480156107fa575f80fd5b50610803611ae9565b6040516108109190615584565b60405180910390f35b348015610824575f80fd5b5061082d611b79565b005b34801561083a575f80fd5b5061085560048036038101906108509190615eda565b611b83565b005b348015610862575f80fd5b5061087d60048036038101906108789190615a2d565b611b99565b60405161088a919061595b565b60405180910390f35b34801561089e575f80fd5b506108b960048036038101906108b49190615fb6565b611def565b005b6108c3611e51565b005b3480156108d0575f80fd5b506108eb60048036038101906108e691906159c9565b611e5b565b005b3480156108f8575f80fd5b50610913600480360381019061090e9190615a2d565b611e79565b005b348015610920575f80fd5b5061093b600480360381019061093691906157bf565b611fc1565b6040516109489190615584565b60405180910390f35b34801561095c575f80fd5b50610965611fd3565b6040516109729190615584565b60405180910390f35b348015610986575f80fd5b506109a1600480360381019061099c9190615b3d565b612063565b005b3480156109ae575f80fd5b506109c960048036038101906109c49190615a2d565b61235d565b005b3480156109d6575f80fd5b506109f160048036038101906109ec9190616036565b6124be565b6040516109fe91906154e1565b60405180910390f35b348015610a12575f80fd5b50610a2d6004803603810190610a289190615b3d565b61254c565b604051610a3a91906154e1565b60405180910390f35b348015610a4e575f80fd5b50610a696004803603810190610a649190616074565b61257e565b005b348015610a76575f80fd5b50610a7f6126a3565b604051610a8c9190616100565b60405180910390f35b348015610aa0575f80fd5b50610abb6004803603810190610ab69190615ccf565b6126bb565b005b348015610ac8575f80fd5b50610ad161273d565b604051610ade9190615584565b60405180910390f35b348015610af2575f80fd5b50610b0d6004803603810190610b089190616154565b6127cd565b005b5f7f150b7a02000000000000000000000000000000000000000000000000000000007bffffffffffffffffffffffffffffffffffffffffffffffffffffffff1916827bffffffffffffffffffffffffffffffffffffffffffffffffffffffff19161480610bd957507ff601d81c000000000000000000000000000000000000000000000000000000007bffffffffffffffffffffffffffffffffffffffffffffffffffffffff1916827bffffffffffffffffffffffffffffffffffffffffffffffffffffffff1916145b80610be95750610be8826128ce565b5b9050919050565b60605f8054610bfe906161bf565b80601f0160208091040260200160405190810160405280929190818152602001828054610c2a906161bf565b8015610c755780601f10610c4c57610100808354040283529160200191610c75565b820191905f5260205f20905b815481529060010190602001808311610c5857829003601f168201915b5050505050905090565b5f80610cb083604051602001610c959190616229565b60405160208183030381529060405280519060200120612947565b91509150915091565b5f610cc38261299b565b60045f8381526020019081526020015f205f9054906101000a900473ffffffffffffffffffffffffffffffffffffffff169050919050565b5f610d0582611723565b90508073ffffffffffffffffffffffffffffffffffffffff168373ffffffffffffffffffffffffffffffffffffffff1603610d75576040517f08c379a0000000000000000000000000000000000000000000000000000000008152600401610d6c906162af565b60405180910390fd5b8073ffffffffffffffffffffffffffffffffffffffff16610d946129e6565b73ffffffffffffffffffffffffffffffffffffffff161480610dc35750610dc281610dbd6129e6565b6124be565b5b610e02576040517f08c379a0000000000000000000000000000000000000000000000000000000008152600401610df99061633d565b60405180910390fd5b610e0c83836129ed565b505050565b5f63150b7a0260e01b905095945050505050565b610e2d612aa3565b610e7982828080601f0160208091040260200160405190810160405280939291908181526020018383808284375f81840152601f19601f82011690508083019250505050505050612b21565b50818160169182610e8b9291906164f9565b505050565b5f600880549050905090565b610ea4612aa3565b610ef082828080601f0160208091040260200160405190810160405280939291908181526020018383808284375f81840152601f19601f82011690508083019250505050505050613027565b610f2f576040517f08c379a0000000000000000000000000000000000000000000000000000000008152600401610f2690616610565b60405180910390fd5b818160139182610f409291906164f9565b505050565b606060168054610f54906161bf565b80601f0160208091040260200160405190810160405280929190818152602001828054610f80906161bf565b8015610fcb5780601f10610fa257610100808354040283529160200191610fcb565b820191905f5260205f20905b815481529060010190602001808311610fae57829003601f168201915b5050505050905090565b610fe6610fe06129e6565b826134b4565b611025576040517f08c379a000000000000000000000000000000000000000000000000000000000815260040161101c9061669e565b60405180910390fd5b611030838383613548565b505050565b5f61103f836117ff565b8210611080576040517f08c379a00000000000000000000000000000000000000000000000000000000081526004016110779061672c565b60405180910390fd5b60065f8473ffffffffffffffffffffffffffffffffffffffff1673ffffffffffffffffffffffffffffffffffffffff1681526020019081526020015f205f8381526020019081526020015f2054905092915050565b6110de81613834565b61111d576040517f08c379a0000000000000000000000000000000000000000000000000000000008152600401611114906167ba565b60405180910390fd5b611125611ac1565b73ffffffffffffffffffffffffffffffffffffffff163373ffffffffffffffffffffffffffffffffffffffff1614806111bc575060105f8281526020019081526020015f206001015f9054906101000a900473ffffffffffffffffffffffffffffffffffffffff1673ffffffffffffffffffffffffffffffffffffffff163373ffffffffffffffffffffffffffffffffffffffff16145b156112d35760105f8281526020019081526020015f205f8082015f6111e191906153a9565b600182015f6101000a81549073ffffffffffffffffffffffffffffffffffffffff0219169055600282015f905550505f5b6011805490508110156112cd578160118281548110611234576112336167d8565b5b905f5260205f200154036112ba57601160016011805490506112569190616832565b81548110611267576112666167d8565b5b905f5260205f20015460118281548110611284576112836167d8565b5b905f5260205f20018190555060118054806112a2576112a1616865565b5b600190038181905f5260205f20015f905590556112cd565b80806112c590616892565b915050611212565b5061130e565b6040517f08c379a00000000000000000000000000000000000000000000000000000000081526004016113059061696f565b60405180910390fd5b50565b611319612aa3565b6113228161389f565b508060145f6101000a81548161ffff021916908361ffff16021790555050565b61134a612aa3565b61135482826138c0565b5050565b61137283838360405180602001604052805f815250611def565b505050565b6113886113826129e6565b826134b4565b6113c7576040517f08c379a00000000000000000000000000000000000000000000000000000000081526004016113be9061669e565b60405180910390fd5b6113d081613942565b50565b5f6113dc610e90565b821061141d576040517f08c379a0000000000000000000000000000000000000000000000000000000008152600401611414906169fd565b60405180910390fd5b60088281548110611431576114306167d8565b5b905f5260205f2001549050919050565b611449612aa3565b5f81600e81111561145d5761145c616a1b565b5b90505f61146a848361394e565b905061147581613992565b6114b4576040517f08c379a00000000000000000000000000000000000000000000000000000000081526004016114ab90616a92565b60405180910390fd5b600d5f8281526020019081526020015f206003015f9054906101000a900473ffffffffffffffffffffffffffffffffffffffff1673ffffffffffffffffffffffffffffffffffffffff1663f9c3de116040518163ffffffff1660e01b81526004015f604051808303815f87803b15801561152c575f80fd5b505af115801561153e573d5f803e3d5ffd5b50505050604051806080016040528060405180602001604052805f81525081526020016004600e81111561157557611574616a1b565b5b815260200160405180602001604052805f81525081526020015f73ffffffffffffffffffffffffffffffffffffffff16815250600d5f8381526020019081526020015f205f820151815f0190816115cc9190616ab0565b506020820151816001015f6101000a81548160ff0219169083600e8111156115f7576115f6616a1b565b5b021790555060408201518160020190816116119190616ab0565b506060820151816003015f6101000a81548173ffffffffffffffffffffffffffffffffffffffff021916908373ffffffffffffffffffffffffffffffffffffffff1602179055509050505f5b600c8054905081101561171b5781600c828154811061167f5761167e6167d8565b5b905f5260205f2001540361170857600c6001600c805490506116a19190616832565b815481106116b2576116b16167d8565b5b905f5260205f200154600c82815481106116cf576116ce6167d8565b5b905f5260205f200181905550600c8054806116ed576116ec616865565b5b600190038181905f5260205f20015f9055905550505061171f565b808061171390616892565b91505061165d565b5050505b5050565b5f8061172e836139bd565b90505f73ffffffffffffffffffffffffffffffffffffffff168173ffffffffffffffffffffffffffffffffffffffff160361179e576040517f08c379a000000000000000000000000000000000000000000000000000000000815260040161179590616bc9565b60405180910390fd5b80915050919050565b5f6117b283836139f6565b905092915050565b6117c2612aa3565b6117d187878787878787613bf2565b50505050505050565b60195f9054906101000a900473ffffffffffffffffffffffffffffffffffffffff1681565b5f8073ffffffffffffffffffffffffffffffffffffffff168273ffffffffffffffffffffffffffffffffffffffff160361186e576040517f08c379a000000000000000000000000000000000000000000000000000000000815260040161186590616c57565b60405180910390fd5b60035f8373ffffffffffffffffffffffffffffffffffffffff1673ffffffffffffffffffffffffffffffffffffffff1681526020019081526020015f20549050919050565b6118bb612aa3565b6118c45f613d7e565b565b60605f60118054905090505f8167ffffffffffffffff8111156118ec576118eb6155ac565b5b60405190808252806020026020018201604052801561192557816020015b6119126153e6565b81526020019060019003908161190a5790505b5090505f5b82811015611a8e575f60118281548110611947576119466167d8565b5b905f5260205f200154905060105f8281526020019081526020015f206040518060600160405290815f8201805461197d906161bf565b80601f01602080910402602001604051908101604052809291908181526020018280546119a9906161bf565b80156119f45780601f106119cb576101008083540402835291602001916119f4565b820191905f5260205f20905b8154815290600101906020018083116119d757829003601f168201915b50505050508152602001600182015f9054906101000a900473ffffffffffffffffffffffffffffffffffffffff1673ffffffffffffffffffffffffffffffffffffffff1673ffffffffffffffffffffffffffffffffffffffff168152602001600282015481525050838381518110611a6f57611a6e6167d8565b5b6020026020010181905250508080611a8690616892565b91505061192a565b50809250505090565b5f60145f9054906101000a900461ffff16905090565b5f80611ab883612947565b91509150915091565b5f600b5f9054906101000a900473ffffffffffffffffffffffffffffffffffffffff16905090565b606060018054611af8906161bf565b80601f0160208091040260200160405190810160405280929190818152602001828054611b24906161bf565b8015611b6f5780601f10611b4657610100808354040283529160200191611b6f565b820191905f5260205f20905b815481529060010190602001808311611b5257829003601f168201915b5050505050905090565b611b81613e41565b565b611b95611b8e6129e6565b8383613ea6565b5050565b5f807f74bb301a2d230dcb2257da6b00c4d08a9e5440a62a2539ef4993ac1c75d4592d90505f63a426198060e01b90505f8290505f3373ffffffffffffffffffffffffffffffffffffffff163b1115611dad577347e0cdcb3c7705ef6fa57b69539d58ab5570799f73ffffffffffffffffffffffffffffffffffffffff163373ffffffffffffffffffffffffffffffffffffffff1603611ca0578573ffffffffffffffffffffffffffffffffffffffff168773ffffffffffffffffffffffffffffffffffffffff167f563931b23904244c4436a65ab54b077db27acc82dde94f11c0f44149d50b34dc87604051611c909190615a14565b60405180910390a3819050611da2565b3373ffffffffffffffffffffffffffffffffffffffff166370a08231306040518263ffffffff1660e01b8152600401611cd991906157ea565b602060405180830381865afa925050508015611d1357506040513d601f19601f82011682018060405250810190611d109190616c89565b60015b15611da157858110611d9f573373ffffffffffffffffffffffffffffffffffffffff168773ffffffffffffffffffffffffffffffffffffffff168973ffffffffffffffffffffffffffffffffffffffff167f47760c51727c7f903dfb2c32e2d2bcc306d75dc25f4649fba5674f5356b44b5d89604051611d939190615a14565b60405180910390a48291505b505b5b809350505050611de8565b6040517f08c379a0000000000000000000000000000000000000000000000000000000008152600401611ddf90616d24565b60405180910390fd5b9392505050565b611e00611dfa6129e6565b836134b4565b611e3f576040517f08c379a0000000000000000000000000000000000000000000000000000000008152600401611e369061669e565b60405180910390fd5b611e4b8484848461400d565b50505050565b611e59613e41565b565b611e63612aa3565b818160159182611e749291906164f9565b505050565b611e81612aa3565b5f839050818173ffffffffffffffffffffffffffffffffffffffff166370a08231306040518263ffffffff1660e01b8152600401611ebf91906157ea565b602060405180830381865afa158015611eda573d5f803e3d5ffd5b505050506040513d601f19601f82011682018060405250810190611efe9190616c89565b1015611f3f576040517f08c379a0000000000000000000000000000000000000000000000000000000008152600401611f3690616db2565b60405180910390fd5b8073ffffffffffffffffffffffffffffffffffffffff1663a9059cbb84846040518363ffffffff1660e01b8152600401611f7a92919061576e565b6020604051808303815f875af1158015611f96573d5f803e3d5ffd5b505050506040513d601f19601f82011682018060405250810190611fba9190616de4565b5050505050565b6060611fcc82614069565b9050919050565b606060158054611fe2906161bf565b80601f016020809104026020016040519081016040528092919081815260200182805461200e906161bf565b80156120595780601f1061203057610100808354040283529160200191612059565b820191905f5260205f20905b81548152906001019060200180831161203c57829003601f168201915b5050505050905090565b61206b612aa3565b5f81600e81111561207f5761207e616a1b565b5b90505f61208c848361394e565b905061209781613992565b156120d7576040517f08c379a00000000000000000000000000000000000000000000000000000000081526004016120ce90616e7f565b60405180910390fd5b5f6120e0614173565b73ffffffffffffffffffffffffffffffffffffffff166373a18b7b8686336040518463ffffffff1660e01b815260040161211c93929190616e9d565b6020604051808303815f875af1158015612138573d5f803e3d5ffd5b505050506040513d601f19601f8201168201806040525081019061215c9190616eed565b90505f604051806080016040528087815260200185600e81111561218357612182616a1b565b5b8152602001612190614173565b73ffffffffffffffffffffffffffffffffffffffff16631a758934876040518263ffffffff1660e01b81526004016121c89190616f5e565b5f60405180830381865afa1580156121e2573d5f803e3d5ffd5b505050506040513d5f823e3d601f19601f8201168201806040525081019061220a9190616fe5565b81526020018373ffffffffffffffffffffffffffffffffffffffff16815250905080600d5f8581526020019081526020015f205f820151815f0190816122509190616ab0565b506020820151816001015f6101000a81548160ff0219169083600e81111561227b5761227a616a1b565b5b021790555060408201518160020190816122959190616ab0565b506060820151816003015f6101000a81548173ffffffffffffffffffffffffffffffffffffffff021916908373ffffffffffffffffffffffffffffffffffffffff160217905550905050600c83908060018154018082558091505060019003905f5260205f20015f90919091909150558173ffffffffffffffffffffffffffffffffffffffff167fe05fbd99b3bd14666521f429be65dff2635e36a2d6b23046c5754f9236ac4ce1878760405161234d92919061702c565b60405180910390a2505050505050565b612365612aa3565b5f8390503073ffffffffffffffffffffffffffffffffffffffff168173ffffffffffffffffffffffffffffffffffffffff16636352211e846040518263ffffffff1660e01b81526004016123b99190615a14565b602060405180830381865afa1580156123d4573d5f803e3d5ffd5b505050506040513d601f19601f820116820180604052508101906123f89190616eed565b73ffffffffffffffffffffffffffffffffffffffff161461244e576040517f08c379a0000000000000000000000000000000000000000000000000000000008152600401612445906170ca565b60405180910390fd5b8073ffffffffffffffffffffffffffffffffffffffff166342842e0e3085856040518463ffffffff1660e01b815260040161248b939291906170e8565b5f604051808303815f87803b1580156124a2575f80fd5b505af11580156124b4573d5f803e3d5ffd5b5050505050505050565b5f60055f8473ffffffffffffffffffffffffffffffffffffffff1673ffffffffffffffffffffffffffffffffffffffff1681526020019081526020015f205f8373ffffffffffffffffffffffffffffffffffffffff1673ffffffffffffffffffffffffffffffffffffffff1681526020019081526020015f205f9054906101000a900460ff16905092915050565b5f8061256a8484600e81111561256557612564616a1b565b5b61394e565b905061257581613992565b91505092915050565b612586612aa3565b61258f82614181565b6125ce576040517f08c379a00000000000000000000000000000000000000000000000000000000081526004016125c5906171b3565b60405180910390fd5b5f836040516020016125e09190616229565b60405160208183030381529060405280519060200120905061260181613834565b61262c57601181908060018154018082558091505060019003905f5260205f20015f90919091909150555b5f60105f8381526020019081526020015f20905084815f0190816126509190616ab0565b5083816001015f6101000a81548173ffffffffffffffffffffffffffffffffffffffff021916908373ffffffffffffffffffffffffffffffffffffffff1602179055508281600201819055505050505050565b7347e0cdcb3c7705ef6fa57b69539d58ab5570799f81565b6126c3612aa3565b5f73ffffffffffffffffffffffffffffffffffffffff168173ffffffffffffffffffffffffffffffffffffffff1603612731576040517f08c379a000000000000000000000000000000000000000000000000000000000815260040161272890617241565b60405180910390fd5b61273a81613d7e565b50565b60606013805461274c906161bf565b80601f0160208091040260200160405190810160405280929190818152602001828054612778906161bf565b80156127c35780601f1061279a576101008083540402835291602001916127c3565b820191905f5260205f20905b8154815290600101906020018083116127a657829003601f168201915b5050505050905090565b6127d5612aa3565b80471015612818576040517f08c379a000000000000000000000000000000000000000000000000000000000815260040161280f906172cf565b60405180910390fd5b5f73ffffffffffffffffffffffffffffffffffffffff168273ffffffffffffffffffffffffffffffffffffffff1603612886576040517f08c379a000000000000000000000000000000000000000000000000000000000815260040161287d9061735d565b60405180910390fd5b8173ffffffffffffffffffffffffffffffffffffffff166108fc8290811502906040515f60405180830381858888f193505050501580156128c9573d5f803e3d5ffd5b505050565b5f7fa4261980000000000000000000000000000000000000000000000000000000007bffffffffffffffffffffffffffffffffffffffffffffffffffffffff1916827bffffffffffffffffffffffffffffffffffffffffffffffffffffffff19161480612940575061293f82614221565b5b9050919050565b5f8060105f8481526020019081526020015f206001015f9054906101000a900473ffffffffffffffffffffffffffffffffffffffff1660105f8581526020019081526020015f206002015491509150915091565b6129a481614232565b6129e3576040517f08c379a00000000000000000000000000000000000000000000000000000000081526004016129da90616bc9565b60405180910390fd5b50565b5f33905090565b8160045f8381526020019081526020015f205f6101000a81548173ffffffffffffffffffffffffffffffffffffffff021916908373ffffffffffffffffffffffffffffffffffffffff160217905550808273ffffffffffffffffffffffffffffffffffffffff16612a5d83611723565b73ffffffffffffffffffffffffffffffffffffffff167f8c5be1e5ebec7d5bd14f71427d1e84f3dd0314c0f7b2291e5b200ac8c7c3b92560405160405180910390a45050565b612aab6129e6565b73ffffffffffffffffffffffffffffffffffffffff16612ac9611ac1565b73ffffffffffffffffffffffffffffffffffffffff1614612b1f576040517f08c379a0000000000000000000000000000000000000000000000000000000008152600401612b16906173c5565b60405180910390fd5b565b5f80829050600381511080612b9457507f2e00000000000000000000000000000000000000000000000000000000000000815f81518110612b6557612b646167d8565b5b602001015160f81c60f81b7effffffffffffffffffffffffffffffffffffffffffffffffffffffffffffff1916145b80612c0a57507f2e000000000000000000000000000000000000000000000000000000000000008160018351612bca9190616832565b81518110612bdb57612bda6167d8565b5b602001015160f81c60f81b7effffffffffffffffffffffffffffffffffffffffffffffffffffffffffffff1916145b15612c18575f915050613022565b5f805b8251811015612f91575f838281518110612c3857612c376167d8565b5b602001015160f81c60f81b90507f2e00000000000000000000000000000000000000000000000000000000000000817effffffffffffffffffffffffffffffffffffffffffffffffffffffffffffff191603612cb2578280612c9990616892565b9350506003831115612cb1575f945050505050613022565b5b7f6100000000000000000000000000000000000000000000000000000000000000817effffffffffffffffffffffffffffffffffffffffffffffffffffffffffffff191610158015612d4657507f7a00000000000000000000000000000000000000000000000000000000000000817effffffffffffffffffffffffffffffffffffffffffffffffffffffffffffff191611155b80612de157507f3000000000000000000000000000000000000000000000000000000000000000817effffffffffffffffffffffffffffffffffffffffffffffffffffffffffffff191610158015612de057507f3900000000000000000000000000000000000000000000000000000000000000817effffffffffffffffffffffffffffffffffffffffffffffffffffffffffffff191611155b5b80612e2d57507f2d00000000000000000000000000000000000000000000000000000000000000817effffffffffffffffffffffffffffffffffffffffffffffffffffffffffffff1916145b80612e7957507f2e00000000000000000000000000000000000000000000000000000000000000817effffffffffffffffffffffffffffffffffffffffffffffffffffffffffffff1916145b612e89575f945050505050613022565b5f82118015612ef657507f2e00000000000000000000000000000000000000000000000000000000000000848381518110612ec757612ec66167d8565b5b602001015160f81c60f81b7effffffffffffffffffffffffffffffffffffffffffffffffffffffffffffff1916145b8015612f6c57507f2e0000000000000000000000000000000000000000000000000000000000000084600184612f2c9190616832565b81518110612f3d57612f3c6167d8565b5b602001015160f81c60f81b7effffffffffffffffffffffffffffffffffffffffffffffffffffffffffffff1916145b15612f7d575f945050505050613022565b508080612f8990616892565b915050612c1b565b50600181108061300c57507f2d000000000000000000000000000000000000000000000000000000000000008260018451612fcc9190616832565b81518110612fdd57612fdc6167d8565b5b602001015160f81c60f81b7effffffffffffffffffffffffffffffffffffffffffffffffffffffffffffff1916145b1561301b575f92505050613022565b6001925050505b919050565b5f6007825110806130395750600f8251115b15613046575f90506134af565b5f8290505f80805f90505f5b84518110156132fd577f300000000000000000000000000000000000000000000000000000000000000085828151811061308f5761308e6167d8565b5b602001015160f81c60f81b7effffffffffffffffffffffffffffffffffffffffffffffffffffffffffffff1916108061312657507f39000000000000000000000000000000000000000000000000000000000000008582815181106130f7576130f66167d8565b5b602001015160f81c60f81b7effffffffffffffffffffffffffffffffffffffffffffffffffffffffffffff1916115b801561319157507f2e00000000000000000000000000000000000000000000000000000000000000858281518110613161576131606167d8565b5b602001015160f81c60f81b7effffffffffffffffffffffffffffffffffffffffffffffffffffffffffffff191614155b156131a3575f955050505050506134af565b7f2e000000000000000000000000000000000000000000000000000000000000008582815181106131d7576131d66167d8565b5b602001015160f81c60f81b7effffffffffffffffffffffffffffffffffffffffffffffffffffffffffffff1916036132a35760ff8260ff16118061321d57505f8260ff16145b1561322f575f955050505050506134af565b60088461323c91906173ef565b60ff1660ff831660f81b7effffffffffffffffffffffffffffffffffffffffffffffffffffffffffffff19167bffffffffffffffffffffffffffffffffffffffffffffffffffffffff1916901c831792505f9150838061329b9061742b565b9450506132ea565b60308582815181106132b8576132b76167d8565b5b602001015160f81c60f81b60f81c600a846132d391906173ef565b6132dd9190617453565b6132e79190617487565b91505b80806132f590616892565b915050613052565b5060038360ff16141580613314575060ff8160ff16115b8061332157505f8160ff16145b15613332575f9450505050506134af565b60ff811660f81b7effffffffffffffffffffffffffffffffffffffffffffffffffffffffffffff1916821791505f60e01b7bffffffffffffffffffffffffffffffffffffffffffffffffffffffff1916827bffffffffffffffffffffffffffffffffffffffffffffffffffffffff191614806133ca5750600a825f600481106133be576133bd6167d8565b5b1a60f81b60f81c60ff16145b80613445575060ac825f600481106133e5576133e46167d8565b5b1a60f81b60f81c60ff16148015613444575060108260016004811061340d5761340c6167d8565b5b1a60f81b60f81c60ff16101580156134435750601f82600160048110613436576134356167d8565b5b1a60f81b60f81c60ff1611155b5b5b80613495575060c0825f600481106134605761345f6167d8565b5b1a60f81b60f81c60ff16148015613494575060a882600160048110613488576134876167d8565b5b1a60f81b60f81c60ff16145b5b156134a6575f9450505050506134af565b60019450505050505b919050565b5f806134bf83611723565b90508073ffffffffffffffffffffffffffffffffffffffff168473ffffffffffffffffffffffffffffffffffffffff161480613501575061350081856124be565b5b8061353f57508373ffffffffffffffffffffffffffffffffffffffff1661352784610cb9565b73ffffffffffffffffffffffffffffffffffffffff16145b91505092915050565b8273ffffffffffffffffffffffffffffffffffffffff1661356882611723565b73ffffffffffffffffffffffffffffffffffffffff16146135be576040517f08c379a00000000000000000000000000000000000000000000000000000000081526004016135b59061752b565b60405180910390fd5b5f73ffffffffffffffffffffffffffffffffffffffff168273ffffffffffffffffffffffffffffffffffffffff160361362c576040517f08c379a0000000000000000000000000000000000000000000000000000000008152600401613623906175b9565b60405180910390fd5b6136398383836001614272565b8273ffffffffffffffffffffffffffffffffffffffff1661365982611723565b73ffffffffffffffffffffffffffffffffffffffff16146136af576040517f08c379a00000000000000000000000000000000000000000000000000000000081526004016136a69061752b565b60405180910390fd5b60045f8281526020019081526020015f205f6101000a81549073ffffffffffffffffffffffffffffffffffffffff0219169055600160035f8573ffffffffffffffffffffffffffffffffffffffff1673ffffffffffffffffffffffffffffffffffffffff1681526020019081526020015f205f8282540392505081905550600160035f8473ffffffffffffffffffffffffffffffffffffffff1673ffffffffffffffffffffffffffffffffffffffff1681526020019081526020015f205f82825401925050819055508160025f8381526020019081526020015f205f6101000a81548173ffffffffffffffffffffffffffffffffffffffff021916908373ffffffffffffffffffffffffffffffffffffffff160217905550808273ffffffffffffffffffffffffffffffffffffffff168473ffffffffffffffffffffffffffffffffffffffff167fddf252ad1be2c89b69c2b068fc378daa952ba7f163c4a11628f55a4df523b3ef60405160405180910390a461382f8383836001614284565b505050565b5f8073ffffffffffffffffffffffffffffffffffffffff1660105f8481526020019081526020015f206001015f9054906101000a900473ffffffffffffffffffffffffffffffffffffffff1673ffffffffffffffffffffffffffffffffffffffff1614159050919050565b5f6104008261ffff1610156138b6575f90506138bb565b600190505b919050565b60405180604001604052808373ffffffffffffffffffffffffffffffffffffffff16815260200182815250600e5f820151815f015f6101000a81548173ffffffffffffffffffffffffffffffffffffffff021916908373ffffffffffffffffffffffffffffffffffffffff160217905550602082015181600101559050505050565b61394b8161428a565b50565b5f8282600e81111561396357613962616a1b565b5b6040516020016139749291906175f7565b60405160208183030381529060405280519060200120905092915050565b5f80600d5f8481526020019081526020015f205f0180546139b2906161bf565b905014159050919050565b5f60025f8381526020019081526020015f205f9054906101000a900473ffffffffffffffffffffffffffffffffffffffff169050919050565b5f80613a148484600e811115613a0f57613a0e616a1b565b5b61394e565b90505f600d5f8381526020019081526020015f206040518060800160405290815f82018054613a42906161bf565b80601f0160208091040260200160405190810160405280929190818152602001828054613a6e906161bf565b8015613ab95780601f10613a9057610100808354040283529160200191613ab9565b820191905f5260205f20905b815481529060010190602001808311613a9c57829003601f168201915b50505050508152602001600182015f9054906101000a900460ff16600e811115613ae657613ae5616a1b565b5b600e811115613af857613af7616a1b565b5b8152602001600282018054613b0c906161bf565b80601f0160208091040260200160405190810160405280929190818152602001828054613b38906161bf565b8015613b835780601f10613b5a57610100808354040283529160200191613b83565b820191905f5260205f20905b815481529060010190602001808311613b6657829003601f168201915b50505050508152602001600382015f9054906101000a900473ffffffffffffffffffffffffffffffffffffffff1673ffffffffffffffffffffffffffffffffffffffff1673ffffffffffffffffffffffffffffffffffffffff1681525050905080606001519250505092915050565b5f613c3f88888080601f0160208091040260200160405190810160405280939291908181526020018383808284375f81840152601f19601f82011690508083019250505050505050613027565b90505f613c4b8761389f565b90505f8087879050141590505f613ca486868080601f0160208091040260200160405190810160405280939291908181526020018383808284375f81840152601f19601f82011690508083019250505050505050612b21565b90508380613caf5750825b80613cb75750815b80613cbf5750805b613cfe576040517f08c379a0000000000000000000000000000000000000000000000000000000008152600401613cf59061768e565b60405180910390fd5b8315613d17578a8a60139182613d159291906164f9565b505b5f8961ffff1614613d3f578860145f6101000a81548161ffff021916908361ffff1602179055505b8115613d5857878760159182613d569291906164f9565b505b8015613d7157858560169182613d6f9291906164f9565b505b5050505050505050505050565b5f600b5f9054906101000a900473ffffffffffffffffffffffffffffffffffffffff16905081600b5f6101000a81548173ffffffffffffffffffffffffffffffffffffffff021916908373ffffffffffffffffffffffffffffffffffffffff1602179055508173ffffffffffffffffffffffffffffffffffffffff168173ffffffffffffffffffffffffffffffffffffffff167f8be0079c531659141344cd1fd0a4f28419497f9722a3daafe3b4186f6b6457e060405160405180910390a35050565b5f613e4a610e90565b11613e8a576040517f08c379a0000000000000000000000000000000000000000000000000000000008152600401613e819061771c565b60405180910390fd5b613e926142d7565b613ea433613e9f5f611fc1565b61444c565b565b8173ffffffffffffffffffffffffffffffffffffffff168373ffffffffffffffffffffffffffffffffffffffff1603613f14576040517f08c379a0000000000000000000000000000000000000000000000000000000008152600401613f0b90617784565b60405180910390fd5b8060055f8573ffffffffffffffffffffffffffffffffffffffff1673ffffffffffffffffffffffffffffffffffffffff1681526020019081526020015f205f8473ffffffffffffffffffffffffffffffffffffffff1673ffffffffffffffffffffffffffffffffffffffff1681526020019081526020015f205f6101000a81548160ff0219169083151502179055508173ffffffffffffffffffffffffffffffffffffffff168373ffffffffffffffffffffffffffffffffffffffff167f17307eab39ab6107e8899845ad3d59bd9653f200f220920489ca2b5937696c318360405161400091906154e1565b60405180910390a3505050565b614018848484613548565b6140248484848461447c565b614063576040517f08c379a000000000000000000000000000000000000000000000000000000000815260040161405a90617812565b60405180910390fd5b50505050565b60606140748261299b565b5f600a5f8481526020019081526020015f208054614091906161bf565b80601f01602080910402602001604051908101604052809291908181526020018280546140bd906161bf565b80156141085780601f106140df57610100808354040283529160200191614108565b820191905f5260205f20905b8154815290600101906020018083116140eb57829003601f168201915b505050505090505f6141186145fe565b90505f81510361412c57819250505061416e565b5f82511115614160578082604051602001614148929190617830565b6040516020818303038152906040529250505061416e565b61416984614614565b925050505b919050565b5f61417c614679565b905090565b5f8173ffffffffffffffffffffffffffffffffffffffff166301ffc9a77fccad581f000000000000000000000000000000000000000000000000000000006040518263ffffffff1660e01b81526004016141db919061595b565b602060405180830381865afa1580156141f6573d5f803e3d5ffd5b505050506040513d601f19601f8201168201806040525081019061421a9190616de4565b9050919050565b5f61422b82614700565b9050919050565b5f8073ffffffffffffffffffffffffffffffffffffffff16614253836139bd565b73ffffffffffffffffffffffffffffffffffffffff1614159050919050565b61427e84848484614760565b50505050565b50505050565b614293816148bb565b5f600a5f8381526020019081526020015f2080546142b0906161bf565b9050146142d457600a5f8281526020019081526020015f205f6142d391906153a9565b5b50565b5f600e6001015490505f600e5f015f9054906101000a900473ffffffffffffffffffffffffffffffffffffffff1690505f73ffffffffffffffffffffffffffffffffffffffff168173ffffffffffffffffffffffffffffffffffffffff16036143815781341461437c576040517f08c379a0000000000000000000000000000000000000000000000000000000008152600401614373906178e9565b60405180910390fd5b614405565b5f8190508073ffffffffffffffffffffffffffffffffffffffff166323b872dd3330866040518463ffffffff1660e01b81526004016143c2939291906170e8565b6020604051808303815f875af11580156143de573d5f803e3d5ffd5b505050506040513d601f19601f820116820180604052508101906144029190616de4565b50505b3373ffffffffffffffffffffffffffffffffffffffff167ff403523e17bf2d1fe8af1a00ba36bc463a7d846dbadf11d117400f7694ba3e6c60405160405180910390a25050565b5f61445760126149fc565b90506144636012614a08565b61446d8382614a1c565b6144778183614c2f565b505050565b5f61449c8473ffffffffffffffffffffffffffffffffffffffff16614cd1565b156145f1578373ffffffffffffffffffffffffffffffffffffffff1663150b7a026144c56129e6565b8786866040518563ffffffff1660e01b81526004016144e79493929190617959565b6020604051808303815f875af192505050801561452257506040513d601f19601f8201168201806040525081019061451f91906179b7565b60015b6145a1573d805f8114614550576040519150601f19603f3d011682016040523d82523d5f602084013e614555565b606091505b505f815103614599576040517f08c379a000000000000000000000000000000000000000000000000000000000815260040161459090617812565b60405180910390fd5b805181602001fd5b63150b7a0260e01b7bffffffffffffffffffffffffffffffffffffffffffffffffffffffff1916817bffffffffffffffffffffffffffffffffffffffffffffffffffffffff1916149150506145f6565b600190505b949350505050565b606060405180602001604052805f815250905090565b606061461f8261299b565b5f6146286145fe565b90505f8151116146465760405180602001604052805f815250614671565b8061465084614cf3565b604051602001614661929190617830565b6040516020818303038152906040525b915050919050565b5f7347e0cdcb3c7705ef6fa57b69539d58ab5570799f73ffffffffffffffffffffffffffffffffffffffff166343a73d9a6040518163ffffffff1660e01b8152600401602060405180830381865afa1580156146d7573d5f803e3d5ffd5b505050506040513d601f19601f820116820180604052508101906146fb9190616eed565b905090565b5f634906490660e01b7bffffffffffffffffffffffffffffffffffffffffffffffffffffffff1916827bffffffffffffffffffffffffffffffffffffffffffffffffffffffff19161480614759575061475882614dbd565b5b9050919050565b61476c84848484614e36565b60018111156147b0576040517f08c379a00000000000000000000000000000000000000000000000000000000081526004016147a790617a52565b60405180910390fd5b5f8290505f73ffffffffffffffffffffffffffffffffffffffff168573ffffffffffffffffffffffffffffffffffffffff16036147f5576147f081614e3c565b614834565b8373ffffffffffffffffffffffffffffffffffffffff168573ffffffffffffffffffffffffffffffffffffffff1614614833576148328582614e80565b5b5b5f73ffffffffffffffffffffffffffffffffffffffff168473ffffffffffffffffffffffffffffffffffffffff16036148755761487081614fd6565b6148b4565b8473ffffffffffffffffffffffffffffffffffffffff168473ffffffffffffffffffffffffffffffffffffffff16146148b3576148b28482615096565b5b5b5050505050565b5f6148c582611723565b90506148d4815f846001614272565b6148dd82611723565b905060045f8381526020019081526020015f205f6101000a81549073ffffffffffffffffffffffffffffffffffffffff0219169055600160035f8373ffffffffffffffffffffffffffffffffffffffff1673ffffffffffffffffffffffffffffffffffffffff1681526020019081526020015f205f828254039250508190555060025f8381526020019081526020015f205f6101000a81549073ffffffffffffffffffffffffffffffffffffffff0219169055815f73ffffffffffffffffffffffffffffffffffffffff168273ffffffffffffffffffffffffffffffffffffffff167fddf252ad1be2c89b69c2b068fc378daa952ba7f163c4a11628f55a4df523b3ef60405160405180910390a46149f8815f846001614284565b5050565b5f815f01549050919050565b6001815f015f828254019250508190555050565b5f73ffffffffffffffffffffffffffffffffffffffff168273ffffffffffffffffffffffffffffffffffffffff1603614a8a576040517f08c379a0000000000000000000000000000000000000000000000000000000008152600401614a8190617aba565b60405180910390fd5b614a9381614232565b15614ad3576040517f08c379a0000000000000000000000000000000000000000000000000000000008152600401614aca90617b22565b60405180910390fd5b614ae05f83836001614272565b614ae981614232565b15614b29576040517f08c379a0000000000000000000000000000000000000000000000000000000008152600401614b2090617b22565b60405180910390fd5b600160035f8473ffffffffffffffffffffffffffffffffffffffff1673ffffffffffffffffffffffffffffffffffffffff1681526020019081526020015f205f82825401925050819055508160025f8381526020019081526020015f205f6101000a81548173ffffffffffffffffffffffffffffffffffffffff021916908373ffffffffffffffffffffffffffffffffffffffff160217905550808273ffffffffffffffffffffffffffffffffffffffff165f73ffffffffffffffffffffffffffffffffffffffff167fddf252ad1be2c89b69c2b068fc378daa952ba7f163c4a11628f55a4df523b3ef60405160405180910390a4614c2b5f83836001614284565b5050565b614c3882614232565b614c77576040517f08c379a0000000000000000000000000000000000000000000000000000000008152600401614c6e90617bb0565b60405180910390fd5b80600a5f8481526020019081526020015f209081614c959190616ab0565b507ff8e1a15aba9398e019f0b49df1a4fde98ee17ae345cb5f6b5e2c27f5033e8ce782604051614cc59190615a14565b60405180910390a15050565b5f808273ffffffffffffffffffffffffffffffffffffffff163b119050919050565b60605f6001614d018461510e565b0190505f8167ffffffffffffffff811115614d1f57614d1e6155ac565b5b6040519080825280601f01601f191660200182016040528015614d515781602001600182028036833780820191505090505b5090505f82602001820190505b600115614db2578080600190039150507f3031323334353637383961626364656600000000000000000000000000000000600a86061a8153600a8581614da757614da6617bce565b5b0494505f8503614d5e575b819350505050919050565b5f7f780e9d63000000000000000000000000000000000000000000000000000000007bffffffffffffffffffffffffffffffffffffffffffffffffffffffff1916827bffffffffffffffffffffffffffffffffffffffffffffffffffffffff19161480614e2f5750614e2e8261525f565b5b9050919050565b50505050565b60088054905060095f8381526020019081526020015f2081905550600881908060018154018082558091505060019003905f5260205f20015f909190919091505550565b5f6001614e8c846117ff565b614e969190616832565b90505f60075f8481526020019081526020015f20549050818114614f6d575f60065f8673ffffffffffffffffffffffffffffffffffffffff1673ffffffffffffffffffffffffffffffffffffffff1681526020019081526020015f205f8481526020019081526020015f205490508060065f8773ffffffffffffffffffffffffffffffffffffffff1673ffffffffffffffffffffffffffffffffffffffff1681526020019081526020015f205f8481526020019081526020015f20819055508160075f8381526020019081526020015f2081905550505b60075f8481526020019081526020015f205f905560065f8573ffffffffffffffffffffffffffffffffffffffff1673ffffffffffffffffffffffffffffffffffffffff1681526020019081526020015f205f8381526020019081526020015f205f905550505050565b5f6001600880549050614fe99190616832565b90505f60095f8481526020019081526020015f205490505f60088381548110615015576150146167d8565b5b905f5260205f20015490508060088381548110615035576150346167d8565b5b905f5260205f2001819055508160095f8381526020019081526020015f208190555060095f8581526020019081526020015f205f9055600880548061507d5761507c616865565b5b600190038181905f5260205f20015f9055905550505050565b5f6150a0836117ff565b90508160065f8573ffffffffffffffffffffffffffffffffffffffff1673ffffffffffffffffffffffffffffffffffffffff1681526020019081526020015f205f8381526020019081526020015f20819055508060075f8481526020019081526020015f2081905550505050565b5f805f90507a184f03e93ff9f4daa797ed6e38ed64bf6a1f010000000000000000831061516a577a184f03e93ff9f4daa797ed6e38ed64bf6a1f01000000000000000083816151605761515f617bce565b5b0492506040810190505b6d04ee2d6d415b85acef810000000083106151a7576d04ee2d6d415b85acef8100000000838161519d5761519c617bce565b5b0492506020810190505b662386f26fc1000083106151d657662386f26fc1000083816151cc576151cb617bce565b5b0492506010810190505b6305f5e10083106151ff576305f5e10083816151f5576151f4617bce565b5b0492506008810190505b612710831061522457612710838161521a57615219617bce565b5b0492506004810190505b60648310615247576064838161523d5761523c617bce565b5b0492506002810190505b600a8310615256576001810190505b80915050919050565b5f7f80ac58cd000000000000000000000000000000000000000000000000000000007bffffffffffffffffffffffffffffffffffffffffffffffffffffffff1916827bffffffffffffffffffffffffffffffffffffffffffffffffffffffff1916148061532957507f5b5e139f000000000000000000000000000000000000000000000000000000007bffffffffffffffffffffffffffffffffffffffffffffffffffffffff1916827bffffffffffffffffffffffffffffffffffffffffffffffffffffffff1916145b80615339575061533882615340565b5b9050919050565b5f7f01ffc9a7000000000000000000000000000000000000000000000000000000007bffffffffffffffffffffffffffffffffffffffffffffffffffffffff1916827bffffffffffffffffffffffffffffffffffffffffffffffffffffffff1916149050919050565b5080546153b5906161bf565b5f825580601f106153c657506153e3565b601f0160209004905f5260205f20908101906153e2919061541b565b5b50565b6040518060600160405280606081526020015f73ffffffffffffffffffffffffffffffffffffffff1681526020015f81525090565b5b80821115615432575f815f90555060010161541c565b5090565b5f604051905090565b5f80fd5b5f80fd5b5f7fffffffff0000000000000000000000000000000000000000000000000000000082169050919050565b61547b81615447565b8114615485575f80fd5b50565b5f8135905061549681615472565b92915050565b5f602082840312156154b1576154b061543f565b5b5f6154be84828501615488565b91505092915050565b5f8115159050919050565b6154db816154c7565b82525050565b5f6020820190506154f45f8301846154d2565b92915050565b5f81519050919050565b5f82825260208201905092915050565b5f5b83811015615531578082015181840152602081019050615516565b5f8484015250505050565b5f601f19601f8301169050919050565b5f615556826154fa565b6155608185615504565b9350615570818560208601615514565b6155798161553c565b840191505092915050565b5f6020820190508181035f83015261559c818461554c565b905092915050565b5f80fd5b5f80fd5b7f4e487b71000000000000000000000000000000000000000000000000000000005f52604160045260245ffd5b6155e28261553c565b810181811067ffffffffffffffff82111715615601576156006155ac565b5b80604052505050565b5f615613615436565b905061561f82826155d9565b919050565b5f67ffffffffffffffff82111561563e5761563d6155ac565b5b6156478261553c565b9050602081019050919050565b828183375f83830152505050565b5f61567461566f84615624565b61560a565b9050828152602081018484840111156156905761568f6155a8565b5b61569b848285615654565b509392505050565b5f82601f8301126156b7576156b66155a4565b5b81356156c7848260208601615662565b91505092915050565b5f602082840312156156e5576156e461543f565b5b5f82013567ffffffffffffffff81111561570257615701615443565b5b61570e848285016156a3565b91505092915050565b5f73ffffffffffffffffffffffffffffffffffffffff82169050919050565b5f61574082615717565b9050919050565b61575081615736565b82525050565b5f819050919050565b61576881615756565b82525050565b5f6040820190506157815f830185615747565b61578e602083018461575f565b9392505050565b61579e81615756565b81146157a8575f80fd5b50565b5f813590506157b981615795565b92915050565b5f602082840312156157d4576157d361543f565b5b5f6157e1848285016157ab565b91505092915050565b5f6020820190506157fd5f830184615747565b92915050565b61580c81615736565b8114615816575f80fd5b50565b5f8135905061582781615803565b92915050565b5f80604083850312156158435761584261543f565b5b5f61585085828601615819565b9250506020615861858286016157ab565b9150509250929050565b5f80fd5b5f80fd5b5f8083601f840112615888576158876155a4565b5b8235905067ffffffffffffffff8111156158a5576158a461586b565b5b6020830191508360018202830111156158c1576158c061586f565b5b9250929050565b5f805f805f608086880312156158e1576158e061543f565b5b5f6158ee88828901615819565b95505060206158ff88828901615819565b9450506040615910888289016157ab565b935050606086013567ffffffffffffffff81111561593157615930615443565b5b61593d88828901615873565b92509250509295509295909350565b61595581615447565b82525050565b5f60208201905061596e5f83018461594c565b92915050565b5f8083601f840112615989576159886155a4565b5b8235905067ffffffffffffffff8111156159a6576159a561586b565b5b6020830191508360018202830111156159c2576159c161586f565b5b9250929050565b5f80602083850312156159df576159de61543f565b5b5f83013567ffffffffffffffff8111156159fc576159fb615443565b5b615a0885828601615974565b92509250509250929050565b5f602082019050615a275f83018461575f565b92915050565b5f805f60608486031215615a4457615a4361543f565b5b5f615a5186828701615819565b9350506020615a6286828701615819565b9250506040615a73868287016157ab565b9150509250925092565b5f819050919050565b615a8f81615a7d565b8114615a99575f80fd5b50565b5f81359050615aaa81615a86565b92915050565b5f60208284031215615ac557615ac461543f565b5b5f615ad284828501615a9c565b91505092915050565b5f61ffff82169050919050565b615af181615adb565b8114615afb575f80fd5b50565b5f81359050615b0c81615ae8565b92915050565b5f60208284031215615b2757615b2661543f565b5b5f615b3484828501615afe565b91505092915050565b5f8060408385031215615b5357615b5261543f565b5b5f83013567ffffffffffffffff811115615b7057615b6f615443565b5b615b7c858286016156a3565b9250506020615b8d858286016157ab565b9150509250929050565b5f805f805f805f6080888a031215615bb257615bb161543f565b5b5f88013567ffffffffffffffff811115615bcf57615bce615443565b5b615bdb8a828b01615974565b97509750506020615bee8a828b01615afe565b955050604088013567ffffffffffffffff811115615c0f57615c0e615443565b5b615c1b8a828b01615974565b9450945050606088013567ffffffffffffffff811115615c3e57615c3d615443565b5b615c4a8a828b01615974565b925092505092959891949750929550565b5f819050919050565b5f615c7e615c79615c7484615717565b615c5b565b615717565b9050919050565b5f615c8f82615c64565b9050919050565b5f615ca082615c85565b9050919050565b615cb081615c96565b82525050565b5f602082019050615cc95f830184615ca7565b92915050565b5f60208284031215615ce457615ce361543f565b5b5f615cf184828501615819565b91505092915050565b5f81519050919050565b5f82825260208201905092915050565b5f819050602082019050919050565b5f82825260208201905092915050565b5f615d3d826154fa565b615d478185615d23565b9350615d57818560208601615514565b615d608161553c565b840191505092915050565b615d7481615736565b82525050565b615d8381615756565b82525050565b5f606083015f8301518482035f860152615da38282615d33565b9150506020830151615db86020860182615d6b565b506040830151615dcb6040860182615d7a565b508091505092915050565b5f615de18383615d89565b905092915050565b5f602082019050919050565b5f615dff82615cfa565b615e098185615d04565b935083602082028501615e1b85615d14565b805f5b85811015615e565784840389528151615e378582615dd6565b9450615e4283615de9565b925060208a01995050600181019050615e1e565b50829750879550505050505092915050565b5f6020820190508181035f830152615e808184615df5565b905092915050565b615e9181615adb565b82525050565b5f602082019050615eaa5f830184615e88565b92915050565b615eb9816154c7565b8114615ec3575f80fd5b50565b5f81359050615ed481615eb0565b92915050565b5f8060408385031215615ef057615eef61543f565b5b5f615efd85828601615819565b9250506020615f0e85828601615ec6565b9150509250929050565b5f67ffffffffffffffff821115615f3257615f316155ac565b5b615f3b8261553c565b9050602081019050919050565b5f615f5a615f5584615f18565b61560a565b905082815260208101848484011115615f7657615f756155a8565b5b615f81848285615654565b509392505050565b5f82601f830112615f9d57615f9c6155a4565b5b8135615fad848260208601615f48565b91505092915050565b5f805f8060808587031215615fce57615fcd61543f565b5b5f615fdb87828801615819565b9450506020615fec87828801615819565b9350506040615ffd878288016157ab565b925050606085013567ffffffffffffffff81111561601e5761601d615443565b5b61602a87828801615f89565b91505092959194509250565b5f806040838503121561604c5761604b61543f565b5b5f61605985828601615819565b925050602061606a85828601615819565b9150509250929050565b5f805f6060848603121561608b5761608a61543f565b5b5f84013567ffffffffffffffff8111156160a8576160a7615443565b5b6160b4868287016156a3565b93505060206160c586828701615819565b92505060406160d6868287016157ab565b9150509250925092565b5f6160ea82615c85565b9050919050565b6160fa816160e0565b82525050565b5f6020820190506161135f8301846160f1565b92915050565b5f61612382615717565b9050919050565b61613381616119565b811461613d575f80fd5b50565b5f8135905061614e8161612a565b92915050565b5f806040838503121561616a5761616961543f565b5b5f61617785828601616140565b9250506020616188858286016157ab565b9150509250929050565b7f4e487b71000000000000000000000000000000000000000000000000000000005f52602260045260245ffd5b5f60028204905060018216806161d657607f821691505b6020821081036161e9576161e8616192565b5b50919050565b5f81905092915050565b5f616203826154fa565b61620d81856161ef565b935061621d818560208601615514565b80840191505092915050565b5f61623482846161f9565b915081905092915050565b7f4552433732313a20617070726f76616c20746f2063757272656e74206f776e655f8201527f7200000000000000000000000000000000000000000000000000000000000000602082015250565b5f616299602183615504565b91506162a48261623f565b604082019050919050565b5f6020820190508181035f8301526162c68161628d565b9050919050565b7f4552433732313a20617070726f76652063616c6c6572206973206e6f7420746f5f8201527f6b656e206f776e6572206f7220617070726f76656420666f7220616c6c000000602082015250565b5f616327603d83615504565b9150616332826162cd565b604082019050919050565b5f6020820190508181035f8301526163548161631b565b9050919050565b5f82905092915050565b5f819050815f5260205f209050919050565b5f6020601f8301049050919050565b5f82821b905092915050565b5f600883026163c17fffffffffffffffffffffffffffffffffffffffffffffffffffffffffffffffff82616386565b6163cb8683616386565b95508019841693508086168417925050509392505050565b5f6163fd6163f86163f384615756565b615c5b565b615756565b9050919050565b5f819050919050565b616416836163e3565b61642a61642282616404565b848454616392565b825550505050565b5f90565b61643e616432565b61644981848461640d565b505050565b5b8181101561646c576164615f82616436565b60018101905061644f565b5050565b601f8211156164b15761648281616365565b61648b84616377565b8101602085101561649a578190505b6164ae6164a685616377565b83018261644e565b50505b505050565b5f82821c905092915050565b5f6164d15f19846008026164b6565b1980831691505092915050565b5f6164e983836164c2565b9150826002028217905092915050565b616503838361635b565b67ffffffffffffffff81111561651c5761651b6155ac565b5b61652682546161bf565b616531828285616470565b5f601f83116001811461655e575f841561654c578287013590505b61655685826164de565b8655506165bd565b601f19841661656c86616365565b5f5b828110156165935784890135825560018201915060208501945060208101905061656e565b868310156165b057848901356165ac601f8916826164c2565b8355505b6001600288020188555050505b50505050505050565b7f496e76616c6964204950206164647265737300000000000000000000000000005f82015250565b5f6165fa601283615504565b9150616605826165c6565b602082019050919050565b5f6020820190508181035f830152616627816165ee565b9050919050565b7f4552433732313a2063616c6c6572206973206e6f7420746f6b656e206f776e655f8201527f72206f7220617070726f76656400000000000000000000000000000000000000602082015250565b5f616688602d83615504565b91506166938261662e565b604082019050919050565b5f6020820190508181035f8301526166b58161667c565b9050919050565b7f455243373231456e756d657261626c653a206f776e657220696e646578206f755f8201527f74206f6620626f756e6473000000000000000000000000000000000000000000602082015250565b5f616716602b83615504565b9150616721826166bc565b604082019050919050565b5f6020820190508181035f8301526167438161670a565b9050919050565b7f436173686261636b53746f726167653a204b657920646f6573206e6f742065785f8201527f6973742e00000000000000000000000000000000000000000000000000000000602082015250565b5f6167a4602483615504565b91506167af8261674a565b604082019050919050565b5f6020820190508181035f8301526167d181616798565b9050919050565b7f4e487b71000000000000000000000000000000000000000000000000000000005f52603260045260245ffd5b7f4e487b71000000000000000000000000000000000000000000000000000000005f52601160045260245ffd5b5f61683c82615756565b915061684783615756565b925082820390508181111561685f5761685e616805565b5b92915050565b7f4e487b71000000000000000000000000000000000000000000000000000000005f52603160045260245ffd5b5f61689c82615756565b91507fffffffffffffffffffffffffffffffffffffffffffffffffffffffffffffffff82036168ce576168cd616805565b5b600182019050919050565b7f436173686261636b53746f726167653a2043616c6c657220646f6573206e6f745f8201527f2068617665207065726d697373696f6e20746f2064656c65746520746869732060208201527f636173686261636b000000000000000000000000000000000000000000000000604082015250565b5f616959604883615504565b9150616964826168d9565b606082019050919050565b5f6020820190508181035f8301526169868161694d565b9050919050565b7f455243373231456e756d657261626c653a20676c6f62616c20696e646578206f5f8201527f7574206f6620626f756e64730000000000000000000000000000000000000000602082015250565b5f6169e7602c83615504565b91506169f28261698d565b604082019050919050565b5f6020820190508181035f830152616a14816169db565b9050919050565b7f4e487b71000000000000000000000000000000000000000000000000000000005f52602160045260245ffd5b7f4d6f64756c65733a204d6f64756c65206e6f7420696e7374616c6c65640000005f82015250565b5f616a7c601d83615504565b9150616a8782616a48565b602082019050919050565b5f6020820190508181035f830152616aa981616a70565b9050919050565b616ab9826154fa565b67ffffffffffffffff811115616ad257616ad16155ac565b5b616adc82546161bf565b616ae7828285616470565b5f60209050601f831160018114616b18575f8415616b06578287015190505b616b1085826164de565b865550616b77565b601f198416616b2686616365565b5f5b82811015616b4d57848901518255600182019150602085019450602081019050616b28565b86831015616b6a5784890151616b66601f8916826164c2565b8355505b6001600288020188555050505b505050505050565b7f4552433732313a20696e76616c696420746f6b656e20494400000000000000005f82015250565b5f616bb3601883615504565b9150616bbe82616b7f565b602082019050919050565b5f6020820190508181035f830152616be081616ba7565b9050919050565b7f4552433732313a2061646472657373207a65726f206973206e6f7420612076615f8201527f6c6964206f776e65720000000000000000000000000000000000000000000000602082015250565b5f616c41602983615504565b9150616c4c82616be7565b604082019050919050565b5f6020820190508181035f830152616c6e81616c35565b9050919050565b5f81519050616c8381615795565b92915050565b5f60208284031215616c9e57616c9d61543f565b5b5f616cab84828501616c75565b91505092915050565b7f455243323052656365697665723a20546869732066756e6374696f6e206973205f8201527f666f722068616e646c696e6720746f6b656e206163717569736974696f6e0000602082015250565b5f616d0e603e83615504565b9150616d1982616cb4565b604082019050919050565b5f6020820190508181035f830152616d3b81616d02565b9050919050565b7f46696e616e63654d616e616765723a204e6f7420656e6f75676820746f6b656e5f8201527f73206f6e20636f6e74726163742062616c616e63650000000000000000000000602082015250565b5f616d9c603583615504565b9150616da782616d42565b604082019050919050565b5f6020820190508181035f830152616dc981616d90565b9050919050565b5f81519050616dde81615eb0565b92915050565b5f60208284031215616df957616df861543f565b5b5f616e0684828501616dd0565b91505092915050565b7f4d6f64756c65733a204d6f64756c6520616c726561647920696e7374616c6c655f8201527f6400000000000000000000000000000000000000000000000000000000000000602082015250565b5f616e69602183615504565b9150616e7482616e0f565b604082019050919050565b5f6020820190508181035f830152616e9681616e5d565b9050919050565b5f6060820190508181035f830152616eb5818661554c565b9050616ec4602083018561575f565b616ed16040830184615747565b949350505050565b5f81519050616ee781615803565b92915050565b5f60208284031215616f0257616f0161543f565b5b5f616f0f84828501616ed9565b91505092915050565b600f8110616f2957616f28616a1b565b5b50565b5f819050616f3982616f18565b919050565b5f616f4882616f2c565b9050919050565b616f5881616f3e565b82525050565b5f602082019050616f715f830184616f4f565b92915050565b5f616f89616f8484615624565b61560a565b905082815260208101848484011115616fa557616fa46155a8565b5b616fb0848285615514565b509392505050565b5f82601f830112616fcc57616fcb6155a4565b5b8151616fdc848260208601616f77565b91505092915050565b5f60208284031215616ffa57616ff961543f565b5b5f82015167ffffffffffffffff81111561701757617016615443565b5b61702384828501616fb8565b91505092915050565b5f6040820190508181035f830152617044818561554c565b9050617053602083018461575f565b9392505050565b7f46696e616e63654d616e616765723a2054686520636f6e7472616374206973205f8201527f6e6f7420746865206f776e6572206f66207468697320746f6b656e0000000000602082015250565b5f6170b4603b83615504565b91506170bf8261705a565b604082019050919050565b5f6020820190508181035f8301526170e1816170a8565b9050919050565b5f6060820190506170fb5f830186615747565b6171086020830185615747565b617115604083018461575f565b949350505050565b7f436173686261636b53746f726167653a204164647265737320646f6573206e6f5f8201527f7420636f6d706c7920776974682049436173686261636b20696e74657266616360208201527f6500000000000000000000000000000000000000000000000000000000000000604082015250565b5f61719d604183615504565b91506171a88261711d565b606082019050919050565b5f6020820190508181035f8301526171ca81617191565b9050919050565b7f4f776e61626c653a206e6577206f776e657220697320746865207a65726f20615f8201527f6464726573730000000000000000000000000000000000000000000000000000602082015250565b5f61722b602683615504565b9150617236826171d1565b604082019050919050565b5f6020820190508181035f8301526172588161721f565b9050919050565b7f46696e616e63654d616e616765723a20436f6e74726163742068617320696e735f8201527f756666696369656e742062616c616e6365000000000000000000000000000000602082015250565b5f6172b9603183615504565b91506172c48261725f565b604082019050919050565b5f6020820190508181035f8301526172e6816172ad565b9050919050565b7f46696e616e63654d616e616765723a20526563697069656e74206164647265735f8201527f7320697320746865207a65726f20616464726573730000000000000000000000602082015250565b5f617347603583615504565b9150617352826172ed565b604082019050919050565b5f6020820190508181035f8301526173748161733b565b9050919050565b7f4f776e61626c653a2063616c6c6572206973206e6f7420746865206f776e65725f82015250565b5f6173af602083615504565b91506173ba8261737b565b602082019050919050565b5f6020820190508181035f8301526173dc816173a3565b9050919050565b5f60ff82169050919050565b5f6173f9826173e3565b9150617404836173e3565b9250828202617412816173e3565b915080821461742457617423616805565b5b5092915050565b5f617435826173e3565b915060ff820361744857617447616805565b5b600182019050919050565b5f61745d826173e3565b9150617468836173e3565b9250828201905060ff81111561748157617480616805565b5b92915050565b5f617491826173e3565b915061749c836173e3565b9250828203905060ff8111156174b5576174b4616805565b5b92915050565b7f4552433732313a207472616e736665722066726f6d20696e636f7272656374205f8201527f6f776e6572000000000000000000000000000000000000000000000000000000602082015250565b5f617515602583615504565b9150617520826174bb565b604082019050919050565b5f6020820190508181035f83015261754281617509565b9050919050565b7f4552433732313a207472616e7366657220746f20746865207a65726f206164645f8201527f7265737300000000000000000000000000000000000000000000000000000000602082015250565b5f6175a3602483615504565b91506175ae82617549565b604082019050919050565b5f6020820190508181035f8301526175d081617597565b9050919050565b5f819050919050565b6175f16175ec82615756565b6175d7565b82525050565b5f61760282856161f9565b915061760e82846175e0565b6020820191508190509392505050565b7f4147454d696e6563726166745365727665723a204174206c65617374206f6e655f8201527f2076616c696420706172616d6574657220697320726571756972656400000000602082015250565b5f617678603c83615504565b91506176838261761e565b604082019050919050565b5f6020820190508181035f8301526176a58161766c565b9050919050565b7f4e465444697265637453616c65733a20546f6b656e20776974682049442030205f8201527f68617320616c7265616479206265656e206d696e746564000000000000000000602082015250565b5f617706603783615504565b9150617711826176ac565b604082019050919050565b5f6020820190508181035f830152617733816176fa565b9050919050565b7f4552433732313a20617070726f766520746f2063616c6c6572000000000000005f82015250565b5f61776e601983615504565b91506177798261773a565b602082019050919050565b5f6020820190508181035f83015261779b81617762565b9050919050565b7f4552433732313a207472616e7366657220746f206e6f6e2045524337323152655f8201527f63656976657220696d706c656d656e7465720000000000000000000000000000602082015250565b5f6177fc603283615504565b9150617807826177a2565b604082019050919050565b5f6020820190508181035f830152617829816177f0565b9050919050565b5f61783b82856161f9565b915061784782846161f9565b91508190509392505050565b7f4e465444697265637453616c65733a2054686520616d6f756e74206f662065745f8201527f6865722073656e7420646f6573206e6f74206d6174636820746865207265717560208201527f6972656420616d6f756e742e0000000000000000000000000000000000000000604082015250565b5f6178d3604c83615504565b91506178de82617853565b606082019050919050565b5f6020820190508181035f830152617900816178c7565b9050919050565b5f81519050919050565b5f82825260208201905092915050565b5f61792b82617907565b6179358185617911565b9350617945818560208601615514565b61794e8161553c565b840191505092915050565b5f60808201905061796c5f830187615747565b6179796020830186615747565b617986604083018561575f565b81810360608301526179988184617921565b905095945050505050565b5f815190506179b181615472565b92915050565b5f602082840312156179cc576179cb61543f565b5b5f6179d9848285016179a3565b91505092915050565b7f455243373231456e756d657261626c653a20636f6e73656375746976652074725f8201527f616e7366657273206e6f7420737570706f727465640000000000000000000000602082015250565b5f617a3c603583615504565b9150617a47826179e2565b604082019050919050565b5f6020820190508181035f830152617a6981617a30565b9050919050565b7f4552433732313a206d696e7420746f20746865207a65726f20616464726573735f82015250565b5f617aa4602083615504565b9150617aaf82617a70565b602082019050919050565b5f6020820190508181035f830152617ad181617a98565b9050919050565b7f4552433732313a20746f6b656e20616c7265616479206d696e746564000000005f82015250565b5f617b0c601c83615504565b9150617b1782617ad8565b602082019050919050565b5f6020820190508181035f830152617b3981617b00565b9050919050565b7f45524337323155524953746f726167653a2055524920736574206f66206e6f6e5f8201527f6578697374656e7420746f6b656e000000000000000000000000000000000000602082015250565b5f617b9a602e83615504565b9150617ba582617b40565b604082019050919050565b5f6020820190508181035f830152617bc781617b8e565b9050919050565b7f4e487b71000000000000000000000000000000000000000000000000000000005f52601260045260245ffdfea26469706673582212204abebc7f54c6de02854a39fc0a48688e1bc257ac2f342ea37270f9b42631936964736f6c63430008150033697066733a2f2f6261666b7265696168726e376b7867323434706e7a6d3563763579376f796a61353474796e326633616f3362363274637871763434686c6a347275a2646970667358221220c083fd46f0727ed836aa6da294c8da930fa5929e2f663eaa32ba7a61c4c1cce664736f6c63430008150033",
			"opcodes": "PUSH1 0x80 PUSH1 0x40 MSTORE CALLVALUE DUP1 ISZERO PUSH2 0xF JUMPI PUSH0 DUP1 REVERT JUMPDEST POP PUSH2 0xA4B4 DUP1 PUSH2 0x1D PUSH0 CODECOPY PUSH0 RETURN INVALID PUSH1 0x80 PUSH1 0x40 MSTORE PUSH1 0x4 CALLDATASIZE LT PUSH3 0x54 JUMPI PUSH0 CALLDATALOAD PUSH1 0xE0 SHR DUP1 PUSH4 0x82303430 EQ PUSH3 0xE4 JUMPI DUP1 PUSH4 0x8C632904 EQ PUSH3 0x113 JUMPI DUP1 PUSH4 0xA1F3FD9F EQ PUSH3 0x156 JUMPI DUP1 PUSH4 0xC84ABCE1 EQ PUSH3 0x185 JUMPI DUP1 PUSH4 0xF1D4B868 EQ PUSH3 0x1C8 JUMPI PUSH3 0xE0 JUMP JUMPDEST CALLDATASIZE PUSH3 0xE0 JUMPI PUSH3 0xDE PUSH3 0x68 PUSH3 0x1F7 JUMP JUMPDEST PUSH20 0xFFFFFFFFFFFFFFFFFFFFFFFFFFFFFFFFFFFFFFFF AND PUSH4 0x5C60DA1B PUSH1 0x40 MLOAD DUP2 PUSH4 0xFFFFFFFF AND PUSH1 0xE0 SHL DUP2 MSTORE PUSH1 0x4 ADD PUSH1 0x20 PUSH1 0x40 MLOAD DUP1 DUP4 SUB DUP2 DUP7 GAS STATICCALL ISZERO DUP1 ISZERO PUSH3 0xB1 JUMPI RETURNDATASIZE PUSH0 DUP1 RETURNDATACOPY RETURNDATASIZE PUSH0 REVERT JUMPDEST POP POP POP POP PUSH1 0x40 MLOAD RETURNDATASIZE PUSH1 0x1F NOT PUSH1 0x1F DUP3 ADD AND DUP3 ADD DUP1 PUSH1 0x40 MSTORE POP DUP2 ADD SWAP1 PUSH3 0xD7 SWAP2 SWAP1 PUSH3 0x9E0 JUMP JUMPDEST CALLVALUE PUSH3 0x207 JUMP JUMPDEST STOP JUMPDEST PUSH0 DUP1 REVERT JUMPDEST CALLVALUE DUP1 ISZERO PUSH3 0xF0 JUMPI PUSH0 DUP1 REVERT JUMPDEST POP PUSH3 0xFB PUSH3 0x301 JUMP JUMPDEST PUSH1 0x40 MLOAD PUSH3 0x10A SWAP2 SWAP1 PUSH3 0xB08 JUMP JUMPDEST PUSH1 0x40 MLOAD DUP1 SWAP2 SUB SWAP1 RETURN JUMPDEST CALLVALUE DUP1 ISZERO PUSH3 0x11F JUMPI PUSH0 DUP1 REVERT JUMPDEST POP PUSH3 0x13E PUSH1 0x4 DUP1 CALLDATASIZE SUB DUP2 ADD SWAP1 PUSH3 0x138 SWAP2 SWAP1 PUSH3 0xC98 JUMP JUMPDEST PUSH3 0x407 JUMP JUMPDEST PUSH1 0x40 MLOAD PUSH3 0x14D SWAP2 SWAP1 PUSH3 0xD56 JUMP JUMPDEST PUSH1 0x40 MLOAD DUP1 SWAP2 SUB SWAP1 RETURN JUMPDEST CALLVALUE DUP1 ISZERO PUSH3 0x162 JUMPI PUSH0 DUP1 REVERT JUMPDEST POP PUSH3 0x16D PUSH3 0x896 JUMP JUMPDEST PUSH1 0x40 MLOAD PUSH3 0x17C SWAP2 SWAP1 PUSH3 0xD8B JUMP JUMPDEST PUSH1 0x40 MLOAD DUP1 SWAP2 SUB SWAP1 RETURN JUMPDEST CALLVALUE DUP1 ISZERO PUSH3 0x191 JUMPI PUSH0 DUP1 REVERT JUMPDEST POP PUSH3 0x1B0 PUSH1 0x4 DUP1 CALLDATASIZE SUB DUP2 ADD SWAP1 PUSH3 0x1AA SWAP2 SWAP1 PUSH3 0xDA6 JUMP JUMPDEST PUSH3 0x8A1 JUMP JUMPDEST PUSH1 0x40 MLOAD PUSH3 0x1BF SWAP2 SWAP1 PUSH3 0xDF2 JUMP JUMPDEST PUSH1 0x40 MLOAD DUP1 SWAP2 SUB SWAP1 RETURN JUMPDEST CALLVALUE DUP1 ISZERO PUSH3 0x1D4 JUMPI PUSH0 DUP1 REVERT JUMPDEST POP PUSH3 0x1DF PUSH3 0x8BE JUMP JUMPDEST PUSH1 0x40 MLOAD PUSH3 0x1EE SWAP2 SWAP1 PUSH3 0xE74 JUMP JUMPDEST PUSH1 0x40 MLOAD DUP1 SWAP2 SUB SWAP1 RETURN JUMPDEST PUSH0 PUSH3 0x202 PUSH3 0x8D6 JUMP JUMPDEST SWAP1 POP SWAP1 JUMP JUMPDEST DUP1 SELFBALANCE LT ISZERO PUSH3 0x24D JUMPI PUSH1 0x40 MLOAD PUSH32 0x8C379A000000000000000000000000000000000000000000000000000000000 DUP2 MSTORE PUSH1 0x4 ADD PUSH3 0x244 SWAP1 PUSH3 0xEED JUMP JUMPDEST PUSH1 0x40 MLOAD DUP1 SWAP2 SUB SWAP1 REVERT JUMPDEST PUSH0 DUP3 PUSH20 0xFFFFFFFFFFFFFFFFFFFFFFFFFFFFFFFFFFFFFFFF AND DUP3 PUSH1 0x40 MLOAD PUSH3 0x274 SWAP1 PUSH3 0xF3E JUMP JUMPDEST PUSH0 PUSH1 0x40 MLOAD DUP1 DUP4 SUB DUP2 DUP6 DUP8 GAS CALL SWAP3 POP POP POP RETURNDATASIZE DUP1 PUSH0 DUP2 EQ PUSH3 0x2B0 JUMPI PUSH1 0x40 MLOAD SWAP2 POP PUSH1 0x1F NOT PUSH1 0x3F RETURNDATASIZE ADD AND DUP3 ADD PUSH1 0x40 MSTORE RETURNDATASIZE DUP3 MSTORE RETURNDATASIZE PUSH0 PUSH1 0x20 DUP5 ADD RETURNDATACOPY PUSH3 0x2B5 JUMP JUMPDEST PUSH1 0x60 SWAP2 POP JUMPDEST POP POP SWAP1 POP DUP1 PUSH3 0x2FC JUMPI PUSH1 0x40 MLOAD PUSH32 0x8C379A000000000000000000000000000000000000000000000000000000000 DUP2 MSTORE PUSH1 0x4 ADD PUSH3 0x2F3 SWAP1 PUSH3 0xFC8 JUMP JUMPDEST PUSH1 0x40 MLOAD DUP1 SWAP2 SUB SWAP1 REVERT JUMPDEST POP POP POP JUMP JUMPDEST PUSH1 0x60 PUSH0 DUP1 SLOAD DUP1 PUSH1 0x20 MUL PUSH1 0x20 ADD PUSH1 0x40 MLOAD SWAP1 DUP2 ADD PUSH1 0x40 MSTORE DUP1 SWAP3 SWAP2 SWAP1 DUP2 DUP2 MSTORE PUSH1 0x20 ADD PUSH0 SWAP1 JUMPDEST DUP3 DUP3 LT ISZERO PUSH3 0x3FE JUMPI DUP4 DUP3 SWAP1 PUSH0 MSTORE PUSH1 0x20 PUSH0 KECCAK256 SWAP1 PUSH1 0x2 MUL ADD PUSH1 0x40 MLOAD DUP1 PUSH1 0x40 ADD PUSH1 0x40 MSTORE SWAP1 DUP2 PUSH0 DUP3 ADD PUSH0 SWAP1 SLOAD SWAP1 PUSH2 0x100 EXP SWAP1 DIV PUSH20 0xFFFFFFFFFFFFFFFFFFFFFFFFFFFFFFFFFFFFFFFF AND PUSH20 0xFFFFFFFFFFFFFFFFFFFFFFFFFFFFFFFFFFFFFFFF AND PUSH20 0xFFFFFFFFFFFFFFFFFFFFFFFFFFFFFFFFFFFFFFFF AND DUP2 MSTORE PUSH1 0x20 ADD PUSH1 0x1 DUP3 ADD PUSH0 SWAP1 SLOAD SWAP1 PUSH2 0x100 EXP SWAP1 DIV PUSH20 0xFFFFFFFFFFFFFFFFFFFFFFFFFFFFFFFFFFFFFFFF AND PUSH20 0xFFFFFFFFFFFFFFFFFFFFFFFFFFFFFFFFFFFFFFFF AND PUSH20 0xFFFFFFFFFFFFFFFFFFFFFFFFFFFFFFFFFFFFFFFF AND DUP2 MSTORE POP POP DUP2 MSTORE PUSH1 0x20 ADD SWAP1 PUSH1 0x1 ADD SWAP1 PUSH3 0x323 JUMP JUMPDEST POP POP POP POP SWAP1 POP SWAP1 JUMP JUMPDEST PUSH0 DUP3 PUSH3 0x413 PUSH3 0x1F7 JUMP JUMPDEST PUSH20 0xFFFFFFFFFFFFFFFFFFFFFFFFFFFFFFFFFFFFFFFF AND PUSH4 0x5C60DA1B PUSH1 0x40 MLOAD DUP2 PUSH4 0xFFFFFFFF AND PUSH1 0xE0 SHL DUP2 MSTORE PUSH1 0x4 ADD PUSH1 0x20 PUSH1 0x40 MLOAD DUP1 DUP4 SUB DUP2 DUP7 GAS STATICCALL ISZERO DUP1 ISZERO PUSH3 0x45C JUMPI RETURNDATASIZE PUSH0 DUP1 RETURNDATACOPY RETURNDATASIZE PUSH0 REVERT JUMPDEST POP POP POP POP PUSH1 0x40 MLOAD RETURNDATASIZE PUSH1 0x1F NOT PUSH1 0x1F DUP3 ADD AND DUP3 ADD DUP1 PUSH1 0x40 MSTORE POP DUP2 ADD SWAP1 PUSH3 0x482 SWAP2 SWAP1 PUSH3 0x9E0 JUMP JUMPDEST PUSH20 0xFFFFFFFFFFFFFFFFFFFFFFFFFFFFFFFFFFFFFFFF AND CALLER PUSH20 0xFFFFFFFFFFFFFFFFFFFFFFFFFFFFFFFFFFFFFFFF AND EQ PUSH3 0x4F2 JUMPI PUSH1 0x40 MLOAD PUSH32 0x8C379A000000000000000000000000000000000000000000000000000000000 DUP2 MSTORE PUSH1 0x4 ADD PUSH3 0x4E9 SWAP1 PUSH3 0x1036 JUMP JUMPDEST PUSH1 0x40 MLOAD DUP1 SWAP2 SUB SWAP1 REVERT JUMPDEST PUSH3 0x4FC PUSH3 0x1F7 JUMP JUMPDEST PUSH20 0xFFFFFFFFFFFFFFFFFFFFFFFFFFFFFFFFFFFFFFFF AND PUSH4 0x3F683B6A PUSH1 0x40 MLOAD DUP2 PUSH4 0xFFFFFFFF AND PUSH1 0xE0 SHL DUP2 MSTORE PUSH1 0x4 ADD PUSH1 0x20 PUSH1 0x40 MLOAD DUP1 DUP4 SUB DUP2 DUP7 GAS STATICCALL ISZERO DUP1 ISZERO PUSH3 0x545 JUMPI RETURNDATASIZE PUSH0 DUP1 RETURNDATACOPY RETURNDATASIZE PUSH0 REVERT JUMPDEST POP POP POP POP PUSH1 0x40 MLOAD RETURNDATASIZE PUSH1 0x1F NOT PUSH1 0x1F DUP3 ADD AND DUP3 ADD DUP1 PUSH1 0x40 MSTORE POP DUP2 ADD SWAP1 PUSH3 0x56B SWAP2 SWAP1 PUSH3 0x1085 JUMP JUMPDEST ISZERO PUSH3 0x5AE JUMPI PUSH1 0x40 MLOAD PUSH32 0x8C379A000000000000000000000000000000000000000000000000000000000 DUP2 MSTORE PUSH1 0x4 ADD PUSH3 0x5A5 SWAP1 PUSH3 0x1103 JUMP JUMPDEST PUSH1 0x40 MLOAD DUP1 SWAP2 SUB SWAP1 REVERT JUMPDEST PUSH1 0x1 PUSH0 DUP3 PUSH20 0xFFFFFFFFFFFFFFFFFFFFFFFFFFFFFFFFFFFFFFFF AND PUSH20 0xFFFFFFFFFFFFFFFFFFFFFFFFFFFFFFFFFFFFFFFF AND DUP2 MSTORE PUSH1 0x20 ADD SWAP1 DUP2 MSTORE PUSH1 0x20 ADD PUSH0 KECCAK256 PUSH0 SWAP1 SLOAD SWAP1 PUSH2 0x100 EXP SWAP1 DIV PUSH1 0xFF AND ISZERO PUSH3 0x63B JUMPI PUSH1 0x40 MLOAD PUSH32 0x8C379A000000000000000000000000000000000000000000000000000000000 DUP2 MSTORE PUSH1 0x4 ADD PUSH3 0x632 SWAP1 PUSH3 0x1197 JUMP JUMPDEST PUSH1 0x40 MLOAD DUP1 SWAP2 SUB SWAP1 REVERT JUMPDEST PUSH0 DUP5 DUP8 DUP8 PUSH1 0x40 MLOAD PUSH3 0x64D SWAP1 PUSH3 0x960 JUMP JUMPDEST PUSH3 0x65B SWAP4 SWAP3 SWAP2 SWAP1 PUSH3 0x122B JUMP JUMPDEST PUSH1 0x40 MLOAD DUP1 SWAP2 SUB SWAP1 PUSH0 CREATE DUP1 ISZERO DUP1 ISZERO PUSH3 0x675 JUMPI RETURNDATASIZE PUSH0 DUP1 RETURNDATACOPY RETURNDATASIZE PUSH0 REVERT JUMPDEST POP SWAP1 POP DUP1 PUSH20 0xFFFFFFFFFFFFFFFFFFFFFFFFFFFFFFFFFFFFFFFF AND PUSH4 0xF2FDE38B DUP7 PUSH1 0x40 MLOAD DUP3 PUSH4 0xFFFFFFFF AND PUSH1 0xE0 SHL DUP2 MSTORE PUSH1 0x4 ADD PUSH3 0x6B3 SWAP2 SWAP1 PUSH3 0xD56 JUMP JUMPDEST PUSH0 PUSH1 0x40 MLOAD DUP1 DUP4 SUB DUP2 PUSH0 DUP8 DUP1 EXTCODESIZE ISZERO DUP1 ISZERO PUSH3 0x6CB JUMPI PUSH0 DUP1 REVERT JUMPDEST POP GAS CALL ISZERO DUP1 ISZERO PUSH3 0x6DE JUMPI RETURNDATASIZE PUSH0 DUP1 RETURNDATACOPY RETURNDATASIZE PUSH0 REVERT JUMPDEST POP POP POP POP PUSH0 PUSH1 0x40 MLOAD DUP1 PUSH1 0x40 ADD PUSH1 0x40 MSTORE DUP1 DUP4 PUSH20 0xFFFFFFFFFFFFFFFFFFFFFFFFFFFFFFFFFFFFFFFF AND DUP2 MSTORE PUSH1 0x20 ADD DUP8 PUSH20 0xFFFFFFFFFFFFFFFFFFFFFFFFFFFFFFFFFFFFFFFF AND DUP2 MSTORE POP SWAP1 POP PUSH1 0x1 DUP1 PUSH0 DUP9 PUSH20 0xFFFFFFFFFFFFFFFFFFFFFFFFFFFFFFFFFFFFFFFF AND PUSH20 0xFFFFFFFFFFFFFFFFFFFFFFFFFFFFFFFFFFFFFFFF AND DUP2 MSTORE PUSH1 0x20 ADD SWAP1 DUP2 MSTORE PUSH1 0x20 ADD PUSH0 KECCAK256 PUSH0 PUSH2 0x100 EXP DUP2 SLOAD DUP2 PUSH1 0xFF MUL NOT AND SWAP1 DUP4 ISZERO ISZERO MUL OR SWAP1 SSTORE POP PUSH0 DUP2 SWAP1 DUP1 PUSH1 0x1 DUP2 SLOAD ADD DUP1 DUP3 SSTORE DUP1 SWAP2 POP POP PUSH1 0x1 SWAP1 SUB SWAP1 PUSH0 MSTORE PUSH1 0x20 PUSH0 KECCAK256 SWAP1 PUSH1 0x2 MUL ADD PUSH0 SWAP1 SWAP2 SWAP1 SWAP2 SWAP1 SWAP2 POP PUSH0 DUP3 ADD MLOAD DUP2 PUSH0 ADD PUSH0 PUSH2 0x100 EXP DUP2 SLOAD DUP2 PUSH20 0xFFFFFFFFFFFFFFFFFFFFFFFFFFFFFFFFFFFFFFFF MUL NOT AND SWAP1 DUP4 PUSH20 0xFFFFFFFFFFFFFFFFFFFFFFFFFFFFFFFFFFFFFFFF AND MUL OR SWAP1 SSTORE POP PUSH1 0x20 DUP3 ADD MLOAD DUP2 PUSH1 0x1 ADD PUSH0 PUSH2 0x100 EXP DUP2 SLOAD DUP2 PUSH20 0xFFFFFFFFFFFFFFFFFFFFFFFFFFFFFFFFFFFFFFFF MUL NOT AND SWAP1 DUP4 PUSH20 0xFFFFFFFFFFFFFFFFFFFFFFFFFFFFFFFFFFFFFFFF AND MUL OR SWAP1 SSTORE POP POP POP CALLER PUSH20 0xFFFFFFFFFFFFFFFFFFFFFFFFFFFFFFFFFFFFFFFF AND DUP3 PUSH20 0xFFFFFFFFFFFFFFFFFFFFFFFFFFFFFFFFFFFFFFFF AND PUSH32 0xF708942EC477396A151A5285651961DCAB8E8A82EA4F5B31A5236F92F6C92710 PUSH1 0x40 MLOAD PUSH1 0x40 MLOAD DUP1 SWAP2 SUB SWAP1 LOG3 DUP2 SWAP4 POP POP POP POP SWAP5 SWAP4 POP POP POP POP JUMP JUMPDEST PUSH0 DUP1 DUP1 SLOAD SWAP1 POP SWAP1 POP SWAP1 JUMP JUMPDEST PUSH1 0x1 PUSH1 0x20 MSTORE DUP1 PUSH0 MSTORE PUSH1 0x40 PUSH0 KECCAK256 PUSH0 SWAP2 POP SLOAD SWAP1 PUSH2 0x100 EXP SWAP1 DIV PUSH1 0xFF AND DUP2 JUMP JUMPDEST PUSH20 0x47E0CDCB3C7705EF6FA57B69539D58AB5570799F DUP2 JUMP JUMPDEST PUSH0 PUSH20 0x47E0CDCB3C7705EF6FA57B69539D58AB5570799F PUSH20 0xFFFFFFFFFFFFFFFFFFFFFFFFFFFFFFFFFFFFFFFF AND PUSH4 0x43A73D9A PUSH1 0x40 MLOAD DUP2 PUSH4 0xFFFFFFFF AND PUSH1 0xE0 SHL DUP2 MSTORE PUSH1 0x4 ADD PUSH1 0x20 PUSH1 0x40 MLOAD DUP1 DUP4 SUB DUP2 DUP7 GAS STATICCALL ISZERO DUP1 ISZERO PUSH3 0x935 JUMPI RETURNDATASIZE PUSH0 DUP1 RETURNDATACOPY RETURNDATASIZE PUSH0 REVERT JUMPDEST POP POP POP POP PUSH1 0x40 MLOAD RETURNDATASIZE PUSH1 0x1F NOT PUSH1 0x1F DUP3 ADD AND DUP3 ADD DUP1 PUSH1 0x40 MSTORE POP DUP2 ADD SWAP1 PUSH3 0x95B SWAP2 SWAP1 PUSH3 0x9E0 JUMP JUMPDEST SWAP1 POP SWAP1 JUMP JUMPDEST PUSH2 0x920A DUP1 PUSH3 0x1275 DUP4 CODECOPY ADD SWAP1 JUMP JUMPDEST PUSH0 PUSH1 0x40 MLOAD SWAP1 POP SWAP1 JUMP JUMPDEST PUSH0 DUP1 REVERT JUMPDEST PUSH0 DUP1 REVERT JUMPDEST PUSH0 PUSH20 0xFFFFFFFFFFFFFFFFFFFFFFFFFFFFFFFFFFFFFFFF DUP3 AND SWAP1 POP SWAP2 SWAP1 POP JUMP JUMPDEST PUSH0 PUSH3 0x9AA DUP3 PUSH3 0x97F JUMP JUMPDEST SWAP1 POP SWAP2 SWAP1 POP JUMP JUMPDEST PUSH3 0x9BC DUP2 PUSH3 0x99E JUMP JUMPDEST DUP2 EQ PUSH3 0x9C7 JUMPI PUSH0 DUP1 REVERT JUMPDEST POP JUMP JUMPDEST PUSH0 DUP2 MLOAD SWAP1 POP PUSH3 0x9DA DUP2 PUSH3 0x9B1 JUMP JUMPDEST SWAP3 SWAP2 POP POP JUMP JUMPDEST PUSH0 PUSH1 0x20 DUP3 DUP5 SUB SLT ISZERO PUSH3 0x9F8 JUMPI PUSH3 0x9F7 PUSH3 0x977 JUMP JUMPDEST JUMPDEST PUSH0 PUSH3 0xA07 DUP5 DUP3 DUP6 ADD PUSH3 0x9CA JUMP JUMPDEST SWAP2 POP POP SWAP3 SWAP2 POP POP JUMP JUMPDEST PUSH0 DUP2 MLOAD SWAP1 POP SWAP2 SWAP1 POP JUMP JUMPDEST PUSH0 DUP3 DUP3 MSTORE PUSH1 0x20 DUP3 ADD SWAP1 POP SWAP3 SWAP2 POP POP JUMP JUMPDEST PUSH0 DUP2 SWAP1 POP PUSH1 0x20 DUP3 ADD SWAP1 POP SWAP2 SWAP1 POP JUMP JUMPDEST PUSH3 0xA44 DUP2 PUSH3 0x99E JUMP JUMPDEST DUP3 MSTORE POP POP JUMP JUMPDEST PUSH1 0x40 DUP3 ADD PUSH0 DUP3 ADD MLOAD PUSH3 0xA60 PUSH0 DUP6 ADD DUP3 PUSH3 0xA39 JUMP JUMPDEST POP PUSH1 0x20 DUP3 ADD MLOAD PUSH3 0xA75 PUSH1 0x20 DUP6 ADD DUP3 PUSH3 0xA39 JUMP JUMPDEST POP POP POP POP JUMP JUMPDEST PUSH0 PUSH3 0xA88 DUP4 DUP4 PUSH3 0xA4A JUMP JUMPDEST PUSH1 0x40 DUP4 ADD SWAP1 POP SWAP3 SWAP2 POP POP JUMP JUMPDEST PUSH0 PUSH1 0x20 DUP3 ADD SWAP1 POP SWAP2 SWAP1 POP JUMP JUMPDEST PUSH0 PUSH3 0xAAC DUP3 PUSH3 0xA10 JUMP JUMPDEST PUSH3 0xAB8 DUP2 DUP6 PUSH3 0xA1A JUMP JUMPDEST SWAP4 POP PUSH3 0xAC5 DUP4 PUSH3 0xA2A JUMP JUMPDEST DUP1 PUSH0 JUMPDEST DUP4 DUP2 LT ISZERO PUSH3 0xAFB JUMPI DUP2 MLOAD PUSH3 0xADF DUP9 DUP3 PUSH3 0xA7B JUMP JUMPDEST SWAP8 POP PUSH3 0xAEC DUP4 PUSH3 0xA94 JUMP JUMPDEST SWAP3 POP POP PUSH1 0x1 DUP2 ADD SWAP1 POP PUSH3 0xAC8 JUMP JUMPDEST POP DUP6 SWAP4 POP POP POP POP SWAP3 SWAP2 POP POP JUMP JUMPDEST PUSH0 PUSH1 0x20 DUP3 ADD SWAP1 POP DUP2 DUP2 SUB PUSH0 DUP4 ADD MSTORE PUSH3 0xB22 DUP2 DUP5 PUSH3 0xAA0 JUMP JUMPDEST SWAP1 POP SWAP3 SWAP2 POP POP JUMP JUMPDEST PUSH0 DUP1 REVERT JUMPDEST PUSH0 DUP1 REVERT JUMPDEST PUSH0 PUSH1 0x1F NOT PUSH1 0x1F DUP4 ADD AND SWAP1 POP SWAP2 SWAP1 POP JUMP JUMPDEST PUSH32 0x4E487B7100000000000000000000000000000000000000000000000000000000 PUSH0 MSTORE PUSH1 0x41 PUSH1 0x4 MSTORE PUSH1 0x24 PUSH0 REVERT JUMPDEST PUSH3 0xB7A DUP3 PUSH3 0xB32 JUMP JUMPDEST DUP2 ADD DUP2 DUP2 LT PUSH8 0xFFFFFFFFFFFFFFFF DUP3 GT OR ISZERO PUSH3 0xB9C JUMPI PUSH3 0xB9B PUSH3 0xB42 JUMP JUMPDEST JUMPDEST DUP1 PUSH1 0x40 MSTORE POP POP POP JUMP JUMPDEST PUSH0 PUSH3 0xBB0 PUSH3 0x96E JUMP JUMPDEST SWAP1 POP PUSH3 0xBBE DUP3 DUP3 PUSH3 0xB6F JUMP JUMPDEST SWAP2 SWAP1 POP JUMP JUMPDEST PUSH0 PUSH8 0xFFFFFFFFFFFFFFFF DUP3 GT ISZERO PUSH3 0xBE0 JUMPI PUSH3 0xBDF PUSH3 0xB42 JUMP JUMPDEST JUMPDEST PUSH3 0xBEB DUP3 PUSH3 0xB32 JUMP JUMPDEST SWAP1 POP PUSH1 0x20 DUP2 ADD SWAP1 POP SWAP2 SWAP1 POP JUMP JUMPDEST DUP3 DUP2 DUP4 CALLDATACOPY PUSH0 DUP4 DUP4 ADD MSTORE POP POP POP JUMP JUMPDEST PUSH0 PUSH3 0xC1C PUSH3 0xC16 DUP5 PUSH3 0xBC3 JUMP JUMPDEST PUSH3 0xBA5 JUMP JUMPDEST SWAP1 POP DUP3 DUP2 MSTORE PUSH1 0x20 DUP2 ADD DUP5 DUP5 DUP5 ADD GT ISZERO PUSH3 0xC3B JUMPI PUSH3 0xC3A PUSH3 0xB2E JUMP JUMPDEST JUMPDEST PUSH3 0xC48 DUP5 DUP3 DUP6 PUSH3 0xBF8 JUMP JUMPDEST POP SWAP4 SWAP3 POP POP POP JUMP JUMPDEST PUSH0 DUP3 PUSH1 0x1F DUP4 ADD SLT PUSH3 0xC67 JUMPI PUSH3 0xC66 PUSH3 0xB2A JUMP JUMPDEST JUMPDEST DUP2 CALLDATALOAD PUSH3 0xC79 DUP5 DUP3 PUSH1 0x20 DUP7 ADD PUSH3 0xC06 JUMP JUMPDEST SWAP2 POP POP SWAP3 SWAP2 POP POP JUMP JUMPDEST PUSH0 DUP2 CALLDATALOAD SWAP1 POP PUSH3 0xC92 DUP2 PUSH3 0x9B1 JUMP JUMPDEST SWAP3 SWAP2 POP POP JUMP JUMPDEST PUSH0 DUP1 PUSH0 DUP1 PUSH1 0x80 DUP6 DUP8 SUB SLT ISZERO PUSH3 0xCB3 JUMPI PUSH3 0xCB2 PUSH3 0x977 JUMP JUMPDEST JUMPDEST PUSH0 DUP6 ADD CALLDATALOAD PUSH8 0xFFFFFFFFFFFFFFFF DUP2 GT ISZERO PUSH3 0xCD3 JUMPI PUSH3 0xCD2 PUSH3 0x97B JUMP JUMPDEST JUMPDEST PUSH3 0xCE1 DUP8 DUP3 DUP9 ADD PUSH3 0xC50 JUMP JUMPDEST SWAP5 POP POP PUSH1 0x20 DUP6 ADD CALLDATALOAD PUSH8 0xFFFFFFFFFFFFFFFF DUP2 GT ISZERO PUSH3 0xD05 JUMPI PUSH3 0xD04 PUSH3 0x97B JUMP JUMPDEST JUMPDEST PUSH3 0xD13 DUP8 DUP3 DUP9 ADD PUSH3 0xC50 JUMP JUMPDEST SWAP4 POP POP PUSH1 0x40 PUSH3 0xD26 DUP8 DUP3 DUP9 ADD PUSH3 0xC82 JUMP JUMPDEST SWAP3 POP POP PUSH1 0x60 PUSH3 0xD39 DUP8 DUP3 DUP9 ADD PUSH3 0xC82 JUMP JUMPDEST SWAP2 POP POP SWAP3 SWAP6 SWAP2 SWAP5 POP SWAP3 POP JUMP JUMPDEST PUSH3 0xD50 DUP2 PUSH3 0x99E JUMP JUMPDEST DUP3 MSTORE POP POP JUMP JUMPDEST PUSH0 PUSH1 0x20 DUP3 ADD SWAP1 POP PUSH3 0xD6B PUSH0 DUP4 ADD DUP5 PUSH3 0xD45 JUMP JUMPDEST SWAP3 SWAP2 POP POP JUMP JUMPDEST PUSH0 DUP2 SWAP1 POP SWAP2 SWAP1 POP JUMP JUMPDEST PUSH3 0xD85 DUP2 PUSH3 0xD71 JUMP JUMPDEST DUP3 MSTORE POP POP JUMP JUMPDEST PUSH0 PUSH1 0x20 DUP3 ADD SWAP1 POP PUSH3 0xDA0 PUSH0 DUP4 ADD DUP5 PUSH3 0xD7A JUMP JUMPDEST SWAP3 SWAP2 POP POP JUMP JUMPDEST PUSH0 PUSH1 0x20 DUP3 DUP5 SUB SLT ISZERO PUSH3 0xDBE JUMPI PUSH3 0xDBD PUSH3 0x977 JUMP JUMPDEST JUMPDEST PUSH0 PUSH3 0xDCD DUP5 DUP3 DUP6 ADD PUSH3 0xC82 JUMP JUMPDEST SWAP2 POP POP SWAP3 SWAP2 POP POP JUMP JUMPDEST PUSH0 DUP2 ISZERO ISZERO SWAP1 POP SWAP2 SWAP1 POP JUMP JUMPDEST PUSH3 0xDEC DUP2 PUSH3 0xDD6 JUMP JUMPDEST DUP3 MSTORE POP POP JUMP JUMPDEST PUSH0 PUSH1 0x20 DUP3 ADD SWAP1 POP PUSH3 0xE07 PUSH0 DUP4 ADD DUP5 PUSH3 0xDE1 JUMP JUMPDEST SWAP3 SWAP2 POP POP JUMP JUMPDEST PUSH0 DUP2 SWAP1 POP SWAP2 SWAP1 POP JUMP JUMPDEST PUSH0 PUSH3 0xE36 PUSH3 0xE30 PUSH3 0xE2A DUP5 PUSH3 0x97F JUMP JUMPDEST PUSH3 0xE0D JUMP JUMPDEST PUSH3 0x97F JUMP JUMPDEST SWAP1 POP SWAP2 SWAP1 POP JUMP JUMPDEST PUSH0 PUSH3 0xE49 DUP3 PUSH3 0xE16 JUMP JUMPDEST SWAP1 POP SWAP2 SWAP1 POP JUMP JUMPDEST PUSH0 PUSH3 0xE5C DUP3 PUSH3 0xE3D JUMP JUMPDEST SWAP1 POP SWAP2 SWAP1 POP JUMP JUMPDEST PUSH3 0xE6E DUP2 PUSH3 0xE50 JUMP JUMPDEST DUP3 MSTORE POP POP JUMP JUMPDEST PUSH0 PUSH1 0x20 DUP3 ADD SWAP1 POP PUSH3 0xE89 PUSH0 DUP4 ADD DUP5 PUSH3 0xE63 JUMP JUMPDEST SWAP3 SWAP2 POP POP JUMP JUMPDEST PUSH0 DUP3 DUP3 MSTORE PUSH1 0x20 DUP3 ADD SWAP1 POP SWAP3 SWAP2 POP POP JUMP JUMPDEST PUSH32 0x416464726573733A20696E73756666696369656E742062616C616E6365000000 PUSH0 DUP3 ADD MSTORE POP JUMP JUMPDEST PUSH0 PUSH3 0xED5 PUSH1 0x1D DUP4 PUSH3 0xE8F JUMP JUMPDEST SWAP2 POP PUSH3 0xEE2 DUP3 PUSH3 0xE9F JUMP JUMPDEST PUSH1 0x20 DUP3 ADD SWAP1 POP SWAP2 SWAP1 POP JUMP JUMPDEST PUSH0 PUSH1 0x20 DUP3 ADD SWAP1 POP DUP2 DUP2 SUB PUSH0 DUP4 ADD MSTORE PUSH3 0xF06 DUP2 PUSH3 0xEC7 JUMP JUMPDEST SWAP1 POP SWAP2 SWAP1 POP JUMP JUMPDEST PUSH0 DUP2 SWAP1 POP SWAP3 SWAP2 POP POP JUMP JUMPDEST POP JUMP JUMPDEST PUSH0 PUSH3 0xF27 PUSH0 DUP4 PUSH3 0xF0D JUMP JUMPDEST SWAP2 POP PUSH3 0xF34 DUP3 PUSH3 0xF17 JUMP JUMPDEST PUSH0 DUP3 ADD SWAP1 POP SWAP2 SWAP1 POP JUMP JUMPDEST PUSH0 PUSH3 0xF4A DUP3 PUSH3 0xF1A JUMP JUMPDEST SWAP2 POP DUP2 SWAP1 POP SWAP2 SWAP1 POP JUMP JUMPDEST PUSH32 0x416464726573733A20756E61626C6520746F2073656E642076616C75652C2072 PUSH0 DUP3 ADD MSTORE PUSH32 0x6563697069656E74206D61792068617665207265766572746564000000000000 PUSH1 0x20 DUP3 ADD MSTORE POP JUMP JUMPDEST PUSH0 PUSH3 0xFB0 PUSH1 0x3A DUP4 PUSH3 0xE8F JUMP JUMPDEST SWAP2 POP PUSH3 0xFBD DUP3 PUSH3 0xF54 JUMP JUMPDEST PUSH1 0x40 DUP3 ADD SWAP1 POP SWAP2 SWAP1 POP JUMP JUMPDEST PUSH0 PUSH1 0x20 DUP3 ADD SWAP1 POP DUP2 DUP2 SUB PUSH0 DUP4 ADD MSTORE PUSH3 0xFE1 DUP2 PUSH3 0xFA2 JUMP JUMPDEST SWAP1 POP SWAP2 SWAP1 POP JUMP JUMPDEST PUSH32 0x43616C6C6572206973206E6F742074686520696D706C656D656E746174696F6E PUSH0 DUP3 ADD MSTORE POP JUMP JUMPDEST PUSH0 PUSH3 0x101E PUSH1 0x20 DUP4 PUSH3 0xE8F JUMP JUMPDEST SWAP2 POP PUSH3 0x102B DUP3 PUSH3 0xFE8 JUMP JUMPDEST PUSH1 0x20 DUP3 ADD SWAP1 POP SWAP2 SWAP1 POP JUMP JUMPDEST PUSH0 PUSH1 0x20 DUP3 ADD SWAP1 POP DUP2 DUP2 SUB PUSH0 DUP4 ADD MSTORE PUSH3 0x104F DUP2 PUSH3 0x1010 JUMP JUMPDEST SWAP1 POP SWAP2 SWAP1 POP JUMP JUMPDEST PUSH3 0x1061 DUP2 PUSH3 0xDD6 JUMP JUMPDEST DUP2 EQ PUSH3 0x106C JUMPI PUSH0 DUP1 REVERT JUMPDEST POP JUMP JUMPDEST PUSH0 DUP2 MLOAD SWAP1 POP PUSH3 0x107F DUP2 PUSH3 0x1056 JUMP JUMPDEST SWAP3 SWAP2 POP POP JUMP JUMPDEST PUSH0 PUSH1 0x20 DUP3 DUP5 SUB SLT ISZERO PUSH3 0x109D JUMPI PUSH3 0x109C PUSH3 0x977 JUMP JUMPDEST JUMPDEST PUSH0 PUSH3 0x10AC DUP5 DUP3 DUP6 ADD PUSH3 0x106F JUMP JUMPDEST SWAP2 POP POP SWAP3 SWAP2 POP POP JUMP JUMPDEST PUSH32 0x4465706C6F79696E672069732073746F70706564000000000000000000000000 PUSH0 DUP3 ADD MSTORE POP JUMP JUMPDEST PUSH0 PUSH3 0x10EB PUSH1 0x14 DUP4 PUSH3 0xE8F JUMP JUMPDEST SWAP2 POP PUSH3 0x10F8 DUP3 PUSH3 0x10B5 JUMP JUMPDEST PUSH1 0x20 DUP3 ADD SWAP1 POP SWAP2 SWAP1 POP JUMP JUMPDEST PUSH0 PUSH1 0x20 DUP3 ADD SWAP1 POP DUP2 DUP2 SUB PUSH0 DUP4 ADD MSTORE PUSH3 0x111C DUP2 PUSH3 0x10DD JUMP JUMPDEST SWAP1 POP SWAP2 SWAP1 POP JUMP JUMPDEST PUSH32 0x5468697320616464726573732068617320616C7265616479206465706C6F7965 PUSH0 DUP3 ADD MSTORE PUSH32 0x642074686973206D6F64756C6500000000000000000000000000000000000000 PUSH1 0x20 DUP3 ADD MSTORE POP JUMP JUMPDEST PUSH0 PUSH3 0x117F PUSH1 0x2D DUP4 PUSH3 0xE8F JUMP JUMPDEST SWAP2 POP PUSH3 0x118C DUP3 PUSH3 0x1123 JUMP JUMPDEST PUSH1 0x40 DUP3 ADD SWAP1 POP SWAP2 SWAP1 POP JUMP JUMPDEST PUSH0 PUSH1 0x20 DUP3 ADD SWAP1 POP DUP2 DUP2 SUB PUSH0 DUP4 ADD MSTORE PUSH3 0x11B0 DUP2 PUSH3 0x1171 JUMP JUMPDEST SWAP1 POP SWAP2 SWAP1 POP JUMP JUMPDEST PUSH0 DUP2 MLOAD SWAP1 POP SWAP2 SWAP1 POP JUMP JUMPDEST PUSH0 JUMPDEST DUP4 DUP2 LT ISZERO PUSH3 0x11E0 JUMPI DUP1 DUP3 ADD MLOAD DUP2 DUP5 ADD MSTORE PUSH1 0x20 DUP2 ADD SWAP1 POP PUSH3 0x11C3 JUMP JUMPDEST PUSH0 DUP5 DUP5 ADD MSTORE POP POP POP POP JUMP JUMPDEST PUSH0 PUSH3 0x11F7 DUP3 PUSH3 0x11B7 JUMP JUMPDEST PUSH3 0x1203 DUP2 DUP6 PUSH3 0xE8F JUMP JUMPDEST SWAP4 POP PUSH3 0x1215 DUP2 DUP6 PUSH1 0x20 DUP7 ADD PUSH3 0x11C1 JUMP JUMPDEST PUSH3 0x1220 DUP2 PUSH3 0xB32 JUMP JUMPDEST DUP5 ADD SWAP2 POP POP SWAP3 SWAP2 POP POP JUMP JUMPDEST PUSH0 PUSH1 0x60 DUP3 ADD SWAP1 POP PUSH3 0x1240 PUSH0 DUP4 ADD DUP7 PUSH3 0xD45 JUMP JUMPDEST DUP2 DUP2 SUB PUSH1 0x20 DUP4 ADD MSTORE PUSH3 0x1254 DUP2 DUP6 PUSH3 0x11EB JUMP JUMPDEST SWAP1 POP DUP2 DUP2 SUB PUSH1 0x40 DUP4 ADD MSTORE PUSH3 0x126A DUP2 DUP5 PUSH3 0x11EB JUMP JUMPDEST SWAP1 POP SWAP5 SWAP4 POP POP POP POP JUMP INVALID PUSH1 0x80 PUSH1 0x40 MSTORE CALLVALUE DUP1 ISZERO PUSH3 0x10 JUMPI PUSH0 DUP1 REVERT JUMPDEST POP PUSH1 0x40 MLOAD PUSH3 0x920A CODESIZE SUB DUP1 PUSH3 0x920A DUP4 CODECOPY DUP2 DUP2 ADD PUSH1 0x40 MSTORE DUP2 ADD SWAP1 PUSH3 0x36 SWAP2 SWAP1 PUSH3 0xDDC JUMP JUMPDEST DUP2 DUP2 DUP2 PUSH0 SWAP1 DUP2 PUSH3 0x48 SWAP2 SWAP1 PUSH3 0x10AA JUMP JUMPDEST POP DUP1 PUSH1 0x1 SWAP1 DUP2 PUSH3 0x5A SWAP2 SWAP1 PUSH3 0x10AA JUMP JUMPDEST POP POP POP PUSH3 0x7D PUSH3 0x71 PUSH3 0x1F5 PUSH1 0x20 SHL PUSH1 0x20 SHR JUMP JUMPDEST PUSH3 0x1FC PUSH1 0x20 SHL PUSH1 0x20 SHR JUMP JUMPDEST PUSH20 0x1820A4B7618BDE71DCE8CDC73AAB6C95905FAD24 PUSH20 0xFFFFFFFFFFFFFFFFFFFFFFFFFFFFFFFFFFFFFFFF AND PUSH4 0x29965A1D ADDRESS PUSH32 0x269C8DF59F41A76535D4F0BFBF61A8B3E5D0D17E77987DF2525B98033693FB6C ADDRESS PUSH1 0x40 MLOAD DUP5 PUSH4 0xFFFFFFFF AND PUSH1 0xE0 SHL DUP2 MSTORE PUSH1 0x4 ADD PUSH3 0xF0 SWAP4 SWAP3 SWAP2 SWAP1 PUSH3 0x11B9 JUMP JUMPDEST PUSH0 PUSH1 0x40 MLOAD DUP1 DUP4 SUB DUP2 PUSH0 DUP8 DUP1 EXTCODESIZE ISZERO DUP1 ISZERO PUSH3 0x108 JUMPI PUSH0 DUP1 REVERT JUMPDEST POP GAS CALL ISZERO DUP1 ISZERO PUSH3 0x11B JUMPI RETURNDATASIZE PUSH0 DUP1 RETURNDATACOPY RETURNDATASIZE PUSH0 REVERT JUMPDEST POP POP POP POP PUSH3 0x14A DUP4 PUSH1 0x40 MLOAD DUP1 PUSH1 0x80 ADD PUSH1 0x40 MSTORE DUP1 PUSH1 0x42 DUP2 MSTORE PUSH1 0x20 ADD PUSH3 0x91C8 PUSH1 0x42 SWAP2 CODECOPY PUSH3 0x2BF PUSH1 0x20 SHL PUSH1 0x20 SHR JUMP JUMPDEST PUSH20 0x1820A4B7618BDE71DCE8CDC73AAB6C95905FAD24 PUSH20 0xFFFFFFFFFFFFFFFFFFFFFFFFFFFFFFFFFFFFFFFF AND PUSH4 0x29965A1D ADDRESS PUSH32 0x5774290EBD100ECCC4AF649E952A7CFE27720495C71895DDC04F6ABF0B497392 ADDRESS PUSH1 0x40 MLOAD DUP5 PUSH4 0xFFFFFFFF AND PUSH1 0xE0 SHL DUP2 MSTORE PUSH1 0x4 ADD PUSH3 0x1BD SWAP4 SWAP3 SWAP2 SWAP1 PUSH3 0x11B9 JUMP JUMPDEST PUSH0 PUSH1 0x40 MLOAD DUP1 DUP4 SUB DUP2 PUSH0 DUP8 DUP1 EXTCODESIZE ISZERO DUP1 ISZERO PUSH3 0x1D5 JUMPI PUSH0 DUP1 REVERT JUMPDEST POP GAS CALL ISZERO DUP1 ISZERO PUSH3 0x1E8 JUMPI RETURNDATASIZE PUSH0 DUP1 RETURNDATACOPY RETURNDATASIZE PUSH0 REVERT JUMPDEST POP POP POP POP POP POP POP PUSH3 0x1589 JUMP JUMPDEST PUSH0 CALLER SWAP1 POP SWAP1 JUMP JUMPDEST PUSH0 PUSH1 0xB PUSH0 SWAP1 SLOAD SWAP1 PUSH2 0x100 EXP SWAP1 DIV PUSH20 0xFFFFFFFFFFFFFFFFFFFFFFFFFFFFFFFFFFFFFFFF AND SWAP1 POP DUP2 PUSH1 0xB PUSH0 PUSH2 0x100 EXP DUP2 SLOAD DUP2 PUSH20 0xFFFFFFFFFFFFFFFFFFFFFFFFFFFFFFFFFFFFFFFF MUL NOT AND SWAP1 DUP4 PUSH20 0xFFFFFFFFFFFFFFFFFFFFFFFFFFFFFFFFFFFFFFFF AND MUL OR SWAP1 SSTORE POP DUP2 PUSH20 0xFFFFFFFFFFFFFFFFFFFFFFFFFFFFFFFFFFFFFFFF AND DUP2 PUSH20 0xFFFFFFFFFFFFFFFFFFFFFFFFFFFFFFFFFFFFFFFF AND PUSH32 0x8BE0079C531659141344CD1FD0A4F28419497F9722A3DAAFE3B4186F6B6457E0 PUSH1 0x40 MLOAD PUSH1 0x40 MLOAD DUP1 SWAP2 SUB SWAP1 LOG3 POP POP JUMP JUMPDEST PUSH0 PUSH3 0x2D2 PUSH1 0x12 PUSH3 0x30F PUSH1 0x20 SHL PUSH1 0x20 SHR JUMP JUMPDEST SWAP1 POP PUSH3 0x2E6 PUSH1 0x12 PUSH3 0x31B PUSH1 0x20 SHL PUSH1 0x20 SHR JUMP JUMPDEST PUSH3 0x2F8 DUP4 DUP3 PUSH3 0x32F PUSH1 0x20 SHL PUSH1 0x20 SHR JUMP JUMPDEST PUSH3 0x30A DUP2 DUP4 PUSH3 0x56B PUSH1 0x20 SHL PUSH1 0x20 SHR JUMP JUMPDEST POP POP POP JUMP JUMPDEST PUSH0 DUP2 PUSH0 ADD SLOAD SWAP1 POP SWAP2 SWAP1 POP JUMP JUMPDEST PUSH1 0x1 DUP2 PUSH0 ADD PUSH0 DUP3 DUP3 SLOAD ADD SWAP3 POP POP DUP2 SWAP1 SSTORE POP POP JUMP JUMPDEST PUSH0 PUSH20 0xFFFFFFFFFFFFFFFFFFFFFFFFFFFFFFFFFFFFFFFF AND DUP3 PUSH20 0xFFFFFFFFFFFFFFFFFFFFFFFFFFFFFFFFFFFFFFFF AND SUB PUSH3 0x3A0 JUMPI PUSH1 0x40 MLOAD PUSH32 0x8C379A000000000000000000000000000000000000000000000000000000000 DUP2 MSTORE PUSH1 0x4 ADD PUSH3 0x397 SWAP1 PUSH3 0x1252 JUMP JUMPDEST PUSH1 0x40 MLOAD DUP1 SWAP2 SUB SWAP1 REVERT JUMPDEST PUSH3 0x3B1 DUP2 PUSH3 0x61C PUSH1 0x20 SHL PUSH1 0x20 SHR JUMP JUMPDEST ISZERO PUSH3 0x3F4 JUMPI PUSH1 0x40 MLOAD PUSH32 0x8C379A000000000000000000000000000000000000000000000000000000000 DUP2 MSTORE PUSH1 0x4 ADD PUSH3 0x3EB SWAP1 PUSH3 0x12C0 JUMP JUMPDEST PUSH1 0x40 MLOAD DUP1 SWAP2 SUB SWAP1 REVERT JUMPDEST PUSH3 0x409 PUSH0 DUP4 DUP4 PUSH1 0x1 PUSH3 0x664 PUSH1 0x20 SHL PUSH1 0x20 SHR JUMP JUMPDEST PUSH3 0x41A DUP2 PUSH3 0x61C PUSH1 0x20 SHL PUSH1 0x20 SHR JUMP JUMPDEST ISZERO PUSH3 0x45D JUMPI PUSH1 0x40 MLOAD PUSH32 0x8C379A000000000000000000000000000000000000000000000000000000000 DUP2 MSTORE PUSH1 0x4 ADD PUSH3 0x454 SWAP1 PUSH3 0x12C0 JUMP JUMPDEST PUSH1 0x40 MLOAD DUP1 SWAP2 SUB SWAP1 REVERT JUMPDEST PUSH1 0x1 PUSH1 0x3 PUSH0 DUP5 PUSH20 0xFFFFFFFFFFFFFFFFFFFFFFFFFFFFFFFFFFFFFFFF AND PUSH20 0xFFFFFFFFFFFFFFFFFFFFFFFFFFFFFFFFFFFFFFFF AND DUP2 MSTORE PUSH1 0x20 ADD SWAP1 DUP2 MSTORE PUSH1 0x20 ADD PUSH0 KECCAK256 PUSH0 DUP3 DUP3 SLOAD ADD SWAP3 POP POP DUP2 SWAP1 SSTORE POP DUP2 PUSH1 0x2 PUSH0 DUP4 DUP2 MSTORE PUSH1 0x20 ADD SWAP1 DUP2 MSTORE PUSH1 0x20 ADD PUSH0 KECCAK256 PUSH0 PUSH2 0x100 EXP DUP2 SLOAD DUP2 PUSH20 0xFFFFFFFFFFFFFFFFFFFFFFFFFFFFFFFFFFFFFFFF MUL NOT AND SWAP1 DUP4 PUSH20 0xFFFFFFFFFFFFFFFFFFFFFFFFFFFFFFFFFFFFFFFF AND MUL OR SWAP1 SSTORE POP DUP1 DUP3 PUSH20 0xFFFFFFFFFFFFFFFFFFFFFFFFFFFFFFFFFFFFFFFF AND PUSH0 PUSH20 0xFFFFFFFFFFFFFFFFFFFFFFFFFFFFFFFFFFFFFFFF AND PUSH32 0xDDF252AD1BE2C89B69C2B068FC378DAA952BA7F163C4A11628F55A4DF523B3EF PUSH1 0x40 MLOAD PUSH1 0x40 MLOAD DUP1 SWAP2 SUB SWAP1 LOG4 PUSH3 0x567 PUSH0 DUP4 DUP4 PUSH1 0x1 PUSH3 0x67E PUSH1 0x20 SHL PUSH1 0x20 SHR JUMP JUMPDEST POP POP JUMP JUMPDEST PUSH3 0x57C DUP3 PUSH3 0x61C PUSH1 0x20 SHL PUSH1 0x20 SHR JUMP JUMPDEST PUSH3 0x5BE JUMPI PUSH1 0x40 MLOAD PUSH32 0x8C379A000000000000000000000000000000000000000000000000000000000 DUP2 MSTORE PUSH1 0x4 ADD PUSH3 0x5B5 SWAP1 PUSH3 0x1354 JUMP JUMPDEST PUSH1 0x40 MLOAD DUP1 SWAP2 SUB SWAP1 REVERT JUMPDEST DUP1 PUSH1 0xA PUSH0 DUP5 DUP2 MSTORE PUSH1 0x20 ADD SWAP1 DUP2 MSTORE PUSH1 0x20 ADD PUSH0 KECCAK256 SWAP1 DUP2 PUSH3 0x5DE SWAP2 SWAP1 PUSH3 0x10AA JUMP JUMPDEST POP PUSH32 0xF8E1A15ABA9398E019F0B49DF1A4FDE98EE17AE345CB5F6B5E2C27F5033E8CE7 DUP3 PUSH1 0x40 MLOAD PUSH3 0x610 SWAP2 SWAP1 PUSH3 0x1385 JUMP JUMPDEST PUSH1 0x40 MLOAD DUP1 SWAP2 SUB SWAP1 LOG1 POP POP JUMP JUMPDEST PUSH0 DUP1 PUSH20 0xFFFFFFFFFFFFFFFFFFFFFFFFFFFFFFFFFFFFFFFF AND PUSH3 0x645 DUP4 PUSH3 0x684 PUSH1 0x20 SHL PUSH1 0x20 SHR JUMP JUMPDEST PUSH20 0xFFFFFFFFFFFFFFFFFFFFFFFFFFFFFFFFFFFFFFFF AND EQ ISZERO SWAP1 POP SWAP2 SWAP1 POP JUMP JUMPDEST PUSH3 0x678 DUP5 DUP5 DUP5 DUP5 PUSH3 0x6BD PUSH1 0x20 SHL PUSH1 0x20 SHR JUMP JUMPDEST POP POP POP POP JUMP JUMPDEST POP POP POP POP JUMP JUMPDEST PUSH0 PUSH1 0x2 PUSH0 DUP4 DUP2 MSTORE PUSH1 0x20 ADD SWAP1 DUP2 MSTORE PUSH1 0x20 ADD PUSH0 KECCAK256 PUSH0 SWAP1 SLOAD SWAP1 PUSH2 0x100 EXP SWAP1 DIV PUSH20 0xFFFFFFFFFFFFFFFFFFFFFFFFFFFFFFFFFFFFFFFF AND SWAP1 POP SWAP2 SWAP1 POP JUMP JUMPDEST PUSH3 0x6D1 DUP5 DUP5 DUP5 DUP5 PUSH3 0x849 PUSH1 0x20 SHL PUSH1 0x20 SHR JUMP JUMPDEST PUSH1 0x1 DUP2 GT ISZERO PUSH3 0x718 JUMPI PUSH1 0x40 MLOAD PUSH32 0x8C379A000000000000000000000000000000000000000000000000000000000 DUP2 MSTORE PUSH1 0x4 ADD PUSH3 0x70F SWAP1 PUSH3 0x1414 JUMP JUMPDEST PUSH1 0x40 MLOAD DUP1 SWAP2 SUB SWAP1 REVERT JUMPDEST PUSH0 DUP3 SWAP1 POP PUSH0 PUSH20 0xFFFFFFFFFFFFFFFFFFFFFFFFFFFFFFFFFFFFFFFF AND DUP6 PUSH20 0xFFFFFFFFFFFFFFFFFFFFFFFFFFFFFFFFFFFFFFFF AND SUB PUSH3 0x767 JUMPI PUSH3 0x761 DUP2 PUSH3 0x84F PUSH1 0x20 SHL PUSH1 0x20 SHR JUMP JUMPDEST PUSH3 0x7AF JUMP JUMPDEST DUP4 PUSH20 0xFFFFFFFFFFFFFFFFFFFFFFFFFFFFFFFFFFFFFFFF AND DUP6 PUSH20 0xFFFFFFFFFFFFFFFFFFFFFFFFFFFFFFFFFFFFFFFF AND EQ PUSH3 0x7AE JUMPI PUSH3 0x7AD DUP6 DUP3 PUSH3 0x893 PUSH1 0x20 SHL PUSH1 0x20 SHR JUMP JUMPDEST JUMPDEST JUMPDEST PUSH0 PUSH20 0xFFFFFFFFFFFFFFFFFFFFFFFFFFFFFFFFFFFFFFFF AND DUP5 PUSH20 0xFFFFFFFFFFFFFFFFFFFFFFFFFFFFFFFFFFFFFFFF AND SUB PUSH3 0x7FA JUMPI PUSH3 0x7F4 DUP2 PUSH3 0x9F4 PUSH1 0x20 SHL PUSH1 0x20 SHR JUMP JUMPDEST PUSH3 0x842 JUMP JUMPDEST DUP5 PUSH20 0xFFFFFFFFFFFFFFFFFFFFFFFFFFFFFFFFFFFFFFFF AND DUP5 PUSH20 0xFFFFFFFFFFFFFFFFFFFFFFFFFFFFFFFFFFFFFFFF AND EQ PUSH3 0x841 JUMPI PUSH3 0x840 DUP5 DUP3 PUSH3 0xABF PUSH1 0x20 SHL PUSH1 0x20 SHR JUMP JUMPDEST JUMPDEST JUMPDEST POP POP POP POP POP JUMP JUMPDEST POP POP POP POP JUMP JUMPDEST PUSH1 0x8 DUP1 SLOAD SWAP1 POP PUSH1 0x9 PUSH0 DUP4 DUP2 MSTORE PUSH1 0x20 ADD SWAP1 DUP2 MSTORE PUSH1 0x20 ADD PUSH0 KECCAK256 DUP2 SWAP1 SSTORE POP PUSH1 0x8 DUP2 SWAP1 DUP1 PUSH1 0x1 DUP2 SLOAD ADD DUP1 DUP3 SSTORE DUP1 SWAP2 POP POP PUSH1 0x1 SWAP1 SUB SWAP1 PUSH0 MSTORE PUSH1 0x20 PUSH0 KECCAK256 ADD PUSH0 SWAP1 SWAP2 SWAP1 SWAP2 SWAP1 SWAP2 POP SSTORE POP JUMP JUMPDEST PUSH0 PUSH1 0x1 PUSH3 0x8A7 DUP5 PUSH3 0xB3F PUSH1 0x20 SHL PUSH1 0x20 SHR JUMP JUMPDEST PUSH3 0x8B3 SWAP2 SWAP1 PUSH3 0x1461 JUMP JUMPDEST SWAP1 POP PUSH0 PUSH1 0x7 PUSH0 DUP5 DUP2 MSTORE PUSH1 0x20 ADD SWAP1 DUP2 MSTORE PUSH1 0x20 ADD PUSH0 KECCAK256 SLOAD SWAP1 POP DUP2 DUP2 EQ PUSH3 0x98B JUMPI PUSH0 PUSH1 0x6 PUSH0 DUP7 PUSH20 0xFFFFFFFFFFFFFFFFFFFFFFFFFFFFFFFFFFFFFFFF AND PUSH20 0xFFFFFFFFFFFFFFFFFFFFFFFFFFFFFFFFFFFFFFFF AND DUP2 MSTORE PUSH1 0x20 ADD SWAP1 DUP2 MSTORE PUSH1 0x20 ADD PUSH0 KECCAK256 PUSH0 DUP5 DUP2 MSTORE PUSH1 0x20 ADD SWAP1 DUP2 MSTORE PUSH1 0x20 ADD PUSH0 KECCAK256 SLOAD SWAP1 POP DUP1 PUSH1 0x6 PUSH0 DUP8 PUSH20 0xFFFFFFFFFFFFFFFFFFFFFFFFFFFFFFFFFFFFFFFF AND PUSH20 0xFFFFFFFFFFFFFFFFFFFFFFFFFFFFFFFFFFFFFFFF AND DUP2 MSTORE PUSH1 0x20 ADD SWAP1 DUP2 MSTORE PUSH1 0x20 ADD PUSH0 KECCAK256 PUSH0 DUP5 DUP2 MSTORE PUSH1 0x20 ADD SWAP1 DUP2 MSTORE PUSH1 0x20 ADD PUSH0 KECCAK256 DUP2 SWAP1 SSTORE POP DUP2 PUSH1 0x7 PUSH0 DUP4 DUP2 MSTORE PUSH1 0x20 ADD SWAP1 DUP2 MSTORE PUSH1 0x20 ADD PUSH0 KECCAK256 DUP2 SWAP1 SSTORE POP POP JUMPDEST PUSH1 0x7 PUSH0 DUP5 DUP2 MSTORE PUSH1 0x20 ADD SWAP1 DUP2 MSTORE PUSH1 0x20 ADD PUSH0 KECCAK256 PUSH0 SWAP1 SSTORE PUSH1 0x6 PUSH0 DUP6 PUSH20 0xFFFFFFFFFFFFFFFFFFFFFFFFFFFFFFFFFFFFFFFF AND PUSH20 0xFFFFFFFFFFFFFFFFFFFFFFFFFFFFFFFFFFFFFFFF AND DUP2 MSTORE PUSH1 0x20 ADD SWAP1 DUP2 MSTORE PUSH1 0x20 ADD PUSH0 KECCAK256 PUSH0 DUP4 DUP2 MSTORE PUSH1 0x20 ADD SWAP1 DUP2 MSTORE PUSH1 0x20 ADD PUSH0 KECCAK256 PUSH0 SWAP1 SSTORE POP POP POP POP JUMP JUMPDEST PUSH0 PUSH1 0x1 PUSH1 0x8 DUP1 SLOAD SWAP1 POP PUSH3 0xA09 SWAP2 SWAP1 PUSH3 0x1461 JUMP JUMPDEST SWAP1 POP PUSH0 PUSH1 0x9 PUSH0 DUP5 DUP2 MSTORE PUSH1 0x20 ADD SWAP1 DUP2 MSTORE PUSH1 0x20 ADD PUSH0 KECCAK256 SLOAD SWAP1 POP PUSH0 PUSH1 0x8 DUP4 DUP2 SLOAD DUP2 LT PUSH3 0xA38 JUMPI PUSH3 0xA37 PUSH3 0x149B JUMP JUMPDEST JUMPDEST SWAP1 PUSH0 MSTORE PUSH1 0x20 PUSH0 KECCAK256 ADD SLOAD SWAP1 POP DUP1 PUSH1 0x8 DUP4 DUP2 SLOAD DUP2 LT PUSH3 0xA5B JUMPI PUSH3 0xA5A PUSH3 0x149B JUMP JUMPDEST JUMPDEST SWAP1 PUSH0 MSTORE PUSH1 0x20 PUSH0 KECCAK256 ADD DUP2 SWAP1 SSTORE POP DUP2 PUSH1 0x9 PUSH0 DUP4 DUP2 MSTORE PUSH1 0x20 ADD SWAP1 DUP2 MSTORE PUSH1 0x20 ADD PUSH0 KECCAK256 DUP2 SWAP1 SSTORE POP PUSH1 0x9 PUSH0 DUP6 DUP2 MSTORE PUSH1 0x20 ADD SWAP1 DUP2 MSTORE PUSH1 0x20 ADD PUSH0 KECCAK256 PUSH0 SWAP1 SSTORE PUSH1 0x8 DUP1 SLOAD DUP1 PUSH3 0xAA6 JUMPI PUSH3 0xAA5 PUSH3 0x14C8 JUMP JUMPDEST JUMPDEST PUSH1 0x1 SWAP1 SUB DUP2 DUP2 SWAP1 PUSH0 MSTORE PUSH1 0x20 PUSH0 KECCAK256 ADD PUSH0 SWAP1 SSTORE SWAP1 SSTORE POP POP POP POP JUMP JUMPDEST PUSH0 PUSH3 0xAD1 DUP4 PUSH3 0xB3F PUSH1 0x20 SHL PUSH1 0x20 SHR JUMP JUMPDEST SWAP1 POP DUP2 PUSH1 0x6 PUSH0 DUP6 PUSH20 0xFFFFFFFFFFFFFFFFFFFFFFFFFFFFFFFFFFFFFFFF AND PUSH20 0xFFFFFFFFFFFFFFFFFFFFFFFFFFFFFFFFFFFFFFFF AND DUP2 MSTORE PUSH1 0x20 ADD SWAP1 DUP2 MSTORE PUSH1 0x20 ADD PUSH0 KECCAK256 PUSH0 DUP4 DUP2 MSTORE PUSH1 0x20 ADD SWAP1 DUP2 MSTORE PUSH1 0x20 ADD PUSH0 KECCAK256 DUP2 SWAP1 SSTORE POP DUP1 PUSH1 0x7 PUSH0 DUP5 DUP2 MSTORE PUSH1 0x20 ADD SWAP1 DUP2 MSTORE PUSH1 0x20 ADD PUSH0 KECCAK256 DUP2 SWAP1 SSTORE POP POP POP POP JUMP JUMPDEST PUSH0 DUP1 PUSH20 0xFFFFFFFFFFFFFFFFFFFFFFFFFFFFFFFFFFFFFFFF AND DUP3 PUSH20 0xFFFFFFFFFFFFFFFFFFFFFFFFFFFFFFFFFFFFFFFF AND SUB PUSH3 0xBB1 JUMPI PUSH1 0x40 MLOAD PUSH32 0x8C379A000000000000000000000000000000000000000000000000000000000 DUP2 MSTORE PUSH1 0x4 ADD PUSH3 0xBA8 SWAP1 PUSH3 0x1569 JUMP JUMPDEST PUSH1 0x40 MLOAD DUP1 SWAP2 SUB SWAP1 REVERT JUMPDEST PUSH1 0x3 PUSH0 DUP4 PUSH20 0xFFFFFFFFFFFFFFFFFFFFFFFFFFFFFFFFFFFFFFFF AND PUSH20 0xFFFFFFFFFFFFFFFFFFFFFFFFFFFFFFFFFFFFFFFF AND DUP2 MSTORE PUSH1 0x20 ADD SWAP1 DUP2 MSTORE PUSH1 0x20 ADD PUSH0 KECCAK256 SLOAD SWAP1 POP SWAP2 SWAP1 POP JUMP JUMPDEST PUSH0 PUSH1 0x40 MLOAD SWAP1 POP SWAP1 JUMP JUMPDEST PUSH0 DUP1 REVERT JUMPDEST PUSH0 DUP1 REVERT JUMPDEST PUSH0 PUSH20 0xFFFFFFFFFFFFFFFFFFFFFFFFFFFFFFFFFFFFFFFF DUP3 AND SWAP1 POP SWAP2 SWAP1 POP JUMP JUMPDEST PUSH0 PUSH3 0xC32 DUP3 PUSH3 0xC07 JUMP JUMPDEST SWAP1 POP SWAP2 SWAP1 POP JUMP JUMPDEST PUSH3 0xC44 DUP2 PUSH3 0xC26 JUMP JUMPDEST DUP2 EQ PUSH3 0xC4F JUMPI PUSH0 DUP1 REVERT JUMPDEST POP JUMP JUMPDEST PUSH0 DUP2 MLOAD SWAP1 POP PUSH3 0xC62 DUP2 PUSH3 0xC39 JUMP JUMPDEST SWAP3 SWAP2 POP POP JUMP JUMPDEST PUSH0 DUP1 REVERT JUMPDEST PUSH0 DUP1 REVERT JUMPDEST PUSH0 PUSH1 0x1F NOT PUSH1 0x1F DUP4 ADD AND SWAP1 POP SWAP2 SWAP1 POP JUMP JUMPDEST PUSH32 0x4E487B7100000000000000000000000000000000000000000000000000000000 PUSH0 MSTORE PUSH1 0x41 PUSH1 0x4 MSTORE PUSH1 0x24 PUSH0 REVERT JUMPDEST PUSH3 0xCB8 DUP3 PUSH3 0xC70 JUMP JUMPDEST DUP2 ADD DUP2 DUP2 LT PUSH8 0xFFFFFFFFFFFFFFFF DUP3 GT OR ISZERO PUSH3 0xCDA JUMPI PUSH3 0xCD9 PUSH3 0xC80 JUMP JUMPDEST JUMPDEST DUP1 PUSH1 0x40 MSTORE POP POP POP JUMP JUMPDEST PUSH0 PUSH3 0xCEE PUSH3 0xBF6 JUMP JUMPDEST SWAP1 POP PUSH3 0xCFC DUP3 DUP3 PUSH3 0xCAD JUMP JUMPDEST SWAP2 SWAP1 POP JUMP JUMPDEST PUSH0 PUSH8 0xFFFFFFFFFFFFFFFF DUP3 GT ISZERO PUSH3 0xD1E JUMPI PUSH3 0xD1D PUSH3 0xC80 JUMP JUMPDEST JUMPDEST PUSH3 0xD29 DUP3 PUSH3 0xC70 JUMP JUMPDEST SWAP1 POP PUSH1 0x20 DUP2 ADD SWAP1 POP SWAP2 SWAP1 POP JUMP JUMPDEST PUSH0 JUMPDEST DUP4 DUP2 LT ISZERO PUSH3 0xD55 JUMPI DUP1 DUP3 ADD MLOAD DUP2 DUP5 ADD MSTORE PUSH1 0x20 DUP2 ADD SWAP1 POP PUSH3 0xD38 JUMP JUMPDEST PUSH0 DUP5 DUP5 ADD MSTORE POP POP POP POP JUMP JUMPDEST PUSH0 PUSH3 0xD76 PUSH3 0xD70 DUP5 PUSH3 0xD01 JUMP JUMPDEST PUSH3 0xCE3 JUMP JUMPDEST SWAP1 POP DUP3 DUP2 MSTORE PUSH1 0x20 DUP2 ADD DUP5 DUP5 DUP5 ADD GT ISZERO PUSH3 0xD95 JUMPI PUSH3 0xD94 PUSH3 0xC6C JUMP JUMPDEST JUMPDEST PUSH3 0xDA2 DUP5 DUP3 DUP6 PUSH3 0xD36 JUMP JUMPDEST POP SWAP4 SWAP3 POP POP POP JUMP JUMPDEST PUSH0 DUP3 PUSH1 0x1F DUP4 ADD SLT PUSH3 0xDC1 JUMPI PUSH3 0xDC0 PUSH3 0xC68 JUMP JUMPDEST JUMPDEST DUP2 MLOAD PUSH3 0xDD3 DUP5 DUP3 PUSH1 0x20 DUP7 ADD PUSH3 0xD60 JUMP JUMPDEST SWAP2 POP POP SWAP3 SWAP2 POP POP JUMP JUMPDEST PUSH0 DUP1 PUSH0 PUSH1 0x60 DUP5 DUP7 SUB SLT ISZERO PUSH3 0xDF6 JUMPI PUSH3 0xDF5 PUSH3 0xBFF JUMP JUMPDEST JUMPDEST PUSH0 PUSH3 0xE05 DUP7 DUP3 DUP8 ADD PUSH3 0xC52 JUMP JUMPDEST SWAP4 POP POP PUSH1 0x20 DUP5 ADD MLOAD PUSH8 0xFFFFFFFFFFFFFFFF DUP2 GT ISZERO PUSH3 0xE29 JUMPI PUSH3 0xE28 PUSH3 0xC03 JUMP JUMPDEST JUMPDEST PUSH3 0xE37 DUP7 DUP3 DUP8 ADD PUSH3 0xDAA JUMP JUMPDEST SWAP3 POP POP PUSH1 0x40 DUP5 ADD MLOAD PUSH8 0xFFFFFFFFFFFFFFFF DUP2 GT ISZERO PUSH3 0xE5B JUMPI PUSH3 0xE5A PUSH3 0xC03 JUMP JUMPDEST JUMPDEST PUSH3 0xE69 DUP7 DUP3 DUP8 ADD PUSH3 0xDAA JUMP JUMPDEST SWAP2 POP POP SWAP3 POP SWAP3 POP SWAP3 JUMP JUMPDEST PUSH0 DUP2 MLOAD SWAP1 POP SWAP2 SWAP1 POP JUMP JUMPDEST PUSH32 0x4E487B7100000000000000000000000000000000000000000000000000000000 PUSH0 MSTORE PUSH1 0x22 PUSH1 0x4 MSTORE PUSH1 0x24 PUSH0 REVERT JUMPDEST PUSH0 PUSH1 0x2 DUP3 DIV SWAP1 POP PUSH1 0x1 DUP3 AND DUP1 PUSH3 0xEC2 JUMPI PUSH1 0x7F DUP3 AND SWAP2 POP JUMPDEST PUSH1 0x20 DUP3 LT DUP2 SUB PUSH3 0xED8 JUMPI PUSH3 0xED7 PUSH3 0xE7D JUMP JUMPDEST JUMPDEST POP SWAP2 SWAP1 POP JUMP JUMPDEST PUSH0 DUP2 SWAP1 POP DUP2 PUSH0 MSTORE PUSH1 0x20 PUSH0 KECCAK256 SWAP1 POP SWAP2 SWAP1 POP JUMP JUMPDEST PUSH0 PUSH1 0x20 PUSH1 0x1F DUP4 ADD DIV SWAP1 POP SWAP2 SWAP1 POP JUMP JUMPDEST PUSH0 DUP3 DUP3 SHL SWAP1 POP SWAP3 SWAP2 POP POP JUMP JUMPDEST PUSH0 PUSH1 0x8 DUP4 MUL PUSH3 0xF3C PUSH32 0xFFFFFFFFFFFFFFFFFFFFFFFFFFFFFFFFFFFFFFFFFFFFFFFFFFFFFFFFFFFFFFFF DUP3 PUSH3 0xEFF JUMP JUMPDEST PUSH3 0xF48 DUP7 DUP4 PUSH3 0xEFF JUMP JUMPDEST SWAP6 POP DUP1 NOT DUP5 AND SWAP4 POP DUP1 DUP7 AND DUP5 OR SWAP3 POP POP POP SWAP4 SWAP3 POP POP POP JUMP JUMPDEST PUSH0 DUP2 SWAP1 POP SWAP2 SWAP1 POP JUMP JUMPDEST PUSH0 DUP2 SWAP1 POP SWAP2 SWAP1 POP JUMP JUMPDEST PUSH0 PUSH3 0xF92 PUSH3 0xF8C PUSH3 0xF86 DUP5 PUSH3 0xF60 JUMP JUMPDEST PUSH3 0xF69 JUMP JUMPDEST PUSH3 0xF60 JUMP JUMPDEST SWAP1 POP SWAP2 SWAP1 POP JUMP JUMPDEST PUSH0 DUP2 SWAP1 POP SWAP2 SWAP1 POP JUMP JUMPDEST PUSH3 0xFAD DUP4 PUSH3 0xF72 JUMP JUMPDEST PUSH3 0xFC5 PUSH3 0xFBC DUP3 PUSH3 0xF99 JUMP JUMPDEST DUP5 DUP5 SLOAD PUSH3 0xF0B JUMP JUMPDEST DUP3 SSTORE POP POP POP POP JUMP JUMPDEST PUSH0 SWAP1 JUMP JUMPDEST PUSH3 0xFDB PUSH3 0xFCD JUMP JUMPDEST PUSH3 0xFE8 DUP2 DUP5 DUP5 PUSH3 0xFA2 JUMP JUMPDEST POP POP POP JUMP JUMPDEST JUMPDEST DUP2 DUP2 LT ISZERO PUSH3 0x100F JUMPI PUSH3 0x1003 PUSH0 DUP3 PUSH3 0xFD1 JUMP JUMPDEST PUSH1 0x1 DUP2 ADD SWAP1 POP PUSH3 0xFEE JUMP JUMPDEST POP POP JUMP JUMPDEST PUSH1 0x1F DUP3 GT ISZERO PUSH3 0x105E JUMPI PUSH3 0x1028 DUP2 PUSH3 0xEDE JUMP JUMPDEST PUSH3 0x1033 DUP5 PUSH3 0xEF0 JUMP JUMPDEST DUP2 ADD PUSH1 0x20 DUP6 LT ISZERO PUSH3 0x1043 JUMPI DUP2 SWAP1 POP JUMPDEST PUSH3 0x105B PUSH3 0x1052 DUP6 PUSH3 0xEF0 JUMP JUMPDEST DUP4 ADD DUP3 PUSH3 0xFED JUMP JUMPDEST POP POP JUMPDEST POP POP POP JUMP JUMPDEST PUSH0 DUP3 DUP3 SHR SWAP1 POP SWAP3 SWAP2 POP POP JUMP JUMPDEST PUSH0 PUSH3 0x1080 PUSH0 NOT DUP5 PUSH1 0x8 MUL PUSH3 0x1063 JUMP JUMPDEST NOT DUP1 DUP4 AND SWAP2 POP POP SWAP3 SWAP2 POP POP JUMP JUMPDEST PUSH0 PUSH3 0x109A DUP4 DUP4 PUSH3 0x106F JUMP JUMPDEST SWAP2 POP DUP3 PUSH1 0x2 MUL DUP3 OR SWAP1 POP SWAP3 SWAP2 POP POP JUMP JUMPDEST PUSH3 0x10B5 DUP3 PUSH3 0xE73 JUMP JUMPDEST PUSH8 0xFFFFFFFFFFFFFFFF DUP2 GT ISZERO PUSH3 0x10D1 JUMPI PUSH3 0x10D0 PUSH3 0xC80 JUMP JUMPDEST JUMPDEST PUSH3 0x10DD DUP3 SLOAD PUSH3 0xEAA JUMP JUMPDEST PUSH3 0x10EA DUP3 DUP3 DUP6 PUSH3 0x1013 JUMP JUMPDEST PUSH0 PUSH1 0x20 SWAP1 POP PUSH1 0x1F DUP4 GT PUSH1 0x1 DUP2 EQ PUSH3 0x1120 JUMPI PUSH0 DUP5 ISZERO PUSH3 0x110B JUMPI DUP3 DUP8 ADD MLOAD SWAP1 POP JUMPDEST PUSH3 0x1117 DUP6 DUP3 PUSH3 0x108D JUMP JUMPDEST DUP7 SSTORE POP PUSH3 0x1186 JUMP JUMPDEST PUSH1 0x1F NOT DUP5 AND PUSH3 0x1130 DUP7 PUSH3 0xEDE JUMP JUMPDEST PUSH0 JUMPDEST DUP3 DUP2 LT ISZERO PUSH3 0x1159 JUMPI DUP5 DUP10 ADD MLOAD DUP3 SSTORE PUSH1 0x1 DUP3 ADD SWAP2 POP PUSH1 0x20 DUP6 ADD SWAP5 POP PUSH1 0x20 DUP2 ADD SWAP1 POP PUSH3 0x1132 JUMP JUMPDEST DUP7 DUP4 LT ISZERO PUSH3 0x1179 JUMPI DUP5 DUP10 ADD MLOAD PUSH3 0x1175 PUSH1 0x1F DUP10 AND DUP3 PUSH3 0x106F JUMP JUMPDEST DUP4 SSTORE POP JUMPDEST PUSH1 0x1 PUSH1 0x2 DUP9 MUL ADD DUP9 SSTORE POP POP POP JUMPDEST POP POP POP POP POP POP JUMP JUMPDEST PUSH3 0x1199 DUP2 PUSH3 0xC26 JUMP JUMPDEST DUP3 MSTORE POP POP JUMP JUMPDEST PUSH0 DUP2 SWAP1 POP SWAP2 SWAP1 POP JUMP JUMPDEST PUSH3 0x11B3 DUP2 PUSH3 0x119F JUMP JUMPDEST DUP3 MSTORE POP POP JUMP JUMPDEST PUSH0 PUSH1 0x60 DUP3 ADD SWAP1 POP PUSH3 0x11CE PUSH0 DUP4 ADD DUP7 PUSH3 0x118E JUMP JUMPDEST PUSH3 0x11DD PUSH1 0x20 DUP4 ADD DUP6 PUSH3 0x11A8 JUMP JUMPDEST PUSH3 0x11EC PUSH1 0x40 DUP4 ADD DUP5 PUSH3 0x118E JUMP JUMPDEST SWAP5 SWAP4 POP POP POP POP JUMP JUMPDEST PUSH0 DUP3 DUP3 MSTORE PUSH1 0x20 DUP3 ADD SWAP1 POP SWAP3 SWAP2 POP POP JUMP JUMPDEST PUSH32 0x4552433732313A206D696E7420746F20746865207A65726F2061646472657373 PUSH0 DUP3 ADD MSTORE POP JUMP JUMPDEST PUSH0 PUSH3 0x123A PUSH1 0x20 DUP4 PUSH3 0x11F4 JUMP JUMPDEST SWAP2 POP PUSH3 0x1247 DUP3 PUSH3 0x1204 JUMP JUMPDEST PUSH1 0x20 DUP3 ADD SWAP1 POP SWAP2 SWAP1 POP JUMP JUMPDEST PUSH0 PUSH1 0x20 DUP3 ADD SWAP1 POP DUP2 DUP2 SUB PUSH0 DUP4 ADD MSTORE PUSH3 0x126B DUP2 PUSH3 0x122C JUMP JUMPDEST SWAP1 POP SWAP2 SWAP1 POP JUMP JUMPDEST PUSH32 0x4552433732313A20746F6B656E20616C7265616479206D696E74656400000000 PUSH0 DUP3 ADD MSTORE POP JUMP JUMPDEST PUSH0 PUSH3 0x12A8 PUSH1 0x1C DUP4 PUSH3 0x11F4 JUMP JUMPDEST SWAP2 POP PUSH3 0x12B5 DUP3 PUSH3 0x1272 JUMP JUMPDEST PUSH1 0x20 DUP3 ADD SWAP1 POP SWAP2 SWAP1 POP JUMP JUMPDEST PUSH0 PUSH1 0x20 DUP3 ADD SWAP1 POP DUP2 DUP2 SUB PUSH0 DUP4 ADD MSTORE PUSH3 0x12D9 DUP2 PUSH3 0x129A JUMP JUMPDEST SWAP1 POP SWAP2 SWAP1 POP JUMP JUMPDEST PUSH32 0x45524337323155524953746F726167653A2055524920736574206F66206E6F6E PUSH0 DUP3 ADD MSTORE PUSH32 0x6578697374656E7420746F6B656E000000000000000000000000000000000000 PUSH1 0x20 DUP3 ADD MSTORE POP JUMP JUMPDEST PUSH0 PUSH3 0x133C PUSH1 0x2E DUP4 PUSH3 0x11F4 JUMP JUMPDEST SWAP2 POP PUSH3 0x1349 DUP3 PUSH3 0x12E0 JUMP JUMPDEST PUSH1 0x40 DUP3 ADD SWAP1 POP SWAP2 SWAP1 POP JUMP JUMPDEST PUSH0 PUSH1 0x20 DUP3 ADD SWAP1 POP DUP2 DUP2 SUB PUSH0 DUP4 ADD MSTORE PUSH3 0x136D DUP2 PUSH3 0x132E JUMP JUMPDEST SWAP1 POP SWAP2 SWAP1 POP JUMP JUMPDEST PUSH3 0x137F DUP2 PUSH3 0xF60 JUMP JUMPDEST DUP3 MSTORE POP POP JUMP JUMPDEST PUSH0 PUSH1 0x20 DUP3 ADD SWAP1 POP PUSH3 0x139A PUSH0 DUP4 ADD DUP5 PUSH3 0x1374 JUMP JUMPDEST SWAP3 SWAP2 POP POP JUMP JUMPDEST PUSH32 0x455243373231456E756D657261626C653A20636F6E7365637574697665207472 PUSH0 DUP3 ADD MSTORE PUSH32 0x616E7366657273206E6F7420737570706F727465640000000000000000000000 PUSH1 0x20 DUP3 ADD MSTORE POP JUMP JUMPDEST PUSH0 PUSH3 0x13FC PUSH1 0x35 DUP4 PUSH3 0x11F4 JUMP JUMPDEST SWAP2 POP PUSH3 0x1409 DUP3 PUSH3 0x13A0 JUMP JUMPDEST PUSH1 0x40 DUP3 ADD SWAP1 POP SWAP2 SWAP1 POP JUMP JUMPDEST PUSH0 PUSH1 0x20 DUP3 ADD SWAP1 POP DUP2 DUP2 SUB PUSH0 DUP4 ADD MSTORE PUSH3 0x142D DUP2 PUSH3 0x13EE JUMP JUMPDEST SWAP1 POP SWAP2 SWAP1 POP JUMP JUMPDEST PUSH32 0x4E487B7100000000000000000000000000000000000000000000000000000000 PUSH0 MSTORE PUSH1 0x11 PUSH1 0x4 MSTORE PUSH1 0x24 PUSH0 REVERT JUMPDEST PUSH0 PUSH3 0x146D DUP3 PUSH3 0xF60 JUMP JUMPDEST SWAP2 POP PUSH3 0x147A DUP4 PUSH3 0xF60 JUMP JUMPDEST SWAP3 POP DUP3 DUP3 SUB SWAP1 POP DUP2 DUP2 GT ISZERO PUSH3 0x1495 JUMPI PUSH3 0x1494 PUSH3 0x1434 JUMP JUMPDEST JUMPDEST SWAP3 SWAP2 POP POP JUMP JUMPDEST PUSH32 0x4E487B7100000000000000000000000000000000000000000000000000000000 PUSH0 MSTORE PUSH1 0x32 PUSH1 0x4 MSTORE PUSH1 0x24 PUSH0 REVERT JUMPDEST PUSH32 0x4E487B7100000000000000000000000000000000000000000000000000000000 PUSH0 MSTORE PUSH1 0x31 PUSH1 0x4 MSTORE PUSH1 0x24 PUSH0 REVERT JUMPDEST PUSH32 0x4552433732313A2061646472657373207A65726F206973206E6F742061207661 PUSH0 DUP3 ADD MSTORE PUSH32 0x6C6964206F776E65720000000000000000000000000000000000000000000000 PUSH1 0x20 DUP3 ADD MSTORE POP JUMP JUMPDEST PUSH0 PUSH3 0x1551 PUSH1 0x29 DUP4 PUSH3 0x11F4 JUMP JUMPDEST SWAP2 POP PUSH3 0x155E DUP3 PUSH3 0x14F5 JUMP JUMPDEST PUSH1 0x40 DUP3 ADD SWAP1 POP SWAP2 SWAP1 POP JUMP JUMPDEST PUSH0 PUSH1 0x20 DUP3 ADD SWAP1 POP DUP2 DUP2 SUB PUSH0 DUP4 ADD MSTORE PUSH3 0x1582 DUP2 PUSH3 0x1543 JUMP JUMPDEST SWAP1 POP SWAP2 SWAP1 POP JUMP JUMPDEST PUSH2 0x7C31 DUP1 PUSH3 0x1597 PUSH0 CODECOPY PUSH0 RETURN INVALID PUSH1 0x80 PUSH1 0x40 MSTORE PUSH1 0x4 CALLDATASIZE LT PUSH2 0x296 JUMPI PUSH0 CALLDATALOAD PUSH1 0xE0 SHR DUP1 PUSH4 0x715018A6 GT PUSH2 0x159 JUMPI DUP1 PUSH4 0xC41C9A61 GT PUSH2 0xC0 JUMPI DUP1 PUSH4 0xECE8453F GT PUSH2 0x79 JUMPI DUP1 PUSH4 0xECE8453F EQ PUSH2 0xA07 JUMPI DUP1 PUSH4 0xEE3318C5 EQ PUSH2 0xA43 JUMPI DUP1 PUSH4 0xF1D4B868 EQ PUSH2 0xA6B JUMPI DUP1 PUSH4 0xF2FDE38B EQ PUSH2 0xA95 JUMPI DUP1 PUSH4 0xFEA59EEA EQ PUSH2 0xABD JUMPI DUP1 PUSH4 0xFEE666AD EQ PUSH2 0xAE7 JUMPI PUSH2 0x29D JUMP JUMPDEST DUP1 PUSH4 0xC41C9A61 EQ PUSH2 0x8ED JUMPI DUP1 PUSH4 0xC87B56DD EQ PUSH2 0x915 JUMPI DUP1 PUSH4 0xCB6A9BC6 EQ PUSH2 0x951 JUMPI DUP1 PUSH4 0xDC30356D EQ PUSH2 0x97B JUMPI DUP1 PUSH4 0xE8788710 EQ PUSH2 0x9A3 JUMPI DUP1 PUSH4 0xE985E9C5 EQ PUSH2 0x9CB JUMPI PUSH2 0x29D JUMP JUMPDEST DUP1 PUSH4 0x9F35233C GT PUSH2 0x112 JUMPI DUP1 PUSH4 0x9F35233C EQ PUSH2 0x819 JUMPI DUP1 PUSH4 0xA22CB465 EQ PUSH2 0x82F JUMPI DUP1 PUSH4 0xA4261980 EQ PUSH2 0x857 JUMPI DUP1 PUSH4 0xB88D4FDE EQ PUSH2 0x893 JUMPI DUP1 PUSH4 0xBFF29CEE EQ PUSH2 0x8BB JUMPI DUP1 PUSH4 0xC330CB77 EQ PUSH2 0x8C5 JUMPI PUSH2 0x29D JUMP JUMPDEST DUP1 PUSH4 0x715018A6 EQ PUSH2 0x71E JUMPI DUP1 PUSH4 0x7315F312 EQ PUSH2 0x734 JUMPI DUP1 PUSH4 0x770DD3E3 EQ PUSH2 0x75E JUMPI DUP1 PUSH4 0x8844ADDB EQ PUSH2 0x788 JUMPI DUP1 PUSH4 0x8DA5CB5B EQ PUSH2 0x7C5 JUMPI DUP1 PUSH4 0x95D89B41 EQ PUSH2 0x7EF JUMPI PUSH2 0x29D JUMP JUMPDEST DUP1 PUSH4 0x34F318F1 GT PUSH2 0x1FD JUMPI DUP1 PUSH4 0x5DA58ED8 GT PUSH2 0x1B6 JUMPI DUP1 PUSH4 0x5DA58ED8 EQ PUSH2 0x5F0 JUMPI DUP1 PUSH4 0x6352211E EQ PUSH2 0x618 JUMPI DUP1 PUSH4 0x67B88A73 EQ PUSH2 0x654 JUMPI DUP1 PUSH4 0x67C84B3F EQ PUSH2 0x690 JUMPI DUP1 PUSH4 0x6C922764 EQ PUSH2 0x6B8 JUMPI DUP1 PUSH4 0x70A08231 EQ PUSH2 0x6E2 JUMPI PUSH2 0x29D JUMP JUMPDEST DUP1 PUSH4 0x34F318F1 EQ PUSH2 0x4EC JUMPI DUP1 PUSH4 0x3B4B1D50 EQ PUSH2 0x514 JUMPI DUP1 PUSH4 0x3B506CEF EQ PUSH2 0x53C JUMPI DUP1 PUSH4 0x42842E0E EQ PUSH2 0x564 JUMPI DUP1 PUSH4 0x42966C68 EQ PUSH2 0x58C JUMPI DUP1 PUSH4 0x4F6CCCE7 EQ PUSH2 0x5B4 JUMPI PUSH2 0x29D JUMP JUMPDEST DUP1 PUSH4 0x175F247B GT PUSH2 0x24F JUMPI DUP1 PUSH4 0x175F247B EQ PUSH2 0x3E4 JUMPI DUP1 PUSH4 0x18160DDD EQ PUSH2 0x40C JUMPI DUP1 PUSH4 0x1DADAC52 EQ PUSH2 0x436 JUMPI DUP1 PUSH4 0x21821BE2 EQ PUSH2 0x45E JUMPI DUP1 PUSH4 0x23B872DD EQ PUSH2 0x488 JUMPI DUP1 PUSH4 0x2F745C59 EQ PUSH2 0x4B0 JUMPI PUSH2 0x29D JUMP JUMPDEST DUP1 PUSH4 0x1FFC9A7 EQ PUSH2 0x2A1 JUMPI DUP1 PUSH4 0x6FDDE03 EQ PUSH2 0x2DD JUMPI DUP1 PUSH4 0x78976F8 EQ PUSH2 0x307 JUMPI DUP1 PUSH4 0x81812FC EQ PUSH2 0x344 JUMPI DUP1 PUSH4 0x95EA7B3 EQ PUSH2 0x380 JUMPI DUP1 PUSH4 0x150B7A02 EQ PUSH2 0x3A8 JUMPI PUSH2 0x29D JUMP JUMPDEST CALLDATASIZE PUSH2 0x29D JUMPI STOP JUMPDEST PUSH0 DUP1 REVERT JUMPDEST CALLVALUE DUP1 ISZERO PUSH2 0x2AC JUMPI PUSH0 DUP1 REVERT JUMPDEST POP PUSH2 0x2C7 PUSH1 0x4 DUP1 CALLDATASIZE SUB DUP2 ADD SWAP1 PUSH2 0x2C2 SWAP2 SWAP1 PUSH2 0x549C JUMP JUMPDEST PUSH2 0xB0F JUMP JUMPDEST PUSH1 0x40 MLOAD PUSH2 0x2D4 SWAP2 SWAP1 PUSH2 0x54E1 JUMP JUMPDEST PUSH1 0x40 MLOAD DUP1 SWAP2 SUB SWAP1 RETURN JUMPDEST CALLVALUE DUP1 ISZERO PUSH2 0x2E8 JUMPI PUSH0 DUP1 REVERT JUMPDEST POP PUSH2 0x2F1 PUSH2 0xBF0 JUMP JUMPDEST PUSH1 0x40 MLOAD PUSH2 0x2FE SWAP2 SWAP1 PUSH2 0x5584 JUMP JUMPDEST PUSH1 0x40 MLOAD DUP1 SWAP2 SUB SWAP1 RETURN JUMPDEST CALLVALUE DUP1 ISZERO PUSH2 0x312 JUMPI PUSH0 DUP1 REVERT JUMPDEST POP PUSH2 0x32D PUSH1 0x4 DUP1 CALLDATASIZE SUB DUP2 ADD SWAP1 PUSH2 0x328 SWAP2 SWAP1 PUSH2 0x56D0 JUMP JUMPDEST PUSH2 0xC7F JUMP JUMPDEST PUSH1 0x40 MLOAD PUSH2 0x33B SWAP3 SWAP2 SWAP1 PUSH2 0x576E JUMP JUMPDEST PUSH1 0x40 MLOAD DUP1 SWAP2 SUB SWAP1 RETURN JUMPDEST CALLVALUE DUP1 ISZERO PUSH2 0x34F JUMPI PUSH0 DUP1 REVERT JUMPDEST POP PUSH2 0x36A PUSH1 0x4 DUP1 CALLDATASIZE SUB DUP2 ADD SWAP1 PUSH2 0x365 SWAP2 SWAP1 PUSH2 0x57BF JUMP JUMPDEST PUSH2 0xCB9 JUMP JUMPDEST PUSH1 0x40 MLOAD PUSH2 0x377 SWAP2 SWAP1 PUSH2 0x57EA JUMP JUMPDEST PUSH1 0x40 MLOAD DUP1 SWAP2 SUB SWAP1 RETURN JUMPDEST CALLVALUE DUP1 ISZERO PUSH2 0x38B JUMPI PUSH0 DUP1 REVERT JUMPDEST POP PUSH2 0x3A6 PUSH1 0x4 DUP1 CALLDATASIZE SUB DUP2 ADD SWAP1 PUSH2 0x3A1 SWAP2 SWAP1 PUSH2 0x582D JUMP JUMPDEST PUSH2 0xCFB JUMP JUMPDEST STOP JUMPDEST CALLVALUE DUP1 ISZERO PUSH2 0x3B3 JUMPI PUSH0 DUP1 REVERT JUMPDEST POP PUSH2 0x3CE PUSH1 0x4 DUP1 CALLDATASIZE SUB DUP2 ADD SWAP1 PUSH2 0x3C9 SWAP2 SWAP1 PUSH2 0x58C8 JUMP JUMPDEST PUSH2 0xE11 JUMP JUMPDEST PUSH1 0x40 MLOAD PUSH2 0x3DB SWAP2 SWAP1 PUSH2 0x595B JUMP JUMPDEST PUSH1 0x40 MLOAD DUP1 SWAP2 SUB SWAP1 RETURN JUMPDEST CALLVALUE DUP1 ISZERO PUSH2 0x3EF JUMPI PUSH0 DUP1 REVERT JUMPDEST POP PUSH2 0x40A PUSH1 0x4 DUP1 CALLDATASIZE SUB DUP2 ADD SWAP1 PUSH2 0x405 SWAP2 SWAP1 PUSH2 0x59C9 JUMP JUMPDEST PUSH2 0xE25 JUMP JUMPDEST STOP JUMPDEST CALLVALUE DUP1 ISZERO PUSH2 0x417 JUMPI PUSH0 DUP1 REVERT JUMPDEST POP PUSH2 0x420 PUSH2 0xE90 JUMP JUMPDEST PUSH1 0x40 MLOAD PUSH2 0x42D SWAP2 SWAP1 PUSH2 0x5A14 JUMP JUMPDEST PUSH1 0x40 MLOAD DUP1 SWAP2 SUB SWAP1 RETURN JUMPDEST CALLVALUE DUP1 ISZERO PUSH2 0x441 JUMPI PUSH0 DUP1 REVERT JUMPDEST POP PUSH2 0x45C PUSH1 0x4 DUP1 CALLDATASIZE SUB DUP2 ADD SWAP1 PUSH2 0x457 SWAP2 SWAP1 PUSH2 0x59C9 JUMP JUMPDEST PUSH2 0xE9C JUMP JUMPDEST STOP JUMPDEST CALLVALUE DUP1 ISZERO PUSH2 0x469 JUMPI PUSH0 DUP1 REVERT JUMPDEST POP PUSH2 0x472 PUSH2 0xF45 JUMP JUMPDEST PUSH1 0x40 MLOAD PUSH2 0x47F SWAP2 SWAP1 PUSH2 0x5584 JUMP JUMPDEST PUSH1 0x40 MLOAD DUP1 SWAP2 SUB SWAP1 RETURN JUMPDEST CALLVALUE DUP1 ISZERO PUSH2 0x493 JUMPI PUSH0 DUP1 REVERT JUMPDEST POP PUSH2 0x4AE PUSH1 0x4 DUP1 CALLDATASIZE SUB DUP2 ADD SWAP1 PUSH2 0x4A9 SWAP2 SWAP1 PUSH2 0x5A2D JUMP JUMPDEST PUSH2 0xFD5 JUMP JUMPDEST STOP JUMPDEST CALLVALUE DUP1 ISZERO PUSH2 0x4BB JUMPI PUSH0 DUP1 REVERT JUMPDEST POP PUSH2 0x4D6 PUSH1 0x4 DUP1 CALLDATASIZE SUB DUP2 ADD SWAP1 PUSH2 0x4D1 SWAP2 SWAP1 PUSH2 0x582D JUMP JUMPDEST PUSH2 0x1035 JUMP JUMPDEST PUSH1 0x40 MLOAD PUSH2 0x4E3 SWAP2 SWAP1 PUSH2 0x5A14 JUMP JUMPDEST PUSH1 0x40 MLOAD DUP1 SWAP2 SUB SWAP1 RETURN JUMPDEST CALLVALUE DUP1 ISZERO PUSH2 0x4F7 JUMPI PUSH0 DUP1 REVERT JUMPDEST POP PUSH2 0x512 PUSH1 0x4 DUP1 CALLDATASIZE SUB DUP2 ADD SWAP1 PUSH2 0x50D SWAP2 SWAP1 PUSH2 0x5AB0 JUMP JUMPDEST PUSH2 0x10D5 JUMP JUMPDEST STOP JUMPDEST CALLVALUE DUP1 ISZERO PUSH2 0x51F JUMPI PUSH0 DUP1 REVERT JUMPDEST POP PUSH2 0x53A PUSH1 0x4 DUP1 CALLDATASIZE SUB DUP2 ADD SWAP1 PUSH2 0x535 SWAP2 SWAP1 PUSH2 0x5B12 JUMP JUMPDEST PUSH2 0x1311 JUMP JUMPDEST STOP JUMPDEST CALLVALUE DUP1 ISZERO PUSH2 0x547 JUMPI PUSH0 DUP1 REVERT JUMPDEST POP PUSH2 0x562 PUSH1 0x4 DUP1 CALLDATASIZE SUB DUP2 ADD SWAP1 PUSH2 0x55D SWAP2 SWAP1 PUSH2 0x582D JUMP JUMPDEST PUSH2 0x1342 JUMP JUMPDEST STOP JUMPDEST CALLVALUE DUP1 ISZERO PUSH2 0x56F JUMPI PUSH0 DUP1 REVERT JUMPDEST POP PUSH2 0x58A PUSH1 0x4 DUP1 CALLDATASIZE SUB DUP2 ADD SWAP1 PUSH2 0x585 SWAP2 SWAP1 PUSH2 0x5A2D JUMP JUMPDEST PUSH2 0x1358 JUMP JUMPDEST STOP JUMPDEST CALLVALUE DUP1 ISZERO PUSH2 0x597 JUMPI PUSH0 DUP1 REVERT JUMPDEST POP PUSH2 0x5B2 PUSH1 0x4 DUP1 CALLDATASIZE SUB DUP2 ADD SWAP1 PUSH2 0x5AD SWAP2 SWAP1 PUSH2 0x57BF JUMP JUMPDEST PUSH2 0x1377 JUMP JUMPDEST STOP JUMPDEST CALLVALUE DUP1 ISZERO PUSH2 0x5BF JUMPI PUSH0 DUP1 REVERT JUMPDEST POP PUSH2 0x5DA PUSH1 0x4 DUP1 CALLDATASIZE SUB DUP2 ADD SWAP1 PUSH2 0x5D5 SWAP2 SWAP1 PUSH2 0x57BF JUMP JUMPDEST PUSH2 0x13D3 JUMP JUMPDEST PUSH1 0x40 MLOAD PUSH2 0x5E7 SWAP2 SWAP1 PUSH2 0x5A14 JUMP JUMPDEST PUSH1 0x40 MLOAD DUP1 SWAP2 SUB SWAP1 RETURN JUMPDEST CALLVALUE DUP1 ISZERO PUSH2 0x5FB JUMPI PUSH0 DUP1 REVERT JUMPDEST POP PUSH2 0x616 PUSH1 0x4 DUP1 CALLDATASIZE SUB DUP2 ADD SWAP1 PUSH2 0x611 SWAP2 SWAP1 PUSH2 0x5B3D JUMP JUMPDEST PUSH2 0x1441 JUMP JUMPDEST STOP JUMPDEST CALLVALUE DUP1 ISZERO PUSH2 0x623 JUMPI PUSH0 DUP1 REVERT JUMPDEST POP PUSH2 0x63E PUSH1 0x4 DUP1 CALLDATASIZE SUB DUP2 ADD SWAP1 PUSH2 0x639 SWAP2 SWAP1 PUSH2 0x57BF JUMP JUMPDEST PUSH2 0x1723 JUMP JUMPDEST PUSH1 0x40 MLOAD PUSH2 0x64B SWAP2 SWAP1 PUSH2 0x57EA JUMP JUMPDEST PUSH1 0x40 MLOAD DUP1 SWAP2 SUB SWAP1 RETURN JUMPDEST CALLVALUE DUP1 ISZERO PUSH2 0x65F JUMPI PUSH0 DUP1 REVERT JUMPDEST POP PUSH2 0x67A PUSH1 0x4 DUP1 CALLDATASIZE SUB DUP2 ADD SWAP1 PUSH2 0x675 SWAP2 SWAP1 PUSH2 0x5B3D JUMP JUMPDEST PUSH2 0x17A7 JUMP JUMPDEST PUSH1 0x40 MLOAD PUSH2 0x687 SWAP2 SWAP1 PUSH2 0x57EA JUMP JUMPDEST PUSH1 0x40 MLOAD DUP1 SWAP2 SUB SWAP1 RETURN JUMPDEST CALLVALUE DUP1 ISZERO PUSH2 0x69B JUMPI PUSH0 DUP1 REVERT JUMPDEST POP PUSH2 0x6B6 PUSH1 0x4 DUP1 CALLDATASIZE SUB DUP2 ADD SWAP1 PUSH2 0x6B1 SWAP2 SWAP1 PUSH2 0x5B97 JUMP JUMPDEST PUSH2 0x17BA JUMP JUMPDEST STOP JUMPDEST CALLVALUE DUP1 ISZERO PUSH2 0x6C3 JUMPI PUSH0 DUP1 REVERT JUMPDEST POP PUSH2 0x6CC PUSH2 0x17DA JUMP JUMPDEST PUSH1 0x40 MLOAD PUSH2 0x6D9 SWAP2 SWAP1 PUSH2 0x5CB6 JUMP JUMPDEST PUSH1 0x40 MLOAD DUP1 SWAP2 SUB SWAP1 RETURN JUMPDEST CALLVALUE DUP1 ISZERO PUSH2 0x6ED JUMPI PUSH0 DUP1 REVERT JUMPDEST POP PUSH2 0x708 PUSH1 0x4 DUP1 CALLDATASIZE SUB DUP2 ADD SWAP1 PUSH2 0x703 SWAP2 SWAP1 PUSH2 0x5CCF JUMP JUMPDEST PUSH2 0x17FF JUMP JUMPDEST PUSH1 0x40 MLOAD PUSH2 0x715 SWAP2 SWAP1 PUSH2 0x5A14 JUMP JUMPDEST PUSH1 0x40 MLOAD DUP1 SWAP2 SUB SWAP1 RETURN JUMPDEST CALLVALUE DUP1 ISZERO PUSH2 0x729 JUMPI PUSH0 DUP1 REVERT JUMPDEST POP PUSH2 0x732 PUSH2 0x18B3 JUMP JUMPDEST STOP JUMPDEST CALLVALUE DUP1 ISZERO PUSH2 0x73F JUMPI PUSH0 DUP1 REVERT JUMPDEST POP PUSH2 0x748 PUSH2 0x18C6 JUMP JUMPDEST PUSH1 0x40 MLOAD PUSH2 0x755 SWAP2 SWAP1 PUSH2 0x5E68 JUMP JUMPDEST PUSH1 0x40 MLOAD DUP1 SWAP2 SUB SWAP1 RETURN JUMPDEST CALLVALUE DUP1 ISZERO PUSH2 0x769 JUMPI PUSH0 DUP1 REVERT JUMPDEST POP PUSH2 0x772 PUSH2 0x1A97 JUMP JUMPDEST PUSH1 0x40 MLOAD PUSH2 0x77F SWAP2 SWAP1 PUSH2 0x5E97 JUMP JUMPDEST PUSH1 0x40 MLOAD DUP1 SWAP2 SUB SWAP1 RETURN JUMPDEST CALLVALUE DUP1 ISZERO PUSH2 0x793 JUMPI PUSH0 DUP1 REVERT JUMPDEST POP PUSH2 0x7AE PUSH1 0x4 DUP1 CALLDATASIZE SUB DUP2 ADD SWAP1 PUSH2 0x7A9 SWAP2 SWAP1 PUSH2 0x5AB0 JUMP JUMPDEST PUSH2 0x1AAD JUMP JUMPDEST PUSH1 0x40 MLOAD PUSH2 0x7BC SWAP3 SWAP2 SWAP1 PUSH2 0x576E JUMP JUMPDEST PUSH1 0x40 MLOAD DUP1 SWAP2 SUB SWAP1 RETURN JUMPDEST CALLVALUE DUP1 ISZERO PUSH2 0x7D0 JUMPI PUSH0 DUP1 REVERT JUMPDEST POP PUSH2 0x7D9 PUSH2 0x1AC1 JUMP JUMPDEST PUSH1 0x40 MLOAD PUSH2 0x7E6 SWAP2 SWAP1 PUSH2 0x57EA JUMP JUMPDEST PUSH1 0x40 MLOAD DUP1 SWAP2 SUB SWAP1 RETURN JUMPDEST CALLVALUE DUP1 ISZERO PUSH2 0x7FA JUMPI PUSH0 DUP1 REVERT JUMPDEST POP PUSH2 0x803 PUSH2 0x1AE9 JUMP JUMPDEST PUSH1 0x40 MLOAD PUSH2 0x810 SWAP2 SWAP1 PUSH2 0x5584 JUMP JUMPDEST PUSH1 0x40 MLOAD DUP1 SWAP2 SUB SWAP1 RETURN JUMPDEST CALLVALUE DUP1 ISZERO PUSH2 0x824 JUMPI PUSH0 DUP1 REVERT JUMPDEST POP PUSH2 0x82D PUSH2 0x1B79 JUMP JUMPDEST STOP JUMPDEST CALLVALUE DUP1 ISZERO PUSH2 0x83A JUMPI PUSH0 DUP1 REVERT JUMPDEST POP PUSH2 0x855 PUSH1 0x4 DUP1 CALLDATASIZE SUB DUP2 ADD SWAP1 PUSH2 0x850 SWAP2 SWAP1 PUSH2 0x5EDA JUMP JUMPDEST PUSH2 0x1B83 JUMP JUMPDEST STOP JUMPDEST CALLVALUE DUP1 ISZERO PUSH2 0x862 JUMPI PUSH0 DUP1 REVERT JUMPDEST POP PUSH2 0x87D PUSH1 0x4 DUP1 CALLDATASIZE SUB DUP2 ADD SWAP1 PUSH2 0x878 SWAP2 SWAP1 PUSH2 0x5A2D JUMP JUMPDEST PUSH2 0x1B99 JUMP JUMPDEST PUSH1 0x40 MLOAD PUSH2 0x88A SWAP2 SWAP1 PUSH2 0x595B JUMP JUMPDEST PUSH1 0x40 MLOAD DUP1 SWAP2 SUB SWAP1 RETURN JUMPDEST CALLVALUE DUP1 ISZERO PUSH2 0x89E JUMPI PUSH0 DUP1 REVERT JUMPDEST POP PUSH2 0x8B9 PUSH1 0x4 DUP1 CALLDATASIZE SUB DUP2 ADD SWAP1 PUSH2 0x8B4 SWAP2 SWAP1 PUSH2 0x5FB6 JUMP JUMPDEST PUSH2 0x1DEF JUMP JUMPDEST STOP JUMPDEST PUSH2 0x8C3 PUSH2 0x1E51 JUMP JUMPDEST STOP JUMPDEST CALLVALUE DUP1 ISZERO PUSH2 0x8D0 JUMPI PUSH0 DUP1 REVERT JUMPDEST POP PUSH2 0x8EB PUSH1 0x4 DUP1 CALLDATASIZE SUB DUP2 ADD SWAP1 PUSH2 0x8E6 SWAP2 SWAP1 PUSH2 0x59C9 JUMP JUMPDEST PUSH2 0x1E5B JUMP JUMPDEST STOP JUMPDEST CALLVALUE DUP1 ISZERO PUSH2 0x8F8 JUMPI PUSH0 DUP1 REVERT JUMPDEST POP PUSH2 0x913 PUSH1 0x4 DUP1 CALLDATASIZE SUB DUP2 ADD SWAP1 PUSH2 0x90E SWAP2 SWAP1 PUSH2 0x5A2D JUMP JUMPDEST PUSH2 0x1E79 JUMP JUMPDEST STOP JUMPDEST CALLVALUE DUP1 ISZERO PUSH2 0x920 JUMPI PUSH0 DUP1 REVERT JUMPDEST POP PUSH2 0x93B PUSH1 0x4 DUP1 CALLDATASIZE SUB DUP2 ADD SWAP1 PUSH2 0x936 SWAP2 SWAP1 PUSH2 0x57BF JUMP JUMPDEST PUSH2 0x1FC1 JUMP JUMPDEST PUSH1 0x40 MLOAD PUSH2 0x948 SWAP2 SWAP1 PUSH2 0x5584 JUMP JUMPDEST PUSH1 0x40 MLOAD DUP1 SWAP2 SUB SWAP1 RETURN JUMPDEST CALLVALUE DUP1 ISZERO PUSH2 0x95C JUMPI PUSH0 DUP1 REVERT JUMPDEST POP PUSH2 0x965 PUSH2 0x1FD3 JUMP JUMPDEST PUSH1 0x40 MLOAD PUSH2 0x972 SWAP2 SWAP1 PUSH2 0x5584 JUMP JUMPDEST PUSH1 0x40 MLOAD DUP1 SWAP2 SUB SWAP1 RETURN JUMPDEST CALLVALUE DUP1 ISZERO PUSH2 0x986 JUMPI PUSH0 DUP1 REVERT JUMPDEST POP PUSH2 0x9A1 PUSH1 0x4 DUP1 CALLDATASIZE SUB DUP2 ADD SWAP1 PUSH2 0x99C SWAP2 SWAP1 PUSH2 0x5B3D JUMP JUMPDEST PUSH2 0x2063 JUMP JUMPDEST STOP JUMPDEST CALLVALUE DUP1 ISZERO PUSH2 0x9AE JUMPI PUSH0 DUP1 REVERT JUMPDEST POP PUSH2 0x9C9 PUSH1 0x4 DUP1 CALLDATASIZE SUB DUP2 ADD SWAP1 PUSH2 0x9C4 SWAP2 SWAP1 PUSH2 0x5A2D JUMP JUMPDEST PUSH2 0x235D JUMP JUMPDEST STOP JUMPDEST CALLVALUE DUP1 ISZERO PUSH2 0x9D6 JUMPI PUSH0 DUP1 REVERT JUMPDEST POP PUSH2 0x9F1 PUSH1 0x4 DUP1 CALLDATASIZE SUB DUP2 ADD SWAP1 PUSH2 0x9EC SWAP2 SWAP1 PUSH2 0x6036 JUMP JUMPDEST PUSH2 0x24BE JUMP JUMPDEST PUSH1 0x40 MLOAD PUSH2 0x9FE SWAP2 SWAP1 PUSH2 0x54E1 JUMP JUMPDEST PUSH1 0x40 MLOAD DUP1 SWAP2 SUB SWAP1 RETURN JUMPDEST CALLVALUE DUP1 ISZERO PUSH2 0xA12 JUMPI PUSH0 DUP1 REVERT JUMPDEST POP PUSH2 0xA2D PUSH1 0x4 DUP1 CALLDATASIZE SUB DUP2 ADD SWAP1 PUSH2 0xA28 SWAP2 SWAP1 PUSH2 0x5B3D JUMP JUMPDEST PUSH2 0x254C JUMP JUMPDEST PUSH1 0x40 MLOAD PUSH2 0xA3A SWAP2 SWAP1 PUSH2 0x54E1 JUMP JUMPDEST PUSH1 0x40 MLOAD DUP1 SWAP2 SUB SWAP1 RETURN JUMPDEST CALLVALUE DUP1 ISZERO PUSH2 0xA4E JUMPI PUSH0 DUP1 REVERT JUMPDEST POP PUSH2 0xA69 PUSH1 0x4 DUP1 CALLDATASIZE SUB DUP2 ADD SWAP1 PUSH2 0xA64 SWAP2 SWAP1 PUSH2 0x6074 JUMP JUMPDEST PUSH2 0x257E JUMP JUMPDEST STOP JUMPDEST CALLVALUE DUP1 ISZERO PUSH2 0xA76 JUMPI PUSH0 DUP1 REVERT JUMPDEST POP PUSH2 0xA7F PUSH2 0x26A3 JUMP JUMPDEST PUSH1 0x40 MLOAD PUSH2 0xA8C SWAP2 SWAP1 PUSH2 0x6100 JUMP JUMPDEST PUSH1 0x40 MLOAD DUP1 SWAP2 SUB SWAP1 RETURN JUMPDEST CALLVALUE DUP1 ISZERO PUSH2 0xAA0 JUMPI PUSH0 DUP1 REVERT JUMPDEST POP PUSH2 0xABB PUSH1 0x4 DUP1 CALLDATASIZE SUB DUP2 ADD SWAP1 PUSH2 0xAB6 SWAP2 SWAP1 PUSH2 0x5CCF JUMP JUMPDEST PUSH2 0x26BB JUMP JUMPDEST STOP JUMPDEST CALLVALUE DUP1 ISZERO PUSH2 0xAC8 JUMPI PUSH0 DUP1 REVERT JUMPDEST POP PUSH2 0xAD1 PUSH2 0x273D JUMP JUMPDEST PUSH1 0x40 MLOAD PUSH2 0xADE SWAP2 SWAP1 PUSH2 0x5584 JUMP JUMPDEST PUSH1 0x40 MLOAD DUP1 SWAP2 SUB SWAP1 RETURN JUMPDEST CALLVALUE DUP1 ISZERO PUSH2 0xAF2 JUMPI PUSH0 DUP1 REVERT JUMPDEST POP PUSH2 0xB0D PUSH1 0x4 DUP1 CALLDATASIZE SUB DUP2 ADD SWAP1 PUSH2 0xB08 SWAP2 SWAP1 PUSH2 0x6154 JUMP JUMPDEST PUSH2 0x27CD JUMP JUMPDEST STOP JUMPDEST PUSH0 PUSH32 0x150B7A0200000000000000000000000000000000000000000000000000000000 PUSH28 0xFFFFFFFFFFFFFFFFFFFFFFFFFFFFFFFFFFFFFFFFFFFFFFFFFFFFFFFF NOT AND DUP3 PUSH28 0xFFFFFFFFFFFFFFFFFFFFFFFFFFFFFFFFFFFFFFFFFFFFFFFFFFFFFFFF NOT AND EQ DUP1 PUSH2 0xBD9 JUMPI POP PUSH32 0xF601D81C00000000000000000000000000000000000000000000000000000000 PUSH28 0xFFFFFFFFFFFFFFFFFFFFFFFFFFFFFFFFFFFFFFFFFFFFFFFFFFFFFFFF NOT AND DUP3 PUSH28 0xFFFFFFFFFFFFFFFFFFFFFFFFFFFFFFFFFFFFFFFFFFFFFFFFFFFFFFFF NOT AND EQ JUMPDEST DUP1 PUSH2 0xBE9 JUMPI POP PUSH2 0xBE8 DUP3 PUSH2 0x28CE JUMP JUMPDEST JUMPDEST SWAP1 POP SWAP2 SWAP1 POP JUMP JUMPDEST PUSH1 0x60 PUSH0 DUP1 SLOAD PUSH2 0xBFE SWAP1 PUSH2 0x61BF JUMP JUMPDEST DUP1 PUSH1 0x1F ADD PUSH1 0x20 DUP1 SWAP2 DIV MUL PUSH1 0x20 ADD PUSH1 0x40 MLOAD SWAP1 DUP2 ADD PUSH1 0x40 MSTORE DUP1 SWAP3 SWAP2 SWAP1 DUP2 DUP2 MSTORE PUSH1 0x20 ADD DUP3 DUP1 SLOAD PUSH2 0xC2A SWAP1 PUSH2 0x61BF JUMP JUMPDEST DUP1 ISZERO PUSH2 0xC75 JUMPI DUP1 PUSH1 0x1F LT PUSH2 0xC4C JUMPI PUSH2 0x100 DUP1 DUP4 SLOAD DIV MUL DUP4 MSTORE SWAP2 PUSH1 0x20 ADD SWAP2 PUSH2 0xC75 JUMP JUMPDEST DUP3 ADD SWAP2 SWAP1 PUSH0 MSTORE PUSH1 0x20 PUSH0 KECCAK256 SWAP1 JUMPDEST DUP2 SLOAD DUP2 MSTORE SWAP1 PUSH1 0x1 ADD SWAP1 PUSH1 0x20 ADD DUP1 DUP4 GT PUSH2 0xC58 JUMPI DUP3 SWAP1 SUB PUSH1 0x1F AND DUP3 ADD SWAP2 JUMPDEST POP POP POP POP POP SWAP1 POP SWAP1 JUMP JUMPDEST PUSH0 DUP1 PUSH2 0xCB0 DUP4 PUSH1 0x40 MLOAD PUSH1 0x20 ADD PUSH2 0xC95 SWAP2 SWAP1 PUSH2 0x6229 JUMP JUMPDEST PUSH1 0x40 MLOAD PUSH1 0x20 DUP2 DUP4 SUB SUB DUP2 MSTORE SWAP1 PUSH1 0x40 MSTORE DUP1 MLOAD SWAP1 PUSH1 0x20 ADD KECCAK256 PUSH2 0x2947 JUMP JUMPDEST SWAP2 POP SWAP2 POP SWAP2 POP SWAP2 JUMP JUMPDEST PUSH0 PUSH2 0xCC3 DUP3 PUSH2 0x299B JUMP JUMPDEST PUSH1 0x4 PUSH0 DUP4 DUP2 MSTORE PUSH1 0x20 ADD SWAP1 DUP2 MSTORE PUSH1 0x20 ADD PUSH0 KECCAK256 PUSH0 SWAP1 SLOAD SWAP1 PUSH2 0x100 EXP SWAP1 DIV PUSH20 0xFFFFFFFFFFFFFFFFFFFFFFFFFFFFFFFFFFFFFFFF AND SWAP1 POP SWAP2 SWAP1 POP JUMP JUMPDEST PUSH0 PUSH2 0xD05 DUP3 PUSH2 0x1723 JUMP JUMPDEST SWAP1 POP DUP1 PUSH20 0xFFFFFFFFFFFFFFFFFFFFFFFFFFFFFFFFFFFFFFFF AND DUP4 PUSH20 0xFFFFFFFFFFFFFFFFFFFFFFFFFFFFFFFFFFFFFFFF AND SUB PUSH2 0xD75 JUMPI PUSH1 0x40 MLOAD PUSH32 0x8C379A000000000000000000000000000000000000000000000000000000000 DUP2 MSTORE PUSH1 0x4 ADD PUSH2 0xD6C SWAP1 PUSH2 0x62AF JUMP JUMPDEST PUSH1 0x40 MLOAD DUP1 SWAP2 SUB SWAP1 REVERT JUMPDEST DUP1 PUSH20 0xFFFFFFFFFFFFFFFFFFFFFFFFFFFFFFFFFFFFFFFF AND PUSH2 0xD94 PUSH2 0x29E6 JUMP JUMPDEST PUSH20 0xFFFFFFFFFFFFFFFFFFFFFFFFFFFFFFFFFFFFFFFF AND EQ DUP1 PUSH2 0xDC3 JUMPI POP PUSH2 0xDC2 DUP2 PUSH2 0xDBD PUSH2 0x29E6 JUMP JUMPDEST PUSH2 0x24BE JUMP JUMPDEST JUMPDEST PUSH2 0xE02 JUMPI PUSH1 0x40 MLOAD PUSH32 0x8C379A000000000000000000000000000000000000000000000000000000000 DUP2 MSTORE PUSH1 0x4 ADD PUSH2 0xDF9 SWAP1 PUSH2 0x633D JUMP JUMPDEST PUSH1 0x40 MLOAD DUP1 SWAP2 SUB SWAP1 REVERT JUMPDEST PUSH2 0xE0C DUP4 DUP4 PUSH2 0x29ED JUMP JUMPDEST POP POP POP JUMP JUMPDEST PUSH0 PUSH4 0x150B7A02 PUSH1 0xE0 SHL SWAP1 POP SWAP6 SWAP5 POP POP POP POP POP JUMP JUMPDEST PUSH2 0xE2D PUSH2 0x2AA3 JUMP JUMPDEST PUSH2 0xE79 DUP3 DUP3 DUP1 DUP1 PUSH1 0x1F ADD PUSH1 0x20 DUP1 SWAP2 DIV MUL PUSH1 0x20 ADD PUSH1 0x40 MLOAD SWAP1 DUP2 ADD PUSH1 0x40 MSTORE DUP1 SWAP4 SWAP3 SWAP2 SWAP1 DUP2 DUP2 MSTORE PUSH1 0x20 ADD DUP4 DUP4 DUP1 DUP3 DUP5 CALLDATACOPY PUSH0 DUP2 DUP5 ADD MSTORE PUSH1 0x1F NOT PUSH1 0x1F DUP3 ADD AND SWAP1 POP DUP1 DUP4 ADD SWAP3 POP POP POP POP POP POP POP PUSH2 0x2B21 JUMP JUMPDEST POP DUP2 DUP2 PUSH1 0x16 SWAP2 DUP3 PUSH2 0xE8B SWAP3 SWAP2 SWAP1 PUSH2 0x64F9 JUMP JUMPDEST POP POP POP JUMP JUMPDEST PUSH0 PUSH1 0x8 DUP1 SLOAD SWAP1 POP SWAP1 POP SWAP1 JUMP JUMPDEST PUSH2 0xEA4 PUSH2 0x2AA3 JUMP JUMPDEST PUSH2 0xEF0 DUP3 DUP3 DUP1 DUP1 PUSH1 0x1F ADD PUSH1 0x20 DUP1 SWAP2 DIV MUL PUSH1 0x20 ADD PUSH1 0x40 MLOAD SWAP1 DUP2 ADD PUSH1 0x40 MSTORE DUP1 SWAP4 SWAP3 SWAP2 SWAP1 DUP2 DUP2 MSTORE PUSH1 0x20 ADD DUP4 DUP4 DUP1 DUP3 DUP5 CALLDATACOPY PUSH0 DUP2 DUP5 ADD MSTORE PUSH1 0x1F NOT PUSH1 0x1F DUP3 ADD AND SWAP1 POP DUP1 DUP4 ADD SWAP3 POP POP POP POP POP POP POP PUSH2 0x3027 JUMP JUMPDEST PUSH2 0xF2F JUMPI PUSH1 0x40 MLOAD PUSH32 0x8C379A000000000000000000000000000000000000000000000000000000000 DUP2 MSTORE PUSH1 0x4 ADD PUSH2 0xF26 SWAP1 PUSH2 0x6610 JUMP JUMPDEST PUSH1 0x40 MLOAD DUP1 SWAP2 SUB SWAP1 REVERT JUMPDEST DUP2 DUP2 PUSH1 0x13 SWAP2 DUP3 PUSH2 0xF40 SWAP3 SWAP2 SWAP1 PUSH2 0x64F9 JUMP JUMPDEST POP POP POP JUMP JUMPDEST PUSH1 0x60 PUSH1 0x16 DUP1 SLOAD PUSH2 0xF54 SWAP1 PUSH2 0x61BF JUMP JUMPDEST DUP1 PUSH1 0x1F ADD PUSH1 0x20 DUP1 SWAP2 DIV MUL PUSH1 0x20 ADD PUSH1 0x40 MLOAD SWAP1 DUP2 ADD PUSH1 0x40 MSTORE DUP1 SWAP3 SWAP2 SWAP1 DUP2 DUP2 MSTORE PUSH1 0x20 ADD DUP3 DUP1 SLOAD PUSH2 0xF80 SWAP1 PUSH2 0x61BF JUMP JUMPDEST DUP1 ISZERO PUSH2 0xFCB JUMPI DUP1 PUSH1 0x1F LT PUSH2 0xFA2 JUMPI PUSH2 0x100 DUP1 DUP4 SLOAD DIV MUL DUP4 MSTORE SWAP2 PUSH1 0x20 ADD SWAP2 PUSH2 0xFCB JUMP JUMPDEST DUP3 ADD SWAP2 SWAP1 PUSH0 MSTORE PUSH1 0x20 PUSH0 KECCAK256 SWAP1 JUMPDEST DUP2 SLOAD DUP2 MSTORE SWAP1 PUSH1 0x1 ADD SWAP1 PUSH1 0x20 ADD DUP1 DUP4 GT PUSH2 0xFAE JUMPI DUP3 SWAP1 SUB PUSH1 0x1F AND DUP3 ADD SWAP2 JUMPDEST POP POP POP POP POP SWAP1 POP SWAP1 JUMP JUMPDEST PUSH2 0xFE6 PUSH2 0xFE0 PUSH2 0x29E6 JUMP JUMPDEST DUP3 PUSH2 0x34B4 JUMP JUMPDEST PUSH2 0x1025 JUMPI PUSH1 0x40 MLOAD PUSH32 0x8C379A000000000000000000000000000000000000000000000000000000000 DUP2 MSTORE PUSH1 0x4 ADD PUSH2 0x101C SWAP1 PUSH2 0x669E JUMP JUMPDEST PUSH1 0x40 MLOAD DUP1 SWAP2 SUB SWAP1 REVERT JUMPDEST PUSH2 0x1030 DUP4 DUP4 DUP4 PUSH2 0x3548 JUMP JUMPDEST POP POP POP JUMP JUMPDEST PUSH0 PUSH2 0x103F DUP4 PUSH2 0x17FF JUMP JUMPDEST DUP3 LT PUSH2 0x1080 JUMPI PUSH1 0x40 MLOAD PUSH32 0x8C379A000000000000000000000000000000000000000000000000000000000 DUP2 MSTORE PUSH1 0x4 ADD PUSH2 0x1077 SWAP1 PUSH2 0x672C JUMP JUMPDEST PUSH1 0x40 MLOAD DUP1 SWAP2 SUB SWAP1 REVERT JUMPDEST PUSH1 0x6 PUSH0 DUP5 PUSH20 0xFFFFFFFFFFFFFFFFFFFFFFFFFFFFFFFFFFFFFFFF AND PUSH20 0xFFFFFFFFFFFFFFFFFFFFFFFFFFFFFFFFFFFFFFFF AND DUP2 MSTORE PUSH1 0x20 ADD SWAP1 DUP2 MSTORE PUSH1 0x20 ADD PUSH0 KECCAK256 PUSH0 DUP4 DUP2 MSTORE PUSH1 0x20 ADD SWAP1 DUP2 MSTORE PUSH1 0x20 ADD PUSH0 KECCAK256 SLOAD SWAP1 POP SWAP3 SWAP2 POP POP JUMP JUMPDEST PUSH2 0x10DE DUP2 PUSH2 0x3834 JUMP JUMPDEST PUSH2 0x111D JUMPI PUSH1 0x40 MLOAD PUSH32 0x8C379A000000000000000000000000000000000000000000000000000000000 DUP2 MSTORE PUSH1 0x4 ADD PUSH2 0x1114 SWAP1 PUSH2 0x67BA JUMP JUMPDEST PUSH1 0x40 MLOAD DUP1 SWAP2 SUB SWAP1 REVERT JUMPDEST PUSH2 0x1125 PUSH2 0x1AC1 JUMP JUMPDEST PUSH20 0xFFFFFFFFFFFFFFFFFFFFFFFFFFFFFFFFFFFFFFFF AND CALLER PUSH20 0xFFFFFFFFFFFFFFFFFFFFFFFFFFFFFFFFFFFFFFFF AND EQ DUP1 PUSH2 0x11BC JUMPI POP PUSH1 0x10 PUSH0 DUP3 DUP2 MSTORE PUSH1 0x20 ADD SWAP1 DUP2 MSTORE PUSH1 0x20 ADD PUSH0 KECCAK256 PUSH1 0x1 ADD PUSH0 SWAP1 SLOAD SWAP1 PUSH2 0x100 EXP SWAP1 DIV PUSH20 0xFFFFFFFFFFFFFFFFFFFFFFFFFFFFFFFFFFFFFFFF AND PUSH20 0xFFFFFFFFFFFFFFFFFFFFFFFFFFFFFFFFFFFFFFFF AND CALLER PUSH20 0xFFFFFFFFFFFFFFFFFFFFFFFFFFFFFFFFFFFFFFFF AND EQ JUMPDEST ISZERO PUSH2 0x12D3 JUMPI PUSH1 0x10 PUSH0 DUP3 DUP2 MSTORE PUSH1 0x20 ADD SWAP1 DUP2 MSTORE PUSH1 0x20 ADD PUSH0 KECCAK256 PUSH0 DUP1 DUP3 ADD PUSH0 PUSH2 0x11E1 SWAP2 SWAP1 PUSH2 0x53A9 JUMP JUMPDEST PUSH1 0x1 DUP3 ADD PUSH0 PUSH2 0x100 EXP DUP2 SLOAD SWAP1 PUSH20 0xFFFFFFFFFFFFFFFFFFFFFFFFFFFFFFFFFFFFFFFF MUL NOT AND SWAP1 SSTORE PUSH1 0x2 DUP3 ADD PUSH0 SWAP1 SSTORE POP POP PUSH0 JUMPDEST PUSH1 0x11 DUP1 SLOAD SWAP1 POP DUP2 LT ISZERO PUSH2 0x12CD JUMPI DUP2 PUSH1 0x11 DUP3 DUP2 SLOAD DUP2 LT PUSH2 0x1234 JUMPI PUSH2 0x1233 PUSH2 0x67D8 JUMP JUMPDEST JUMPDEST SWAP1 PUSH0 MSTORE PUSH1 0x20 PUSH0 KECCAK256 ADD SLOAD SUB PUSH2 0x12BA JUMPI PUSH1 0x11 PUSH1 0x1 PUSH1 0x11 DUP1 SLOAD SWAP1 POP PUSH2 0x1256 SWAP2 SWAP1 PUSH2 0x6832 JUMP JUMPDEST DUP2 SLOAD DUP2 LT PUSH2 0x1267 JUMPI PUSH2 0x1266 PUSH2 0x67D8 JUMP JUMPDEST JUMPDEST SWAP1 PUSH0 MSTORE PUSH1 0x20 PUSH0 KECCAK256 ADD SLOAD PUSH1 0x11 DUP3 DUP2 SLOAD DUP2 LT PUSH2 0x1284 JUMPI PUSH2 0x1283 PUSH2 0x67D8 JUMP JUMPDEST JUMPDEST SWAP1 PUSH0 MSTORE PUSH1 0x20 PUSH0 KECCAK256 ADD DUP2 SWAP1 SSTORE POP PUSH1 0x11 DUP1 SLOAD DUP1 PUSH2 0x12A2 JUMPI PUSH2 0x12A1 PUSH2 0x6865 JUMP JUMPDEST JUMPDEST PUSH1 0x1 SWAP1 SUB DUP2 DUP2 SWAP1 PUSH0 MSTORE PUSH1 0x20 PUSH0 KECCAK256 ADD PUSH0 SWAP1 SSTORE SWAP1 SSTORE PUSH2 0x12CD JUMP JUMPDEST DUP1 DUP1 PUSH2 0x12C5 SWAP1 PUSH2 0x6892 JUMP JUMPDEST SWAP2 POP POP PUSH2 0x1212 JUMP JUMPDEST POP PUSH2 0x130E JUMP JUMPDEST PUSH1 0x40 MLOAD PUSH32 0x8C379A000000000000000000000000000000000000000000000000000000000 DUP2 MSTORE PUSH1 0x4 ADD PUSH2 0x1305 SWAP1 PUSH2 0x696F JUMP JUMPDEST PUSH1 0x40 MLOAD DUP1 SWAP2 SUB SWAP1 REVERT JUMPDEST POP JUMP JUMPDEST PUSH2 0x1319 PUSH2 0x2AA3 JUMP JUMPDEST PUSH2 0x1322 DUP2 PUSH2 0x389F JUMP JUMPDEST POP DUP1 PUSH1 0x14 PUSH0 PUSH2 0x100 EXP DUP2 SLOAD DUP2 PUSH2 0xFFFF MUL NOT AND SWAP1 DUP4 PUSH2 0xFFFF AND MUL OR SWAP1 SSTORE POP POP JUMP JUMPDEST PUSH2 0x134A PUSH2 0x2AA3 JUMP JUMPDEST PUSH2 0x1354 DUP3 DUP3 PUSH2 0x38C0 JUMP JUMPDEST POP POP JUMP JUMPDEST PUSH2 0x1372 DUP4 DUP4 DUP4 PUSH1 0x40 MLOAD DUP1 PUSH1 0x20 ADD PUSH1 0x40 MSTORE DUP1 PUSH0 DUP2 MSTORE POP PUSH2 0x1DEF JUMP JUMPDEST POP POP POP JUMP JUMPDEST PUSH2 0x1388 PUSH2 0x1382 PUSH2 0x29E6 JUMP JUMPDEST DUP3 PUSH2 0x34B4 JUMP JUMPDEST PUSH2 0x13C7 JUMPI PUSH1 0x40 MLOAD PUSH32 0x8C379A000000000000000000000000000000000000000000000000000000000 DUP2 MSTORE PUSH1 0x4 ADD PUSH2 0x13BE SWAP1 PUSH2 0x669E JUMP JUMPDEST PUSH1 0x40 MLOAD DUP1 SWAP2 SUB SWAP1 REVERT JUMPDEST PUSH2 0x13D0 DUP2 PUSH2 0x3942 JUMP JUMPDEST POP JUMP JUMPDEST PUSH0 PUSH2 0x13DC PUSH2 0xE90 JUMP JUMPDEST DUP3 LT PUSH2 0x141D JUMPI PUSH1 0x40 MLOAD PUSH32 0x8C379A000000000000000000000000000000000000000000000000000000000 DUP2 MSTORE PUSH1 0x4 ADD PUSH2 0x1414 SWAP1 PUSH2 0x69FD JUMP JUMPDEST PUSH1 0x40 MLOAD DUP1 SWAP2 SUB SWAP1 REVERT JUMPDEST PUSH1 0x8 DUP3 DUP2 SLOAD DUP2 LT PUSH2 0x1431 JUMPI PUSH2 0x1430 PUSH2 0x67D8 JUMP JUMPDEST JUMPDEST SWAP1 PUSH0 MSTORE PUSH1 0x20 PUSH0 KECCAK256 ADD SLOAD SWAP1 POP SWAP2 SWAP1 POP JUMP JUMPDEST PUSH2 0x1449 PUSH2 0x2AA3 JUMP JUMPDEST PUSH0 DUP2 PUSH1 0xE DUP2 GT ISZERO PUSH2 0x145D JUMPI PUSH2 0x145C PUSH2 0x6A1B JUMP JUMPDEST JUMPDEST SWAP1 POP PUSH0 PUSH2 0x146A DUP5 DUP4 PUSH2 0x394E JUMP JUMPDEST SWAP1 POP PUSH2 0x1475 DUP2 PUSH2 0x3992 JUMP JUMPDEST PUSH2 0x14B4 JUMPI PUSH1 0x40 MLOAD PUSH32 0x8C379A000000000000000000000000000000000000000000000000000000000 DUP2 MSTORE PUSH1 0x4 ADD PUSH2 0x14AB SWAP1 PUSH2 0x6A92 JUMP JUMPDEST PUSH1 0x40 MLOAD DUP1 SWAP2 SUB SWAP1 REVERT JUMPDEST PUSH1 0xD PUSH0 DUP3 DUP2 MSTORE PUSH1 0x20 ADD SWAP1 DUP2 MSTORE PUSH1 0x20 ADD PUSH0 KECCAK256 PUSH1 0x3 ADD PUSH0 SWAP1 SLOAD SWAP1 PUSH2 0x100 EXP SWAP1 DIV PUSH20 0xFFFFFFFFFFFFFFFFFFFFFFFFFFFFFFFFFFFFFFFF AND PUSH20 0xFFFFFFFFFFFFFFFFFFFFFFFFFFFFFFFFFFFFFFFF AND PUSH4 0xF9C3DE11 PUSH1 0x40 MLOAD DUP2 PUSH4 0xFFFFFFFF AND PUSH1 0xE0 SHL DUP2 MSTORE PUSH1 0x4 ADD PUSH0 PUSH1 0x40 MLOAD DUP1 DUP4 SUB DUP2 PUSH0 DUP8 DUP1 EXTCODESIZE ISZERO DUP1 ISZERO PUSH2 0x152C JUMPI PUSH0 DUP1 REVERT JUMPDEST POP GAS CALL ISZERO DUP1 ISZERO PUSH2 0x153E JUMPI RETURNDATASIZE PUSH0 DUP1 RETURNDATACOPY RETURNDATASIZE PUSH0 REVERT JUMPDEST POP POP POP POP PUSH1 0x40 MLOAD DUP1 PUSH1 0x80 ADD PUSH1 0x40 MSTORE DUP1 PUSH1 0x40 MLOAD DUP1 PUSH1 0x20 ADD PUSH1 0x40 MSTORE DUP1 PUSH0 DUP2 MSTORE POP DUP2 MSTORE PUSH1 0x20 ADD PUSH1 0x4 PUSH1 0xE DUP2 GT ISZERO PUSH2 0x1575 JUMPI PUSH2 0x1574 PUSH2 0x6A1B JUMP JUMPDEST JUMPDEST DUP2 MSTORE PUSH1 0x20 ADD PUSH1 0x40 MLOAD DUP1 PUSH1 0x20 ADD PUSH1 0x40 MSTORE DUP1 PUSH0 DUP2 MSTORE POP DUP2 MSTORE PUSH1 0x20 ADD PUSH0 PUSH20 0xFFFFFFFFFFFFFFFFFFFFFFFFFFFFFFFFFFFFFFFF AND DUP2 MSTORE POP PUSH1 0xD PUSH0 DUP4 DUP2 MSTORE PUSH1 0x20 ADD SWAP1 DUP2 MSTORE PUSH1 0x20 ADD PUSH0 KECCAK256 PUSH0 DUP3 ADD MLOAD DUP2 PUSH0 ADD SWAP1 DUP2 PUSH2 0x15CC SWAP2 SWAP1 PUSH2 0x6AB0 JUMP JUMPDEST POP PUSH1 0x20 DUP3 ADD MLOAD DUP2 PUSH1 0x1 ADD PUSH0 PUSH2 0x100 EXP DUP2 SLOAD DUP2 PUSH1 0xFF MUL NOT AND SWAP1 DUP4 PUSH1 0xE DUP2 GT ISZERO PUSH2 0x15F7 JUMPI PUSH2 0x15F6 PUSH2 0x6A1B JUMP JUMPDEST JUMPDEST MUL OR SWAP1 SSTORE POP PUSH1 0x40 DUP3 ADD MLOAD DUP2 PUSH1 0x2 ADD SWAP1 DUP2 PUSH2 0x1611 SWAP2 SWAP1 PUSH2 0x6AB0 JUMP JUMPDEST POP PUSH1 0x60 DUP3 ADD MLOAD DUP2 PUSH1 0x3 ADD PUSH0 PUSH2 0x100 EXP DUP2 SLOAD DUP2 PUSH20 0xFFFFFFFFFFFFFFFFFFFFFFFFFFFFFFFFFFFFFFFF MUL NOT AND SWAP1 DUP4 PUSH20 0xFFFFFFFFFFFFFFFFFFFFFFFFFFFFFFFFFFFFFFFF AND MUL OR SWAP1 SSTORE POP SWAP1 POP POP PUSH0 JUMPDEST PUSH1 0xC DUP1 SLOAD SWAP1 POP DUP2 LT ISZERO PUSH2 0x171B JUMPI DUP2 PUSH1 0xC DUP3 DUP2 SLOAD DUP2 LT PUSH2 0x167F JUMPI PUSH2 0x167E PUSH2 0x67D8 JUMP JUMPDEST JUMPDEST SWAP1 PUSH0 MSTORE PUSH1 0x20 PUSH0 KECCAK256 ADD SLOAD SUB PUSH2 0x1708 JUMPI PUSH1 0xC PUSH1 0x1 PUSH1 0xC DUP1 SLOAD SWAP1 POP PUSH2 0x16A1 SWAP2 SWAP1 PUSH2 0x6832 JUMP JUMPDEST DUP2 SLOAD DUP2 LT PUSH2 0x16B2 JUMPI PUSH2 0x16B1 PUSH2 0x67D8 JUMP JUMPDEST JUMPDEST SWAP1 PUSH0 MSTORE PUSH1 0x20 PUSH0 KECCAK256 ADD SLOAD PUSH1 0xC DUP3 DUP2 SLOAD DUP2 LT PUSH2 0x16CF JUMPI PUSH2 0x16CE PUSH2 0x67D8 JUMP JUMPDEST JUMPDEST SWAP1 PUSH0 MSTORE PUSH1 0x20 PUSH0 KECCAK256 ADD DUP2 SWAP1 SSTORE POP PUSH1 0xC DUP1 SLOAD DUP1 PUSH2 0x16ED JUMPI PUSH2 0x16EC PUSH2 0x6865 JUMP JUMPDEST JUMPDEST PUSH1 0x1 SWAP1 SUB DUP2 DUP2 SWAP1 PUSH0 MSTORE PUSH1 0x20 PUSH0 KECCAK256 ADD PUSH0 SWAP1 SSTORE SWAP1 SSTORE POP POP POP PUSH2 0x171F JUMP JUMPDEST DUP1 DUP1 PUSH2 0x1713 SWAP1 PUSH2 0x6892 JUMP JUMPDEST SWAP2 POP POP PUSH2 0x165D JUMP JUMPDEST POP POP POP JUMPDEST POP POP JUMP JUMPDEST PUSH0 DUP1 PUSH2 0x172E DUP4 PUSH2 0x39BD JUMP JUMPDEST SWAP1 POP PUSH0 PUSH20 0xFFFFFFFFFFFFFFFFFFFFFFFFFFFFFFFFFFFFFFFF AND DUP2 PUSH20 0xFFFFFFFFFFFFFFFFFFFFFFFFFFFFFFFFFFFFFFFF AND SUB PUSH2 0x179E JUMPI PUSH1 0x40 MLOAD PUSH32 0x8C379A000000000000000000000000000000000000000000000000000000000 DUP2 MSTORE PUSH1 0x4 ADD PUSH2 0x1795 SWAP1 PUSH2 0x6BC9 JUMP JUMPDEST PUSH1 0x40 MLOAD DUP1 SWAP2 SUB SWAP1 REVERT JUMPDEST DUP1 SWAP2 POP POP SWAP2 SWAP1 POP JUMP JUMPDEST PUSH0 PUSH2 0x17B2 DUP4 DUP4 PUSH2 0x39F6 JUMP JUMPDEST SWAP1 POP SWAP3 SWAP2 POP POP JUMP JUMPDEST PUSH2 0x17C2 PUSH2 0x2AA3 JUMP JUMPDEST PUSH2 0x17D1 DUP8 DUP8 DUP8 DUP8 DUP8 DUP8 DUP8 PUSH2 0x3BF2 JUMP JUMPDEST POP POP POP POP POP POP POP JUMP JUMPDEST PUSH1 0x19 PUSH0 SWAP1 SLOAD SWAP1 PUSH2 0x100 EXP SWAP1 DIV PUSH20 0xFFFFFFFFFFFFFFFFFFFFFFFFFFFFFFFFFFFFFFFF AND DUP2 JUMP JUMPDEST PUSH0 DUP1 PUSH20 0xFFFFFFFFFFFFFFFFFFFFFFFFFFFFFFFFFFFFFFFF AND DUP3 PUSH20 0xFFFFFFFFFFFFFFFFFFFFFFFFFFFFFFFFFFFFFFFF AND SUB PUSH2 0x186E JUMPI PUSH1 0x40 MLOAD PUSH32 0x8C379A000000000000000000000000000000000000000000000000000000000 DUP2 MSTORE PUSH1 0x4 ADD PUSH2 0x1865 SWAP1 PUSH2 0x6C57 JUMP JUMPDEST PUSH1 0x40 MLOAD DUP1 SWAP2 SUB SWAP1 REVERT JUMPDEST PUSH1 0x3 PUSH0 DUP4 PUSH20 0xFFFFFFFFFFFFFFFFFFFFFFFFFFFFFFFFFFFFFFFF AND PUSH20 0xFFFFFFFFFFFFFFFFFFFFFFFFFFFFFFFFFFFFFFFF AND DUP2 MSTORE PUSH1 0x20 ADD SWAP1 DUP2 MSTORE PUSH1 0x20 ADD PUSH0 KECCAK256 SLOAD SWAP1 POP SWAP2 SWAP1 POP JUMP JUMPDEST PUSH2 0x18BB PUSH2 0x2AA3 JUMP JUMPDEST PUSH2 0x18C4 PUSH0 PUSH2 0x3D7E JUMP JUMPDEST JUMP JUMPDEST PUSH1 0x60 PUSH0 PUSH1 0x11 DUP1 SLOAD SWAP1 POP SWAP1 POP PUSH0 DUP2 PUSH8 0xFFFFFFFFFFFFFFFF DUP2 GT ISZERO PUSH2 0x18EC JUMPI PUSH2 0x18EB PUSH2 0x55AC JUMP JUMPDEST JUMPDEST PUSH1 0x40 MLOAD SWAP1 DUP1 DUP3 MSTORE DUP1 PUSH1 0x20 MUL PUSH1 0x20 ADD DUP3 ADD PUSH1 0x40 MSTORE DUP1 ISZERO PUSH2 0x1925 JUMPI DUP2 PUSH1 0x20 ADD JUMPDEST PUSH2 0x1912 PUSH2 0x53E6 JUMP JUMPDEST DUP2 MSTORE PUSH1 0x20 ADD SWAP1 PUSH1 0x1 SWAP1 SUB SWAP1 DUP2 PUSH2 0x190A JUMPI SWAP1 POP JUMPDEST POP SWAP1 POP PUSH0 JUMPDEST DUP3 DUP2 LT ISZERO PUSH2 0x1A8E JUMPI PUSH0 PUSH1 0x11 DUP3 DUP2 SLOAD DUP2 LT PUSH2 0x1947 JUMPI PUSH2 0x1946 PUSH2 0x67D8 JUMP JUMPDEST JUMPDEST SWAP1 PUSH0 MSTORE PUSH1 0x20 PUSH0 KECCAK256 ADD SLOAD SWAP1 POP PUSH1 0x10 PUSH0 DUP3 DUP2 MSTORE PUSH1 0x20 ADD SWAP1 DUP2 MSTORE PUSH1 0x20 ADD PUSH0 KECCAK256 PUSH1 0x40 MLOAD DUP1 PUSH1 0x60 ADD PUSH1 0x40 MSTORE SWAP1 DUP2 PUSH0 DUP3 ADD DUP1 SLOAD PUSH2 0x197D SWAP1 PUSH2 0x61BF JUMP JUMPDEST DUP1 PUSH1 0x1F ADD PUSH1 0x20 DUP1 SWAP2 DIV MUL PUSH1 0x20 ADD PUSH1 0x40 MLOAD SWAP1 DUP2 ADD PUSH1 0x40 MSTORE DUP1 SWAP3 SWAP2 SWAP1 DUP2 DUP2 MSTORE PUSH1 0x20 ADD DUP3 DUP1 SLOAD PUSH2 0x19A9 SWAP1 PUSH2 0x61BF JUMP JUMPDEST DUP1 ISZERO PUSH2 0x19F4 JUMPI DUP1 PUSH1 0x1F LT PUSH2 0x19CB JUMPI PUSH2 0x100 DUP1 DUP4 SLOAD DIV MUL DUP4 MSTORE SWAP2 PUSH1 0x20 ADD SWAP2 PUSH2 0x19F4 JUMP JUMPDEST DUP3 ADD SWAP2 SWAP1 PUSH0 MSTORE PUSH1 0x20 PUSH0 KECCAK256 SWAP1 JUMPDEST DUP2 SLOAD DUP2 MSTORE SWAP1 PUSH1 0x1 ADD SWAP1 PUSH1 0x20 ADD DUP1 DUP4 GT PUSH2 0x19D7 JUMPI DUP3 SWAP1 SUB PUSH1 0x1F AND DUP3 ADD SWAP2 JUMPDEST POP POP POP POP POP DUP2 MSTORE PUSH1 0x20 ADD PUSH1 0x1 DUP3 ADD PUSH0 SWAP1 SLOAD SWAP1 PUSH2 0x100 EXP SWAP1 DIV PUSH20 0xFFFFFFFFFFFFFFFFFFFFFFFFFFFFFFFFFFFFFFFF AND PUSH20 0xFFFFFFFFFFFFFFFFFFFFFFFFFFFFFFFFFFFFFFFF AND PUSH20 0xFFFFFFFFFFFFFFFFFFFFFFFFFFFFFFFFFFFFFFFF AND DUP2 MSTORE PUSH1 0x20 ADD PUSH1 0x2 DUP3 ADD SLOAD DUP2 MSTORE POP POP DUP4 DUP4 DUP2 MLOAD DUP2 LT PUSH2 0x1A6F JUMPI PUSH2 0x1A6E PUSH2 0x67D8 JUMP JUMPDEST JUMPDEST PUSH1 0x20 MUL PUSH1 0x20 ADD ADD DUP2 SWAP1 MSTORE POP POP DUP1 DUP1 PUSH2 0x1A86 SWAP1 PUSH2 0x6892 JUMP JUMPDEST SWAP2 POP POP PUSH2 0x192A JUMP JUMPDEST POP DUP1 SWAP3 POP POP POP SWAP1 JUMP JUMPDEST PUSH0 PUSH1 0x14 PUSH0 SWAP1 SLOAD SWAP1 PUSH2 0x100 EXP SWAP1 DIV PUSH2 0xFFFF AND SWAP1 POP SWAP1 JUMP JUMPDEST PUSH0 DUP1 PUSH2 0x1AB8 DUP4 PUSH2 0x2947 JUMP JUMPDEST SWAP2 POP SWAP2 POP SWAP2 POP SWAP2 JUMP JUMPDEST PUSH0 PUSH1 0xB PUSH0 SWAP1 SLOAD SWAP1 PUSH2 0x100 EXP SWAP1 DIV PUSH20 0xFFFFFFFFFFFFFFFFFFFFFFFFFFFFFFFFFFFFFFFF AND SWAP1 POP SWAP1 JUMP JUMPDEST PUSH1 0x60 PUSH1 0x1 DUP1 SLOAD PUSH2 0x1AF8 SWAP1 PUSH2 0x61BF JUMP JUMPDEST DUP1 PUSH1 0x1F ADD PUSH1 0x20 DUP1 SWAP2 DIV MUL PUSH1 0x20 ADD PUSH1 0x40 MLOAD SWAP1 DUP2 ADD PUSH1 0x40 MSTORE DUP1 SWAP3 SWAP2 SWAP1 DUP2 DUP2 MSTORE PUSH1 0x20 ADD DUP3 DUP1 SLOAD PUSH2 0x1B24 SWAP1 PUSH2 0x61BF JUMP JUMPDEST DUP1 ISZERO PUSH2 0x1B6F JUMPI DUP1 PUSH1 0x1F LT PUSH2 0x1B46 JUMPI PUSH2 0x100 DUP1 DUP4 SLOAD DIV MUL DUP4 MSTORE SWAP2 PUSH1 0x20 ADD SWAP2 PUSH2 0x1B6F JUMP JUMPDEST DUP3 ADD SWAP2 SWAP1 PUSH0 MSTORE PUSH1 0x20 PUSH0 KECCAK256 SWAP1 JUMPDEST DUP2 SLOAD DUP2 MSTORE SWAP1 PUSH1 0x1 ADD SWAP1 PUSH1 0x20 ADD DUP1 DUP4 GT PUSH2 0x1B52 JUMPI DUP3 SWAP1 SUB PUSH1 0x1F AND DUP3 ADD SWAP2 JUMPDEST POP POP POP POP POP SWAP1 POP SWAP1 JUMP JUMPDEST PUSH2 0x1B81 PUSH2 0x3E41 JUMP JUMPDEST JUMP JUMPDEST PUSH2 0x1B95 PUSH2 0x1B8E PUSH2 0x29E6 JUMP JUMPDEST DUP4 DUP4 PUSH2 0x3EA6 JUMP JUMPDEST POP POP JUMP JUMPDEST PUSH0 DUP1 PUSH32 0x74BB301A2D230DCB2257DA6B00C4D08A9E5440A62A2539EF4993AC1C75D4592D SWAP1 POP PUSH0 PUSH4 0xA4261980 PUSH1 0xE0 SHL SWAP1 POP PUSH0 DUP3 SWAP1 POP PUSH0 CALLER PUSH20 0xFFFFFFFFFFFFFFFFFFFFFFFFFFFFFFFFFFFFFFFF AND EXTCODESIZE GT ISZERO PUSH2 0x1DAD JUMPI PUSH20 0x47E0CDCB3C7705EF6FA57B69539D58AB5570799F PUSH20 0xFFFFFFFFFFFFFFFFFFFFFFFFFFFFFFFFFFFFFFFF AND CALLER PUSH20 0xFFFFFFFFFFFFFFFFFFFFFFFFFFFFFFFFFFFFFFFF AND SUB PUSH2 0x1CA0 JUMPI DUP6 PUSH20 0xFFFFFFFFFFFFFFFFFFFFFFFFFFFFFFFFFFFFFFFF AND DUP8 PUSH20 0xFFFFFFFFFFFFFFFFFFFFFFFFFFFFFFFFFFFFFFFF AND PUSH32 0x563931B23904244C4436A65AB54B077DB27ACC82DDE94F11C0F44149D50B34DC DUP8 PUSH1 0x40 MLOAD PUSH2 0x1C90 SWAP2 SWAP1 PUSH2 0x5A14 JUMP JUMPDEST PUSH1 0x40 MLOAD DUP1 SWAP2 SUB SWAP1 LOG3 DUP2 SWAP1 POP PUSH2 0x1DA2 JUMP JUMPDEST CALLER PUSH20 0xFFFFFFFFFFFFFFFFFFFFFFFFFFFFFFFFFFFFFFFF AND PUSH4 0x70A08231 ADDRESS PUSH1 0x40 MLOAD DUP3 PUSH4 0xFFFFFFFF AND PUSH1 0xE0 SHL DUP2 MSTORE PUSH1 0x4 ADD PUSH2 0x1CD9 SWAP2 SWAP1 PUSH2 0x57EA JUMP JUMPDEST PUSH1 0x20 PUSH1 0x40 MLOAD DUP1 DUP4 SUB DUP2 DUP7 GAS STATICCALL SWAP3 POP POP POP DUP1 ISZERO PUSH2 0x1D13 JUMPI POP PUSH1 0x40 MLOAD RETURNDATASIZE PUSH1 0x1F NOT PUSH1 0x1F DUP3 ADD AND DUP3 ADD DUP1 PUSH1 0x40 MSTORE POP DUP2 ADD SWAP1 PUSH2 0x1D10 SWAP2 SWAP1 PUSH2 0x6C89 JUMP JUMPDEST PUSH1 0x1 JUMPDEST ISZERO PUSH2 0x1DA1 JUMPI DUP6 DUP2 LT PUSH2 0x1D9F JUMPI CALLER PUSH20 0xFFFFFFFFFFFFFFFFFFFFFFFFFFFFFFFFFFFFFFFF AND DUP8 PUSH20 0xFFFFFFFFFFFFFFFFFFFFFFFFFFFFFFFFFFFFFFFF AND DUP10 PUSH20 0xFFFFFFFFFFFFFFFFFFFFFFFFFFFFFFFFFFFFFFFF AND PUSH32 0x47760C51727C7F903DFB2C32E2D2BCC306D75DC25F4649FBA5674F5356B44B5D DUP10 PUSH1 0x40 MLOAD PUSH2 0x1D93 SWAP2 SWAP1 PUSH2 0x5A14 JUMP JUMPDEST PUSH1 0x40 MLOAD DUP1 SWAP2 SUB SWAP1 LOG4 DUP3 SWAP2 POP JUMPDEST POP JUMPDEST JUMPDEST DUP1 SWAP4 POP POP POP POP PUSH2 0x1DE8 JUMP JUMPDEST PUSH1 0x40 MLOAD PUSH32 0x8C379A000000000000000000000000000000000000000000000000000000000 DUP2 MSTORE PUSH1 0x4 ADD PUSH2 0x1DDF SWAP1 PUSH2 0x6D24 JUMP JUMPDEST PUSH1 0x40 MLOAD DUP1 SWAP2 SUB SWAP1 REVERT JUMPDEST SWAP4 SWAP3 POP POP POP JUMP JUMPDEST PUSH2 0x1E00 PUSH2 0x1DFA PUSH2 0x29E6 JUMP JUMPDEST DUP4 PUSH2 0x34B4 JUMP JUMPDEST PUSH2 0x1E3F JUMPI PUSH1 0x40 MLOAD PUSH32 0x8C379A000000000000000000000000000000000000000000000000000000000 DUP2 MSTORE PUSH1 0x4 ADD PUSH2 0x1E36 SWAP1 PUSH2 0x669E JUMP JUMPDEST PUSH1 0x40 MLOAD DUP1 SWAP2 SUB SWAP1 REVERT JUMPDEST PUSH2 0x1E4B DUP5 DUP5 DUP5 DUP5 PUSH2 0x400D JUMP JUMPDEST POP POP POP POP JUMP JUMPDEST PUSH2 0x1E59 PUSH2 0x3E41 JUMP JUMPDEST JUMP JUMPDEST PUSH2 0x1E63 PUSH2 0x2AA3 JUMP JUMPDEST DUP2 DUP2 PUSH1 0x15 SWAP2 DUP3 PUSH2 0x1E74 SWAP3 SWAP2 SWAP1 PUSH2 0x64F9 JUMP JUMPDEST POP POP POP JUMP JUMPDEST PUSH2 0x1E81 PUSH2 0x2AA3 JUMP JUMPDEST PUSH0 DUP4 SWAP1 POP DUP2 DUP2 PUSH20 0xFFFFFFFFFFFFFFFFFFFFFFFFFFFFFFFFFFFFFFFF AND PUSH4 0x70A08231 ADDRESS PUSH1 0x40 MLOAD DUP3 PUSH4 0xFFFFFFFF AND PUSH1 0xE0 SHL DUP2 MSTORE PUSH1 0x4 ADD PUSH2 0x1EBF SWAP2 SWAP1 PUSH2 0x57EA JUMP JUMPDEST PUSH1 0x20 PUSH1 0x40 MLOAD DUP1 DUP4 SUB DUP2 DUP7 GAS STATICCALL ISZERO DUP1 ISZERO PUSH2 0x1EDA JUMPI RETURNDATASIZE PUSH0 DUP1 RETURNDATACOPY RETURNDATASIZE PUSH0 REVERT JUMPDEST POP POP POP POP PUSH1 0x40 MLOAD RETURNDATASIZE PUSH1 0x1F NOT PUSH1 0x1F DUP3 ADD AND DUP3 ADD DUP1 PUSH1 0x40 MSTORE POP DUP2 ADD SWAP1 PUSH2 0x1EFE SWAP2 SWAP1 PUSH2 0x6C89 JUMP JUMPDEST LT ISZERO PUSH2 0x1F3F JUMPI PUSH1 0x40 MLOAD PUSH32 0x8C379A000000000000000000000000000000000000000000000000000000000 DUP2 MSTORE PUSH1 0x4 ADD PUSH2 0x1F36 SWAP1 PUSH2 0x6DB2 JUMP JUMPDEST PUSH1 0x40 MLOAD DUP1 SWAP2 SUB SWAP1 REVERT JUMPDEST DUP1 PUSH20 0xFFFFFFFFFFFFFFFFFFFFFFFFFFFFFFFFFFFFFFFF AND PUSH4 0xA9059CBB DUP5 DUP5 PUSH1 0x40 MLOAD DUP4 PUSH4 0xFFFFFFFF AND PUSH1 0xE0 SHL DUP2 MSTORE PUSH1 0x4 ADD PUSH2 0x1F7A SWAP3 SWAP2 SWAP1 PUSH2 0x576E JUMP JUMPDEST PUSH1 0x20 PUSH1 0x40 MLOAD DUP1 DUP4 SUB DUP2 PUSH0 DUP8 GAS CALL ISZERO DUP1 ISZERO PUSH2 0x1F96 JUMPI RETURNDATASIZE PUSH0 DUP1 RETURNDATACOPY RETURNDATASIZE PUSH0 REVERT JUMPDEST POP POP POP POP PUSH1 0x40 MLOAD RETURNDATASIZE PUSH1 0x1F NOT PUSH1 0x1F DUP3 ADD AND DUP3 ADD DUP1 PUSH1 0x40 MSTORE POP DUP2 ADD SWAP1 PUSH2 0x1FBA SWAP2 SWAP1 PUSH2 0x6DE4 JUMP JUMPDEST POP POP POP POP POP JUMP JUMPDEST PUSH1 0x60 PUSH2 0x1FCC DUP3 PUSH2 0x4069 JUMP JUMPDEST SWAP1 POP SWAP2 SWAP1 POP JUMP JUMPDEST PUSH1 0x60 PUSH1 0x15 DUP1 SLOAD PUSH2 0x1FE2 SWAP1 PUSH2 0x61BF JUMP JUMPDEST DUP1 PUSH1 0x1F ADD PUSH1 0x20 DUP1 SWAP2 DIV MUL PUSH1 0x20 ADD PUSH1 0x40 MLOAD SWAP1 DUP2 ADD PUSH1 0x40 MSTORE DUP1 SWAP3 SWAP2 SWAP1 DUP2 DUP2 MSTORE PUSH1 0x20 ADD DUP3 DUP1 SLOAD PUSH2 0x200E SWAP1 PUSH2 0x61BF JUMP JUMPDEST DUP1 ISZERO PUSH2 0x2059 JUMPI DUP1 PUSH1 0x1F LT PUSH2 0x2030 JUMPI PUSH2 0x100 DUP1 DUP4 SLOAD DIV MUL DUP4 MSTORE SWAP2 PUSH1 0x20 ADD SWAP2 PUSH2 0x2059 JUMP JUMPDEST DUP3 ADD SWAP2 SWAP1 PUSH0 MSTORE PUSH1 0x20 PUSH0 KECCAK256 SWAP1 JUMPDEST DUP2 SLOAD DUP2 MSTORE SWAP1 PUSH1 0x1 ADD SWAP1 PUSH1 0x20 ADD DUP1 DUP4 GT PUSH2 0x203C JUMPI DUP3 SWAP1 SUB PUSH1 0x1F AND DUP3 ADD SWAP2 JUMPDEST POP POP POP POP POP SWAP1 POP SWAP1 JUMP JUMPDEST PUSH2 0x206B PUSH2 0x2AA3 JUMP JUMPDEST PUSH0 DUP2 PUSH1 0xE DUP2 GT ISZERO PUSH2 0x207F JUMPI PUSH2 0x207E PUSH2 0x6A1B JUMP JUMPDEST JUMPDEST SWAP1 POP PUSH0 PUSH2 0x208C DUP5 DUP4 PUSH2 0x394E JUMP JUMPDEST SWAP1 POP PUSH2 0x2097 DUP2 PUSH2 0x3992 JUMP JUMPDEST ISZERO PUSH2 0x20D7 JUMPI PUSH1 0x40 MLOAD PUSH32 0x8C379A000000000000000000000000000000000000000000000000000000000 DUP2 MSTORE PUSH1 0x4 ADD PUSH2 0x20CE SWAP1 PUSH2 0x6E7F JUMP JUMPDEST PUSH1 0x40 MLOAD DUP1 SWAP2 SUB SWAP1 REVERT JUMPDEST PUSH0 PUSH2 0x20E0 PUSH2 0x4173 JUMP JUMPDEST PUSH20 0xFFFFFFFFFFFFFFFFFFFFFFFFFFFFFFFFFFFFFFFF AND PUSH4 0x73A18B7B DUP7 DUP7 CALLER PUSH1 0x40 MLOAD DUP5 PUSH4 0xFFFFFFFF AND PUSH1 0xE0 SHL DUP2 MSTORE PUSH1 0x4 ADD PUSH2 0x211C SWAP4 SWAP3 SWAP2 SWAP1 PUSH2 0x6E9D JUMP JUMPDEST PUSH1 0x20 PUSH1 0x40 MLOAD DUP1 DUP4 SUB DUP2 PUSH0 DUP8 GAS CALL ISZERO DUP1 ISZERO PUSH2 0x2138 JUMPI RETURNDATASIZE PUSH0 DUP1 RETURNDATACOPY RETURNDATASIZE PUSH0 REVERT JUMPDEST POP POP POP POP PUSH1 0x40 MLOAD RETURNDATASIZE PUSH1 0x1F NOT PUSH1 0x1F DUP3 ADD AND DUP3 ADD DUP1 PUSH1 0x40 MSTORE POP DUP2 ADD SWAP1 PUSH2 0x215C SWAP2 SWAP1 PUSH2 0x6EED JUMP JUMPDEST SWAP1 POP PUSH0 PUSH1 0x40 MLOAD DUP1 PUSH1 0x80 ADD PUSH1 0x40 MSTORE DUP1 DUP8 DUP2 MSTORE PUSH1 0x20 ADD DUP6 PUSH1 0xE DUP2 GT ISZERO PUSH2 0x2183 JUMPI PUSH2 0x2182 PUSH2 0x6A1B JUMP JUMPDEST JUMPDEST DUP2 MSTORE PUSH1 0x20 ADD PUSH2 0x2190 PUSH2 0x4173 JUMP JUMPDEST PUSH20 0xFFFFFFFFFFFFFFFFFFFFFFFFFFFFFFFFFFFFFFFF AND PUSH4 0x1A758934 DUP8 PUSH1 0x40 MLOAD DUP3 PUSH4 0xFFFFFFFF AND PUSH1 0xE0 SHL DUP2 MSTORE PUSH1 0x4 ADD PUSH2 0x21C8 SWAP2 SWAP1 PUSH2 0x6F5E JUMP JUMPDEST PUSH0 PUSH1 0x40 MLOAD DUP1 DUP4 SUB DUP2 DUP7 GAS STATICCALL ISZERO DUP1 ISZERO PUSH2 0x21E2 JUMPI RETURNDATASIZE PUSH0 DUP1 RETURNDATACOPY RETURNDATASIZE PUSH0 REVERT JUMPDEST POP POP POP POP PUSH1 0x40 MLOAD RETURNDATASIZE PUSH0 DUP3 RETURNDATACOPY RETURNDATASIZE PUSH1 0x1F NOT PUSH1 0x1F DUP3 ADD AND DUP3 ADD DUP1 PUSH1 0x40 MSTORE POP DUP2 ADD SWAP1 PUSH2 0x220A SWAP2 SWAP1 PUSH2 0x6FE5 JUMP JUMPDEST DUP2 MSTORE PUSH1 0x20 ADD DUP4 PUSH20 0xFFFFFFFFFFFFFFFFFFFFFFFFFFFFFFFFFFFFFFFF AND DUP2 MSTORE POP SWAP1 POP DUP1 PUSH1 0xD PUSH0 DUP6 DUP2 MSTORE PUSH1 0x20 ADD SWAP1 DUP2 MSTORE PUSH1 0x20 ADD PUSH0 KECCAK256 PUSH0 DUP3 ADD MLOAD DUP2 PUSH0 ADD SWAP1 DUP2 PUSH2 0x2250 SWAP2 SWAP1 PUSH2 0x6AB0 JUMP JUMPDEST POP PUSH1 0x20 DUP3 ADD MLOAD DUP2 PUSH1 0x1 ADD PUSH0 PUSH2 0x100 EXP DUP2 SLOAD DUP2 PUSH1 0xFF MUL NOT AND SWAP1 DUP4 PUSH1 0xE DUP2 GT ISZERO PUSH2 0x227B JUMPI PUSH2 0x227A PUSH2 0x6A1B JUMP JUMPDEST JUMPDEST MUL OR SWAP1 SSTORE POP PUSH1 0x40 DUP3 ADD MLOAD DUP2 PUSH1 0x2 ADD SWAP1 DUP2 PUSH2 0x2295 SWAP2 SWAP1 PUSH2 0x6AB0 JUMP JUMPDEST POP PUSH1 0x60 DUP3 ADD MLOAD DUP2 PUSH1 0x3 ADD PUSH0 PUSH2 0x100 EXP DUP2 SLOAD DUP2 PUSH20 0xFFFFFFFFFFFFFFFFFFFFFFFFFFFFFFFFFFFFFFFF MUL NOT AND SWAP1 DUP4 PUSH20 0xFFFFFFFFFFFFFFFFFFFFFFFFFFFFFFFFFFFFFFFF AND MUL OR SWAP1 SSTORE POP SWAP1 POP POP PUSH1 0xC DUP4 SWAP1 DUP1 PUSH1 0x1 DUP2 SLOAD ADD DUP1 DUP3 SSTORE DUP1 SWAP2 POP POP PUSH1 0x1 SWAP1 SUB SWAP1 PUSH0 MSTORE PUSH1 0x20 PUSH0 KECCAK256 ADD PUSH0 SWAP1 SWAP2 SWAP1 SWAP2 SWAP1 SWAP2 POP SSTORE DUP2 PUSH20 0xFFFFFFFFFFFFFFFFFFFFFFFFFFFFFFFFFFFFFFFF AND PUSH32 0xE05FBD99B3BD14666521F429BE65DFF2635E36A2D6B23046C5754F9236AC4CE1 DUP8 DUP8 PUSH1 0x40 MLOAD PUSH2 0x234D SWAP3 SWAP2 SWAP1 PUSH2 0x702C JUMP JUMPDEST PUSH1 0x40 MLOAD DUP1 SWAP2 SUB SWAP1 LOG2 POP POP POP POP POP POP JUMP JUMPDEST PUSH2 0x2365 PUSH2 0x2AA3 JUMP JUMPDEST PUSH0 DUP4 SWAP1 POP ADDRESS PUSH20 0xFFFFFFFFFFFFFFFFFFFFFFFFFFFFFFFFFFFFFFFF AND DUP2 PUSH20 0xFFFFFFFFFFFFFFFFFFFFFFFFFFFFFFFFFFFFFFFF AND PUSH4 0x6352211E DUP5 PUSH1 0x40 MLOAD DUP3 PUSH4 0xFFFFFFFF AND PUSH1 0xE0 SHL DUP2 MSTORE PUSH1 0x4 ADD PUSH2 0x23B9 SWAP2 SWAP1 PUSH2 0x5A14 JUMP JUMPDEST PUSH1 0x20 PUSH1 0x40 MLOAD DUP1 DUP4 SUB DUP2 DUP7 GAS STATICCALL ISZERO DUP1 ISZERO PUSH2 0x23D4 JUMPI RETURNDATASIZE PUSH0 DUP1 RETURNDATACOPY RETURNDATASIZE PUSH0 REVERT JUMPDEST POP POP POP POP PUSH1 0x40 MLOAD RETURNDATASIZE PUSH1 0x1F NOT PUSH1 0x1F DUP3 ADD AND DUP3 ADD DUP1 PUSH1 0x40 MSTORE POP DUP2 ADD SWAP1 PUSH2 0x23F8 SWAP2 SWAP1 PUSH2 0x6EED JUMP JUMPDEST PUSH20 0xFFFFFFFFFFFFFFFFFFFFFFFFFFFFFFFFFFFFFFFF AND EQ PUSH2 0x244E JUMPI PUSH1 0x40 MLOAD PUSH32 0x8C379A000000000000000000000000000000000000000000000000000000000 DUP2 MSTORE PUSH1 0x4 ADD PUSH2 0x2445 SWAP1 PUSH2 0x70CA JUMP JUMPDEST PUSH1 0x40 MLOAD DUP1 SWAP2 SUB SWAP1 REVERT JUMPDEST DUP1 PUSH20 0xFFFFFFFFFFFFFFFFFFFFFFFFFFFFFFFFFFFFFFFF AND PUSH4 0x42842E0E ADDRESS DUP6 DUP6 PUSH1 0x40 MLOAD DUP5 PUSH4 0xFFFFFFFF AND PUSH1 0xE0 SHL DUP2 MSTORE PUSH1 0x4 ADD PUSH2 0x248B SWAP4 SWAP3 SWAP2 SWAP1 PUSH2 0x70E8 JUMP JUMPDEST PUSH0 PUSH1 0x40 MLOAD DUP1 DUP4 SUB DUP2 PUSH0 DUP8 DUP1 EXTCODESIZE ISZERO DUP1 ISZERO PUSH2 0x24A2 JUMPI PUSH0 DUP1 REVERT JUMPDEST POP GAS CALL ISZERO DUP1 ISZERO PUSH2 0x24B4 JUMPI RETURNDATASIZE PUSH0 DUP1 RETURNDATACOPY RETURNDATASIZE PUSH0 REVERT JUMPDEST POP POP POP POP POP POP POP POP JUMP JUMPDEST PUSH0 PUSH1 0x5 PUSH0 DUP5 PUSH20 0xFFFFFFFFFFFFFFFFFFFFFFFFFFFFFFFFFFFFFFFF AND PUSH20 0xFFFFFFFFFFFFFFFFFFFFFFFFFFFFFFFFFFFFFFFF AND DUP2 MSTORE PUSH1 0x20 ADD SWAP1 DUP2 MSTORE PUSH1 0x20 ADD PUSH0 KECCAK256 PUSH0 DUP4 PUSH20 0xFFFFFFFFFFFFFFFFFFFFFFFFFFFFFFFFFFFFFFFF AND PUSH20 0xFFFFFFFFFFFFFFFFFFFFFFFFFFFFFFFFFFFFFFFF AND DUP2 MSTORE PUSH1 0x20 ADD SWAP1 DUP2 MSTORE PUSH1 0x20 ADD PUSH0 KECCAK256 PUSH0 SWAP1 SLOAD SWAP1 PUSH2 0x100 EXP SWAP1 DIV PUSH1 0xFF AND SWAP1 POP SWAP3 SWAP2 POP POP JUMP JUMPDEST PUSH0 DUP1 PUSH2 0x256A DUP5 DUP5 PUSH1 0xE DUP2 GT ISZERO PUSH2 0x2565 JUMPI PUSH2 0x2564 PUSH2 0x6A1B JUMP JUMPDEST JUMPDEST PUSH2 0x394E JUMP JUMPDEST SWAP1 POP PUSH2 0x2575 DUP2 PUSH2 0x3992 JUMP JUMPDEST SWAP2 POP POP SWAP3 SWAP2 POP POP JUMP JUMPDEST PUSH2 0x2586 PUSH2 0x2AA3 JUMP JUMPDEST PUSH2 0x258F DUP3 PUSH2 0x4181 JUMP JUMPDEST PUSH2 0x25CE JUMPI PUSH1 0x40 MLOAD PUSH32 0x8C379A000000000000000000000000000000000000000000000000000000000 DUP2 MSTORE PUSH1 0x4 ADD PUSH2 0x25C5 SWAP1 PUSH2 0x71B3 JUMP JUMPDEST PUSH1 0x40 MLOAD DUP1 SWAP2 SUB SWAP1 REVERT JUMPDEST PUSH0 DUP4 PUSH1 0x40 MLOAD PUSH1 0x20 ADD PUSH2 0x25E0 SWAP2 SWAP1 PUSH2 0x6229 JUMP JUMPDEST PUSH1 0x40 MLOAD PUSH1 0x20 DUP2 DUP4 SUB SUB DUP2 MSTORE SWAP1 PUSH1 0x40 MSTORE DUP1 MLOAD SWAP1 PUSH1 0x20 ADD KECCAK256 SWAP1 POP PUSH2 0x2601 DUP2 PUSH2 0x3834 JUMP JUMPDEST PUSH2 0x262C JUMPI PUSH1 0x11 DUP2 SWAP1 DUP1 PUSH1 0x1 DUP2 SLOAD ADD DUP1 DUP3 SSTORE DUP1 SWAP2 POP POP PUSH1 0x1 SWAP1 SUB SWAP1 PUSH0 MSTORE PUSH1 0x20 PUSH0 KECCAK256 ADD PUSH0 SWAP1 SWAP2 SWAP1 SWAP2 SWAP1 SWAP2 POP SSTORE JUMPDEST PUSH0 PUSH1 0x10 PUSH0 DUP4 DUP2 MSTORE PUSH1 0x20 ADD SWAP1 DUP2 MSTORE PUSH1 0x20 ADD PUSH0 KECCAK256 SWAP1 POP DUP5 DUP2 PUSH0 ADD SWAP1 DUP2 PUSH2 0x2650 SWAP2 SWAP1 PUSH2 0x6AB0 JUMP JUMPDEST POP DUP4 DUP2 PUSH1 0x1 ADD PUSH0 PUSH2 0x100 EXP DUP2 SLOAD DUP2 PUSH20 0xFFFFFFFFFFFFFFFFFFFFFFFFFFFFFFFFFFFFFFFF MUL NOT AND SWAP1 DUP4 PUSH20 0xFFFFFFFFFFFFFFFFFFFFFFFFFFFFFFFFFFFFFFFF AND MUL OR SWAP1 SSTORE POP DUP3 DUP2 PUSH1 0x2 ADD DUP2 SWAP1 SSTORE POP POP POP POP POP POP JUMP JUMPDEST PUSH20 0x47E0CDCB3C7705EF6FA57B69539D58AB5570799F DUP2 JUMP JUMPDEST PUSH2 0x26C3 PUSH2 0x2AA3 JUMP JUMPDEST PUSH0 PUSH20 0xFFFFFFFFFFFFFFFFFFFFFFFFFFFFFFFFFFFFFFFF AND DUP2 PUSH20 0xFFFFFFFFFFFFFFFFFFFFFFFFFFFFFFFFFFFFFFFF AND SUB PUSH2 0x2731 JUMPI PUSH1 0x40 MLOAD PUSH32 0x8C379A000000000000000000000000000000000000000000000000000000000 DUP2 MSTORE PUSH1 0x4 ADD PUSH2 0x2728 SWAP1 PUSH2 0x7241 JUMP JUMPDEST PUSH1 0x40 MLOAD DUP1 SWAP2 SUB SWAP1 REVERT JUMPDEST PUSH2 0x273A DUP2 PUSH2 0x3D7E JUMP JUMPDEST POP JUMP JUMPDEST PUSH1 0x60 PUSH1 0x13 DUP1 SLOAD PUSH2 0x274C SWAP1 PUSH2 0x61BF JUMP JUMPDEST DUP1 PUSH1 0x1F ADD PUSH1 0x20 DUP1 SWAP2 DIV MUL PUSH1 0x20 ADD PUSH1 0x40 MLOAD SWAP1 DUP2 ADD PUSH1 0x40 MSTORE DUP1 SWAP3 SWAP2 SWAP1 DUP2 DUP2 MSTORE PUSH1 0x20 ADD DUP3 DUP1 SLOAD PUSH2 0x2778 SWAP1 PUSH2 0x61BF JUMP JUMPDEST DUP1 ISZERO PUSH2 0x27C3 JUMPI DUP1 PUSH1 0x1F LT PUSH2 0x279A JUMPI PUSH2 0x100 DUP1 DUP4 SLOAD DIV MUL DUP4 MSTORE SWAP2 PUSH1 0x20 ADD SWAP2 PUSH2 0x27C3 JUMP JUMPDEST DUP3 ADD SWAP2 SWAP1 PUSH0 MSTORE PUSH1 0x20 PUSH0 KECCAK256 SWAP1 JUMPDEST DUP2 SLOAD DUP2 MSTORE SWAP1 PUSH1 0x1 ADD SWAP1 PUSH1 0x20 ADD DUP1 DUP4 GT PUSH2 0x27A6 JUMPI DUP3 SWAP1 SUB PUSH1 0x1F AND DUP3 ADD SWAP2 JUMPDEST POP POP POP POP POP SWAP1 POP SWAP1 JUMP JUMPDEST PUSH2 0x27D5 PUSH2 0x2AA3 JUMP JUMPDEST DUP1 SELFBALANCE LT ISZERO PUSH2 0x2818 JUMPI PUSH1 0x40 MLOAD PUSH32 0x8C379A000000000000000000000000000000000000000000000000000000000 DUP2 MSTORE PUSH1 0x4 ADD PUSH2 0x280F SWAP1 PUSH2 0x72CF JUMP JUMPDEST PUSH1 0x40 MLOAD DUP1 SWAP2 SUB SWAP1 REVERT JUMPDEST PUSH0 PUSH20 0xFFFFFFFFFFFFFFFFFFFFFFFFFFFFFFFFFFFFFFFF AND DUP3 PUSH20 0xFFFFFFFFFFFFFFFFFFFFFFFFFFFFFFFFFFFFFFFF AND SUB PUSH2 0x2886 JUMPI PUSH1 0x40 MLOAD PUSH32 0x8C379A000000000000000000000000000000000000000000000000000000000 DUP2 MSTORE PUSH1 0x4 ADD PUSH2 0x287D SWAP1 PUSH2 0x735D JUMP JUMPDEST PUSH1 0x40 MLOAD DUP1 SWAP2 SUB SWAP1 REVERT JUMPDEST DUP2 PUSH20 0xFFFFFFFFFFFFFFFFFFFFFFFFFFFFFFFFFFFFFFFF AND PUSH2 0x8FC DUP3 SWAP1 DUP2 ISZERO MUL SWAP1 PUSH1 0x40 MLOAD PUSH0 PUSH1 0x40 MLOAD DUP1 DUP4 SUB DUP2 DUP6 DUP9 DUP9 CALL SWAP4 POP POP POP POP ISZERO DUP1 ISZERO PUSH2 0x28C9 JUMPI RETURNDATASIZE PUSH0 DUP1 RETURNDATACOPY RETURNDATASIZE PUSH0 REVERT JUMPDEST POP POP POP JUMP JUMPDEST PUSH0 PUSH32 0xA426198000000000000000000000000000000000000000000000000000000000 PUSH28 0xFFFFFFFFFFFFFFFFFFFFFFFFFFFFFFFFFFFFFFFFFFFFFFFFFFFFFFFF NOT AND DUP3 PUSH28 0xFFFFFFFFFFFFFFFFFFFFFFFFFFFFFFFFFFFFFFFFFFFFFFFFFFFFFFFF NOT AND EQ DUP1 PUSH2 0x2940 JUMPI POP PUSH2 0x293F DUP3 PUSH2 0x4221 JUMP JUMPDEST JUMPDEST SWAP1 POP SWAP2 SWAP1 POP JUMP JUMPDEST PUSH0 DUP1 PUSH1 0x10 PUSH0 DUP5 DUP2 MSTORE PUSH1 0x20 ADD SWAP1 DUP2 MSTORE PUSH1 0x20 ADD PUSH0 KECCAK256 PUSH1 0x1 ADD PUSH0 SWAP1 SLOAD SWAP1 PUSH2 0x100 EXP SWAP1 DIV PUSH20 0xFFFFFFFFFFFFFFFFFFFFFFFFFFFFFFFFFFFFFFFF AND PUSH1 0x10 PUSH0 DUP6 DUP2 MSTORE PUSH1 0x20 ADD SWAP1 DUP2 MSTORE PUSH1 0x20 ADD PUSH0 KECCAK256 PUSH1 0x2 ADD SLOAD SWAP2 POP SWAP2 POP SWAP2 POP SWAP2 JUMP JUMPDEST PUSH2 0x29A4 DUP2 PUSH2 0x4232 JUMP JUMPDEST PUSH2 0x29E3 JUMPI PUSH1 0x40 MLOAD PUSH32 0x8C379A000000000000000000000000000000000000000000000000000000000 DUP2 MSTORE PUSH1 0x4 ADD PUSH2 0x29DA SWAP1 PUSH2 0x6BC9 JUMP JUMPDEST PUSH1 0x40 MLOAD DUP1 SWAP2 SUB SWAP1 REVERT JUMPDEST POP JUMP JUMPDEST PUSH0 CALLER SWAP1 POP SWAP1 JUMP JUMPDEST DUP2 PUSH1 0x4 PUSH0 DUP4 DUP2 MSTORE PUSH1 0x20 ADD SWAP1 DUP2 MSTORE PUSH1 0x20 ADD PUSH0 KECCAK256 PUSH0 PUSH2 0x100 EXP DUP2 SLOAD DUP2 PUSH20 0xFFFFFFFFFFFFFFFFFFFFFFFFFFFFFFFFFFFFFFFF MUL NOT AND SWAP1 DUP4 PUSH20 0xFFFFFFFFFFFFFFFFFFFFFFFFFFFFFFFFFFFFFFFF AND MUL OR SWAP1 SSTORE POP DUP1 DUP3 PUSH20 0xFFFFFFFFFFFFFFFFFFFFFFFFFFFFFFFFFFFFFFFF AND PUSH2 0x2A5D DUP4 PUSH2 0x1723 JUMP JUMPDEST PUSH20 0xFFFFFFFFFFFFFFFFFFFFFFFFFFFFFFFFFFFFFFFF AND PUSH32 0x8C5BE1E5EBEC7D5BD14F71427D1E84F3DD0314C0F7B2291E5B200AC8C7C3B925 PUSH1 0x40 MLOAD PUSH1 0x40 MLOAD DUP1 SWAP2 SUB SWAP1 LOG4 POP POP JUMP JUMPDEST PUSH2 0x2AAB PUSH2 0x29E6 JUMP JUMPDEST PUSH20 0xFFFFFFFFFFFFFFFFFFFFFFFFFFFFFFFFFFFFFFFF AND PUSH2 0x2AC9 PUSH2 0x1AC1 JUMP JUMPDEST PUSH20 0xFFFFFFFFFFFFFFFFFFFFFFFFFFFFFFFFFFFFFFFF AND EQ PUSH2 0x2B1F JUMPI PUSH1 0x40 MLOAD PUSH32 0x8C379A000000000000000000000000000000000000000000000000000000000 DUP2 MSTORE PUSH1 0x4 ADD PUSH2 0x2B16 SWAP1 PUSH2 0x73C5 JUMP JUMPDEST PUSH1 0x40 MLOAD DUP1 SWAP2 SUB SWAP1 REVERT JUMPDEST JUMP JUMPDEST PUSH0 DUP1 DUP3 SWAP1 POP PUSH1 0x3 DUP2 MLOAD LT DUP1 PUSH2 0x2B94 JUMPI POP PUSH32 0x2E00000000000000000000000000000000000000000000000000000000000000 DUP2 PUSH0 DUP2 MLOAD DUP2 LT PUSH2 0x2B65 JUMPI PUSH2 0x2B64 PUSH2 0x67D8 JUMP JUMPDEST JUMPDEST PUSH1 0x20 ADD ADD MLOAD PUSH1 0xF8 SHR PUSH1 0xF8 SHL PUSH31 0xFFFFFFFFFFFFFFFFFFFFFFFFFFFFFFFFFFFFFFFFFFFFFFFFFFFFFFFFFFFFFF NOT AND EQ JUMPDEST DUP1 PUSH2 0x2C0A JUMPI POP PUSH32 0x2E00000000000000000000000000000000000000000000000000000000000000 DUP2 PUSH1 0x1 DUP4 MLOAD PUSH2 0x2BCA SWAP2 SWAP1 PUSH2 0x6832 JUMP JUMPDEST DUP2 MLOAD DUP2 LT PUSH2 0x2BDB JUMPI PUSH2 0x2BDA PUSH2 0x67D8 JUMP JUMPDEST JUMPDEST PUSH1 0x20 ADD ADD MLOAD PUSH1 0xF8 SHR PUSH1 0xF8 SHL PUSH31 0xFFFFFFFFFFFFFFFFFFFFFFFFFFFFFFFFFFFFFFFFFFFFFFFFFFFFFFFFFFFFFF NOT AND EQ JUMPDEST ISZERO PUSH2 0x2C18 JUMPI PUSH0 SWAP2 POP POP PUSH2 0x3022 JUMP JUMPDEST PUSH0 DUP1 JUMPDEST DUP3 MLOAD DUP2 LT ISZERO PUSH2 0x2F91 JUMPI PUSH0 DUP4 DUP3 DUP2 MLOAD DUP2 LT PUSH2 0x2C38 JUMPI PUSH2 0x2C37 PUSH2 0x67D8 JUMP JUMPDEST JUMPDEST PUSH1 0x20 ADD ADD MLOAD PUSH1 0xF8 SHR PUSH1 0xF8 SHL SWAP1 POP PUSH32 0x2E00000000000000000000000000000000000000000000000000000000000000 DUP2 PUSH31 0xFFFFFFFFFFFFFFFFFFFFFFFFFFFFFFFFFFFFFFFFFFFFFFFFFFFFFFFFFFFFFF NOT AND SUB PUSH2 0x2CB2 JUMPI DUP3 DUP1 PUSH2 0x2C99 SWAP1 PUSH2 0x6892 JUMP JUMPDEST SWAP4 POP POP PUSH1 0x3 DUP4 GT ISZERO PUSH2 0x2CB1 JUMPI PUSH0 SWAP5 POP POP POP POP POP PUSH2 0x3022 JUMP JUMPDEST JUMPDEST PUSH32 0x6100000000000000000000000000000000000000000000000000000000000000 DUP2 PUSH31 0xFFFFFFFFFFFFFFFFFFFFFFFFFFFFFFFFFFFFFFFFFFFFFFFFFFFFFFFFFFFFFF NOT AND LT ISZERO DUP1 ISZERO PUSH2 0x2D46 JUMPI POP PUSH32 0x7A00000000000000000000000000000000000000000000000000000000000000 DUP2 PUSH31 0xFFFFFFFFFFFFFFFFFFFFFFFFFFFFFFFFFFFFFFFFFFFFFFFFFFFFFFFFFFFFFF NOT AND GT ISZERO JUMPDEST DUP1 PUSH2 0x2DE1 JUMPI POP PUSH32 0x3000000000000000000000000000000000000000000000000000000000000000 DUP2 PUSH31 0xFFFFFFFFFFFFFFFFFFFFFFFFFFFFFFFFFFFFFFFFFFFFFFFFFFFFFFFFFFFFFF NOT AND LT ISZERO DUP1 ISZERO PUSH2 0x2DE0 JUMPI POP PUSH32 0x3900000000000000000000000000000000000000000000000000000000000000 DUP2 PUSH31 0xFFFFFFFFFFFFFFFFFFFFFFFFFFFFFFFFFFFFFFFFFFFFFFFFFFFFFFFFFFFFFF NOT AND GT ISZERO JUMPDEST JUMPDEST DUP1 PUSH2 0x2E2D JUMPI POP PUSH32 0x2D00000000000000000000000000000000000000000000000000000000000000 DUP2 PUSH31 0xFFFFFFFFFFFFFFFFFFFFFFFFFFFFFFFFFFFFFFFFFFFFFFFFFFFFFFFFFFFFFF NOT AND EQ JUMPDEST DUP1 PUSH2 0x2E79 JUMPI POP PUSH32 0x2E00000000000000000000000000000000000000000000000000000000000000 DUP2 PUSH31 0xFFFFFFFFFFFFFFFFFFFFFFFFFFFFFFFFFFFFFFFFFFFFFFFFFFFFFFFFFFFFFF NOT AND EQ JUMPDEST PUSH2 0x2E89 JUMPI PUSH0 SWAP5 POP POP POP POP POP PUSH2 0x3022 JUMP JUMPDEST PUSH0 DUP3 GT DUP1 ISZERO PUSH2 0x2EF6 JUMPI POP PUSH32 0x2E00000000000000000000000000000000000000000000000000000000000000 DUP5 DUP4 DUP2 MLOAD DUP2 LT PUSH2 0x2EC7 JUMPI PUSH2 0x2EC6 PUSH2 0x67D8 JUMP JUMPDEST JUMPDEST PUSH1 0x20 ADD ADD MLOAD PUSH1 0xF8 SHR PUSH1 0xF8 SHL PUSH31 0xFFFFFFFFFFFFFFFFFFFFFFFFFFFFFFFFFFFFFFFFFFFFFFFFFFFFFFFFFFFFFF NOT AND EQ JUMPDEST DUP1 ISZERO PUSH2 0x2F6C JUMPI POP PUSH32 0x2E00000000000000000000000000000000000000000000000000000000000000 DUP5 PUSH1 0x1 DUP5 PUSH2 0x2F2C SWAP2 SWAP1 PUSH2 0x6832 JUMP JUMPDEST DUP2 MLOAD DUP2 LT PUSH2 0x2F3D JUMPI PUSH2 0x2F3C PUSH2 0x67D8 JUMP JUMPDEST JUMPDEST PUSH1 0x20 ADD ADD MLOAD PUSH1 0xF8 SHR PUSH1 0xF8 SHL PUSH31 0xFFFFFFFFFFFFFFFFFFFFFFFFFFFFFFFFFFFFFFFFFFFFFFFFFFFFFFFFFFFFFF NOT AND EQ JUMPDEST ISZERO PUSH2 0x2F7D JUMPI PUSH0 SWAP5 POP POP POP POP POP PUSH2 0x3022 JUMP JUMPDEST POP DUP1 DUP1 PUSH2 0x2F89 SWAP1 PUSH2 0x6892 JUMP JUMPDEST SWAP2 POP POP PUSH2 0x2C1B JUMP JUMPDEST POP PUSH1 0x1 DUP2 LT DUP1 PUSH2 0x300C JUMPI POP PUSH32 0x2D00000000000000000000000000000000000000000000000000000000000000 DUP3 PUSH1 0x1 DUP5 MLOAD PUSH2 0x2FCC SWAP2 SWAP1 PUSH2 0x6832 JUMP JUMPDEST DUP2 MLOAD DUP2 LT PUSH2 0x2FDD JUMPI PUSH2 0x2FDC PUSH2 0x67D8 JUMP JUMPDEST JUMPDEST PUSH1 0x20 ADD ADD MLOAD PUSH1 0xF8 SHR PUSH1 0xF8 SHL PUSH31 0xFFFFFFFFFFFFFFFFFFFFFFFFFFFFFFFFFFFFFFFFFFFFFFFFFFFFFFFFFFFFFF NOT AND EQ JUMPDEST ISZERO PUSH2 0x301B JUMPI PUSH0 SWAP3 POP POP POP PUSH2 0x3022 JUMP JUMPDEST PUSH1 0x1 SWAP3 POP POP POP JUMPDEST SWAP2 SWAP1 POP JUMP JUMPDEST PUSH0 PUSH1 0x7 DUP3 MLOAD LT DUP1 PUSH2 0x3039 JUMPI POP PUSH1 0xF DUP3 MLOAD GT JUMPDEST ISZERO PUSH2 0x3046 JUMPI PUSH0 SWAP1 POP PUSH2 0x34AF JUMP JUMPDEST PUSH0 DUP3 SWAP1 POP PUSH0 DUP1 DUP1 PUSH0 SWAP1 POP PUSH0 JUMPDEST DUP5 MLOAD DUP2 LT ISZERO PUSH2 0x32FD JUMPI PUSH32 0x3000000000000000000000000000000000000000000000000000000000000000 DUP6 DUP3 DUP2 MLOAD DUP2 LT PUSH2 0x308F JUMPI PUSH2 0x308E PUSH2 0x67D8 JUMP JUMPDEST JUMPDEST PUSH1 0x20 ADD ADD MLOAD PUSH1 0xF8 SHR PUSH1 0xF8 SHL PUSH31 0xFFFFFFFFFFFFFFFFFFFFFFFFFFFFFFFFFFFFFFFFFFFFFFFFFFFFFFFFFFFFFF NOT AND LT DUP1 PUSH2 0x3126 JUMPI POP PUSH32 0x3900000000000000000000000000000000000000000000000000000000000000 DUP6 DUP3 DUP2 MLOAD DUP2 LT PUSH2 0x30F7 JUMPI PUSH2 0x30F6 PUSH2 0x67D8 JUMP JUMPDEST JUMPDEST PUSH1 0x20 ADD ADD MLOAD PUSH1 0xF8 SHR PUSH1 0xF8 SHL PUSH31 0xFFFFFFFFFFFFFFFFFFFFFFFFFFFFFFFFFFFFFFFFFFFFFFFFFFFFFFFFFFFFFF NOT AND GT JUMPDEST DUP1 ISZERO PUSH2 0x3191 JUMPI POP PUSH32 0x2E00000000000000000000000000000000000000000000000000000000000000 DUP6 DUP3 DUP2 MLOAD DUP2 LT PUSH2 0x3161 JUMPI PUSH2 0x3160 PUSH2 0x67D8 JUMP JUMPDEST JUMPDEST PUSH1 0x20 ADD ADD MLOAD PUSH1 0xF8 SHR PUSH1 0xF8 SHL PUSH31 0xFFFFFFFFFFFFFFFFFFFFFFFFFFFFFFFFFFFFFFFFFFFFFFFFFFFFFFFFFFFFFF NOT AND EQ ISZERO JUMPDEST ISZERO PUSH2 0x31A3 JUMPI PUSH0 SWAP6 POP POP POP POP POP POP PUSH2 0x34AF JUMP JUMPDEST PUSH32 0x2E00000000000000000000000000000000000000000000000000000000000000 DUP6 DUP3 DUP2 MLOAD DUP2 LT PUSH2 0x31D7 JUMPI PUSH2 0x31D6 PUSH2 0x67D8 JUMP JUMPDEST JUMPDEST PUSH1 0x20 ADD ADD MLOAD PUSH1 0xF8 SHR PUSH1 0xF8 SHL PUSH31 0xFFFFFFFFFFFFFFFFFFFFFFFFFFFFFFFFFFFFFFFFFFFFFFFFFFFFFFFFFFFFFF NOT AND SUB PUSH2 0x32A3 JUMPI PUSH1 0xFF DUP3 PUSH1 0xFF AND GT DUP1 PUSH2 0x321D JUMPI POP PUSH0 DUP3 PUSH1 0xFF AND EQ JUMPDEST ISZERO PUSH2 0x322F JUMPI PUSH0 SWAP6 POP POP POP POP POP POP PUSH2 0x34AF JUMP JUMPDEST PUSH1 0x8 DUP5 PUSH2 0x323C SWAP2 SWAP1 PUSH2 0x73EF JUMP JUMPDEST PUSH1 0xFF AND PUSH1 0xFF DUP4 AND PUSH1 0xF8 SHL PUSH31 0xFFFFFFFFFFFFFFFFFFFFFFFFFFFFFFFFFFFFFFFFFFFFFFFFFFFFFFFFFFFFFF NOT AND PUSH28 0xFFFFFFFFFFFFFFFFFFFFFFFFFFFFFFFFFFFFFFFFFFFFFFFFFFFFFFFF NOT AND SWAP1 SHR DUP4 OR SWAP3 POP PUSH0 SWAP2 POP DUP4 DUP1 PUSH2 0x329B SWAP1 PUSH2 0x742B JUMP JUMPDEST SWAP5 POP POP PUSH2 0x32EA JUMP JUMPDEST PUSH1 0x30 DUP6 DUP3 DUP2 MLOAD DUP2 LT PUSH2 0x32B8 JUMPI PUSH2 0x32B7 PUSH2 0x67D8 JUMP JUMPDEST JUMPDEST PUSH1 0x20 ADD ADD MLOAD PUSH1 0xF8 SHR PUSH1 0xF8 SHL PUSH1 0xF8 SHR PUSH1 0xA DUP5 PUSH2 0x32D3 SWAP2 SWAP1 PUSH2 0x73EF JUMP JUMPDEST PUSH2 0x32DD SWAP2 SWAP1 PUSH2 0x7453 JUMP JUMPDEST PUSH2 0x32E7 SWAP2 SWAP1 PUSH2 0x7487 JUMP JUMPDEST SWAP2 POP JUMPDEST DUP1 DUP1 PUSH2 0x32F5 SWAP1 PUSH2 0x6892 JUMP JUMPDEST SWAP2 POP POP PUSH2 0x3052 JUMP JUMPDEST POP PUSH1 0x3 DUP4 PUSH1 0xFF AND EQ ISZERO DUP1 PUSH2 0x3314 JUMPI POP PUSH1 0xFF DUP2 PUSH1 0xFF AND GT JUMPDEST DUP1 PUSH2 0x3321 JUMPI POP PUSH0 DUP2 PUSH1 0xFF AND EQ JUMPDEST ISZERO PUSH2 0x3332 JUMPI PUSH0 SWAP5 POP POP POP POP POP PUSH2 0x34AF JUMP JUMPDEST PUSH1 0xFF DUP2 AND PUSH1 0xF8 SHL PUSH31 0xFFFFFFFFFFFFFFFFFFFFFFFFFFFFFFFFFFFFFFFFFFFFFFFFFFFFFFFFFFFFFF NOT AND DUP3 OR SWAP2 POP PUSH0 PUSH1 0xE0 SHL PUSH28 0xFFFFFFFFFFFFFFFFFFFFFFFFFFFFFFFFFFFFFFFFFFFFFFFFFFFFFFFF NOT AND DUP3 PUSH28 0xFFFFFFFFFFFFFFFFFFFFFFFFFFFFFFFFFFFFFFFFFFFFFFFFFFFFFFFF NOT AND EQ DUP1 PUSH2 0x33CA JUMPI POP PUSH1 0xA DUP3 PUSH0 PUSH1 0x4 DUP2 LT PUSH2 0x33BE JUMPI PUSH2 0x33BD PUSH2 0x67D8 JUMP JUMPDEST JUMPDEST BYTE PUSH1 0xF8 SHL PUSH1 0xF8 SHR PUSH1 0xFF AND EQ JUMPDEST DUP1 PUSH2 0x3445 JUMPI POP PUSH1 0xAC DUP3 PUSH0 PUSH1 0x4 DUP2 LT PUSH2 0x33E5 JUMPI PUSH2 0x33E4 PUSH2 0x67D8 JUMP JUMPDEST JUMPDEST BYTE PUSH1 0xF8 SHL PUSH1 0xF8 SHR PUSH1 0xFF AND EQ DUP1 ISZERO PUSH2 0x3444 JUMPI POP PUSH1 0x10 DUP3 PUSH1 0x1 PUSH1 0x4 DUP2 LT PUSH2 0x340D JUMPI PUSH2 0x340C PUSH2 0x67D8 JUMP JUMPDEST JUMPDEST BYTE PUSH1 0xF8 SHL PUSH1 0xF8 SHR PUSH1 0xFF AND LT ISZERO DUP1 ISZERO PUSH2 0x3443 JUMPI POP PUSH1 0x1F DUP3 PUSH1 0x1 PUSH1 0x4 DUP2 LT PUSH2 0x3436 JUMPI PUSH2 0x3435 PUSH2 0x67D8 JUMP JUMPDEST JUMPDEST BYTE PUSH1 0xF8 SHL PUSH1 0xF8 SHR PUSH1 0xFF AND GT ISZERO JUMPDEST JUMPDEST JUMPDEST DUP1 PUSH2 0x3495 JUMPI POP PUSH1 0xC0 DUP3 PUSH0 PUSH1 0x4 DUP2 LT PUSH2 0x3460 JUMPI PUSH2 0x345F PUSH2 0x67D8 JUMP JUMPDEST JUMPDEST BYTE PUSH1 0xF8 SHL PUSH1 0xF8 SHR PUSH1 0xFF AND EQ DUP1 ISZERO PUSH2 0x3494 JUMPI POP PUSH1 0xA8 DUP3 PUSH1 0x1 PUSH1 0x4 DUP2 LT PUSH2 0x3488 JUMPI PUSH2 0x3487 PUSH2 0x67D8 JUMP JUMPDEST JUMPDEST BYTE PUSH1 0xF8 SHL PUSH1 0xF8 SHR PUSH1 0xFF AND EQ JUMPDEST JUMPDEST ISZERO PUSH2 0x34A6 JUMPI PUSH0 SWAP5 POP POP POP POP POP PUSH2 0x34AF JUMP JUMPDEST PUSH1 0x1 SWAP5 POP POP POP POP POP JUMPDEST SWAP2 SWAP1 POP JUMP JUMPDEST PUSH0 DUP1 PUSH2 0x34BF DUP4 PUSH2 0x1723 JUMP JUMPDEST SWAP1 POP DUP1 PUSH20 0xFFFFFFFFFFFFFFFFFFFFFFFFFFFFFFFFFFFFFFFF AND DUP5 PUSH20 0xFFFFFFFFFFFFFFFFFFFFFFFFFFFFFFFFFFFFFFFF AND EQ DUP1 PUSH2 0x3501 JUMPI POP PUSH2 0x3500 DUP2 DUP6 PUSH2 0x24BE JUMP JUMPDEST JUMPDEST DUP1 PUSH2 0x353F JUMPI POP DUP4 PUSH20 0xFFFFFFFFFFFFFFFFFFFFFFFFFFFFFFFFFFFFFFFF AND PUSH2 0x3527 DUP5 PUSH2 0xCB9 JUMP JUMPDEST PUSH20 0xFFFFFFFFFFFFFFFFFFFFFFFFFFFFFFFFFFFFFFFF AND EQ JUMPDEST SWAP2 POP POP SWAP3 SWAP2 POP POP JUMP JUMPDEST DUP3 PUSH20 0xFFFFFFFFFFFFFFFFFFFFFFFFFFFFFFFFFFFFFFFF AND PUSH2 0x3568 DUP3 PUSH2 0x1723 JUMP JUMPDEST PUSH20 0xFFFFFFFFFFFFFFFFFFFFFFFFFFFFFFFFFFFFFFFF AND EQ PUSH2 0x35BE JUMPI PUSH1 0x40 MLOAD PUSH32 0x8C379A000000000000000000000000000000000000000000000000000000000 DUP2 MSTORE PUSH1 0x4 ADD PUSH2 0x35B5 SWAP1 PUSH2 0x752B JUMP JUMPDEST PUSH1 0x40 MLOAD DUP1 SWAP2 SUB SWAP1 REVERT JUMPDEST PUSH0 PUSH20 0xFFFFFFFFFFFFFFFFFFFFFFFFFFFFFFFFFFFFFFFF AND DUP3 PUSH20 0xFFFFFFFFFFFFFFFFFFFFFFFFFFFFFFFFFFFFFFFF AND SUB PUSH2 0x362C JUMPI PUSH1 0x40 MLOAD PUSH32 0x8C379A000000000000000000000000000000000000000000000000000000000 DUP2 MSTORE PUSH1 0x4 ADD PUSH2 0x3623 SWAP1 PUSH2 0x75B9 JUMP JUMPDEST PUSH1 0x40 MLOAD DUP1 SWAP2 SUB SWAP1 REVERT JUMPDEST PUSH2 0x3639 DUP4 DUP4 DUP4 PUSH1 0x1 PUSH2 0x4272 JUMP JUMPDEST DUP3 PUSH20 0xFFFFFFFFFFFFFFFFFFFFFFFFFFFFFFFFFFFFFFFF AND PUSH2 0x3659 DUP3 PUSH2 0x1723 JUMP JUMPDEST PUSH20 0xFFFFFFFFFFFFFFFFFFFFFFFFFFFFFFFFFFFFFFFF AND EQ PUSH2 0x36AF JUMPI PUSH1 0x40 MLOAD PUSH32 0x8C379A000000000000000000000000000000000000000000000000000000000 DUP2 MSTORE PUSH1 0x4 ADD PUSH2 0x36A6 SWAP1 PUSH2 0x752B JUMP JUMPDEST PUSH1 0x40 MLOAD DUP1 SWAP2 SUB SWAP1 REVERT JUMPDEST PUSH1 0x4 PUSH0 DUP3 DUP2 MSTORE PUSH1 0x20 ADD SWAP1 DUP2 MSTORE PUSH1 0x20 ADD PUSH0 KECCAK256 PUSH0 PUSH2 0x100 EXP DUP2 SLOAD SWAP1 PUSH20 0xFFFFFFFFFFFFFFFFFFFFFFFFFFFFFFFFFFFFFFFF MUL NOT AND SWAP1 SSTORE PUSH1 0x1 PUSH1 0x3 PUSH0 DUP6 PUSH20 0xFFFFFFFFFFFFFFFFFFFFFFFFFFFFFFFFFFFFFFFF AND PUSH20 0xFFFFFFFFFFFFFFFFFFFFFFFFFFFFFFFFFFFFFFFF AND DUP2 MSTORE PUSH1 0x20 ADD SWAP1 DUP2 MSTORE PUSH1 0x20 ADD PUSH0 KECCAK256 PUSH0 DUP3 DUP3 SLOAD SUB SWAP3 POP POP DUP2 SWAP1 SSTORE POP PUSH1 0x1 PUSH1 0x3 PUSH0 DUP5 PUSH20 0xFFFFFFFFFFFFFFFFFFFFFFFFFFFFFFFFFFFFFFFF AND PUSH20 0xFFFFFFFFFFFFFFFFFFFFFFFFFFFFFFFFFFFFFFFF AND DUP2 MSTORE PUSH1 0x20 ADD SWAP1 DUP2 MSTORE PUSH1 0x20 ADD PUSH0 KECCAK256 PUSH0 DUP3 DUP3 SLOAD ADD SWAP3 POP POP DUP2 SWAP1 SSTORE POP DUP2 PUSH1 0x2 PUSH0 DUP4 DUP2 MSTORE PUSH1 0x20 ADD SWAP1 DUP2 MSTORE PUSH1 0x20 ADD PUSH0 KECCAK256 PUSH0 PUSH2 0x100 EXP DUP2 SLOAD DUP2 PUSH20 0xFFFFFFFFFFFFFFFFFFFFFFFFFFFFFFFFFFFFFFFF MUL NOT AND SWAP1 DUP4 PUSH20 0xFFFFFFFFFFFFFFFFFFFFFFFFFFFFFFFFFFFFFFFF AND MUL OR SWAP1 SSTORE POP DUP1 DUP3 PUSH20 0xFFFFFFFFFFFFFFFFFFFFFFFFFFFFFFFFFFFFFFFF AND DUP5 PUSH20 0xFFFFFFFFFFFFFFFFFFFFFFFFFFFFFFFFFFFFFFFF AND PUSH32 0xDDF252AD1BE2C89B69C2B068FC378DAA952BA7F163C4A11628F55A4DF523B3EF PUSH1 0x40 MLOAD PUSH1 0x40 MLOAD DUP1 SWAP2 SUB SWAP1 LOG4 PUSH2 0x382F DUP4 DUP4 DUP4 PUSH1 0x1 PUSH2 0x4284 JUMP JUMPDEST POP POP POP JUMP JUMPDEST PUSH0 DUP1 PUSH20 0xFFFFFFFFFFFFFFFFFFFFFFFFFFFFFFFFFFFFFFFF AND PUSH1 0x10 PUSH0 DUP5 DUP2 MSTORE PUSH1 0x20 ADD SWAP1 DUP2 MSTORE PUSH1 0x20 ADD PUSH0 KECCAK256 PUSH1 0x1 ADD PUSH0 SWAP1 SLOAD SWAP1 PUSH2 0x100 EXP SWAP1 DIV PUSH20 0xFFFFFFFFFFFFFFFFFFFFFFFFFFFFFFFFFFFFFFFF AND PUSH20 0xFFFFFFFFFFFFFFFFFFFFFFFFFFFFFFFFFFFFFFFF AND EQ ISZERO SWAP1 POP SWAP2 SWAP1 POP JUMP JUMPDEST PUSH0 PUSH2 0x400 DUP3 PUSH2 0xFFFF AND LT ISZERO PUSH2 0x38B6 JUMPI PUSH0 SWAP1 POP PUSH2 0x38BB JUMP JUMPDEST PUSH1 0x1 SWAP1 POP JUMPDEST SWAP2 SWAP1 POP JUMP JUMPDEST PUSH1 0x40 MLOAD DUP1 PUSH1 0x40 ADD PUSH1 0x40 MSTORE DUP1 DUP4 PUSH20 0xFFFFFFFFFFFFFFFFFFFFFFFFFFFFFFFFFFFFFFFF AND DUP2 MSTORE PUSH1 0x20 ADD DUP3 DUP2 MSTORE POP PUSH1 0xE PUSH0 DUP3 ADD MLOAD DUP2 PUSH0 ADD PUSH0 PUSH2 0x100 EXP DUP2 SLOAD DUP2 PUSH20 0xFFFFFFFFFFFFFFFFFFFFFFFFFFFFFFFFFFFFFFFF MUL NOT AND SWAP1 DUP4 PUSH20 0xFFFFFFFFFFFFFFFFFFFFFFFFFFFFFFFFFFFFFFFF AND MUL OR SWAP1 SSTORE POP PUSH1 0x20 DUP3 ADD MLOAD DUP2 PUSH1 0x1 ADD SSTORE SWAP1 POP POP POP POP JUMP JUMPDEST PUSH2 0x394B DUP2 PUSH2 0x428A JUMP JUMPDEST POP JUMP JUMPDEST PUSH0 DUP3 DUP3 PUSH1 0xE DUP2 GT ISZERO PUSH2 0x3963 JUMPI PUSH2 0x3962 PUSH2 0x6A1B JUMP JUMPDEST JUMPDEST PUSH1 0x40 MLOAD PUSH1 0x20 ADD PUSH2 0x3974 SWAP3 SWAP2 SWAP1 PUSH2 0x75F7 JUMP JUMPDEST PUSH1 0x40 MLOAD PUSH1 0x20 DUP2 DUP4 SUB SUB DUP2 MSTORE SWAP1 PUSH1 0x40 MSTORE DUP1 MLOAD SWAP1 PUSH1 0x20 ADD KECCAK256 SWAP1 POP SWAP3 SWAP2 POP POP JUMP JUMPDEST PUSH0 DUP1 PUSH1 0xD PUSH0 DUP5 DUP2 MSTORE PUSH1 0x20 ADD SWAP1 DUP2 MSTORE PUSH1 0x20 ADD PUSH0 KECCAK256 PUSH0 ADD DUP1 SLOAD PUSH2 0x39B2 SWAP1 PUSH2 0x61BF JUMP JUMPDEST SWAP1 POP EQ ISZERO SWAP1 POP SWAP2 SWAP1 POP JUMP JUMPDEST PUSH0 PUSH1 0x2 PUSH0 DUP4 DUP2 MSTORE PUSH1 0x20 ADD SWAP1 DUP2 MSTORE PUSH1 0x20 ADD PUSH0 KECCAK256 PUSH0 SWAP1 SLOAD SWAP1 PUSH2 0x100 EXP SWAP1 DIV PUSH20 0xFFFFFFFFFFFFFFFFFFFFFFFFFFFFFFFFFFFFFFFF AND SWAP1 POP SWAP2 SWAP1 POP JUMP JUMPDEST PUSH0 DUP1 PUSH2 0x3A14 DUP5 DUP5 PUSH1 0xE DUP2 GT ISZERO PUSH2 0x3A0F JUMPI PUSH2 0x3A0E PUSH2 0x6A1B JUMP JUMPDEST JUMPDEST PUSH2 0x394E JUMP JUMPDEST SWAP1 POP PUSH0 PUSH1 0xD PUSH0 DUP4 DUP2 MSTORE PUSH1 0x20 ADD SWAP1 DUP2 MSTORE PUSH1 0x20 ADD PUSH0 KECCAK256 PUSH1 0x40 MLOAD DUP1 PUSH1 0x80 ADD PUSH1 0x40 MSTORE SWAP1 DUP2 PUSH0 DUP3 ADD DUP1 SLOAD PUSH2 0x3A42 SWAP1 PUSH2 0x61BF JUMP JUMPDEST DUP1 PUSH1 0x1F ADD PUSH1 0x20 DUP1 SWAP2 DIV MUL PUSH1 0x20 ADD PUSH1 0x40 MLOAD SWAP1 DUP2 ADD PUSH1 0x40 MSTORE DUP1 SWAP3 SWAP2 SWAP1 DUP2 DUP2 MSTORE PUSH1 0x20 ADD DUP3 DUP1 SLOAD PUSH2 0x3A6E SWAP1 PUSH2 0x61BF JUMP JUMPDEST DUP1 ISZERO PUSH2 0x3AB9 JUMPI DUP1 PUSH1 0x1F LT PUSH2 0x3A90 JUMPI PUSH2 0x100 DUP1 DUP4 SLOAD DIV MUL DUP4 MSTORE SWAP2 PUSH1 0x20 ADD SWAP2 PUSH2 0x3AB9 JUMP JUMPDEST DUP3 ADD SWAP2 SWAP1 PUSH0 MSTORE PUSH1 0x20 PUSH0 KECCAK256 SWAP1 JUMPDEST DUP2 SLOAD DUP2 MSTORE SWAP1 PUSH1 0x1 ADD SWAP1 PUSH1 0x20 ADD DUP1 DUP4 GT PUSH2 0x3A9C JUMPI DUP3 SWAP1 SUB PUSH1 0x1F AND DUP3 ADD SWAP2 JUMPDEST POP POP POP POP POP DUP2 MSTORE PUSH1 0x20 ADD PUSH1 0x1 DUP3 ADD PUSH0 SWAP1 SLOAD SWAP1 PUSH2 0x100 EXP SWAP1 DIV PUSH1 0xFF AND PUSH1 0xE DUP2 GT ISZERO PUSH2 0x3AE6 JUMPI PUSH2 0x3AE5 PUSH2 0x6A1B JUMP JUMPDEST JUMPDEST PUSH1 0xE DUP2 GT ISZERO PUSH2 0x3AF8 JUMPI PUSH2 0x3AF7 PUSH2 0x6A1B JUMP JUMPDEST JUMPDEST DUP2 MSTORE PUSH1 0x20 ADD PUSH1 0x2 DUP3 ADD DUP1 SLOAD PUSH2 0x3B0C SWAP1 PUSH2 0x61BF JUMP JUMPDEST DUP1 PUSH1 0x1F ADD PUSH1 0x20 DUP1 SWAP2 DIV MUL PUSH1 0x20 ADD PUSH1 0x40 MLOAD SWAP1 DUP2 ADD PUSH1 0x40 MSTORE DUP1 SWAP3 SWAP2 SWAP1 DUP2 DUP2 MSTORE PUSH1 0x20 ADD DUP3 DUP1 SLOAD PUSH2 0x3B38 SWAP1 PUSH2 0x61BF JUMP JUMPDEST DUP1 ISZERO PUSH2 0x3B83 JUMPI DUP1 PUSH1 0x1F LT PUSH2 0x3B5A JUMPI PUSH2 0x100 DUP1 DUP4 SLOAD DIV MUL DUP4 MSTORE SWAP2 PUSH1 0x20 ADD SWAP2 PUSH2 0x3B83 JUMP JUMPDEST DUP3 ADD SWAP2 SWAP1 PUSH0 MSTORE PUSH1 0x20 PUSH0 KECCAK256 SWAP1 JUMPDEST DUP2 SLOAD DUP2 MSTORE SWAP1 PUSH1 0x1 ADD SWAP1 PUSH1 0x20 ADD DUP1 DUP4 GT PUSH2 0x3B66 JUMPI DUP3 SWAP1 SUB PUSH1 0x1F AND DUP3 ADD SWAP2 JUMPDEST POP POP POP POP POP DUP2 MSTORE PUSH1 0x20 ADD PUSH1 0x3 DUP3 ADD PUSH0 SWAP1 SLOAD SWAP1 PUSH2 0x100 EXP SWAP1 DIV PUSH20 0xFFFFFFFFFFFFFFFFFFFFFFFFFFFFFFFFFFFFFFFF AND PUSH20 0xFFFFFFFFFFFFFFFFFFFFFFFFFFFFFFFFFFFFFFFF AND PUSH20 0xFFFFFFFFFFFFFFFFFFFFFFFFFFFFFFFFFFFFFFFF AND DUP2 MSTORE POP POP SWAP1 POP DUP1 PUSH1 0x60 ADD MLOAD SWAP3 POP POP POP SWAP3 SWAP2 POP POP JUMP JUMPDEST PUSH0 PUSH2 0x3C3F DUP9 DUP9 DUP1 DUP1 PUSH1 0x1F ADD PUSH1 0x20 DUP1 SWAP2 DIV MUL PUSH1 0x20 ADD PUSH1 0x40 MLOAD SWAP1 DUP2 ADD PUSH1 0x40 MSTORE DUP1 SWAP4 SWAP3 SWAP2 SWAP1 DUP2 DUP2 MSTORE PUSH1 0x20 ADD DUP4 DUP4 DUP1 DUP3 DUP5 CALLDATACOPY PUSH0 DUP2 DUP5 ADD MSTORE PUSH1 0x1F NOT PUSH1 0x1F DUP3 ADD AND SWAP1 POP DUP1 DUP4 ADD SWAP3 POP POP POP POP POP POP POP PUSH2 0x3027 JUMP JUMPDEST SWAP1 POP PUSH0 PUSH2 0x3C4B DUP8 PUSH2 0x389F JUMP JUMPDEST SWAP1 POP PUSH0 DUP1 DUP8 DUP8 SWAP1 POP EQ ISZERO SWAP1 POP PUSH0 PUSH2 0x3CA4 DUP7 DUP7 DUP1 DUP1 PUSH1 0x1F ADD PUSH1 0x20 DUP1 SWAP2 DIV MUL PUSH1 0x20 ADD PUSH1 0x40 MLOAD SWAP1 DUP2 ADD PUSH1 0x40 MSTORE DUP1 SWAP4 SWAP3 SWAP2 SWAP1 DUP2 DUP2 MSTORE PUSH1 0x20 ADD DUP4 DUP4 DUP1 DUP3 DUP5 CALLDATACOPY PUSH0 DUP2 DUP5 ADD MSTORE PUSH1 0x1F NOT PUSH1 0x1F DUP3 ADD AND SWAP1 POP DUP1 DUP4 ADD SWAP3 POP POP POP POP POP POP POP PUSH2 0x2B21 JUMP JUMPDEST SWAP1 POP DUP4 DUP1 PUSH2 0x3CAF JUMPI POP DUP3 JUMPDEST DUP1 PUSH2 0x3CB7 JUMPI POP DUP2 JUMPDEST DUP1 PUSH2 0x3CBF JUMPI POP DUP1 JUMPDEST PUSH2 0x3CFE JUMPI PUSH1 0x40 MLOAD PUSH32 0x8C379A000000000000000000000000000000000000000000000000000000000 DUP2 MSTORE PUSH1 0x4 ADD PUSH2 0x3CF5 SWAP1 PUSH2 0x768E JUMP JUMPDEST PUSH1 0x40 MLOAD DUP1 SWAP2 SUB SWAP1 REVERT JUMPDEST DUP4 ISZERO PUSH2 0x3D17 JUMPI DUP11 DUP11 PUSH1 0x13 SWAP2 DUP3 PUSH2 0x3D15 SWAP3 SWAP2 SWAP1 PUSH2 0x64F9 JUMP JUMPDEST POP JUMPDEST PUSH0 DUP10 PUSH2 0xFFFF AND EQ PUSH2 0x3D3F JUMPI DUP9 PUSH1 0x14 PUSH0 PUSH2 0x100 EXP DUP2 SLOAD DUP2 PUSH2 0xFFFF MUL NOT AND SWAP1 DUP4 PUSH2 0xFFFF AND MUL OR SWAP1 SSTORE POP JUMPDEST DUP2 ISZERO PUSH2 0x3D58 JUMPI DUP8 DUP8 PUSH1 0x15 SWAP2 DUP3 PUSH2 0x3D56 SWAP3 SWAP2 SWAP1 PUSH2 0x64F9 JUMP JUMPDEST POP JUMPDEST DUP1 ISZERO PUSH2 0x3D71 JUMPI DUP6 DUP6 PUSH1 0x16 SWAP2 DUP3 PUSH2 0x3D6F SWAP3 SWAP2 SWAP1 PUSH2 0x64F9 JUMP JUMPDEST POP JUMPDEST POP POP POP POP POP POP POP POP POP POP POP JUMP JUMPDEST PUSH0 PUSH1 0xB PUSH0 SWAP1 SLOAD SWAP1 PUSH2 0x100 EXP SWAP1 DIV PUSH20 0xFFFFFFFFFFFFFFFFFFFFFFFFFFFFFFFFFFFFFFFF AND SWAP1 POP DUP2 PUSH1 0xB PUSH0 PUSH2 0x100 EXP DUP2 SLOAD DUP2 PUSH20 0xFFFFFFFFFFFFFFFFFFFFFFFFFFFFFFFFFFFFFFFF MUL NOT AND SWAP1 DUP4 PUSH20 0xFFFFFFFFFFFFFFFFFFFFFFFFFFFFFFFFFFFFFFFF AND MUL OR SWAP1 SSTORE POP DUP2 PUSH20 0xFFFFFFFFFFFFFFFFFFFFFFFFFFFFFFFFFFFFFFFF AND DUP2 PUSH20 0xFFFFFFFFFFFFFFFFFFFFFFFFFFFFFFFFFFFFFFFF AND PUSH32 0x8BE0079C531659141344CD1FD0A4F28419497F9722A3DAAFE3B4186F6B6457E0 PUSH1 0x40 MLOAD PUSH1 0x40 MLOAD DUP1 SWAP2 SUB SWAP1 LOG3 POP POP JUMP JUMPDEST PUSH0 PUSH2 0x3E4A PUSH2 0xE90 JUMP JUMPDEST GT PUSH2 0x3E8A JUMPI PUSH1 0x40 MLOAD PUSH32 0x8C379A000000000000000000000000000000000000000000000000000000000 DUP2 MSTORE PUSH1 0x4 ADD PUSH2 0x3E81 SWAP1 PUSH2 0x771C JUMP JUMPDEST PUSH1 0x40 MLOAD DUP1 SWAP2 SUB SWAP1 REVERT JUMPDEST PUSH2 0x3E92 PUSH2 0x42D7 JUMP JUMPDEST PUSH2 0x3EA4 CALLER PUSH2 0x3E9F PUSH0 PUSH2 0x1FC1 JUMP JUMPDEST PUSH2 0x444C JUMP JUMPDEST JUMP JUMPDEST DUP2 PUSH20 0xFFFFFFFFFFFFFFFFFFFFFFFFFFFFFFFFFFFFFFFF AND DUP4 PUSH20 0xFFFFFFFFFFFFFFFFFFFFFFFFFFFFFFFFFFFFFFFF AND SUB PUSH2 0x3F14 JUMPI PUSH1 0x40 MLOAD PUSH32 0x8C379A000000000000000000000000000000000000000000000000000000000 DUP2 MSTORE PUSH1 0x4 ADD PUSH2 0x3F0B SWAP1 PUSH2 0x7784 JUMP JUMPDEST PUSH1 0x40 MLOAD DUP1 SWAP2 SUB SWAP1 REVERT JUMPDEST DUP1 PUSH1 0x5 PUSH0 DUP6 PUSH20 0xFFFFFFFFFFFFFFFFFFFFFFFFFFFFFFFFFFFFFFFF AND PUSH20 0xFFFFFFFFFFFFFFFFFFFFFFFFFFFFFFFFFFFFFFFF AND DUP2 MSTORE PUSH1 0x20 ADD SWAP1 DUP2 MSTORE PUSH1 0x20 ADD PUSH0 KECCAK256 PUSH0 DUP5 PUSH20 0xFFFFFFFFFFFFFFFFFFFFFFFFFFFFFFFFFFFFFFFF AND PUSH20 0xFFFFFFFFFFFFFFFFFFFFFFFFFFFFFFFFFFFFFFFF AND DUP2 MSTORE PUSH1 0x20 ADD SWAP1 DUP2 MSTORE PUSH1 0x20 ADD PUSH0 KECCAK256 PUSH0 PUSH2 0x100 EXP DUP2 SLOAD DUP2 PUSH1 0xFF MUL NOT AND SWAP1 DUP4 ISZERO ISZERO MUL OR SWAP1 SSTORE POP DUP2 PUSH20 0xFFFFFFFFFFFFFFFFFFFFFFFFFFFFFFFFFFFFFFFF AND DUP4 PUSH20 0xFFFFFFFFFFFFFFFFFFFFFFFFFFFFFFFFFFFFFFFF AND PUSH32 0x17307EAB39AB6107E8899845AD3D59BD9653F200F220920489CA2B5937696C31 DUP4 PUSH1 0x40 MLOAD PUSH2 0x4000 SWAP2 SWAP1 PUSH2 0x54E1 JUMP JUMPDEST PUSH1 0x40 MLOAD DUP1 SWAP2 SUB SWAP1 LOG3 POP POP POP JUMP JUMPDEST PUSH2 0x4018 DUP5 DUP5 DUP5 PUSH2 0x3548 JUMP JUMPDEST PUSH2 0x4024 DUP5 DUP5 DUP5 DUP5 PUSH2 0x447C JUMP JUMPDEST PUSH2 0x4063 JUMPI PUSH1 0x40 MLOAD PUSH32 0x8C379A000000000000000000000000000000000000000000000000000000000 DUP2 MSTORE PUSH1 0x4 ADD PUSH2 0x405A SWAP1 PUSH2 0x7812 JUMP JUMPDEST PUSH1 0x40 MLOAD DUP1 SWAP2 SUB SWAP1 REVERT JUMPDEST POP POP POP POP JUMP JUMPDEST PUSH1 0x60 PUSH2 0x4074 DUP3 PUSH2 0x299B JUMP JUMPDEST PUSH0 PUSH1 0xA PUSH0 DUP5 DUP2 MSTORE PUSH1 0x20 ADD SWAP1 DUP2 MSTORE PUSH1 0x20 ADD PUSH0 KECCAK256 DUP1 SLOAD PUSH2 0x4091 SWAP1 PUSH2 0x61BF JUMP JUMPDEST DUP1 PUSH1 0x1F ADD PUSH1 0x20 DUP1 SWAP2 DIV MUL PUSH1 0x20 ADD PUSH1 0x40 MLOAD SWAP1 DUP2 ADD PUSH1 0x40 MSTORE DUP1 SWAP3 SWAP2 SWAP1 DUP2 DUP2 MSTORE PUSH1 0x20 ADD DUP3 DUP1 SLOAD PUSH2 0x40BD SWAP1 PUSH2 0x61BF JUMP JUMPDEST DUP1 ISZERO PUSH2 0x4108 JUMPI DUP1 PUSH1 0x1F LT PUSH2 0x40DF JUMPI PUSH2 0x100 DUP1 DUP4 SLOAD DIV MUL DUP4 MSTORE SWAP2 PUSH1 0x20 ADD SWAP2 PUSH2 0x4108 JUMP JUMPDEST DUP3 ADD SWAP2 SWAP1 PUSH0 MSTORE PUSH1 0x20 PUSH0 KECCAK256 SWAP1 JUMPDEST DUP2 SLOAD DUP2 MSTORE SWAP1 PUSH1 0x1 ADD SWAP1 PUSH1 0x20 ADD DUP1 DUP4 GT PUSH2 0x40EB JUMPI DUP3 SWAP1 SUB PUSH1 0x1F AND DUP3 ADD SWAP2 JUMPDEST POP POP POP POP POP SWAP1 POP PUSH0 PUSH2 0x4118 PUSH2 0x45FE JUMP JUMPDEST SWAP1 POP PUSH0 DUP2 MLOAD SUB PUSH2 0x412C JUMPI DUP2 SWAP3 POP POP POP PUSH2 0x416E JUMP JUMPDEST PUSH0 DUP3 MLOAD GT ISZERO PUSH2 0x4160 JUMPI DUP1 DUP3 PUSH1 0x40 MLOAD PUSH1 0x20 ADD PUSH2 0x4148 SWAP3 SWAP2 SWAP1 PUSH2 0x7830 JUMP JUMPDEST PUSH1 0x40 MLOAD PUSH1 0x20 DUP2 DUP4 SUB SUB DUP2 MSTORE SWAP1 PUSH1 0x40 MSTORE SWAP3 POP POP POP PUSH2 0x416E JUMP JUMPDEST PUSH2 0x4169 DUP5 PUSH2 0x4614 JUMP JUMPDEST SWAP3 POP POP POP JUMPDEST SWAP2 SWAP1 POP JUMP JUMPDEST PUSH0 PUSH2 0x417C PUSH2 0x4679 JUMP JUMPDEST SWAP1 POP SWAP1 JUMP JUMPDEST PUSH0 DUP2 PUSH20 0xFFFFFFFFFFFFFFFFFFFFFFFFFFFFFFFFFFFFFFFF AND PUSH4 0x1FFC9A7 PUSH32 0xCCAD581F00000000000000000000000000000000000000000000000000000000 PUSH1 0x40 MLOAD DUP3 PUSH4 0xFFFFFFFF AND PUSH1 0xE0 SHL DUP2 MSTORE PUSH1 0x4 ADD PUSH2 0x41DB SWAP2 SWAP1 PUSH2 0x595B JUMP JUMPDEST PUSH1 0x20 PUSH1 0x40 MLOAD DUP1 DUP4 SUB DUP2 DUP7 GAS STATICCALL ISZERO DUP1 ISZERO PUSH2 0x41F6 JUMPI RETURNDATASIZE PUSH0 DUP1 RETURNDATACOPY RETURNDATASIZE PUSH0 REVERT JUMPDEST POP POP POP POP PUSH1 0x40 MLOAD RETURNDATASIZE PUSH1 0x1F NOT PUSH1 0x1F DUP3 ADD AND DUP3 ADD DUP1 PUSH1 0x40 MSTORE POP DUP2 ADD SWAP1 PUSH2 0x421A SWAP2 SWAP1 PUSH2 0x6DE4 JUMP JUMPDEST SWAP1 POP SWAP2 SWAP1 POP JUMP JUMPDEST PUSH0 PUSH2 0x422B DUP3 PUSH2 0x4700 JUMP JUMPDEST SWAP1 POP SWAP2 SWAP1 POP JUMP JUMPDEST PUSH0 DUP1 PUSH20 0xFFFFFFFFFFFFFFFFFFFFFFFFFFFFFFFFFFFFFFFF AND PUSH2 0x4253 DUP4 PUSH2 0x39BD JUMP JUMPDEST PUSH20 0xFFFFFFFFFFFFFFFFFFFFFFFFFFFFFFFFFFFFFFFF AND EQ ISZERO SWAP1 POP SWAP2 SWAP1 POP JUMP JUMPDEST PUSH2 0x427E DUP5 DUP5 DUP5 DUP5 PUSH2 0x4760 JUMP JUMPDEST POP POP POP POP JUMP JUMPDEST POP POP POP POP JUMP JUMPDEST PUSH2 0x4293 DUP2 PUSH2 0x48BB JUMP JUMPDEST PUSH0 PUSH1 0xA PUSH0 DUP4 DUP2 MSTORE PUSH1 0x20 ADD SWAP1 DUP2 MSTORE PUSH1 0x20 ADD PUSH0 KECCAK256 DUP1 SLOAD PUSH2 0x42B0 SWAP1 PUSH2 0x61BF JUMP JUMPDEST SWAP1 POP EQ PUSH2 0x42D4 JUMPI PUSH1 0xA PUSH0 DUP3 DUP2 MSTORE PUSH1 0x20 ADD SWAP1 DUP2 MSTORE PUSH1 0x20 ADD PUSH0 KECCAK256 PUSH0 PUSH2 0x42D3 SWAP2 SWAP1 PUSH2 0x53A9 JUMP JUMPDEST JUMPDEST POP JUMP JUMPDEST PUSH0 PUSH1 0xE PUSH1 0x1 ADD SLOAD SWAP1 POP PUSH0 PUSH1 0xE PUSH0 ADD PUSH0 SWAP1 SLOAD SWAP1 PUSH2 0x100 EXP SWAP1 DIV PUSH20 0xFFFFFFFFFFFFFFFFFFFFFFFFFFFFFFFFFFFFFFFF AND SWAP1 POP PUSH0 PUSH20 0xFFFFFFFFFFFFFFFFFFFFFFFFFFFFFFFFFFFFFFFF AND DUP2 PUSH20 0xFFFFFFFFFFFFFFFFFFFFFFFFFFFFFFFFFFFFFFFF AND SUB PUSH2 0x4381 JUMPI DUP2 CALLVALUE EQ PUSH2 0x437C JUMPI PUSH1 0x40 MLOAD PUSH32 0x8C379A000000000000000000000000000000000000000000000000000000000 DUP2 MSTORE PUSH1 0x4 ADD PUSH2 0x4373 SWAP1 PUSH2 0x78E9 JUMP JUMPDEST PUSH1 0x40 MLOAD DUP1 SWAP2 SUB SWAP1 REVERT JUMPDEST PUSH2 0x4405 JUMP JUMPDEST PUSH0 DUP2 SWAP1 POP DUP1 PUSH20 0xFFFFFFFFFFFFFFFFFFFFFFFFFFFFFFFFFFFFFFFF AND PUSH4 0x23B872DD CALLER ADDRESS DUP7 PUSH1 0x40 MLOAD DUP5 PUSH4 0xFFFFFFFF AND PUSH1 0xE0 SHL DUP2 MSTORE PUSH1 0x4 ADD PUSH2 0x43C2 SWAP4 SWAP3 SWAP2 SWAP1 PUSH2 0x70E8 JUMP JUMPDEST PUSH1 0x20 PUSH1 0x40 MLOAD DUP1 DUP4 SUB DUP2 PUSH0 DUP8 GAS CALL ISZERO DUP1 ISZERO PUSH2 0x43DE JUMPI RETURNDATASIZE PUSH0 DUP1 RETURNDATACOPY RETURNDATASIZE PUSH0 REVERT JUMPDEST POP POP POP POP PUSH1 0x40 MLOAD RETURNDATASIZE PUSH1 0x1F NOT PUSH1 0x1F DUP3 ADD AND DUP3 ADD DUP1 PUSH1 0x40 MSTORE POP DUP2 ADD SWAP1 PUSH2 0x4402 SWAP2 SWAP1 PUSH2 0x6DE4 JUMP JUMPDEST POP POP JUMPDEST CALLER PUSH20 0xFFFFFFFFFFFFFFFFFFFFFFFFFFFFFFFFFFFFFFFF AND PUSH32 0xF403523E17BF2D1FE8AF1A00BA36BC463A7D846DBADF11D117400F7694BA3E6C PUSH1 0x40 MLOAD PUSH1 0x40 MLOAD DUP1 SWAP2 SUB SWAP1 LOG2 POP POP JUMP JUMPDEST PUSH0 PUSH2 0x4457 PUSH1 0x12 PUSH2 0x49FC JUMP JUMPDEST SWAP1 POP PUSH2 0x4463 PUSH1 0x12 PUSH2 0x4A08 JUMP JUMPDEST PUSH2 0x446D DUP4 DUP3 PUSH2 0x4A1C JUMP JUMPDEST PUSH2 0x4477 DUP2 DUP4 PUSH2 0x4C2F JUMP JUMPDEST POP POP POP JUMP JUMPDEST PUSH0 PUSH2 0x449C DUP5 PUSH20 0xFFFFFFFFFFFFFFFFFFFFFFFFFFFFFFFFFFFFFFFF AND PUSH2 0x4CD1 JUMP JUMPDEST ISZERO PUSH2 0x45F1 JUMPI DUP4 PUSH20 0xFFFFFFFFFFFFFFFFFFFFFFFFFFFFFFFFFFFFFFFF AND PUSH4 0x150B7A02 PUSH2 0x44C5 PUSH2 0x29E6 JUMP JUMPDEST DUP8 DUP7 DUP7 PUSH1 0x40 MLOAD DUP6 PUSH4 0xFFFFFFFF AND PUSH1 0xE0 SHL DUP2 MSTORE PUSH1 0x4 ADD PUSH2 0x44E7 SWAP5 SWAP4 SWAP3 SWAP2 SWAP1 PUSH2 0x7959 JUMP JUMPDEST PUSH1 0x20 PUSH1 0x40 MLOAD DUP1 DUP4 SUB DUP2 PUSH0 DUP8 GAS CALL SWAP3 POP POP POP DUP1 ISZERO PUSH2 0x4522 JUMPI POP PUSH1 0x40 MLOAD RETURNDATASIZE PUSH1 0x1F NOT PUSH1 0x1F DUP3 ADD AND DUP3 ADD DUP1 PUSH1 0x40 MSTORE POP DUP2 ADD SWAP1 PUSH2 0x451F SWAP2 SWAP1 PUSH2 0x79B7 JUMP JUMPDEST PUSH1 0x1 JUMPDEST PUSH2 0x45A1 JUMPI RETURNDATASIZE DUP1 PUSH0 DUP2 EQ PUSH2 0x4550 JUMPI PUSH1 0x40 MLOAD SWAP2 POP PUSH1 0x1F NOT PUSH1 0x3F RETURNDATASIZE ADD AND DUP3 ADD PUSH1 0x40 MSTORE RETURNDATASIZE DUP3 MSTORE RETURNDATASIZE PUSH0 PUSH1 0x20 DUP5 ADD RETURNDATACOPY PUSH2 0x4555 JUMP JUMPDEST PUSH1 0x60 SWAP2 POP JUMPDEST POP PUSH0 DUP2 MLOAD SUB PUSH2 0x4599 JUMPI PUSH1 0x40 MLOAD PUSH32 0x8C379A000000000000000000000000000000000000000000000000000000000 DUP2 MSTORE PUSH1 0x4 ADD PUSH2 0x4590 SWAP1 PUSH2 0x7812 JUMP JUMPDEST PUSH1 0x40 MLOAD DUP1 SWAP2 SUB SWAP1 REVERT JUMPDEST DUP1 MLOAD DUP2 PUSH1 0x20 ADD REVERT JUMPDEST PUSH4 0x150B7A02 PUSH1 0xE0 SHL PUSH28 0xFFFFFFFFFFFFFFFFFFFFFFFFFFFFFFFFFFFFFFFFFFFFFFFFFFFFFFFF NOT AND DUP2 PUSH28 0xFFFFFFFFFFFFFFFFFFFFFFFFFFFFFFFFFFFFFFFFFFFFFFFFFFFFFFFF NOT AND EQ SWAP2 POP POP PUSH2 0x45F6 JUMP JUMPDEST PUSH1 0x1 SWAP1 POP JUMPDEST SWAP5 SWAP4 POP POP POP POP JUMP JUMPDEST PUSH1 0x60 PUSH1 0x40 MLOAD DUP1 PUSH1 0x20 ADD PUSH1 0x40 MSTORE DUP1 PUSH0 DUP2 MSTORE POP SWAP1 POP SWAP1 JUMP JUMPDEST PUSH1 0x60 PUSH2 0x461F DUP3 PUSH2 0x299B JUMP JUMPDEST PUSH0 PUSH2 0x4628 PUSH2 0x45FE JUMP JUMPDEST SWAP1 POP PUSH0 DUP2 MLOAD GT PUSH2 0x4646 JUMPI PUSH1 0x40 MLOAD DUP1 PUSH1 0x20 ADD PUSH1 0x40 MSTORE DUP1 PUSH0 DUP2 MSTORE POP PUSH2 0x4671 JUMP JUMPDEST DUP1 PUSH2 0x4650 DUP5 PUSH2 0x4CF3 JUMP JUMPDEST PUSH1 0x40 MLOAD PUSH1 0x20 ADD PUSH2 0x4661 SWAP3 SWAP2 SWAP1 PUSH2 0x7830 JUMP JUMPDEST PUSH1 0x40 MLOAD PUSH1 0x20 DUP2 DUP4 SUB SUB DUP2 MSTORE SWAP1 PUSH1 0x40 MSTORE JUMPDEST SWAP2 POP POP SWAP2 SWAP1 POP JUMP JUMPDEST PUSH0 PUSH20 0x47E0CDCB3C7705EF6FA57B69539D58AB5570799F PUSH20 0xFFFFFFFFFFFFFFFFFFFFFFFFFFFFFFFFFFFFFFFF AND PUSH4 0x43A73D9A PUSH1 0x40 MLOAD DUP2 PUSH4 0xFFFFFFFF AND PUSH1 0xE0 SHL DUP2 MSTORE PUSH1 0x4 ADD PUSH1 0x20 PUSH1 0x40 MLOAD DUP1 DUP4 SUB DUP2 DUP7 GAS STATICCALL ISZERO DUP1 ISZERO PUSH2 0x46D7 JUMPI RETURNDATASIZE PUSH0 DUP1 RETURNDATACOPY RETURNDATASIZE PUSH0 REVERT JUMPDEST POP POP POP POP PUSH1 0x40 MLOAD RETURNDATASIZE PUSH1 0x1F NOT PUSH1 0x1F DUP3 ADD AND DUP3 ADD DUP1 PUSH1 0x40 MSTORE POP DUP2 ADD SWAP1 PUSH2 0x46FB SWAP2 SWAP1 PUSH2 0x6EED JUMP JUMPDEST SWAP1 POP SWAP1 JUMP JUMPDEST PUSH0 PUSH4 0x49064906 PUSH1 0xE0 SHL PUSH28 0xFFFFFFFFFFFFFFFFFFFFFFFFFFFFFFFFFFFFFFFFFFFFFFFFFFFFFFFF NOT AND DUP3 PUSH28 0xFFFFFFFFFFFFFFFFFFFFFFFFFFFFFFFFFFFFFFFFFFFFFFFFFFFFFFFF NOT AND EQ DUP1 PUSH2 0x4759 JUMPI POP PUSH2 0x4758 DUP3 PUSH2 0x4DBD JUMP JUMPDEST JUMPDEST SWAP1 POP SWAP2 SWAP1 POP JUMP JUMPDEST PUSH2 0x476C DUP5 DUP5 DUP5 DUP5 PUSH2 0x4E36 JUMP JUMPDEST PUSH1 0x1 DUP2 GT ISZERO PUSH2 0x47B0 JUMPI PUSH1 0x40 MLOAD PUSH32 0x8C379A000000000000000000000000000000000000000000000000000000000 DUP2 MSTORE PUSH1 0x4 ADD PUSH2 0x47A7 SWAP1 PUSH2 0x7A52 JUMP JUMPDEST PUSH1 0x40 MLOAD DUP1 SWAP2 SUB SWAP1 REVERT JUMPDEST PUSH0 DUP3 SWAP1 POP PUSH0 PUSH20 0xFFFFFFFFFFFFFFFFFFFFFFFFFFFFFFFFFFFFFFFF AND DUP6 PUSH20 0xFFFFFFFFFFFFFFFFFFFFFFFFFFFFFFFFFFFFFFFF AND SUB PUSH2 0x47F5 JUMPI PUSH2 0x47F0 DUP2 PUSH2 0x4E3C JUMP JUMPDEST PUSH2 0x4834 JUMP JUMPDEST DUP4 PUSH20 0xFFFFFFFFFFFFFFFFFFFFFFFFFFFFFFFFFFFFFFFF AND DUP6 PUSH20 0xFFFFFFFFFFFFFFFFFFFFFFFFFFFFFFFFFFFFFFFF AND EQ PUSH2 0x4833 JUMPI PUSH2 0x4832 DUP6 DUP3 PUSH2 0x4E80 JUMP JUMPDEST JUMPDEST JUMPDEST PUSH0 PUSH20 0xFFFFFFFFFFFFFFFFFFFFFFFFFFFFFFFFFFFFFFFF AND DUP5 PUSH20 0xFFFFFFFFFFFFFFFFFFFFFFFFFFFFFFFFFFFFFFFF AND SUB PUSH2 0x4875 JUMPI PUSH2 0x4870 DUP2 PUSH2 0x4FD6 JUMP JUMPDEST PUSH2 0x48B4 JUMP JUMPDEST DUP5 PUSH20 0xFFFFFFFFFFFFFFFFFFFFFFFFFFFFFFFFFFFFFFFF AND DUP5 PUSH20 0xFFFFFFFFFFFFFFFFFFFFFFFFFFFFFFFFFFFFFFFF AND EQ PUSH2 0x48B3 JUMPI PUSH2 0x48B2 DUP5 DUP3 PUSH2 0x5096 JUMP JUMPDEST JUMPDEST JUMPDEST POP POP POP POP POP JUMP JUMPDEST PUSH0 PUSH2 0x48C5 DUP3 PUSH2 0x1723 JUMP JUMPDEST SWAP1 POP PUSH2 0x48D4 DUP2 PUSH0 DUP5 PUSH1 0x1 PUSH2 0x4272 JUMP JUMPDEST PUSH2 0x48DD DUP3 PUSH2 0x1723 JUMP JUMPDEST SWAP1 POP PUSH1 0x4 PUSH0 DUP4 DUP2 MSTORE PUSH1 0x20 ADD SWAP1 DUP2 MSTORE PUSH1 0x20 ADD PUSH0 KECCAK256 PUSH0 PUSH2 0x100 EXP DUP2 SLOAD SWAP1 PUSH20 0xFFFFFFFFFFFFFFFFFFFFFFFFFFFFFFFFFFFFFFFF MUL NOT AND SWAP1 SSTORE PUSH1 0x1 PUSH1 0x3 PUSH0 DUP4 PUSH20 0xFFFFFFFFFFFFFFFFFFFFFFFFFFFFFFFFFFFFFFFF AND PUSH20 0xFFFFFFFFFFFFFFFFFFFFFFFFFFFFFFFFFFFFFFFF AND DUP2 MSTORE PUSH1 0x20 ADD SWAP1 DUP2 MSTORE PUSH1 0x20 ADD PUSH0 KECCAK256 PUSH0 DUP3 DUP3 SLOAD SUB SWAP3 POP POP DUP2 SWAP1 SSTORE POP PUSH1 0x2 PUSH0 DUP4 DUP2 MSTORE PUSH1 0x20 ADD SWAP1 DUP2 MSTORE PUSH1 0x20 ADD PUSH0 KECCAK256 PUSH0 PUSH2 0x100 EXP DUP2 SLOAD SWAP1 PUSH20 0xFFFFFFFFFFFFFFFFFFFFFFFFFFFFFFFFFFFFFFFF MUL NOT AND SWAP1 SSTORE DUP2 PUSH0 PUSH20 0xFFFFFFFFFFFFFFFFFFFFFFFFFFFFFFFFFFFFFFFF AND DUP3 PUSH20 0xFFFFFFFFFFFFFFFFFFFFFFFFFFFFFFFFFFFFFFFF AND PUSH32 0xDDF252AD1BE2C89B69C2B068FC378DAA952BA7F163C4A11628F55A4DF523B3EF PUSH1 0x40 MLOAD PUSH1 0x40 MLOAD DUP1 SWAP2 SUB SWAP1 LOG4 PUSH2 0x49F8 DUP2 PUSH0 DUP5 PUSH1 0x1 PUSH2 0x4284 JUMP JUMPDEST POP POP JUMP JUMPDEST PUSH0 DUP2 PUSH0 ADD SLOAD SWAP1 POP SWAP2 SWAP1 POP JUMP JUMPDEST PUSH1 0x1 DUP2 PUSH0 ADD PUSH0 DUP3 DUP3 SLOAD ADD SWAP3 POP POP DUP2 SWAP1 SSTORE POP POP JUMP JUMPDEST PUSH0 PUSH20 0xFFFFFFFFFFFFFFFFFFFFFFFFFFFFFFFFFFFFFFFF AND DUP3 PUSH20 0xFFFFFFFFFFFFFFFFFFFFFFFFFFFFFFFFFFFFFFFF AND SUB PUSH2 0x4A8A JUMPI PUSH1 0x40 MLOAD PUSH32 0x8C379A000000000000000000000000000000000000000000000000000000000 DUP2 MSTORE PUSH1 0x4 ADD PUSH2 0x4A81 SWAP1 PUSH2 0x7ABA JUMP JUMPDEST PUSH1 0x40 MLOAD DUP1 SWAP2 SUB SWAP1 REVERT JUMPDEST PUSH2 0x4A93 DUP2 PUSH2 0x4232 JUMP JUMPDEST ISZERO PUSH2 0x4AD3 JUMPI PUSH1 0x40 MLOAD PUSH32 0x8C379A000000000000000000000000000000000000000000000000000000000 DUP2 MSTORE PUSH1 0x4 ADD PUSH2 0x4ACA SWAP1 PUSH2 0x7B22 JUMP JUMPDEST PUSH1 0x40 MLOAD DUP1 SWAP2 SUB SWAP1 REVERT JUMPDEST PUSH2 0x4AE0 PUSH0 DUP4 DUP4 PUSH1 0x1 PUSH2 0x4272 JUMP JUMPDEST PUSH2 0x4AE9 DUP2 PUSH2 0x4232 JUMP JUMPDEST ISZERO PUSH2 0x4B29 JUMPI PUSH1 0x40 MLOAD PUSH32 0x8C379A000000000000000000000000000000000000000000000000000000000 DUP2 MSTORE PUSH1 0x4 ADD PUSH2 0x4B20 SWAP1 PUSH2 0x7B22 JUMP JUMPDEST PUSH1 0x40 MLOAD DUP1 SWAP2 SUB SWAP1 REVERT JUMPDEST PUSH1 0x1 PUSH1 0x3 PUSH0 DUP5 PUSH20 0xFFFFFFFFFFFFFFFFFFFFFFFFFFFFFFFFFFFFFFFF AND PUSH20 0xFFFFFFFFFFFFFFFFFFFFFFFFFFFFFFFFFFFFFFFF AND DUP2 MSTORE PUSH1 0x20 ADD SWAP1 DUP2 MSTORE PUSH1 0x20 ADD PUSH0 KECCAK256 PUSH0 DUP3 DUP3 SLOAD ADD SWAP3 POP POP DUP2 SWAP1 SSTORE POP DUP2 PUSH1 0x2 PUSH0 DUP4 DUP2 MSTORE PUSH1 0x20 ADD SWAP1 DUP2 MSTORE PUSH1 0x20 ADD PUSH0 KECCAK256 PUSH0 PUSH2 0x100 EXP DUP2 SLOAD DUP2 PUSH20 0xFFFFFFFFFFFFFFFFFFFFFFFFFFFFFFFFFFFFFFFF MUL NOT AND SWAP1 DUP4 PUSH20 0xFFFFFFFFFFFFFFFFFFFFFFFFFFFFFFFFFFFFFFFF AND MUL OR SWAP1 SSTORE POP DUP1 DUP3 PUSH20 0xFFFFFFFFFFFFFFFFFFFFFFFFFFFFFFFFFFFFFFFF AND PUSH0 PUSH20 0xFFFFFFFFFFFFFFFFFFFFFFFFFFFFFFFFFFFFFFFF AND PUSH32 0xDDF252AD1BE2C89B69C2B068FC378DAA952BA7F163C4A11628F55A4DF523B3EF PUSH1 0x40 MLOAD PUSH1 0x40 MLOAD DUP1 SWAP2 SUB SWAP1 LOG4 PUSH2 0x4C2B PUSH0 DUP4 DUP4 PUSH1 0x1 PUSH2 0x4284 JUMP JUMPDEST POP POP JUMP JUMPDEST PUSH2 0x4C38 DUP3 PUSH2 0x4232 JUMP JUMPDEST PUSH2 0x4C77 JUMPI PUSH1 0x40 MLOAD PUSH32 0x8C379A000000000000000000000000000000000000000000000000000000000 DUP2 MSTORE PUSH1 0x4 ADD PUSH2 0x4C6E SWAP1 PUSH2 0x7BB0 JUMP JUMPDEST PUSH1 0x40 MLOAD DUP1 SWAP2 SUB SWAP1 REVERT JUMPDEST DUP1 PUSH1 0xA PUSH0 DUP5 DUP2 MSTORE PUSH1 0x20 ADD SWAP1 DUP2 MSTORE PUSH1 0x20 ADD PUSH0 KECCAK256 SWAP1 DUP2 PUSH2 0x4C95 SWAP2 SWAP1 PUSH2 0x6AB0 JUMP JUMPDEST POP PUSH32 0xF8E1A15ABA9398E019F0B49DF1A4FDE98EE17AE345CB5F6B5E2C27F5033E8CE7 DUP3 PUSH1 0x40 MLOAD PUSH2 0x4CC5 SWAP2 SWAP1 PUSH2 0x5A14 JUMP JUMPDEST PUSH1 0x40 MLOAD DUP1 SWAP2 SUB SWAP1 LOG1 POP POP JUMP JUMPDEST PUSH0 DUP1 DUP3 PUSH20 0xFFFFFFFFFFFFFFFFFFFFFFFFFFFFFFFFFFFFFFFF AND EXTCODESIZE GT SWAP1 POP SWAP2 SWAP1 POP JUMP JUMPDEST PUSH1 0x60 PUSH0 PUSH1 0x1 PUSH2 0x4D01 DUP5 PUSH2 0x510E JUMP JUMPDEST ADD SWAP1 POP PUSH0 DUP2 PUSH8 0xFFFFFFFFFFFFFFFF DUP2 GT ISZERO PUSH2 0x4D1F JUMPI PUSH2 0x4D1E PUSH2 0x55AC JUMP JUMPDEST JUMPDEST PUSH1 0x40 MLOAD SWAP1 DUP1 DUP3 MSTORE DUP1 PUSH1 0x1F ADD PUSH1 0x1F NOT AND PUSH1 0x20 ADD DUP3 ADD PUSH1 0x40 MSTORE DUP1 ISZERO PUSH2 0x4D51 JUMPI DUP2 PUSH1 0x20 ADD PUSH1 0x1 DUP3 MUL DUP1 CALLDATASIZE DUP4 CALLDATACOPY DUP1 DUP3 ADD SWAP2 POP POP SWAP1 POP JUMPDEST POP SWAP1 POP PUSH0 DUP3 PUSH1 0x20 ADD DUP3 ADD SWAP1 POP JUMPDEST PUSH1 0x1 ISZERO PUSH2 0x4DB2 JUMPI DUP1 DUP1 PUSH1 0x1 SWAP1 SUB SWAP2 POP POP PUSH32 0x3031323334353637383961626364656600000000000000000000000000000000 PUSH1 0xA DUP7 MOD BYTE DUP2 MSTORE8 PUSH1 0xA DUP6 DUP2 PUSH2 0x4DA7 JUMPI PUSH2 0x4DA6 PUSH2 0x7BCE JUMP JUMPDEST JUMPDEST DIV SWAP5 POP PUSH0 DUP6 SUB PUSH2 0x4D5E JUMPI JUMPDEST DUP2 SWAP4 POP POP POP POP SWAP2 SWAP1 POP JUMP JUMPDEST PUSH0 PUSH32 0x780E9D6300000000000000000000000000000000000000000000000000000000 PUSH28 0xFFFFFFFFFFFFFFFFFFFFFFFFFFFFFFFFFFFFFFFFFFFFFFFFFFFFFFFF NOT AND DUP3 PUSH28 0xFFFFFFFFFFFFFFFFFFFFFFFFFFFFFFFFFFFFFFFFFFFFFFFFFFFFFFFF NOT AND EQ DUP1 PUSH2 0x4E2F JUMPI POP PUSH2 0x4E2E DUP3 PUSH2 0x525F JUMP JUMPDEST JUMPDEST SWAP1 POP SWAP2 SWAP1 POP JUMP JUMPDEST POP POP POP POP JUMP JUMPDEST PUSH1 0x8 DUP1 SLOAD SWAP1 POP PUSH1 0x9 PUSH0 DUP4 DUP2 MSTORE PUSH1 0x20 ADD SWAP1 DUP2 MSTORE PUSH1 0x20 ADD PUSH0 KECCAK256 DUP2 SWAP1 SSTORE POP PUSH1 0x8 DUP2 SWAP1 DUP1 PUSH1 0x1 DUP2 SLOAD ADD DUP1 DUP3 SSTORE DUP1 SWAP2 POP POP PUSH1 0x1 SWAP1 SUB SWAP1 PUSH0 MSTORE PUSH1 0x20 PUSH0 KECCAK256 ADD PUSH0 SWAP1 SWAP2 SWAP1 SWAP2 SWAP1 SWAP2 POP SSTORE POP JUMP JUMPDEST PUSH0 PUSH1 0x1 PUSH2 0x4E8C DUP5 PUSH2 0x17FF JUMP JUMPDEST PUSH2 0x4E96 SWAP2 SWAP1 PUSH2 0x6832 JUMP JUMPDEST SWAP1 POP PUSH0 PUSH1 0x7 PUSH0 DUP5 DUP2 MSTORE PUSH1 0x20 ADD SWAP1 DUP2 MSTORE PUSH1 0x20 ADD PUSH0 KECCAK256 SLOAD SWAP1 POP DUP2 DUP2 EQ PUSH2 0x4F6D JUMPI PUSH0 PUSH1 0x6 PUSH0 DUP7 PUSH20 0xFFFFFFFFFFFFFFFFFFFFFFFFFFFFFFFFFFFFFFFF AND PUSH20 0xFFFFFFFFFFFFFFFFFFFFFFFFFFFFFFFFFFFFFFFF AND DUP2 MSTORE PUSH1 0x20 ADD SWAP1 DUP2 MSTORE PUSH1 0x20 ADD PUSH0 KECCAK256 PUSH0 DUP5 DUP2 MSTORE PUSH1 0x20 ADD SWAP1 DUP2 MSTORE PUSH1 0x20 ADD PUSH0 KECCAK256 SLOAD SWAP1 POP DUP1 PUSH1 0x6 PUSH0 DUP8 PUSH20 0xFFFFFFFFFFFFFFFFFFFFFFFFFFFFFFFFFFFFFFFF AND PUSH20 0xFFFFFFFFFFFFFFFFFFFFFFFFFFFFFFFFFFFFFFFF AND DUP2 MSTORE PUSH1 0x20 ADD SWAP1 DUP2 MSTORE PUSH1 0x20 ADD PUSH0 KECCAK256 PUSH0 DUP5 DUP2 MSTORE PUSH1 0x20 ADD SWAP1 DUP2 MSTORE PUSH1 0x20 ADD PUSH0 KECCAK256 DUP2 SWAP1 SSTORE POP DUP2 PUSH1 0x7 PUSH0 DUP4 DUP2 MSTORE PUSH1 0x20 ADD SWAP1 DUP2 MSTORE PUSH1 0x20 ADD PUSH0 KECCAK256 DUP2 SWAP1 SSTORE POP POP JUMPDEST PUSH1 0x7 PUSH0 DUP5 DUP2 MSTORE PUSH1 0x20 ADD SWAP1 DUP2 MSTORE PUSH1 0x20 ADD PUSH0 KECCAK256 PUSH0 SWAP1 SSTORE PUSH1 0x6 PUSH0 DUP6 PUSH20 0xFFFFFFFFFFFFFFFFFFFFFFFFFFFFFFFFFFFFFFFF AND PUSH20 0xFFFFFFFFFFFFFFFFFFFFFFFFFFFFFFFFFFFFFFFF AND DUP2 MSTORE PUSH1 0x20 ADD SWAP1 DUP2 MSTORE PUSH1 0x20 ADD PUSH0 KECCAK256 PUSH0 DUP4 DUP2 MSTORE PUSH1 0x20 ADD SWAP1 DUP2 MSTORE PUSH1 0x20 ADD PUSH0 KECCAK256 PUSH0 SWAP1 SSTORE POP POP POP POP JUMP JUMPDEST PUSH0 PUSH1 0x1 PUSH1 0x8 DUP1 SLOAD SWAP1 POP PUSH2 0x4FE9 SWAP2 SWAP1 PUSH2 0x6832 JUMP JUMPDEST SWAP1 POP PUSH0 PUSH1 0x9 PUSH0 DUP5 DUP2 MSTORE PUSH1 0x20 ADD SWAP1 DUP2 MSTORE PUSH1 0x20 ADD PUSH0 KECCAK256 SLOAD SWAP1 POP PUSH0 PUSH1 0x8 DUP4 DUP2 SLOAD DUP2 LT PUSH2 0x5015 JUMPI PUSH2 0x5014 PUSH2 0x67D8 JUMP JUMPDEST JUMPDEST SWAP1 PUSH0 MSTORE PUSH1 0x20 PUSH0 KECCAK256 ADD SLOAD SWAP1 POP DUP1 PUSH1 0x8 DUP4 DUP2 SLOAD DUP2 LT PUSH2 0x5035 JUMPI PUSH2 0x5034 PUSH2 0x67D8 JUMP JUMPDEST JUMPDEST SWAP1 PUSH0 MSTORE PUSH1 0x20 PUSH0 KECCAK256 ADD DUP2 SWAP1 SSTORE POP DUP2 PUSH1 0x9 PUSH0 DUP4 DUP2 MSTORE PUSH1 0x20 ADD SWAP1 DUP2 MSTORE PUSH1 0x20 ADD PUSH0 KECCAK256 DUP2 SWAP1 SSTORE POP PUSH1 0x9 PUSH0 DUP6 DUP2 MSTORE PUSH1 0x20 ADD SWAP1 DUP2 MSTORE PUSH1 0x20 ADD PUSH0 KECCAK256 PUSH0 SWAP1 SSTORE PUSH1 0x8 DUP1 SLOAD DUP1 PUSH2 0x507D JUMPI PUSH2 0x507C PUSH2 0x6865 JUMP JUMPDEST JUMPDEST PUSH1 0x1 SWAP1 SUB DUP2 DUP2 SWAP1 PUSH0 MSTORE PUSH1 0x20 PUSH0 KECCAK256 ADD PUSH0 SWAP1 SSTORE SWAP1 SSTORE POP POP POP POP JUMP JUMPDEST PUSH0 PUSH2 0x50A0 DUP4 PUSH2 0x17FF JUMP JUMPDEST SWAP1 POP DUP2 PUSH1 0x6 PUSH0 DUP6 PUSH20 0xFFFFFFFFFFFFFFFFFFFFFFFFFFFFFFFFFFFFFFFF AND PUSH20 0xFFFFFFFFFFFFFFFFFFFFFFFFFFFFFFFFFFFFFFFF AND DUP2 MSTORE PUSH1 0x20 ADD SWAP1 DUP2 MSTORE PUSH1 0x20 ADD PUSH0 KECCAK256 PUSH0 DUP4 DUP2 MSTORE PUSH1 0x20 ADD SWAP1 DUP2 MSTORE PUSH1 0x20 ADD PUSH0 KECCAK256 DUP2 SWAP1 SSTORE POP DUP1 PUSH1 0x7 PUSH0 DUP5 DUP2 MSTORE PUSH1 0x20 ADD SWAP1 DUP2 MSTORE PUSH1 0x20 ADD PUSH0 KECCAK256 DUP2 SWAP1 SSTORE POP POP POP POP JUMP JUMPDEST PUSH0 DUP1 PUSH0 SWAP1 POP PUSH27 0x184F03E93FF9F4DAA797ED6E38ED64BF6A1F010000000000000000 DUP4 LT PUSH2 0x516A JUMPI PUSH27 0x184F03E93FF9F4DAA797ED6E38ED64BF6A1F010000000000000000 DUP4 DUP2 PUSH2 0x5160 JUMPI PUSH2 0x515F PUSH2 0x7BCE JUMP JUMPDEST JUMPDEST DIV SWAP3 POP PUSH1 0x40 DUP2 ADD SWAP1 POP JUMPDEST PUSH14 0x4EE2D6D415B85ACEF8100000000 DUP4 LT PUSH2 0x51A7 JUMPI PUSH14 0x4EE2D6D415B85ACEF8100000000 DUP4 DUP2 PUSH2 0x519D JUMPI PUSH2 0x519C PUSH2 0x7BCE JUMP JUMPDEST JUMPDEST DIV SWAP3 POP PUSH1 0x20 DUP2 ADD SWAP1 POP JUMPDEST PUSH7 0x2386F26FC10000 DUP4 LT PUSH2 0x51D6 JUMPI PUSH7 0x2386F26FC10000 DUP4 DUP2 PUSH2 0x51CC JUMPI PUSH2 0x51CB PUSH2 0x7BCE JUMP JUMPDEST JUMPDEST DIV SWAP3 POP PUSH1 0x10 DUP2 ADD SWAP1 POP JUMPDEST PUSH4 0x5F5E100 DUP4 LT PUSH2 0x51FF JUMPI PUSH4 0x5F5E100 DUP4 DUP2 PUSH2 0x51F5 JUMPI PUSH2 0x51F4 PUSH2 0x7BCE JUMP JUMPDEST JUMPDEST DIV SWAP3 POP PUSH1 0x8 DUP2 ADD SWAP1 POP JUMPDEST PUSH2 0x2710 DUP4 LT PUSH2 0x5224 JUMPI PUSH2 0x2710 DUP4 DUP2 PUSH2 0x521A JUMPI PUSH2 0x5219 PUSH2 0x7BCE JUMP JUMPDEST JUMPDEST DIV SWAP3 POP PUSH1 0x4 DUP2 ADD SWAP1 POP JUMPDEST PUSH1 0x64 DUP4 LT PUSH2 0x5247 JUMPI PUSH1 0x64 DUP4 DUP2 PUSH2 0x523D JUMPI PUSH2 0x523C PUSH2 0x7BCE JUMP JUMPDEST JUMPDEST DIV SWAP3 POP PUSH1 0x2 DUP2 ADD SWAP1 POP JUMPDEST PUSH1 0xA DUP4 LT PUSH2 0x5256 JUMPI PUSH1 0x1 DUP2 ADD SWAP1 POP JUMPDEST DUP1 SWAP2 POP POP SWAP2 SWAP1 POP JUMP JUMPDEST PUSH0 PUSH32 0x80AC58CD00000000000000000000000000000000000000000000000000000000 PUSH28 0xFFFFFFFFFFFFFFFFFFFFFFFFFFFFFFFFFFFFFFFFFFFFFFFFFFFFFFFF NOT AND DUP3 PUSH28 0xFFFFFFFFFFFFFFFFFFFFFFFFFFFFFFFFFFFFFFFFFFFFFFFFFFFFFFFF NOT AND EQ DUP1 PUSH2 0x5329 JUMPI POP PUSH32 0x5B5E139F00000000000000000000000000000000000000000000000000000000 PUSH28 0xFFFFFFFFFFFFFFFFFFFFFFFFFFFFFFFFFFFFFFFFFFFFFFFFFFFFFFFF NOT AND DUP3 PUSH28 0xFFFFFFFFFFFFFFFFFFFFFFFFFFFFFFFFFFFFFFFFFFFFFFFFFFFFFFFF NOT AND EQ JUMPDEST DUP1 PUSH2 0x5339 JUMPI POP PUSH2 0x5338 DUP3 PUSH2 0x5340 JUMP JUMPDEST JUMPDEST SWAP1 POP SWAP2 SWAP1 POP JUMP JUMPDEST PUSH0 PUSH32 0x1FFC9A700000000000000000000000000000000000000000000000000000000 PUSH28 0xFFFFFFFFFFFFFFFFFFFFFFFFFFFFFFFFFFFFFFFFFFFFFFFFFFFFFFFF NOT AND DUP3 PUSH28 0xFFFFFFFFFFFFFFFFFFFFFFFFFFFFFFFFFFFFFFFFFFFFFFFFFFFFFFFF NOT AND EQ SWAP1 POP SWAP2 SWAP1 POP JUMP JUMPDEST POP DUP1 SLOAD PUSH2 0x53B5 SWAP1 PUSH2 0x61BF JUMP JUMPDEST PUSH0 DUP3 SSTORE DUP1 PUSH1 0x1F LT PUSH2 0x53C6 JUMPI POP PUSH2 0x53E3 JUMP JUMPDEST PUSH1 0x1F ADD PUSH1 0x20 SWAP1 DIV SWAP1 PUSH0 MSTORE PUSH1 0x20 PUSH0 KECCAK256 SWAP1 DUP2 ADD SWAP1 PUSH2 0x53E2 SWAP2 SWAP1 PUSH2 0x541B JUMP JUMPDEST JUMPDEST POP JUMP JUMPDEST PUSH1 0x40 MLOAD DUP1 PUSH1 0x60 ADD PUSH1 0x40 MSTORE DUP1 PUSH1 0x60 DUP2 MSTORE PUSH1 0x20 ADD PUSH0 PUSH20 0xFFFFFFFFFFFFFFFFFFFFFFFFFFFFFFFFFFFFFFFF AND DUP2 MSTORE PUSH1 0x20 ADD PUSH0 DUP2 MSTORE POP SWAP1 JUMP JUMPDEST JUMPDEST DUP1 DUP3 GT ISZERO PUSH2 0x5432 JUMPI PUSH0 DUP2 PUSH0 SWAP1 SSTORE POP PUSH1 0x1 ADD PUSH2 0x541C JUMP JUMPDEST POP SWAP1 JUMP JUMPDEST PUSH0 PUSH1 0x40 MLOAD SWAP1 POP SWAP1 JUMP JUMPDEST PUSH0 DUP1 REVERT JUMPDEST PUSH0 DUP1 REVERT JUMPDEST PUSH0 PUSH32 0xFFFFFFFF00000000000000000000000000000000000000000000000000000000 DUP3 AND SWAP1 POP SWAP2 SWAP1 POP JUMP JUMPDEST PUSH2 0x547B DUP2 PUSH2 0x5447 JUMP JUMPDEST DUP2 EQ PUSH2 0x5485 JUMPI PUSH0 DUP1 REVERT JUMPDEST POP JUMP JUMPDEST PUSH0 DUP2 CALLDATALOAD SWAP1 POP PUSH2 0x5496 DUP2 PUSH2 0x5472 JUMP JUMPDEST SWAP3 SWAP2 POP POP JUMP JUMPDEST PUSH0 PUSH1 0x20 DUP3 DUP5 SUB SLT ISZERO PUSH2 0x54B1 JUMPI PUSH2 0x54B0 PUSH2 0x543F JUMP JUMPDEST JUMPDEST PUSH0 PUSH2 0x54BE DUP5 DUP3 DUP6 ADD PUSH2 0x5488 JUMP JUMPDEST SWAP2 POP POP SWAP3 SWAP2 POP POP JUMP JUMPDEST PUSH0 DUP2 ISZERO ISZERO SWAP1 POP SWAP2 SWAP1 POP JUMP JUMPDEST PUSH2 0x54DB DUP2 PUSH2 0x54C7 JUMP JUMPDEST DUP3 MSTORE POP POP JUMP JUMPDEST PUSH0 PUSH1 0x20 DUP3 ADD SWAP1 POP PUSH2 0x54F4 PUSH0 DUP4 ADD DUP5 PUSH2 0x54D2 JUMP JUMPDEST SWAP3 SWAP2 POP POP JUMP JUMPDEST PUSH0 DUP2 MLOAD SWAP1 POP SWAP2 SWAP1 POP JUMP JUMPDEST PUSH0 DUP3 DUP3 MSTORE PUSH1 0x20 DUP3 ADD SWAP1 POP SWAP3 SWAP2 POP POP JUMP JUMPDEST PUSH0 JUMPDEST DUP4 DUP2 LT ISZERO PUSH2 0x5531 JUMPI DUP1 DUP3 ADD MLOAD DUP2 DUP5 ADD MSTORE PUSH1 0x20 DUP2 ADD SWAP1 POP PUSH2 0x5516 JUMP JUMPDEST PUSH0 DUP5 DUP5 ADD MSTORE POP POP POP POP JUMP JUMPDEST PUSH0 PUSH1 0x1F NOT PUSH1 0x1F DUP4 ADD AND SWAP1 POP SWAP2 SWAP1 POP JUMP JUMPDEST PUSH0 PUSH2 0x5556 DUP3 PUSH2 0x54FA JUMP JUMPDEST PUSH2 0x5560 DUP2 DUP6 PUSH2 0x5504 JUMP JUMPDEST SWAP4 POP PUSH2 0x5570 DUP2 DUP6 PUSH1 0x20 DUP7 ADD PUSH2 0x5514 JUMP JUMPDEST PUSH2 0x5579 DUP2 PUSH2 0x553C JUMP JUMPDEST DUP5 ADD SWAP2 POP POP SWAP3 SWAP2 POP POP JUMP JUMPDEST PUSH0 PUSH1 0x20 DUP3 ADD SWAP1 POP DUP2 DUP2 SUB PUSH0 DUP4 ADD MSTORE PUSH2 0x559C DUP2 DUP5 PUSH2 0x554C JUMP JUMPDEST SWAP1 POP SWAP3 SWAP2 POP POP JUMP JUMPDEST PUSH0 DUP1 REVERT JUMPDEST PUSH0 DUP1 REVERT JUMPDEST PUSH32 0x4E487B7100000000000000000000000000000000000000000000000000000000 PUSH0 MSTORE PUSH1 0x41 PUSH1 0x4 MSTORE PUSH1 0x24 PUSH0 REVERT JUMPDEST PUSH2 0x55E2 DUP3 PUSH2 0x553C JUMP JUMPDEST DUP2 ADD DUP2 DUP2 LT PUSH8 0xFFFFFFFFFFFFFFFF DUP3 GT OR ISZERO PUSH2 0x5601 JUMPI PUSH2 0x5600 PUSH2 0x55AC JUMP JUMPDEST JUMPDEST DUP1 PUSH1 0x40 MSTORE POP POP POP JUMP JUMPDEST PUSH0 PUSH2 0x5613 PUSH2 0x5436 JUMP JUMPDEST SWAP1 POP PUSH2 0x561F DUP3 DUP3 PUSH2 0x55D9 JUMP JUMPDEST SWAP2 SWAP1 POP JUMP JUMPDEST PUSH0 PUSH8 0xFFFFFFFFFFFFFFFF DUP3 GT ISZERO PUSH2 0x563E JUMPI PUSH2 0x563D PUSH2 0x55AC JUMP JUMPDEST JUMPDEST PUSH2 0x5647 DUP3 PUSH2 0x553C JUMP JUMPDEST SWAP1 POP PUSH1 0x20 DUP2 ADD SWAP1 POP SWAP2 SWAP1 POP JUMP JUMPDEST DUP3 DUP2 DUP4 CALLDATACOPY PUSH0 DUP4 DUP4 ADD MSTORE POP POP POP JUMP JUMPDEST PUSH0 PUSH2 0x5674 PUSH2 0x566F DUP5 PUSH2 0x5624 JUMP JUMPDEST PUSH2 0x560A JUMP JUMPDEST SWAP1 POP DUP3 DUP2 MSTORE PUSH1 0x20 DUP2 ADD DUP5 DUP5 DUP5 ADD GT ISZERO PUSH2 0x5690 JUMPI PUSH2 0x568F PUSH2 0x55A8 JUMP JUMPDEST JUMPDEST PUSH2 0x569B DUP5 DUP3 DUP6 PUSH2 0x5654 JUMP JUMPDEST POP SWAP4 SWAP3 POP POP POP JUMP JUMPDEST PUSH0 DUP3 PUSH1 0x1F DUP4 ADD SLT PUSH2 0x56B7 JUMPI PUSH2 0x56B6 PUSH2 0x55A4 JUMP JUMPDEST JUMPDEST DUP2 CALLDATALOAD PUSH2 0x56C7 DUP5 DUP3 PUSH1 0x20 DUP7 ADD PUSH2 0x5662 JUMP JUMPDEST SWAP2 POP POP SWAP3 SWAP2 POP POP JUMP JUMPDEST PUSH0 PUSH1 0x20 DUP3 DUP5 SUB SLT ISZERO PUSH2 0x56E5 JUMPI PUSH2 0x56E4 PUSH2 0x543F JUMP JUMPDEST JUMPDEST PUSH0 DUP3 ADD CALLDATALOAD PUSH8 0xFFFFFFFFFFFFFFFF DUP2 GT ISZERO PUSH2 0x5702 JUMPI PUSH2 0x5701 PUSH2 0x5443 JUMP JUMPDEST JUMPDEST PUSH2 0x570E DUP5 DUP3 DUP6 ADD PUSH2 0x56A3 JUMP JUMPDEST SWAP2 POP POP SWAP3 SWAP2 POP POP JUMP JUMPDEST PUSH0 PUSH20 0xFFFFFFFFFFFFFFFFFFFFFFFFFFFFFFFFFFFFFFFF DUP3 AND SWAP1 POP SWAP2 SWAP1 POP JUMP JUMPDEST PUSH0 PUSH2 0x5740 DUP3 PUSH2 0x5717 JUMP JUMPDEST SWAP1 POP SWAP2 SWAP1 POP JUMP JUMPDEST PUSH2 0x5750 DUP2 PUSH2 0x5736 JUMP JUMPDEST DUP3 MSTORE POP POP JUMP JUMPDEST PUSH0 DUP2 SWAP1 POP SWAP2 SWAP1 POP JUMP JUMPDEST PUSH2 0x5768 DUP2 PUSH2 0x5756 JUMP JUMPDEST DUP3 MSTORE POP POP JUMP JUMPDEST PUSH0 PUSH1 0x40 DUP3 ADD SWAP1 POP PUSH2 0x5781 PUSH0 DUP4 ADD DUP6 PUSH2 0x5747 JUMP JUMPDEST PUSH2 0x578E PUSH1 0x20 DUP4 ADD DUP5 PUSH2 0x575F JUMP JUMPDEST SWAP4 SWAP3 POP POP POP JUMP JUMPDEST PUSH2 0x579E DUP2 PUSH2 0x5756 JUMP JUMPDEST DUP2 EQ PUSH2 0x57A8 JUMPI PUSH0 DUP1 REVERT JUMPDEST POP JUMP JUMPDEST PUSH0 DUP2 CALLDATALOAD SWAP1 POP PUSH2 0x57B9 DUP2 PUSH2 0x5795 JUMP JUMPDEST SWAP3 SWAP2 POP POP JUMP JUMPDEST PUSH0 PUSH1 0x20 DUP3 DUP5 SUB SLT ISZERO PUSH2 0x57D4 JUMPI PUSH2 0x57D3 PUSH2 0x543F JUMP JUMPDEST JUMPDEST PUSH0 PUSH2 0x57E1 DUP5 DUP3 DUP6 ADD PUSH2 0x57AB JUMP JUMPDEST SWAP2 POP POP SWAP3 SWAP2 POP POP JUMP JUMPDEST PUSH0 PUSH1 0x20 DUP3 ADD SWAP1 POP PUSH2 0x57FD PUSH0 DUP4 ADD DUP5 PUSH2 0x5747 JUMP JUMPDEST SWAP3 SWAP2 POP POP JUMP JUMPDEST PUSH2 0x580C DUP2 PUSH2 0x5736 JUMP JUMPDEST DUP2 EQ PUSH2 0x5816 JUMPI PUSH0 DUP1 REVERT JUMPDEST POP JUMP JUMPDEST PUSH0 DUP2 CALLDATALOAD SWAP1 POP PUSH2 0x5827 DUP2 PUSH2 0x5803 JUMP JUMPDEST SWAP3 SWAP2 POP POP JUMP JUMPDEST PUSH0 DUP1 PUSH1 0x40 DUP4 DUP6 SUB SLT ISZERO PUSH2 0x5843 JUMPI PUSH2 0x5842 PUSH2 0x543F JUMP JUMPDEST JUMPDEST PUSH0 PUSH2 0x5850 DUP6 DUP3 DUP7 ADD PUSH2 0x5819 JUMP JUMPDEST SWAP3 POP POP PUSH1 0x20 PUSH2 0x5861 DUP6 DUP3 DUP7 ADD PUSH2 0x57AB JUMP JUMPDEST SWAP2 POP POP SWAP3 POP SWAP3 SWAP1 POP JUMP JUMPDEST PUSH0 DUP1 REVERT JUMPDEST PUSH0 DUP1 REVERT JUMPDEST PUSH0 DUP1 DUP4 PUSH1 0x1F DUP5 ADD SLT PUSH2 0x5888 JUMPI PUSH2 0x5887 PUSH2 0x55A4 JUMP JUMPDEST JUMPDEST DUP3 CALLDATALOAD SWAP1 POP PUSH8 0xFFFFFFFFFFFFFFFF DUP2 GT ISZERO PUSH2 0x58A5 JUMPI PUSH2 0x58A4 PUSH2 0x586B JUMP JUMPDEST JUMPDEST PUSH1 0x20 DUP4 ADD SWAP2 POP DUP4 PUSH1 0x1 DUP3 MUL DUP4 ADD GT ISZERO PUSH2 0x58C1 JUMPI PUSH2 0x58C0 PUSH2 0x586F JUMP JUMPDEST JUMPDEST SWAP3 POP SWAP3 SWAP1 POP JUMP JUMPDEST PUSH0 DUP1 PUSH0 DUP1 PUSH0 PUSH1 0x80 DUP7 DUP9 SUB SLT ISZERO PUSH2 0x58E1 JUMPI PUSH2 0x58E0 PUSH2 0x543F JUMP JUMPDEST JUMPDEST PUSH0 PUSH2 0x58EE DUP9 DUP3 DUP10 ADD PUSH2 0x5819 JUMP JUMPDEST SWAP6 POP POP PUSH1 0x20 PUSH2 0x58FF DUP9 DUP3 DUP10 ADD PUSH2 0x5819 JUMP JUMPDEST SWAP5 POP POP PUSH1 0x40 PUSH2 0x5910 DUP9 DUP3 DUP10 ADD PUSH2 0x57AB JUMP JUMPDEST SWAP4 POP POP PUSH1 0x60 DUP7 ADD CALLDATALOAD PUSH8 0xFFFFFFFFFFFFFFFF DUP2 GT ISZERO PUSH2 0x5931 JUMPI PUSH2 0x5930 PUSH2 0x5443 JUMP JUMPDEST JUMPDEST PUSH2 0x593D DUP9 DUP3 DUP10 ADD PUSH2 0x5873 JUMP JUMPDEST SWAP3 POP SWAP3 POP POP SWAP3 SWAP6 POP SWAP3 SWAP6 SWAP1 SWAP4 POP JUMP JUMPDEST PUSH2 0x5955 DUP2 PUSH2 0x5447 JUMP JUMPDEST DUP3 MSTORE POP POP JUMP JUMPDEST PUSH0 PUSH1 0x20 DUP3 ADD SWAP1 POP PUSH2 0x596E PUSH0 DUP4 ADD DUP5 PUSH2 0x594C JUMP JUMPDEST SWAP3 SWAP2 POP POP JUMP JUMPDEST PUSH0 DUP1 DUP4 PUSH1 0x1F DUP5 ADD SLT PUSH2 0x5989 JUMPI PUSH2 0x5988 PUSH2 0x55A4 JUMP JUMPDEST JUMPDEST DUP3 CALLDATALOAD SWAP1 POP PUSH8 0xFFFFFFFFFFFFFFFF DUP2 GT ISZERO PUSH2 0x59A6 JUMPI PUSH2 0x59A5 PUSH2 0x586B JUMP JUMPDEST JUMPDEST PUSH1 0x20 DUP4 ADD SWAP2 POP DUP4 PUSH1 0x1 DUP3 MUL DUP4 ADD GT ISZERO PUSH2 0x59C2 JUMPI PUSH2 0x59C1 PUSH2 0x586F JUMP JUMPDEST JUMPDEST SWAP3 POP SWAP3 SWAP1 POP JUMP JUMPDEST PUSH0 DUP1 PUSH1 0x20 DUP4 DUP6 SUB SLT ISZERO PUSH2 0x59DF JUMPI PUSH2 0x59DE PUSH2 0x543F JUMP JUMPDEST JUMPDEST PUSH0 DUP4 ADD CALLDATALOAD PUSH8 0xFFFFFFFFFFFFFFFF DUP2 GT ISZERO PUSH2 0x59FC JUMPI PUSH2 0x59FB PUSH2 0x5443 JUMP JUMPDEST JUMPDEST PUSH2 0x5A08 DUP6 DUP3 DUP7 ADD PUSH2 0x5974 JUMP JUMPDEST SWAP3 POP SWAP3 POP POP SWAP3 POP SWAP3 SWAP1 POP JUMP JUMPDEST PUSH0 PUSH1 0x20 DUP3 ADD SWAP1 POP PUSH2 0x5A27 PUSH0 DUP4 ADD DUP5 PUSH2 0x575F JUMP JUMPDEST SWAP3 SWAP2 POP POP JUMP JUMPDEST PUSH0 DUP1 PUSH0 PUSH1 0x60 DUP5 DUP7 SUB SLT ISZERO PUSH2 0x5A44 JUMPI PUSH2 0x5A43 PUSH2 0x543F JUMP JUMPDEST JUMPDEST PUSH0 PUSH2 0x5A51 DUP7 DUP3 DUP8 ADD PUSH2 0x5819 JUMP JUMPDEST SWAP4 POP POP PUSH1 0x20 PUSH2 0x5A62 DUP7 DUP3 DUP8 ADD PUSH2 0x5819 JUMP JUMPDEST SWAP3 POP POP PUSH1 0x40 PUSH2 0x5A73 DUP7 DUP3 DUP8 ADD PUSH2 0x57AB JUMP JUMPDEST SWAP2 POP POP SWAP3 POP SWAP3 POP SWAP3 JUMP JUMPDEST PUSH0 DUP2 SWAP1 POP SWAP2 SWAP1 POP JUMP JUMPDEST PUSH2 0x5A8F DUP2 PUSH2 0x5A7D JUMP JUMPDEST DUP2 EQ PUSH2 0x5A99 JUMPI PUSH0 DUP1 REVERT JUMPDEST POP JUMP JUMPDEST PUSH0 DUP2 CALLDATALOAD SWAP1 POP PUSH2 0x5AAA DUP2 PUSH2 0x5A86 JUMP JUMPDEST SWAP3 SWAP2 POP POP JUMP JUMPDEST PUSH0 PUSH1 0x20 DUP3 DUP5 SUB SLT ISZERO PUSH2 0x5AC5 JUMPI PUSH2 0x5AC4 PUSH2 0x543F JUMP JUMPDEST JUMPDEST PUSH0 PUSH2 0x5AD2 DUP5 DUP3 DUP6 ADD PUSH2 0x5A9C JUMP JUMPDEST SWAP2 POP POP SWAP3 SWAP2 POP POP JUMP JUMPDEST PUSH0 PUSH2 0xFFFF DUP3 AND SWAP1 POP SWAP2 SWAP1 POP JUMP JUMPDEST PUSH2 0x5AF1 DUP2 PUSH2 0x5ADB JUMP JUMPDEST DUP2 EQ PUSH2 0x5AFB JUMPI PUSH0 DUP1 REVERT JUMPDEST POP JUMP JUMPDEST PUSH0 DUP2 CALLDATALOAD SWAP1 POP PUSH2 0x5B0C DUP2 PUSH2 0x5AE8 JUMP JUMPDEST SWAP3 SWAP2 POP POP JUMP JUMPDEST PUSH0 PUSH1 0x20 DUP3 DUP5 SUB SLT ISZERO PUSH2 0x5B27 JUMPI PUSH2 0x5B26 PUSH2 0x543F JUMP JUMPDEST JUMPDEST PUSH0 PUSH2 0x5B34 DUP5 DUP3 DUP6 ADD PUSH2 0x5AFE JUMP JUMPDEST SWAP2 POP POP SWAP3 SWAP2 POP POP JUMP JUMPDEST PUSH0 DUP1 PUSH1 0x40 DUP4 DUP6 SUB SLT ISZERO PUSH2 0x5B53 JUMPI PUSH2 0x5B52 PUSH2 0x543F JUMP JUMPDEST JUMPDEST PUSH0 DUP4 ADD CALLDATALOAD PUSH8 0xFFFFFFFFFFFFFFFF DUP2 GT ISZERO PUSH2 0x5B70 JUMPI PUSH2 0x5B6F PUSH2 0x5443 JUMP JUMPDEST JUMPDEST PUSH2 0x5B7C DUP6 DUP3 DUP7 ADD PUSH2 0x56A3 JUMP JUMPDEST SWAP3 POP POP PUSH1 0x20 PUSH2 0x5B8D DUP6 DUP3 DUP7 ADD PUSH2 0x57AB JUMP JUMPDEST SWAP2 POP POP SWAP3 POP SWAP3 SWAP1 POP JUMP JUMPDEST PUSH0 DUP1 PUSH0 DUP1 PUSH0 DUP1 PUSH0 PUSH1 0x80 DUP9 DUP11 SUB SLT ISZERO PUSH2 0x5BB2 JUMPI PUSH2 0x5BB1 PUSH2 0x543F JUMP JUMPDEST JUMPDEST PUSH0 DUP9 ADD CALLDATALOAD PUSH8 0xFFFFFFFFFFFFFFFF DUP2 GT ISZERO PUSH2 0x5BCF JUMPI PUSH2 0x5BCE PUSH2 0x5443 JUMP JUMPDEST JUMPDEST PUSH2 0x5BDB DUP11 DUP3 DUP12 ADD PUSH2 0x5974 JUMP JUMPDEST SWAP8 POP SWAP8 POP POP PUSH1 0x20 PUSH2 0x5BEE DUP11 DUP3 DUP12 ADD PUSH2 0x5AFE JUMP JUMPDEST SWAP6 POP POP PUSH1 0x40 DUP9 ADD CALLDATALOAD PUSH8 0xFFFFFFFFFFFFFFFF DUP2 GT ISZERO PUSH2 0x5C0F JUMPI PUSH2 0x5C0E PUSH2 0x5443 JUMP JUMPDEST JUMPDEST PUSH2 0x5C1B DUP11 DUP3 DUP12 ADD PUSH2 0x5974 JUMP JUMPDEST SWAP5 POP SWAP5 POP POP PUSH1 0x60 DUP9 ADD CALLDATALOAD PUSH8 0xFFFFFFFFFFFFFFFF DUP2 GT ISZERO PUSH2 0x5C3E JUMPI PUSH2 0x5C3D PUSH2 0x5443 JUMP JUMPDEST JUMPDEST PUSH2 0x5C4A DUP11 DUP3 DUP12 ADD PUSH2 0x5974 JUMP JUMPDEST SWAP3 POP SWAP3 POP POP SWAP3 SWAP6 SWAP9 SWAP2 SWAP5 SWAP8 POP SWAP3 SWAP6 POP JUMP JUMPDEST PUSH0 DUP2 SWAP1 POP SWAP2 SWAP1 POP JUMP JUMPDEST PUSH0 PUSH2 0x5C7E PUSH2 0x5C79 PUSH2 0x5C74 DUP5 PUSH2 0x5717 JUMP JUMPDEST PUSH2 0x5C5B JUMP JUMPDEST PUSH2 0x5717 JUMP JUMPDEST SWAP1 POP SWAP2 SWAP1 POP JUMP JUMPDEST PUSH0 PUSH2 0x5C8F DUP3 PUSH2 0x5C64 JUMP JUMPDEST SWAP1 POP SWAP2 SWAP1 POP JUMP JUMPDEST PUSH0 PUSH2 0x5CA0 DUP3 PUSH2 0x5C85 JUMP JUMPDEST SWAP1 POP SWAP2 SWAP1 POP JUMP JUMPDEST PUSH2 0x5CB0 DUP2 PUSH2 0x5C96 JUMP JUMPDEST DUP3 MSTORE POP POP JUMP JUMPDEST PUSH0 PUSH1 0x20 DUP3 ADD SWAP1 POP PUSH2 0x5CC9 PUSH0 DUP4 ADD DUP5 PUSH2 0x5CA7 JUMP JUMPDEST SWAP3 SWAP2 POP POP JUMP JUMPDEST PUSH0 PUSH1 0x20 DUP3 DUP5 SUB SLT ISZERO PUSH2 0x5CE4 JUMPI PUSH2 0x5CE3 PUSH2 0x543F JUMP JUMPDEST JUMPDEST PUSH0 PUSH2 0x5CF1 DUP5 DUP3 DUP6 ADD PUSH2 0x5819 JUMP JUMPDEST SWAP2 POP POP SWAP3 SWAP2 POP POP JUMP JUMPDEST PUSH0 DUP2 MLOAD SWAP1 POP SWAP2 SWAP1 POP JUMP JUMPDEST PUSH0 DUP3 DUP3 MSTORE PUSH1 0x20 DUP3 ADD SWAP1 POP SWAP3 SWAP2 POP POP JUMP JUMPDEST PUSH0 DUP2 SWAP1 POP PUSH1 0x20 DUP3 ADD SWAP1 POP SWAP2 SWAP1 POP JUMP JUMPDEST PUSH0 DUP3 DUP3 MSTORE PUSH1 0x20 DUP3 ADD SWAP1 POP SWAP3 SWAP2 POP POP JUMP JUMPDEST PUSH0 PUSH2 0x5D3D DUP3 PUSH2 0x54FA JUMP JUMPDEST PUSH2 0x5D47 DUP2 DUP6 PUSH2 0x5D23 JUMP JUMPDEST SWAP4 POP PUSH2 0x5D57 DUP2 DUP6 PUSH1 0x20 DUP7 ADD PUSH2 0x5514 JUMP JUMPDEST PUSH2 0x5D60 DUP2 PUSH2 0x553C JUMP JUMPDEST DUP5 ADD SWAP2 POP POP SWAP3 SWAP2 POP POP JUMP JUMPDEST PUSH2 0x5D74 DUP2 PUSH2 0x5736 JUMP JUMPDEST DUP3 MSTORE POP POP JUMP JUMPDEST PUSH2 0x5D83 DUP2 PUSH2 0x5756 JUMP JUMPDEST DUP3 MSTORE POP POP JUMP JUMPDEST PUSH0 PUSH1 0x60 DUP4 ADD PUSH0 DUP4 ADD MLOAD DUP5 DUP3 SUB PUSH0 DUP7 ADD MSTORE PUSH2 0x5DA3 DUP3 DUP3 PUSH2 0x5D33 JUMP JUMPDEST SWAP2 POP POP PUSH1 0x20 DUP4 ADD MLOAD PUSH2 0x5DB8 PUSH1 0x20 DUP7 ADD DUP3 PUSH2 0x5D6B JUMP JUMPDEST POP PUSH1 0x40 DUP4 ADD MLOAD PUSH2 0x5DCB PUSH1 0x40 DUP7 ADD DUP3 PUSH2 0x5D7A JUMP JUMPDEST POP DUP1 SWAP2 POP POP SWAP3 SWAP2 POP POP JUMP JUMPDEST PUSH0 PUSH2 0x5DE1 DUP4 DUP4 PUSH2 0x5D89 JUMP JUMPDEST SWAP1 POP SWAP3 SWAP2 POP POP JUMP JUMPDEST PUSH0 PUSH1 0x20 DUP3 ADD SWAP1 POP SWAP2 SWAP1 POP JUMP JUMPDEST PUSH0 PUSH2 0x5DFF DUP3 PUSH2 0x5CFA JUMP JUMPDEST PUSH2 0x5E09 DUP2 DUP6 PUSH2 0x5D04 JUMP JUMPDEST SWAP4 POP DUP4 PUSH1 0x20 DUP3 MUL DUP6 ADD PUSH2 0x5E1B DUP6 PUSH2 0x5D14 JUMP JUMPDEST DUP1 PUSH0 JUMPDEST DUP6 DUP2 LT ISZERO PUSH2 0x5E56 JUMPI DUP5 DUP5 SUB DUP10 MSTORE DUP2 MLOAD PUSH2 0x5E37 DUP6 DUP3 PUSH2 0x5DD6 JUMP JUMPDEST SWAP5 POP PUSH2 0x5E42 DUP4 PUSH2 0x5DE9 JUMP JUMPDEST SWAP3 POP PUSH1 0x20 DUP11 ADD SWAP10 POP POP PUSH1 0x1 DUP2 ADD SWAP1 POP PUSH2 0x5E1E JUMP JUMPDEST POP DUP3 SWAP8 POP DUP8 SWAP6 POP POP POP POP POP POP SWAP3 SWAP2 POP POP JUMP JUMPDEST PUSH0 PUSH1 0x20 DUP3 ADD SWAP1 POP DUP2 DUP2 SUB PUSH0 DUP4 ADD MSTORE PUSH2 0x5E80 DUP2 DUP5 PUSH2 0x5DF5 JUMP JUMPDEST SWAP1 POP SWAP3 SWAP2 POP POP JUMP JUMPDEST PUSH2 0x5E91 DUP2 PUSH2 0x5ADB JUMP JUMPDEST DUP3 MSTORE POP POP JUMP JUMPDEST PUSH0 PUSH1 0x20 DUP3 ADD SWAP1 POP PUSH2 0x5EAA PUSH0 DUP4 ADD DUP5 PUSH2 0x5E88 JUMP JUMPDEST SWAP3 SWAP2 POP POP JUMP JUMPDEST PUSH2 0x5EB9 DUP2 PUSH2 0x54C7 JUMP JUMPDEST DUP2 EQ PUSH2 0x5EC3 JUMPI PUSH0 DUP1 REVERT JUMPDEST POP JUMP JUMPDEST PUSH0 DUP2 CALLDATALOAD SWAP1 POP PUSH2 0x5ED4 DUP2 PUSH2 0x5EB0 JUMP JUMPDEST SWAP3 SWAP2 POP POP JUMP JUMPDEST PUSH0 DUP1 PUSH1 0x40 DUP4 DUP6 SUB SLT ISZERO PUSH2 0x5EF0 JUMPI PUSH2 0x5EEF PUSH2 0x543F JUMP JUMPDEST JUMPDEST PUSH0 PUSH2 0x5EFD DUP6 DUP3 DUP7 ADD PUSH2 0x5819 JUMP JUMPDEST SWAP3 POP POP PUSH1 0x20 PUSH2 0x5F0E DUP6 DUP3 DUP7 ADD PUSH2 0x5EC6 JUMP JUMPDEST SWAP2 POP POP SWAP3 POP SWAP3 SWAP1 POP JUMP JUMPDEST PUSH0 PUSH8 0xFFFFFFFFFFFFFFFF DUP3 GT ISZERO PUSH2 0x5F32 JUMPI PUSH2 0x5F31 PUSH2 0x55AC JUMP JUMPDEST JUMPDEST PUSH2 0x5F3B DUP3 PUSH2 0x553C JUMP JUMPDEST SWAP1 POP PUSH1 0x20 DUP2 ADD SWAP1 POP SWAP2 SWAP1 POP JUMP JUMPDEST PUSH0 PUSH2 0x5F5A PUSH2 0x5F55 DUP5 PUSH2 0x5F18 JUMP JUMPDEST PUSH2 0x560A JUMP JUMPDEST SWAP1 POP DUP3 DUP2 MSTORE PUSH1 0x20 DUP2 ADD DUP5 DUP5 DUP5 ADD GT ISZERO PUSH2 0x5F76 JUMPI PUSH2 0x5F75 PUSH2 0x55A8 JUMP JUMPDEST JUMPDEST PUSH2 0x5F81 DUP5 DUP3 DUP6 PUSH2 0x5654 JUMP JUMPDEST POP SWAP4 SWAP3 POP POP POP JUMP JUMPDEST PUSH0 DUP3 PUSH1 0x1F DUP4 ADD SLT PUSH2 0x5F9D JUMPI PUSH2 0x5F9C PUSH2 0x55A4 JUMP JUMPDEST JUMPDEST DUP2 CALLDATALOAD PUSH2 0x5FAD DUP5 DUP3 PUSH1 0x20 DUP7 ADD PUSH2 0x5F48 JUMP JUMPDEST SWAP2 POP POP SWAP3 SWAP2 POP POP JUMP JUMPDEST PUSH0 DUP1 PUSH0 DUP1 PUSH1 0x80 DUP6 DUP8 SUB SLT ISZERO PUSH2 0x5FCE JUMPI PUSH2 0x5FCD PUSH2 0x543F JUMP JUMPDEST JUMPDEST PUSH0 PUSH2 0x5FDB DUP8 DUP3 DUP9 ADD PUSH2 0x5819 JUMP JUMPDEST SWAP5 POP POP PUSH1 0x20 PUSH2 0x5FEC DUP8 DUP3 DUP9 ADD PUSH2 0x5819 JUMP JUMPDEST SWAP4 POP POP PUSH1 0x40 PUSH2 0x5FFD DUP8 DUP3 DUP9 ADD PUSH2 0x57AB JUMP JUMPDEST SWAP3 POP POP PUSH1 0x60 DUP6 ADD CALLDATALOAD PUSH8 0xFFFFFFFFFFFFFFFF DUP2 GT ISZERO PUSH2 0x601E JUMPI PUSH2 0x601D PUSH2 0x5443 JUMP JUMPDEST JUMPDEST PUSH2 0x602A DUP8 DUP3 DUP9 ADD PUSH2 0x5F89 JUMP JUMPDEST SWAP2 POP POP SWAP3 SWAP6 SWAP2 SWAP5 POP SWAP3 POP JUMP JUMPDEST PUSH0 DUP1 PUSH1 0x40 DUP4 DUP6 SUB SLT ISZERO PUSH2 0x604C JUMPI PUSH2 0x604B PUSH2 0x543F JUMP JUMPDEST JUMPDEST PUSH0 PUSH2 0x6059 DUP6 DUP3 DUP7 ADD PUSH2 0x5819 JUMP JUMPDEST SWAP3 POP POP PUSH1 0x20 PUSH2 0x606A DUP6 DUP3 DUP7 ADD PUSH2 0x5819 JUMP JUMPDEST SWAP2 POP POP SWAP3 POP SWAP3 SWAP1 POP JUMP JUMPDEST PUSH0 DUP1 PUSH0 PUSH1 0x60 DUP5 DUP7 SUB SLT ISZERO PUSH2 0x608B JUMPI PUSH2 0x608A PUSH2 0x543F JUMP JUMPDEST JUMPDEST PUSH0 DUP5 ADD CALLDATALOAD PUSH8 0xFFFFFFFFFFFFFFFF DUP2 GT ISZERO PUSH2 0x60A8 JUMPI PUSH2 0x60A7 PUSH2 0x5443 JUMP JUMPDEST JUMPDEST PUSH2 0x60B4 DUP7 DUP3 DUP8 ADD PUSH2 0x56A3 JUMP JUMPDEST SWAP4 POP POP PUSH1 0x20 PUSH2 0x60C5 DUP7 DUP3 DUP8 ADD PUSH2 0x5819 JUMP JUMPDEST SWAP3 POP POP PUSH1 0x40 PUSH2 0x60D6 DUP7 DUP3 DUP8 ADD PUSH2 0x57AB JUMP JUMPDEST SWAP2 POP POP SWAP3 POP SWAP3 POP SWAP3 JUMP JUMPDEST PUSH0 PUSH2 0x60EA DUP3 PUSH2 0x5C85 JUMP JUMPDEST SWAP1 POP SWAP2 SWAP1 POP JUMP JUMPDEST PUSH2 0x60FA DUP2 PUSH2 0x60E0 JUMP JUMPDEST DUP3 MSTORE POP POP JUMP JUMPDEST PUSH0 PUSH1 0x20 DUP3 ADD SWAP1 POP PUSH2 0x6113 PUSH0 DUP4 ADD DUP5 PUSH2 0x60F1 JUMP JUMPDEST SWAP3 SWAP2 POP POP JUMP JUMPDEST PUSH0 PUSH2 0x6123 DUP3 PUSH2 0x5717 JUMP JUMPDEST SWAP1 POP SWAP2 SWAP1 POP JUMP JUMPDEST PUSH2 0x6133 DUP2 PUSH2 0x6119 JUMP JUMPDEST DUP2 EQ PUSH2 0x613D JUMPI PUSH0 DUP1 REVERT JUMPDEST POP JUMP JUMPDEST PUSH0 DUP2 CALLDATALOAD SWAP1 POP PUSH2 0x614E DUP2 PUSH2 0x612A JUMP JUMPDEST SWAP3 SWAP2 POP POP JUMP JUMPDEST PUSH0 DUP1 PUSH1 0x40 DUP4 DUP6 SUB SLT ISZERO PUSH2 0x616A JUMPI PUSH2 0x6169 PUSH2 0x543F JUMP JUMPDEST JUMPDEST PUSH0 PUSH2 0x6177 DUP6 DUP3 DUP7 ADD PUSH2 0x6140 JUMP JUMPDEST SWAP3 POP POP PUSH1 0x20 PUSH2 0x6188 DUP6 DUP3 DUP7 ADD PUSH2 0x57AB JUMP JUMPDEST SWAP2 POP POP SWAP3 POP SWAP3 SWAP1 POP JUMP JUMPDEST PUSH32 0x4E487B7100000000000000000000000000000000000000000000000000000000 PUSH0 MSTORE PUSH1 0x22 PUSH1 0x4 MSTORE PUSH1 0x24 PUSH0 REVERT JUMPDEST PUSH0 PUSH1 0x2 DUP3 DIV SWAP1 POP PUSH1 0x1 DUP3 AND DUP1 PUSH2 0x61D6 JUMPI PUSH1 0x7F DUP3 AND SWAP2 POP JUMPDEST PUSH1 0x20 DUP3 LT DUP2 SUB PUSH2 0x61E9 JUMPI PUSH2 0x61E8 PUSH2 0x6192 JUMP JUMPDEST JUMPDEST POP SWAP2 SWAP1 POP JUMP JUMPDEST PUSH0 DUP2 SWAP1 POP SWAP3 SWAP2 POP POP JUMP JUMPDEST PUSH0 PUSH2 0x6203 DUP3 PUSH2 0x54FA JUMP JUMPDEST PUSH2 0x620D DUP2 DUP6 PUSH2 0x61EF JUMP JUMPDEST SWAP4 POP PUSH2 0x621D DUP2 DUP6 PUSH1 0x20 DUP7 ADD PUSH2 0x5514 JUMP JUMPDEST DUP1 DUP5 ADD SWAP2 POP POP SWAP3 SWAP2 POP POP JUMP JUMPDEST PUSH0 PUSH2 0x6234 DUP3 DUP5 PUSH2 0x61F9 JUMP JUMPDEST SWAP2 POP DUP2 SWAP1 POP SWAP3 SWAP2 POP POP JUMP JUMPDEST PUSH32 0x4552433732313A20617070726F76616C20746F2063757272656E74206F776E65 PUSH0 DUP3 ADD MSTORE PUSH32 0x7200000000000000000000000000000000000000000000000000000000000000 PUSH1 0x20 DUP3 ADD MSTORE POP JUMP JUMPDEST PUSH0 PUSH2 0x6299 PUSH1 0x21 DUP4 PUSH2 0x5504 JUMP JUMPDEST SWAP2 POP PUSH2 0x62A4 DUP3 PUSH2 0x623F JUMP JUMPDEST PUSH1 0x40 DUP3 ADD SWAP1 POP SWAP2 SWAP1 POP JUMP JUMPDEST PUSH0 PUSH1 0x20 DUP3 ADD SWAP1 POP DUP2 DUP2 SUB PUSH0 DUP4 ADD MSTORE PUSH2 0x62C6 DUP2 PUSH2 0x628D JUMP JUMPDEST SWAP1 POP SWAP2 SWAP1 POP JUMP JUMPDEST PUSH32 0x4552433732313A20617070726F76652063616C6C6572206973206E6F7420746F PUSH0 DUP3 ADD MSTORE PUSH32 0x6B656E206F776E6572206F7220617070726F76656420666F7220616C6C000000 PUSH1 0x20 DUP3 ADD MSTORE POP JUMP JUMPDEST PUSH0 PUSH2 0x6327 PUSH1 0x3D DUP4 PUSH2 0x5504 JUMP JUMPDEST SWAP2 POP PUSH2 0x6332 DUP3 PUSH2 0x62CD JUMP JUMPDEST PUSH1 0x40 DUP3 ADD SWAP1 POP SWAP2 SWAP1 POP JUMP JUMPDEST PUSH0 PUSH1 0x20 DUP3 ADD SWAP1 POP DUP2 DUP2 SUB PUSH0 DUP4 ADD MSTORE PUSH2 0x6354 DUP2 PUSH2 0x631B JUMP JUMPDEST SWAP1 POP SWAP2 SWAP1 POP JUMP JUMPDEST PUSH0 DUP3 SWAP1 POP SWAP3 SWAP2 POP POP JUMP JUMPDEST PUSH0 DUP2 SWAP1 POP DUP2 PUSH0 MSTORE PUSH1 0x20 PUSH0 KECCAK256 SWAP1 POP SWAP2 SWAP1 POP JUMP JUMPDEST PUSH0 PUSH1 0x20 PUSH1 0x1F DUP4 ADD DIV SWAP1 POP SWAP2 SWAP1 POP JUMP JUMPDEST PUSH0 DUP3 DUP3 SHL SWAP1 POP SWAP3 SWAP2 POP POP JUMP JUMPDEST PUSH0 PUSH1 0x8 DUP4 MUL PUSH2 0x63C1 PUSH32 0xFFFFFFFFFFFFFFFFFFFFFFFFFFFFFFFFFFFFFFFFFFFFFFFFFFFFFFFFFFFFFFFF DUP3 PUSH2 0x6386 JUMP JUMPDEST PUSH2 0x63CB DUP7 DUP4 PUSH2 0x6386 JUMP JUMPDEST SWAP6 POP DUP1 NOT DUP5 AND SWAP4 POP DUP1 DUP7 AND DUP5 OR SWAP3 POP POP POP SWAP4 SWAP3 POP POP POP JUMP JUMPDEST PUSH0 PUSH2 0x63FD PUSH2 0x63F8 PUSH2 0x63F3 DUP5 PUSH2 0x5756 JUMP JUMPDEST PUSH2 0x5C5B JUMP JUMPDEST PUSH2 0x5756 JUMP JUMPDEST SWAP1 POP SWAP2 SWAP1 POP JUMP JUMPDEST PUSH0 DUP2 SWAP1 POP SWAP2 SWAP1 POP JUMP JUMPDEST PUSH2 0x6416 DUP4 PUSH2 0x63E3 JUMP JUMPDEST PUSH2 0x642A PUSH2 0x6422 DUP3 PUSH2 0x6404 JUMP JUMPDEST DUP5 DUP5 SLOAD PUSH2 0x6392 JUMP JUMPDEST DUP3 SSTORE POP POP POP POP JUMP JUMPDEST PUSH0 SWAP1 JUMP JUMPDEST PUSH2 0x643E PUSH2 0x6432 JUMP JUMPDEST PUSH2 0x6449 DUP2 DUP5 DUP5 PUSH2 0x640D JUMP JUMPDEST POP POP POP JUMP JUMPDEST JUMPDEST DUP2 DUP2 LT ISZERO PUSH2 0x646C JUMPI PUSH2 0x6461 PUSH0 DUP3 PUSH2 0x6436 JUMP JUMPDEST PUSH1 0x1 DUP2 ADD SWAP1 POP PUSH2 0x644F JUMP JUMPDEST POP POP JUMP JUMPDEST PUSH1 0x1F DUP3 GT ISZERO PUSH2 0x64B1 JUMPI PUSH2 0x6482 DUP2 PUSH2 0x6365 JUMP JUMPDEST PUSH2 0x648B DUP5 PUSH2 0x6377 JUMP JUMPDEST DUP2 ADD PUSH1 0x20 DUP6 LT ISZERO PUSH2 0x649A JUMPI DUP2 SWAP1 POP JUMPDEST PUSH2 0x64AE PUSH2 0x64A6 DUP6 PUSH2 0x6377 JUMP JUMPDEST DUP4 ADD DUP3 PUSH2 0x644E JUMP JUMPDEST POP POP JUMPDEST POP POP POP JUMP JUMPDEST PUSH0 DUP3 DUP3 SHR SWAP1 POP SWAP3 SWAP2 POP POP JUMP JUMPDEST PUSH0 PUSH2 0x64D1 PUSH0 NOT DUP5 PUSH1 0x8 MUL PUSH2 0x64B6 JUMP JUMPDEST NOT DUP1 DUP4 AND SWAP2 POP POP SWAP3 SWAP2 POP POP JUMP JUMPDEST PUSH0 PUSH2 0x64E9 DUP4 DUP4 PUSH2 0x64C2 JUMP JUMPDEST SWAP2 POP DUP3 PUSH1 0x2 MUL DUP3 OR SWAP1 POP SWAP3 SWAP2 POP POP JUMP JUMPDEST PUSH2 0x6503 DUP4 DUP4 PUSH2 0x635B JUMP JUMPDEST PUSH8 0xFFFFFFFFFFFFFFFF DUP2 GT ISZERO PUSH2 0x651C JUMPI PUSH2 0x651B PUSH2 0x55AC JUMP JUMPDEST JUMPDEST PUSH2 0x6526 DUP3 SLOAD PUSH2 0x61BF JUMP JUMPDEST PUSH2 0x6531 DUP3 DUP3 DUP6 PUSH2 0x6470 JUMP JUMPDEST PUSH0 PUSH1 0x1F DUP4 GT PUSH1 0x1 DUP2 EQ PUSH2 0x655E JUMPI PUSH0 DUP5 ISZERO PUSH2 0x654C JUMPI DUP3 DUP8 ADD CALLDATALOAD SWAP1 POP JUMPDEST PUSH2 0x6556 DUP6 DUP3 PUSH2 0x64DE JUMP JUMPDEST DUP7 SSTORE POP PUSH2 0x65BD JUMP JUMPDEST PUSH1 0x1F NOT DUP5 AND PUSH2 0x656C DUP7 PUSH2 0x6365 JUMP JUMPDEST PUSH0 JUMPDEST DUP3 DUP2 LT ISZERO PUSH2 0x6593 JUMPI DUP5 DUP10 ADD CALLDATALOAD DUP3 SSTORE PUSH1 0x1 DUP3 ADD SWAP2 POP PUSH1 0x20 DUP6 ADD SWAP5 POP PUSH1 0x20 DUP2 ADD SWAP1 POP PUSH2 0x656E JUMP JUMPDEST DUP7 DUP4 LT ISZERO PUSH2 0x65B0 JUMPI DUP5 DUP10 ADD CALLDATALOAD PUSH2 0x65AC PUSH1 0x1F DUP10 AND DUP3 PUSH2 0x64C2 JUMP JUMPDEST DUP4 SSTORE POP JUMPDEST PUSH1 0x1 PUSH1 0x2 DUP9 MUL ADD DUP9 SSTORE POP POP POP JUMPDEST POP POP POP POP POP POP POP JUMP JUMPDEST PUSH32 0x496E76616C696420495020616464726573730000000000000000000000000000 PUSH0 DUP3 ADD MSTORE POP JUMP JUMPDEST PUSH0 PUSH2 0x65FA PUSH1 0x12 DUP4 PUSH2 0x5504 JUMP JUMPDEST SWAP2 POP PUSH2 0x6605 DUP3 PUSH2 0x65C6 JUMP JUMPDEST PUSH1 0x20 DUP3 ADD SWAP1 POP SWAP2 SWAP1 POP JUMP JUMPDEST PUSH0 PUSH1 0x20 DUP3 ADD SWAP1 POP DUP2 DUP2 SUB PUSH0 DUP4 ADD MSTORE PUSH2 0x6627 DUP2 PUSH2 0x65EE JUMP JUMPDEST SWAP1 POP SWAP2 SWAP1 POP JUMP JUMPDEST PUSH32 0x4552433732313A2063616C6C6572206973206E6F7420746F6B656E206F776E65 PUSH0 DUP3 ADD MSTORE PUSH32 0x72206F7220617070726F76656400000000000000000000000000000000000000 PUSH1 0x20 DUP3 ADD MSTORE POP JUMP JUMPDEST PUSH0 PUSH2 0x6688 PUSH1 0x2D DUP4 PUSH2 0x5504 JUMP JUMPDEST SWAP2 POP PUSH2 0x6693 DUP3 PUSH2 0x662E JUMP JUMPDEST PUSH1 0x40 DUP3 ADD SWAP1 POP SWAP2 SWAP1 POP JUMP JUMPDEST PUSH0 PUSH1 0x20 DUP3 ADD SWAP1 POP DUP2 DUP2 SUB PUSH0 DUP4 ADD MSTORE PUSH2 0x66B5 DUP2 PUSH2 0x667C JUMP JUMPDEST SWAP1 POP SWAP2 SWAP1 POP JUMP JUMPDEST PUSH32 0x455243373231456E756D657261626C653A206F776E657220696E646578206F75 PUSH0 DUP3 ADD MSTORE PUSH32 0x74206F6620626F756E6473000000000000000000000000000000000000000000 PUSH1 0x20 DUP3 ADD MSTORE POP JUMP JUMPDEST PUSH0 PUSH2 0x6716 PUSH1 0x2B DUP4 PUSH2 0x5504 JUMP JUMPDEST SWAP2 POP PUSH2 0x6721 DUP3 PUSH2 0x66BC JUMP JUMPDEST PUSH1 0x40 DUP3 ADD SWAP1 POP SWAP2 SWAP1 POP JUMP JUMPDEST PUSH0 PUSH1 0x20 DUP3 ADD SWAP1 POP DUP2 DUP2 SUB PUSH0 DUP4 ADD MSTORE PUSH2 0x6743 DUP2 PUSH2 0x670A JUMP JUMPDEST SWAP1 POP SWAP2 SWAP1 POP JUMP JUMPDEST PUSH32 0x436173686261636B53746F726167653A204B657920646F6573206E6F74206578 PUSH0 DUP3 ADD MSTORE PUSH32 0x6973742E00000000000000000000000000000000000000000000000000000000 PUSH1 0x20 DUP3 ADD MSTORE POP JUMP JUMPDEST PUSH0 PUSH2 0x67A4 PUSH1 0x24 DUP4 PUSH2 0x5504 JUMP JUMPDEST SWAP2 POP PUSH2 0x67AF DUP3 PUSH2 0x674A JUMP JUMPDEST PUSH1 0x40 DUP3 ADD SWAP1 POP SWAP2 SWAP1 POP JUMP JUMPDEST PUSH0 PUSH1 0x20 DUP3 ADD SWAP1 POP DUP2 DUP2 SUB PUSH0 DUP4 ADD MSTORE PUSH2 0x67D1 DUP2 PUSH2 0x6798 JUMP JUMPDEST SWAP1 POP SWAP2 SWAP1 POP JUMP JUMPDEST PUSH32 0x4E487B7100000000000000000000000000000000000000000000000000000000 PUSH0 MSTORE PUSH1 0x32 PUSH1 0x4 MSTORE PUSH1 0x24 PUSH0 REVERT JUMPDEST PUSH32 0x4E487B7100000000000000000000000000000000000000000000000000000000 PUSH0 MSTORE PUSH1 0x11 PUSH1 0x4 MSTORE PUSH1 0x24 PUSH0 REVERT JUMPDEST PUSH0 PUSH2 0x683C DUP3 PUSH2 0x5756 JUMP JUMPDEST SWAP2 POP PUSH2 0x6847 DUP4 PUSH2 0x5756 JUMP JUMPDEST SWAP3 POP DUP3 DUP3 SUB SWAP1 POP DUP2 DUP2 GT ISZERO PUSH2 0x685F JUMPI PUSH2 0x685E PUSH2 0x6805 JUMP JUMPDEST JUMPDEST SWAP3 SWAP2 POP POP JUMP JUMPDEST PUSH32 0x4E487B7100000000000000000000000000000000000000000000000000000000 PUSH0 MSTORE PUSH1 0x31 PUSH1 0x4 MSTORE PUSH1 0x24 PUSH0 REVERT JUMPDEST PUSH0 PUSH2 0x689C DUP3 PUSH2 0x5756 JUMP JUMPDEST SWAP2 POP PUSH32 0xFFFFFFFFFFFFFFFFFFFFFFFFFFFFFFFFFFFFFFFFFFFFFFFFFFFFFFFFFFFFFFFF DUP3 SUB PUSH2 0x68CE JUMPI PUSH2 0x68CD PUSH2 0x6805 JUMP JUMPDEST JUMPDEST PUSH1 0x1 DUP3 ADD SWAP1 POP SWAP2 SWAP1 POP JUMP JUMPDEST PUSH32 0x436173686261636B53746F726167653A2043616C6C657220646F6573206E6F74 PUSH0 DUP3 ADD MSTORE PUSH32 0x2068617665207065726D697373696F6E20746F2064656C657465207468697320 PUSH1 0x20 DUP3 ADD MSTORE PUSH32 0x636173686261636B000000000000000000000000000000000000000000000000 PUSH1 0x40 DUP3 ADD MSTORE POP JUMP JUMPDEST PUSH0 PUSH2 0x6959 PUSH1 0x48 DUP4 PUSH2 0x5504 JUMP JUMPDEST SWAP2 POP PUSH2 0x6964 DUP3 PUSH2 0x68D9 JUMP JUMPDEST PUSH1 0x60 DUP3 ADD SWAP1 POP SWAP2 SWAP1 POP JUMP JUMPDEST PUSH0 PUSH1 0x20 DUP3 ADD SWAP1 POP DUP2 DUP2 SUB PUSH0 DUP4 ADD MSTORE PUSH2 0x6986 DUP2 PUSH2 0x694D JUMP JUMPDEST SWAP1 POP SWAP2 SWAP1 POP JUMP JUMPDEST PUSH32 0x455243373231456E756D657261626C653A20676C6F62616C20696E646578206F PUSH0 DUP3 ADD MSTORE PUSH32 0x7574206F6620626F756E64730000000000000000000000000000000000000000 PUSH1 0x20 DUP3 ADD MSTORE POP JUMP JUMPDEST PUSH0 PUSH2 0x69E7 PUSH1 0x2C DUP4 PUSH2 0x5504 JUMP JUMPDEST SWAP2 POP PUSH2 0x69F2 DUP3 PUSH2 0x698D JUMP JUMPDEST PUSH1 0x40 DUP3 ADD SWAP1 POP SWAP2 SWAP1 POP JUMP JUMPDEST PUSH0 PUSH1 0x20 DUP3 ADD SWAP1 POP DUP2 DUP2 SUB PUSH0 DUP4 ADD MSTORE PUSH2 0x6A14 DUP2 PUSH2 0x69DB JUMP JUMPDEST SWAP1 POP SWAP2 SWAP1 POP JUMP JUMPDEST PUSH32 0x4E487B7100000000000000000000000000000000000000000000000000000000 PUSH0 MSTORE PUSH1 0x21 PUSH1 0x4 MSTORE PUSH1 0x24 PUSH0 REVERT JUMPDEST PUSH32 0x4D6F64756C65733A204D6F64756C65206E6F7420696E7374616C6C6564000000 PUSH0 DUP3 ADD MSTORE POP JUMP JUMPDEST PUSH0 PUSH2 0x6A7C PUSH1 0x1D DUP4 PUSH2 0x5504 JUMP JUMPDEST SWAP2 POP PUSH2 0x6A87 DUP3 PUSH2 0x6A48 JUMP JUMPDEST PUSH1 0x20 DUP3 ADD SWAP1 POP SWAP2 SWAP1 POP JUMP JUMPDEST PUSH0 PUSH1 0x20 DUP3 ADD SWAP1 POP DUP2 DUP2 SUB PUSH0 DUP4 ADD MSTORE PUSH2 0x6AA9 DUP2 PUSH2 0x6A70 JUMP JUMPDEST SWAP1 POP SWAP2 SWAP1 POP JUMP JUMPDEST PUSH2 0x6AB9 DUP3 PUSH2 0x54FA JUMP JUMPDEST PUSH8 0xFFFFFFFFFFFFFFFF DUP2 GT ISZERO PUSH2 0x6AD2 JUMPI PUSH2 0x6AD1 PUSH2 0x55AC JUMP JUMPDEST JUMPDEST PUSH2 0x6ADC DUP3 SLOAD PUSH2 0x61BF JUMP JUMPDEST PUSH2 0x6AE7 DUP3 DUP3 DUP6 PUSH2 0x6470 JUMP JUMPDEST PUSH0 PUSH1 0x20 SWAP1 POP PUSH1 0x1F DUP4 GT PUSH1 0x1 DUP2 EQ PUSH2 0x6B18 JUMPI PUSH0 DUP5 ISZERO PUSH2 0x6B06 JUMPI DUP3 DUP8 ADD MLOAD SWAP1 POP JUMPDEST PUSH2 0x6B10 DUP6 DUP3 PUSH2 0x64DE JUMP JUMPDEST DUP7 SSTORE POP PUSH2 0x6B77 JUMP JUMPDEST PUSH1 0x1F NOT DUP5 AND PUSH2 0x6B26 DUP7 PUSH2 0x6365 JUMP JUMPDEST PUSH0 JUMPDEST DUP3 DUP2 LT ISZERO PUSH2 0x6B4D JUMPI DUP5 DUP10 ADD MLOAD DUP3 SSTORE PUSH1 0x1 DUP3 ADD SWAP2 POP PUSH1 0x20 DUP6 ADD SWAP5 POP PUSH1 0x20 DUP2 ADD SWAP1 POP PUSH2 0x6B28 JUMP JUMPDEST DUP7 DUP4 LT ISZERO PUSH2 0x6B6A JUMPI DUP5 DUP10 ADD MLOAD PUSH2 0x6B66 PUSH1 0x1F DUP10 AND DUP3 PUSH2 0x64C2 JUMP JUMPDEST DUP4 SSTORE POP JUMPDEST PUSH1 0x1 PUSH1 0x2 DUP9 MUL ADD DUP9 SSTORE POP POP POP JUMPDEST POP POP POP POP POP POP JUMP JUMPDEST PUSH32 0x4552433732313A20696E76616C696420746F6B656E2049440000000000000000 PUSH0 DUP3 ADD MSTORE POP JUMP JUMPDEST PUSH0 PUSH2 0x6BB3 PUSH1 0x18 DUP4 PUSH2 0x5504 JUMP JUMPDEST SWAP2 POP PUSH2 0x6BBE DUP3 PUSH2 0x6B7F JUMP JUMPDEST PUSH1 0x20 DUP3 ADD SWAP1 POP SWAP2 SWAP1 POP JUMP JUMPDEST PUSH0 PUSH1 0x20 DUP3 ADD SWAP1 POP DUP2 DUP2 SUB PUSH0 DUP4 ADD MSTORE PUSH2 0x6BE0 DUP2 PUSH2 0x6BA7 JUMP JUMPDEST SWAP1 POP SWAP2 SWAP1 POP JUMP JUMPDEST PUSH32 0x4552433732313A2061646472657373207A65726F206973206E6F742061207661 PUSH0 DUP3 ADD MSTORE PUSH32 0x6C6964206F776E65720000000000000000000000000000000000000000000000 PUSH1 0x20 DUP3 ADD MSTORE POP JUMP JUMPDEST PUSH0 PUSH2 0x6C41 PUSH1 0x29 DUP4 PUSH2 0x5504 JUMP JUMPDEST SWAP2 POP PUSH2 0x6C4C DUP3 PUSH2 0x6BE7 JUMP JUMPDEST PUSH1 0x40 DUP3 ADD SWAP1 POP SWAP2 SWAP1 POP JUMP JUMPDEST PUSH0 PUSH1 0x20 DUP3 ADD SWAP1 POP DUP2 DUP2 SUB PUSH0 DUP4 ADD MSTORE PUSH2 0x6C6E DUP2 PUSH2 0x6C35 JUMP JUMPDEST SWAP1 POP SWAP2 SWAP1 POP JUMP JUMPDEST PUSH0 DUP2 MLOAD SWAP1 POP PUSH2 0x6C83 DUP2 PUSH2 0x5795 JUMP JUMPDEST SWAP3 SWAP2 POP POP JUMP JUMPDEST PUSH0 PUSH1 0x20 DUP3 DUP5 SUB SLT ISZERO PUSH2 0x6C9E JUMPI PUSH2 0x6C9D PUSH2 0x543F JUMP JUMPDEST JUMPDEST PUSH0 PUSH2 0x6CAB DUP5 DUP3 DUP6 ADD PUSH2 0x6C75 JUMP JUMPDEST SWAP2 POP POP SWAP3 SWAP2 POP POP JUMP JUMPDEST PUSH32 0x455243323052656365697665723A20546869732066756E6374696F6E20697320 PUSH0 DUP3 ADD MSTORE PUSH32 0x666F722068616E646C696E6720746F6B656E206163717569736974696F6E0000 PUSH1 0x20 DUP3 ADD MSTORE POP JUMP JUMPDEST PUSH0 PUSH2 0x6D0E PUSH1 0x3E DUP4 PUSH2 0x5504 JUMP JUMPDEST SWAP2 POP PUSH2 0x6D19 DUP3 PUSH2 0x6CB4 JUMP JUMPDEST PUSH1 0x40 DUP3 ADD SWAP1 POP SWAP2 SWAP1 POP JUMP JUMPDEST PUSH0 PUSH1 0x20 DUP3 ADD SWAP1 POP DUP2 DUP2 SUB PUSH0 DUP4 ADD MSTORE PUSH2 0x6D3B DUP2 PUSH2 0x6D02 JUMP JUMPDEST SWAP1 POP SWAP2 SWAP1 POP JUMP JUMPDEST PUSH32 0x46696E616E63654D616E616765723A204E6F7420656E6F75676820746F6B656E PUSH0 DUP3 ADD MSTORE PUSH32 0x73206F6E20636F6E74726163742062616C616E63650000000000000000000000 PUSH1 0x20 DUP3 ADD MSTORE POP JUMP JUMPDEST PUSH0 PUSH2 0x6D9C PUSH1 0x35 DUP4 PUSH2 0x5504 JUMP JUMPDEST SWAP2 POP PUSH2 0x6DA7 DUP3 PUSH2 0x6D42 JUMP JUMPDEST PUSH1 0x40 DUP3 ADD SWAP1 POP SWAP2 SWAP1 POP JUMP JUMPDEST PUSH0 PUSH1 0x20 DUP3 ADD SWAP1 POP DUP2 DUP2 SUB PUSH0 DUP4 ADD MSTORE PUSH2 0x6DC9 DUP2 PUSH2 0x6D90 JUMP JUMPDEST SWAP1 POP SWAP2 SWAP1 POP JUMP JUMPDEST PUSH0 DUP2 MLOAD SWAP1 POP PUSH2 0x6DDE DUP2 PUSH2 0x5EB0 JUMP JUMPDEST SWAP3 SWAP2 POP POP JUMP JUMPDEST PUSH0 PUSH1 0x20 DUP3 DUP5 SUB SLT ISZERO PUSH2 0x6DF9 JUMPI PUSH2 0x6DF8 PUSH2 0x543F JUMP JUMPDEST JUMPDEST PUSH0 PUSH2 0x6E06 DUP5 DUP3 DUP6 ADD PUSH2 0x6DD0 JUMP JUMPDEST SWAP2 POP POP SWAP3 SWAP2 POP POP JUMP JUMPDEST PUSH32 0x4D6F64756C65733A204D6F64756C6520616C726561647920696E7374616C6C65 PUSH0 DUP3 ADD MSTORE PUSH32 0x6400000000000000000000000000000000000000000000000000000000000000 PUSH1 0x20 DUP3 ADD MSTORE POP JUMP JUMPDEST PUSH0 PUSH2 0x6E69 PUSH1 0x21 DUP4 PUSH2 0x5504 JUMP JUMPDEST SWAP2 POP PUSH2 0x6E74 DUP3 PUSH2 0x6E0F JUMP JUMPDEST PUSH1 0x40 DUP3 ADD SWAP1 POP SWAP2 SWAP1 POP JUMP JUMPDEST PUSH0 PUSH1 0x20 DUP3 ADD SWAP1 POP DUP2 DUP2 SUB PUSH0 DUP4 ADD MSTORE PUSH2 0x6E96 DUP2 PUSH2 0x6E5D JUMP JUMPDEST SWAP1 POP SWAP2 SWAP1 POP JUMP JUMPDEST PUSH0 PUSH1 0x60 DUP3 ADD SWAP1 POP DUP2 DUP2 SUB PUSH0 DUP4 ADD MSTORE PUSH2 0x6EB5 DUP2 DUP7 PUSH2 0x554C JUMP JUMPDEST SWAP1 POP PUSH2 0x6EC4 PUSH1 0x20 DUP4 ADD DUP6 PUSH2 0x575F JUMP JUMPDEST PUSH2 0x6ED1 PUSH1 0x40 DUP4 ADD DUP5 PUSH2 0x5747 JUMP JUMPDEST SWAP5 SWAP4 POP POP POP POP JUMP JUMPDEST PUSH0 DUP2 MLOAD SWAP1 POP PUSH2 0x6EE7 DUP2 PUSH2 0x5803 JUMP JUMPDEST SWAP3 SWAP2 POP POP JUMP JUMPDEST PUSH0 PUSH1 0x20 DUP3 DUP5 SUB SLT ISZERO PUSH2 0x6F02 JUMPI PUSH2 0x6F01 PUSH2 0x543F JUMP JUMPDEST JUMPDEST PUSH0 PUSH2 0x6F0F DUP5 DUP3 DUP6 ADD PUSH2 0x6ED9 JUMP JUMPDEST SWAP2 POP POP SWAP3 SWAP2 POP POP JUMP JUMPDEST PUSH1 0xF DUP2 LT PUSH2 0x6F29 JUMPI PUSH2 0x6F28 PUSH2 0x6A1B JUMP JUMPDEST JUMPDEST POP JUMP JUMPDEST PUSH0 DUP2 SWAP1 POP PUSH2 0x6F39 DUP3 PUSH2 0x6F18 JUMP JUMPDEST SWAP2 SWAP1 POP JUMP JUMPDEST PUSH0 PUSH2 0x6F48 DUP3 PUSH2 0x6F2C JUMP JUMPDEST SWAP1 POP SWAP2 SWAP1 POP JUMP JUMPDEST PUSH2 0x6F58 DUP2 PUSH2 0x6F3E JUMP JUMPDEST DUP3 MSTORE POP POP JUMP JUMPDEST PUSH0 PUSH1 0x20 DUP3 ADD SWAP1 POP PUSH2 0x6F71 PUSH0 DUP4 ADD DUP5 PUSH2 0x6F4F JUMP JUMPDEST SWAP3 SWAP2 POP POP JUMP JUMPDEST PUSH0 PUSH2 0x6F89 PUSH2 0x6F84 DUP5 PUSH2 0x5624 JUMP JUMPDEST PUSH2 0x560A JUMP JUMPDEST SWAP1 POP DUP3 DUP2 MSTORE PUSH1 0x20 DUP2 ADD DUP5 DUP5 DUP5 ADD GT ISZERO PUSH2 0x6FA5 JUMPI PUSH2 0x6FA4 PUSH2 0x55A8 JUMP JUMPDEST JUMPDEST PUSH2 0x6FB0 DUP5 DUP3 DUP6 PUSH2 0x5514 JUMP JUMPDEST POP SWAP4 SWAP3 POP POP POP JUMP JUMPDEST PUSH0 DUP3 PUSH1 0x1F DUP4 ADD SLT PUSH2 0x6FCC JUMPI PUSH2 0x6FCB PUSH2 0x55A4 JUMP JUMPDEST JUMPDEST DUP2 MLOAD PUSH2 0x6FDC DUP5 DUP3 PUSH1 0x20 DUP7 ADD PUSH2 0x6F77 JUMP JUMPDEST SWAP2 POP POP SWAP3 SWAP2 POP POP JUMP JUMPDEST PUSH0 PUSH1 0x20 DUP3 DUP5 SUB SLT ISZERO PUSH2 0x6FFA JUMPI PUSH2 0x6FF9 PUSH2 0x543F JUMP JUMPDEST JUMPDEST PUSH0 DUP3 ADD MLOAD PUSH8 0xFFFFFFFFFFFFFFFF DUP2 GT ISZERO PUSH2 0x7017 JUMPI PUSH2 0x7016 PUSH2 0x5443 JUMP JUMPDEST JUMPDEST PUSH2 0x7023 DUP5 DUP3 DUP6 ADD PUSH2 0x6FB8 JUMP JUMPDEST SWAP2 POP POP SWAP3 SWAP2 POP POP JUMP JUMPDEST PUSH0 PUSH1 0x40 DUP3 ADD SWAP1 POP DUP2 DUP2 SUB PUSH0 DUP4 ADD MSTORE PUSH2 0x7044 DUP2 DUP6 PUSH2 0x554C JUMP JUMPDEST SWAP1 POP PUSH2 0x7053 PUSH1 0x20 DUP4 ADD DUP5 PUSH2 0x575F JUMP JUMPDEST SWAP4 SWAP3 POP POP POP JUMP JUMPDEST PUSH32 0x46696E616E63654D616E616765723A2054686520636F6E747261637420697320 PUSH0 DUP3 ADD MSTORE PUSH32 0x6E6F7420746865206F776E6572206F66207468697320746F6B656E0000000000 PUSH1 0x20 DUP3 ADD MSTORE POP JUMP JUMPDEST PUSH0 PUSH2 0x70B4 PUSH1 0x3B DUP4 PUSH2 0x5504 JUMP JUMPDEST SWAP2 POP PUSH2 0x70BF DUP3 PUSH2 0x705A JUMP JUMPDEST PUSH1 0x40 DUP3 ADD SWAP1 POP SWAP2 SWAP1 POP JUMP JUMPDEST PUSH0 PUSH1 0x20 DUP3 ADD SWAP1 POP DUP2 DUP2 SUB PUSH0 DUP4 ADD MSTORE PUSH2 0x70E1 DUP2 PUSH2 0x70A8 JUMP JUMPDEST SWAP1 POP SWAP2 SWAP1 POP JUMP JUMPDEST PUSH0 PUSH1 0x60 DUP3 ADD SWAP1 POP PUSH2 0x70FB PUSH0 DUP4 ADD DUP7 PUSH2 0x5747 JUMP JUMPDEST PUSH2 0x7108 PUSH1 0x20 DUP4 ADD DUP6 PUSH2 0x5747 JUMP JUMPDEST PUSH2 0x7115 PUSH1 0x40 DUP4 ADD DUP5 PUSH2 0x575F JUMP JUMPDEST SWAP5 SWAP4 POP POP POP POP JUMP JUMPDEST PUSH32 0x436173686261636B53746F726167653A204164647265737320646F6573206E6F PUSH0 DUP3 ADD MSTORE PUSH32 0x7420636F6D706C7920776974682049436173686261636B20696E746572666163 PUSH1 0x20 DUP3 ADD MSTORE PUSH32 0x6500000000000000000000000000000000000000000000000000000000000000 PUSH1 0x40 DUP3 ADD MSTORE POP JUMP JUMPDEST PUSH0 PUSH2 0x719D PUSH1 0x41 DUP4 PUSH2 0x5504 JUMP JUMPDEST SWAP2 POP PUSH2 0x71A8 DUP3 PUSH2 0x711D JUMP JUMPDEST PUSH1 0x60 DUP3 ADD SWAP1 POP SWAP2 SWAP1 POP JUMP JUMPDEST PUSH0 PUSH1 0x20 DUP3 ADD SWAP1 POP DUP2 DUP2 SUB PUSH0 DUP4 ADD MSTORE PUSH2 0x71CA DUP2 PUSH2 0x7191 JUMP JUMPDEST SWAP1 POP SWAP2 SWAP1 POP JUMP JUMPDEST PUSH32 0x4F776E61626C653A206E6577206F776E657220697320746865207A65726F2061 PUSH0 DUP3 ADD MSTORE PUSH32 0x6464726573730000000000000000000000000000000000000000000000000000 PUSH1 0x20 DUP3 ADD MSTORE POP JUMP JUMPDEST PUSH0 PUSH2 0x722B PUSH1 0x26 DUP4 PUSH2 0x5504 JUMP JUMPDEST SWAP2 POP PUSH2 0x7236 DUP3 PUSH2 0x71D1 JUMP JUMPDEST PUSH1 0x40 DUP3 ADD SWAP1 POP SWAP2 SWAP1 POP JUMP JUMPDEST PUSH0 PUSH1 0x20 DUP3 ADD SWAP1 POP DUP2 DUP2 SUB PUSH0 DUP4 ADD MSTORE PUSH2 0x7258 DUP2 PUSH2 0x721F JUMP JUMPDEST SWAP1 POP SWAP2 SWAP1 POP JUMP JUMPDEST PUSH32 0x46696E616E63654D616E616765723A20436F6E74726163742068617320696E73 PUSH0 DUP3 ADD MSTORE PUSH32 0x756666696369656E742062616C616E6365000000000000000000000000000000 PUSH1 0x20 DUP3 ADD MSTORE POP JUMP JUMPDEST PUSH0 PUSH2 0x72B9 PUSH1 0x31 DUP4 PUSH2 0x5504 JUMP JUMPDEST SWAP2 POP PUSH2 0x72C4 DUP3 PUSH2 0x725F JUMP JUMPDEST PUSH1 0x40 DUP3 ADD SWAP1 POP SWAP2 SWAP1 POP JUMP JUMPDEST PUSH0 PUSH1 0x20 DUP3 ADD SWAP1 POP DUP2 DUP2 SUB PUSH0 DUP4 ADD MSTORE PUSH2 0x72E6 DUP2 PUSH2 0x72AD JUMP JUMPDEST SWAP1 POP SWAP2 SWAP1 POP JUMP JUMPDEST PUSH32 0x46696E616E63654D616E616765723A20526563697069656E7420616464726573 PUSH0 DUP3 ADD MSTORE PUSH32 0x7320697320746865207A65726F20616464726573730000000000000000000000 PUSH1 0x20 DUP3 ADD MSTORE POP JUMP JUMPDEST PUSH0 PUSH2 0x7347 PUSH1 0x35 DUP4 PUSH2 0x5504 JUMP JUMPDEST SWAP2 POP PUSH2 0x7352 DUP3 PUSH2 0x72ED JUMP JUMPDEST PUSH1 0x40 DUP3 ADD SWAP1 POP SWAP2 SWAP1 POP JUMP JUMPDEST PUSH0 PUSH1 0x20 DUP3 ADD SWAP1 POP DUP2 DUP2 SUB PUSH0 DUP4 ADD MSTORE PUSH2 0x7374 DUP2 PUSH2 0x733B JUMP JUMPDEST SWAP1 POP SWAP2 SWAP1 POP JUMP JUMPDEST PUSH32 0x4F776E61626C653A2063616C6C6572206973206E6F7420746865206F776E6572 PUSH0 DUP3 ADD MSTORE POP JUMP JUMPDEST PUSH0 PUSH2 0x73AF PUSH1 0x20 DUP4 PUSH2 0x5504 JUMP JUMPDEST SWAP2 POP PUSH2 0x73BA DUP3 PUSH2 0x737B JUMP JUMPDEST PUSH1 0x20 DUP3 ADD SWAP1 POP SWAP2 SWAP1 POP JUMP JUMPDEST PUSH0 PUSH1 0x20 DUP3 ADD SWAP1 POP DUP2 DUP2 SUB PUSH0 DUP4 ADD MSTORE PUSH2 0x73DC DUP2 PUSH2 0x73A3 JUMP JUMPDEST SWAP1 POP SWAP2 SWAP1 POP JUMP JUMPDEST PUSH0 PUSH1 0xFF DUP3 AND SWAP1 POP SWAP2 SWAP1 POP JUMP JUMPDEST PUSH0 PUSH2 0x73F9 DUP3 PUSH2 0x73E3 JUMP JUMPDEST SWAP2 POP PUSH2 0x7404 DUP4 PUSH2 0x73E3 JUMP JUMPDEST SWAP3 POP DUP3 DUP3 MUL PUSH2 0x7412 DUP2 PUSH2 0x73E3 JUMP JUMPDEST SWAP2 POP DUP1 DUP3 EQ PUSH2 0x7424 JUMPI PUSH2 0x7423 PUSH2 0x6805 JUMP JUMPDEST JUMPDEST POP SWAP3 SWAP2 POP POP JUMP JUMPDEST PUSH0 PUSH2 0x7435 DUP3 PUSH2 0x73E3 JUMP JUMPDEST SWAP2 POP PUSH1 0xFF DUP3 SUB PUSH2 0x7448 JUMPI PUSH2 0x7447 PUSH2 0x6805 JUMP JUMPDEST JUMPDEST PUSH1 0x1 DUP3 ADD SWAP1 POP SWAP2 SWAP1 POP JUMP JUMPDEST PUSH0 PUSH2 0x745D DUP3 PUSH2 0x73E3 JUMP JUMPDEST SWAP2 POP PUSH2 0x7468 DUP4 PUSH2 0x73E3 JUMP JUMPDEST SWAP3 POP DUP3 DUP3 ADD SWAP1 POP PUSH1 0xFF DUP2 GT ISZERO PUSH2 0x7481 JUMPI PUSH2 0x7480 PUSH2 0x6805 JUMP JUMPDEST JUMPDEST SWAP3 SWAP2 POP POP JUMP JUMPDEST PUSH0 PUSH2 0x7491 DUP3 PUSH2 0x73E3 JUMP JUMPDEST SWAP2 POP PUSH2 0x749C DUP4 PUSH2 0x73E3 JUMP JUMPDEST SWAP3 POP DUP3 DUP3 SUB SWAP1 POP PUSH1 0xFF DUP2 GT ISZERO PUSH2 0x74B5 JUMPI PUSH2 0x74B4 PUSH2 0x6805 JUMP JUMPDEST JUMPDEST SWAP3 SWAP2 POP POP JUMP JUMPDEST PUSH32 0x4552433732313A207472616E736665722066726F6D20696E636F727265637420 PUSH0 DUP3 ADD MSTORE PUSH32 0x6F776E6572000000000000000000000000000000000000000000000000000000 PUSH1 0x20 DUP3 ADD MSTORE POP JUMP JUMPDEST PUSH0 PUSH2 0x7515 PUSH1 0x25 DUP4 PUSH2 0x5504 JUMP JUMPDEST SWAP2 POP PUSH2 0x7520 DUP3 PUSH2 0x74BB JUMP JUMPDEST PUSH1 0x40 DUP3 ADD SWAP1 POP SWAP2 SWAP1 POP JUMP JUMPDEST PUSH0 PUSH1 0x20 DUP3 ADD SWAP1 POP DUP2 DUP2 SUB PUSH0 DUP4 ADD MSTORE PUSH2 0x7542 DUP2 PUSH2 0x7509 JUMP JUMPDEST SWAP1 POP SWAP2 SWAP1 POP JUMP JUMPDEST PUSH32 0x4552433732313A207472616E7366657220746F20746865207A65726F20616464 PUSH0 DUP3 ADD MSTORE PUSH32 0x7265737300000000000000000000000000000000000000000000000000000000 PUSH1 0x20 DUP3 ADD MSTORE POP JUMP JUMPDEST PUSH0 PUSH2 0x75A3 PUSH1 0x24 DUP4 PUSH2 0x5504 JUMP JUMPDEST SWAP2 POP PUSH2 0x75AE DUP3 PUSH2 0x7549 JUMP JUMPDEST PUSH1 0x40 DUP3 ADD SWAP1 POP SWAP2 SWAP1 POP JUMP JUMPDEST PUSH0 PUSH1 0x20 DUP3 ADD SWAP1 POP DUP2 DUP2 SUB PUSH0 DUP4 ADD MSTORE PUSH2 0x75D0 DUP2 PUSH2 0x7597 JUMP JUMPDEST SWAP1 POP SWAP2 SWAP1 POP JUMP JUMPDEST PUSH0 DUP2 SWAP1 POP SWAP2 SWAP1 POP JUMP JUMPDEST PUSH2 0x75F1 PUSH2 0x75EC DUP3 PUSH2 0x5756 JUMP JUMPDEST PUSH2 0x75D7 JUMP JUMPDEST DUP3 MSTORE POP POP JUMP JUMPDEST PUSH0 PUSH2 0x7602 DUP3 DUP6 PUSH2 0x61F9 JUMP JUMPDEST SWAP2 POP PUSH2 0x760E DUP3 DUP5 PUSH2 0x75E0 JUMP JUMPDEST PUSH1 0x20 DUP3 ADD SWAP2 POP DUP2 SWAP1 POP SWAP4 SWAP3 POP POP POP JUMP JUMPDEST PUSH32 0x4147454D696E6563726166745365727665723A204174206C65617374206F6E65 PUSH0 DUP3 ADD MSTORE PUSH32 0x2076616C696420706172616D6574657220697320726571756972656400000000 PUSH1 0x20 DUP3 ADD MSTORE POP JUMP JUMPDEST PUSH0 PUSH2 0x7678 PUSH1 0x3C DUP4 PUSH2 0x5504 JUMP JUMPDEST SWAP2 POP PUSH2 0x7683 DUP3 PUSH2 0x761E JUMP JUMPDEST PUSH1 0x40 DUP3 ADD SWAP1 POP SWAP2 SWAP1 POP JUMP JUMPDEST PUSH0 PUSH1 0x20 DUP3 ADD SWAP1 POP DUP2 DUP2 SUB PUSH0 DUP4 ADD MSTORE PUSH2 0x76A5 DUP2 PUSH2 0x766C JUMP JUMPDEST SWAP1 POP SWAP2 SWAP1 POP JUMP JUMPDEST PUSH32 0x4E465444697265637453616C65733A20546F6B656E2077697468204944203020 PUSH0 DUP3 ADD MSTORE PUSH32 0x68617320616C7265616479206265656E206D696E746564000000000000000000 PUSH1 0x20 DUP3 ADD MSTORE POP JUMP JUMPDEST PUSH0 PUSH2 0x7706 PUSH1 0x37 DUP4 PUSH2 0x5504 JUMP JUMPDEST SWAP2 POP PUSH2 0x7711 DUP3 PUSH2 0x76AC JUMP JUMPDEST PUSH1 0x40 DUP3 ADD SWAP1 POP SWAP2 SWAP1 POP JUMP JUMPDEST PUSH0 PUSH1 0x20 DUP3 ADD SWAP1 POP DUP2 DUP2 SUB PUSH0 DUP4 ADD MSTORE PUSH2 0x7733 DUP2 PUSH2 0x76FA JUMP JUMPDEST SWAP1 POP SWAP2 SWAP1 POP JUMP JUMPDEST PUSH32 0x4552433732313A20617070726F766520746F2063616C6C657200000000000000 PUSH0 DUP3 ADD MSTORE POP JUMP JUMPDEST PUSH0 PUSH2 0x776E PUSH1 0x19 DUP4 PUSH2 0x5504 JUMP JUMPDEST SWAP2 POP PUSH2 0x7779 DUP3 PUSH2 0x773A JUMP JUMPDEST PUSH1 0x20 DUP3 ADD SWAP1 POP SWAP2 SWAP1 POP JUMP JUMPDEST PUSH0 PUSH1 0x20 DUP3 ADD SWAP1 POP DUP2 DUP2 SUB PUSH0 DUP4 ADD MSTORE PUSH2 0x779B DUP2 PUSH2 0x7762 JUMP JUMPDEST SWAP1 POP SWAP2 SWAP1 POP JUMP JUMPDEST PUSH32 0x4552433732313A207472616E7366657220746F206E6F6E204552433732315265 PUSH0 DUP3 ADD MSTORE PUSH32 0x63656976657220696D706C656D656E7465720000000000000000000000000000 PUSH1 0x20 DUP3 ADD MSTORE POP JUMP JUMPDEST PUSH0 PUSH2 0x77FC PUSH1 0x32 DUP4 PUSH2 0x5504 JUMP JUMPDEST SWAP2 POP PUSH2 0x7807 DUP3 PUSH2 0x77A2 JUMP JUMPDEST PUSH1 0x40 DUP3 ADD SWAP1 POP SWAP2 SWAP1 POP JUMP JUMPDEST PUSH0 PUSH1 0x20 DUP3 ADD SWAP1 POP DUP2 DUP2 SUB PUSH0 DUP4 ADD MSTORE PUSH2 0x7829 DUP2 PUSH2 0x77F0 JUMP JUMPDEST SWAP1 POP SWAP2 SWAP1 POP JUMP JUMPDEST PUSH0 PUSH2 0x783B DUP3 DUP6 PUSH2 0x61F9 JUMP JUMPDEST SWAP2 POP PUSH2 0x7847 DUP3 DUP5 PUSH2 0x61F9 JUMP JUMPDEST SWAP2 POP DUP2 SWAP1 POP SWAP4 SWAP3 POP POP POP JUMP JUMPDEST PUSH32 0x4E465444697265637453616C65733A2054686520616D6F756E74206F66206574 PUSH0 DUP3 ADD MSTORE PUSH32 0x6865722073656E7420646F6573206E6F74206D61746368207468652072657175 PUSH1 0x20 DUP3 ADD MSTORE PUSH32 0x6972656420616D6F756E742E0000000000000000000000000000000000000000 PUSH1 0x40 DUP3 ADD MSTORE POP JUMP JUMPDEST PUSH0 PUSH2 0x78D3 PUSH1 0x4C DUP4 PUSH2 0x5504 JUMP JUMPDEST SWAP2 POP PUSH2 0x78DE DUP3 PUSH2 0x7853 JUMP JUMPDEST PUSH1 0x60 DUP3 ADD SWAP1 POP SWAP2 SWAP1 POP JUMP JUMPDEST PUSH0 PUSH1 0x20 DUP3 ADD SWAP1 POP DUP2 DUP2 SUB PUSH0 DUP4 ADD MSTORE PUSH2 0x7900 DUP2 PUSH2 0x78C7 JUMP JUMPDEST SWAP1 POP SWAP2 SWAP1 POP JUMP JUMPDEST PUSH0 DUP2 MLOAD SWAP1 POP SWAP2 SWAP1 POP JUMP JUMPDEST PUSH0 DUP3 DUP3 MSTORE PUSH1 0x20 DUP3 ADD SWAP1 POP SWAP3 SWAP2 POP POP JUMP JUMPDEST PUSH0 PUSH2 0x792B DUP3 PUSH2 0x7907 JUMP JUMPDEST PUSH2 0x7935 DUP2 DUP6 PUSH2 0x7911 JUMP JUMPDEST SWAP4 POP PUSH2 0x7945 DUP2 DUP6 PUSH1 0x20 DUP7 ADD PUSH2 0x5514 JUMP JUMPDEST PUSH2 0x794E DUP2 PUSH2 0x553C JUMP JUMPDEST DUP5 ADD SWAP2 POP POP SWAP3 SWAP2 POP POP JUMP JUMPDEST PUSH0 PUSH1 0x80 DUP3 ADD SWAP1 POP PUSH2 0x796C PUSH0 DUP4 ADD DUP8 PUSH2 0x5747 JUMP JUMPDEST PUSH2 0x7979 PUSH1 0x20 DUP4 ADD DUP7 PUSH2 0x5747 JUMP JUMPDEST PUSH2 0x7986 PUSH1 0x40 DUP4 ADD DUP6 PUSH2 0x575F JUMP JUMPDEST DUP2 DUP2 SUB PUSH1 0x60 DUP4 ADD MSTORE PUSH2 0x7998 DUP2 DUP5 PUSH2 0x7921 JUMP JUMPDEST SWAP1 POP SWAP6 SWAP5 POP POP POP POP POP JUMP JUMPDEST PUSH0 DUP2 MLOAD SWAP1 POP PUSH2 0x79B1 DUP2 PUSH2 0x5472 JUMP JUMPDEST SWAP3 SWAP2 POP POP JUMP JUMPDEST PUSH0 PUSH1 0x20 DUP3 DUP5 SUB SLT ISZERO PUSH2 0x79CC JUMPI PUSH2 0x79CB PUSH2 0x543F JUMP JUMPDEST JUMPDEST PUSH0 PUSH2 0x79D9 DUP5 DUP3 DUP6 ADD PUSH2 0x79A3 JUMP JUMPDEST SWAP2 POP POP SWAP3 SWAP2 POP POP JUMP JUMPDEST PUSH32 0x455243373231456E756D657261626C653A20636F6E7365637574697665207472 PUSH0 DUP3 ADD MSTORE PUSH32 0x616E7366657273206E6F7420737570706F727465640000000000000000000000 PUSH1 0x20 DUP3 ADD MSTORE POP JUMP JUMPDEST PUSH0 PUSH2 0x7A3C PUSH1 0x35 DUP4 PUSH2 0x5504 JUMP JUMPDEST SWAP2 POP PUSH2 0x7A47 DUP3 PUSH2 0x79E2 JUMP JUMPDEST PUSH1 0x40 DUP3 ADD SWAP1 POP SWAP2 SWAP1 POP JUMP JUMPDEST PUSH0 PUSH1 0x20 DUP3 ADD SWAP1 POP DUP2 DUP2 SUB PUSH0 DUP4 ADD MSTORE PUSH2 0x7A69 DUP2 PUSH2 0x7A30 JUMP JUMPDEST SWAP1 POP SWAP2 SWAP1 POP JUMP JUMPDEST PUSH32 0x4552433732313A206D696E7420746F20746865207A65726F2061646472657373 PUSH0 DUP3 ADD MSTORE POP JUMP JUMPDEST PUSH0 PUSH2 0x7AA4 PUSH1 0x20 DUP4 PUSH2 0x5504 JUMP JUMPDEST SWAP2 POP PUSH2 0x7AAF DUP3 PUSH2 0x7A70 JUMP JUMPDEST PUSH1 0x20 DUP3 ADD SWAP1 POP SWAP2 SWAP1 POP JUMP JUMPDEST PUSH0 PUSH1 0x20 DUP3 ADD SWAP1 POP DUP2 DUP2 SUB PUSH0 DUP4 ADD MSTORE PUSH2 0x7AD1 DUP2 PUSH2 0x7A98 JUMP JUMPDEST SWAP1 POP SWAP2 SWAP1 POP JUMP JUMPDEST PUSH32 0x4552433732313A20746F6B656E20616C7265616479206D696E74656400000000 PUSH0 DUP3 ADD MSTORE POP JUMP JUMPDEST PUSH0 PUSH2 0x7B0C PUSH1 0x1C DUP4 PUSH2 0x5504 JUMP JUMPDEST SWAP2 POP PUSH2 0x7B17 DUP3 PUSH2 0x7AD8 JUMP JUMPDEST PUSH1 0x20 DUP3 ADD SWAP1 POP SWAP2 SWAP1 POP JUMP JUMPDEST PUSH0 PUSH1 0x20 DUP3 ADD SWAP1 POP DUP2 DUP2 SUB PUSH0 DUP4 ADD MSTORE PUSH2 0x7B39 DUP2 PUSH2 0x7B00 JUMP JUMPDEST SWAP1 POP SWAP2 SWAP1 POP JUMP JUMPDEST PUSH32 0x45524337323155524953746F726167653A2055524920736574206F66206E6F6E PUSH0 DUP3 ADD MSTORE PUSH32 0x6578697374656E7420746F6B656E000000000000000000000000000000000000 PUSH1 0x20 DUP3 ADD MSTORE POP JUMP JUMPDEST PUSH0 PUSH2 0x7B9A PUSH1 0x2E DUP4 PUSH2 0x5504 JUMP JUMPDEST SWAP2 POP PUSH2 0x7BA5 DUP3 PUSH2 0x7B40 JUMP JUMPDEST PUSH1 0x40 DUP3 ADD SWAP1 POP SWAP2 SWAP1 POP JUMP JUMPDEST PUSH0 PUSH1 0x20 DUP3 ADD SWAP1 POP DUP2 DUP2 SUB PUSH0 DUP4 ADD MSTORE PUSH2 0x7BC7 DUP2 PUSH2 0x7B8E JUMP JUMPDEST SWAP1 POP SWAP2 SWAP1 POP JUMP JUMPDEST PUSH32 0x4E487B7100000000000000000000000000000000000000000000000000000000 PUSH0 MSTORE PUSH1 0x12 PUSH1 0x4 MSTORE PUSH1 0x24 PUSH0 REVERT INVALID LOG2 PUSH5 0x6970667358 0x22 SLT KECCAK256 0x4A 0xBE 0xBC PUSH32 0x54C6DE02854A39FC0A48688E1BC257AC2F342EA37270F9B42631936964736F6C PUSH4 0x43000815 STOP CALLER PUSH10 0x7066733A2F2F6261666B PUSH19 0x65696168726E376B7867323434706E7A6D3563 PUSH23 0x3579376F796A61353474796E326633616F336236327463 PUSH25 0x71763434686C6A347275A2646970667358221220C083FD46F0 PUSH19 0x7ED836AA6DA294C8DA930FA5929E2F663EAA32 0xBA PUSH27 0x61C4C1CCE664736F6C634300081500330000000000000000000000 "
		},
		"gasEstimates": {
			"creation": {
				"codeDepositCost": "8432800",
				"executionCost": "11349",
				"totalCost": "8444149"
			},
			"external": {
				"ANHYDRITE()": "infinite",
				"deployModule(string,string,address,address)": "infinite",
				"getDeployedModules()": "infinite",
				"getNumberOfDeployedModules()": "2462",
				"isDeploy(address)": "2877"
			}
		},
		"methodIdentifiers": {
			"ANHYDRITE()": "f1d4b868",
			"deployModule(string,string,address,address)": "8c632904",
			"getDeployedModules()": "82303430",
			"getNumberOfDeployedModules()": "a1f3fd9f",
			"isDeploy(address)": "c84abce1"
		}
	},
	"abi": [
		{
			"anonymous": false,
			"inputs": [
				{
					"indexed": true,
					"internalType": "address",
					"name": "moduleAddress",
					"type": "address"
				},
				{
					"indexed": true,
					"internalType": "address",
					"name": "owner",
					"type": "address"
				}
			],
			"name": "ModuleCreated",
			"type": "event"
		},
		{
			"inputs": [],
			"name": "ANHYDRITE",
			"outputs": [
				{
					"internalType": "contract IANH",
					"name": "",
					"type": "address"
				}
			],
			"stateMutability": "view",
			"type": "function"
		},
		{
			"inputs": [
				{
					"internalType": "string",
					"name": "name",
					"type": "string"
				},
				{
					"internalType": "string",
					"name": "symbol",
					"type": "string"
				},
				{
					"internalType": "address",
					"name": "ownerAddress",
					"type": "address"
				},
				{
					"internalType": "address",
					"name": "",
					"type": "address"
				}
			],
			"name": "deployModule",
			"outputs": [
				{
					"internalType": "address",
					"name": "",
					"type": "address"
				}
			],
			"stateMutability": "nonpayable",
			"type": "function"
		},
		{
			"inputs": [],
			"name": "getDeployedModules",
			"outputs": [
				{
					"components": [
						{
							"internalType": "address",
							"name": "moduleAddress",
							"type": "address"
						},
						{
							"internalType": "address",
							"name": "ownerAddress",
							"type": "address"
						}
					],
					"internalType": "struct FactoryAGEMinecraftServer.Deployed[]",
					"name": "",
					"type": "tuple[]"
				}
			],
			"stateMutability": "view",
			"type": "function"
		},
		{
			"inputs": [],
			"name": "getNumberOfDeployedModules",
			"outputs": [
				{
					"internalType": "uint256",
					"name": "",
					"type": "uint256"
				}
			],
			"stateMutability": "view",
			"type": "function"
		},
		{
			"inputs": [
				{
					"internalType": "address",
					"name": "",
					"type": "address"
				}
			],
			"name": "isDeploy",
			"outputs": [
				{
					"internalType": "bool",
					"name": "",
					"type": "bool"
				}
			],
			"stateMutability": "view",
			"type": "function"
		},
		{
			"stateMutability": "payable",
			"type": "receive"
		}
	]
}