{
	"data": {
		"bytecode": {
			"linkReferences": {},
			"object": "60a060405234801562000010575f80fd5b5060405162009412380380620094128339818101604052810190620000369190620000d6565b8073ffffffffffffffffffffffffffffffffffffffff1660808173ffffffffffffffffffffffffffffffffffffffff16815250505062000106565b5f80fd5b5f73ffffffffffffffffffffffffffffffffffffffff82169050919050565b5f620000a08262000075565b9050919050565b620000b28162000094565b8114620000bd575f80fd5b50565b5f81519050620000d081620000a7565b92915050565b5f60208284031215620000ee57620000ed62000071565b5b5f620000fd84828501620000c0565b91505092915050565b6080516192e66200012c5f395f81816054015281816103d8015261061c01526192e65ff3fe60806040526004361062000048575f3560e01c80638230343014620000ef5780638c632904146200011e578063a1f3fd9f1462000161578063c84abce1146200019057620000eb565b36620000eb57620000e97f000000000000000000000000000000000000000000000000000000000000000073ffffffffffffffffffffffffffffffffffffffff1663aaf10f426040518163ffffffff1660e01b8152600401602060405180830381865afa158015620000bc573d5f803e3d5ffd5b505050506040513d601f19601f82011682018060405250810190620000e291906200093f565b34620001d3565b005b5f80fd5b348015620000fb575f80fd5b5062000106620002cd565b60405162000115919062000a67565b60405180910390f35b3480156200012a575f80fd5b5062000149600480360381019062000143919062000bf7565b620003d3565b60405162000158919062000cb5565b60405180910390f35b3480156200016d575f80fd5b506200017862000897565b60405162000187919062000cea565b60405180910390f35b3480156200019c575f80fd5b50620001bb6004803603810190620001b5919062000d05565b620008a2565b604051620001ca919062000d51565b60405180910390f35b8047101562000219576040517f08c379a0000000000000000000000000000000000000000000000000000000008152600401620002109062000dca565b60405180910390fd5b5f8273ffffffffffffffffffffffffffffffffffffffff1682604051620002409062000e1b565b5f6040518083038185875af1925050503d805f81146200027c576040519150601f19603f3d011682016040523d82523d5f602084013e62000281565b606091505b5050905080620002c8576040517f08c379a0000000000000000000000000000000000000000000000000000000008152600401620002bf9062000ea5565b60405180910390fd5b505050565b60605f805480602002602001604051908101604052809291908181526020015f905b82821015620003ca578382905f5260205f2090600202016040518060400160405290815f82015f9054906101000a900473ffffffffffffffffffffffffffffffffffffffff1673ffffffffffffffffffffffffffffffffffffffff1673ffffffffffffffffffffffffffffffffffffffff168152602001600182015f9054906101000a900473ffffffffffffffffffffffffffffffffffffffff1673ffffffffffffffffffffffffffffffffffffffff1673ffffffffffffffffffffffffffffffffffffffff168152505081526020019060010190620002ef565b50505050905090565b5f825f7f000000000000000000000000000000000000000000000000000000000000000090508073ffffffffffffffffffffffffffffffffffffffff1663aaf10f426040518163ffffffff1660e01b8152600401602060405180830381865afa15801562000443573d5f803e3d5ffd5b505050506040513d601f19601f820116820180604052508101906200046991906200093f565b73ffffffffffffffffffffffffffffffffffffffff163373ffffffffffffffffffffffffffffffffffffffff1614620004d9576040517f08c379a0000000000000000000000000000000000000000000000000000000008152600401620004d09062000f13565b60405180910390fd5b8073ffffffffffffffffffffffffffffffffffffffff16633f683b6a6040518163ffffffff1660e01b8152600401602060405180830381865afa15801562000523573d5f803e3d5ffd5b505050506040513d601f19601f8201168201806040525081019062000549919062000f62565b156200058c576040517f08c379a0000000000000000000000000000000000000000000000000000000008152600401620005839062000fe0565b60405180910390fd5b60015f8373ffffffffffffffffffffffffffffffffffffffff1673ffffffffffffffffffffffffffffffffffffffff1681526020019081526020015f205f9054906101000a900460ff161562000619576040517f08c379a0000000000000000000000000000000000000000000000000000000008152600401620006109062001074565b60405180910390fd5b5f7f00000000000000000000000000000000000000000000000000000000000000008689896040516200064c90620008bf565b6200065b949392919062001108565b604051809103905ff08015801562000675573d5f803e3d5ffd5b5090508073ffffffffffffffffffffffffffffffffffffffff1663f2fde38b876040518263ffffffff1660e01b8152600401620006b3919062000cb5565b5f604051808303815f87803b158015620006cb575f80fd5b505af1158015620006de573d5f803e3d5ffd5b505050505f60405180604001604052808373ffffffffffffffffffffffffffffffffffffffff1681526020018873ffffffffffffffffffffffffffffffffffffffff1681525090506001805f8973ffffffffffffffffffffffffffffffffffffffff1673ffffffffffffffffffffffffffffffffffffffff1681526020019081526020015f205f6101000a81548160ff0219169083151502179055505f81908060018154018082558091505060019003905f5260205f2090600202015f909190919091505f820151815f015f6101000a81548173ffffffffffffffffffffffffffffffffffffffff021916908373ffffffffffffffffffffffffffffffffffffffff1602179055506020820151816001015f6101000a81548173ffffffffffffffffffffffffffffffffffffffff021916908373ffffffffffffffffffffffffffffffffffffffff16021790555050503373ffffffffffffffffffffffffffffffffffffffff168273ffffffffffffffffffffffffffffffffffffffff167ff708942ec477396a151a5285651961dcab8e8a82ea4f5b31a5236f92f6c9271060405160405180910390a381945050505050949350505050565b5f8080549050905090565b6001602052805f5260405f205f915054906101000a900460ff1681565b61814f806200116283390190565b5f604051905090565b5f80fd5b5f80fd5b5f73ffffffffffffffffffffffffffffffffffffffff82169050919050565b5f6200090982620008de565b9050919050565b6200091b81620008fd565b811462000926575f80fd5b50565b5f81519050620009398162000910565b92915050565b5f60208284031215620009575762000956620008d6565b5b5f620009668482850162000929565b91505092915050565b5f81519050919050565b5f82825260208201905092915050565b5f819050602082019050919050565b620009a381620008fd565b82525050565b604082015f820151620009bf5f85018262000998565b506020820151620009d4602085018262000998565b50505050565b5f620009e78383620009a9565b60408301905092915050565b5f602082019050919050565b5f62000a0b826200096f565b62000a17818562000979565b935062000a248362000989565b805f5b8381101562000a5a57815162000a3e8882620009da565b975062000a4b83620009f3565b92505060018101905062000a27565b5085935050505092915050565b5f6020820190508181035f83015262000a818184620009ff565b905092915050565b5f80fd5b5f80fd5b5f601f19601f8301169050919050565b7f4e487b71000000000000000000000000000000000000000000000000000000005f52604160045260245ffd5b62000ad98262000a91565b810181811067ffffffffffffffff8211171562000afb5762000afa62000aa1565b5b80604052505050565b5f62000b0f620008cd565b905062000b1d828262000ace565b919050565b5f67ffffffffffffffff82111562000b3f5762000b3e62000aa1565b5b62000b4a8262000a91565b9050602081019050919050565b828183375f83830152505050565b5f62000b7b62000b758462000b22565b62000b04565b90508281526020810184848401111562000b9a5762000b9962000a8d565b5b62000ba784828562000b57565b509392505050565b5f82601f83011262000bc65762000bc562000a89565b5b813562000bd884826020860162000b65565b91505092915050565b5f8135905062000bf18162000910565b92915050565b5f805f806080858703121562000c125762000c11620008d6565b5b5f85013567ffffffffffffffff81111562000c325762000c31620008da565b5b62000c408782880162000baf565b945050602085013567ffffffffffffffff81111562000c645762000c63620008da565b5b62000c728782880162000baf565b935050604062000c858782880162000be1565b925050606062000c988782880162000be1565b91505092959194509250565b62000caf81620008fd565b82525050565b5f60208201905062000cca5f83018462000ca4565b92915050565b5f819050919050565b62000ce48162000cd0565b82525050565b5f60208201905062000cff5f83018462000cd9565b92915050565b5f6020828403121562000d1d5762000d1c620008d6565b5b5f62000d2c8482850162000be1565b91505092915050565b5f8115159050919050565b62000d4b8162000d35565b82525050565b5f60208201905062000d665f83018462000d40565b92915050565b5f82825260208201905092915050565b7f416464726573733a20696e73756666696369656e742062616c616e63650000005f82015250565b5f62000db2601d8362000d6c565b915062000dbf8262000d7c565b602082019050919050565b5f6020820190508181035f83015262000de38162000da4565b9050919050565b5f81905092915050565b50565b5f62000e045f8362000dea565b915062000e118262000df4565b5f82019050919050565b5f62000e278262000df7565b9150819050919050565b7f416464726573733a20756e61626c6520746f2073656e642076616c75652c20725f8201527f6563697069656e74206d61792068617665207265766572746564000000000000602082015250565b5f62000e8d603a8362000d6c565b915062000e9a8262000e31565b604082019050919050565b5f6020820190508181035f83015262000ebe8162000e7f565b9050919050565b7f43616c6c6572206973206e6f742074686520696d706c656d656e746174696f6e5f82015250565b5f62000efb60208362000d6c565b915062000f088262000ec5565b602082019050919050565b5f6020820190508181035f83015262000f2c8162000eed565b9050919050565b62000f3e8162000d35565b811462000f49575f80fd5b50565b5f8151905062000f5c8162000f33565b92915050565b5f6020828403121562000f7a5762000f79620008d6565b5b5f62000f898482850162000f4c565b91505092915050565b7f4465706c6f79696e672069732073746f707065640000000000000000000000005f82015250565b5f62000fc860148362000d6c565b915062000fd58262000f92565b602082019050919050565b5f6020820190508181035f83015262000ff98162000fba565b9050919050565b7f5468697320616464726573732068617320616c7265616479206465706c6f79655f8201527f642074686973206d6f64756c6500000000000000000000000000000000000000602082015250565b5f6200105c602d8362000d6c565b9150620010698262001000565b604082019050919050565b5f6020820190508181035f8301526200108d816200104e565b9050919050565b5f81519050919050565b5f5b83811015620010bd578082015181840152602081019050620010a0565b5f8484015250505050565b5f620010d48262001094565b620010e0818562000d6c565b9350620010f28185602086016200109e565b620010fd8162000a91565b840191505092915050565b5f6080820190506200111d5f83018762000ca4565b6200112c602083018662000ca4565b8181036040830152620011408185620010c8565b90508181036060830152620011568184620010c8565b90509594505050505056fe60a060405234801562000010575f80fd5b506040516200814f3803806200814f833981810160405281019062000036919062000ccf565b838282815f908162000049919062000fb3565b5080600190816200005b919062000fb3565b5050506200007e62000072620000e860201b60201c565b620000ef60201b60201c565b8073ffffffffffffffffffffffffffffffffffffffff1660808173ffffffffffffffffffffffffffffffffffffffff168152505050620000de836040518060800160405280604281526020016200810d60429139620001b260201b60201c565b505050506200142c565b5f33905090565b5f600b5f9054906101000a900473ffffffffffffffffffffffffffffffffffffffff16905081600b5f6101000a81548173ffffffffffffffffffffffffffffffffffffffff021916908373ffffffffffffffffffffffffffffffffffffffff1602179055508173ffffffffffffffffffffffffffffffffffffffff168173ffffffffffffffffffffffffffffffffffffffff167f8be0079c531659141344cd1fd0a4f28419497f9722a3daafe3b4186f6b6457e060405160405180910390a35050565b5f620001c560106200020260201b60201c565b9050620001d960106200020e60201b60201c565b620001eb83826200022260201b60201c565b620001fd81836200045e60201b60201c565b505050565b5f815f01549050919050565b6001815f015f828254019250508190555050565b5f73ffffffffffffffffffffffffffffffffffffffff168273ffffffffffffffffffffffffffffffffffffffff160362000293576040517f08c379a00000000000000000000000000000000000000000000000000000000081526004016200028a90620010f5565b60405180910390fd5b620002a4816200050f60201b60201c565b15620002e7576040517f08c379a0000000000000000000000000000000000000000000000000000000008152600401620002de9062001163565b60405180910390fd5b620002fc5f838360016200055760201b60201c565b6200030d816200050f60201b60201c565b1562000350576040517f08c379a0000000000000000000000000000000000000000000000000000000008152600401620003479062001163565b60405180910390fd5b600160035f8473ffffffffffffffffffffffffffffffffffffffff1673ffffffffffffffffffffffffffffffffffffffff1681526020019081526020015f205f82825401925050819055508160025f8381526020019081526020015f205f6101000a81548173ffffffffffffffffffffffffffffffffffffffff021916908373ffffffffffffffffffffffffffffffffffffffff160217905550808273ffffffffffffffffffffffffffffffffffffffff165f73ffffffffffffffffffffffffffffffffffffffff167fddf252ad1be2c89b69c2b068fc378daa952ba7f163c4a11628f55a4df523b3ef60405160405180910390a46200045a5f838360016200057160201b60201c565b5050565b6200046f826200050f60201b60201c565b620004b1576040517f08c379a0000000000000000000000000000000000000000000000000000000008152600401620004a890620011f7565b60405180910390fd5b8060065f8481526020019081526020015f209081620004d1919062000fb3565b507ff8e1a15aba9398e019f0b49df1a4fde98ee17ae345cb5f6b5e2c27f5033e8ce78260405162000503919062001228565b60405180910390a15050565b5f8073ffffffffffffffffffffffffffffffffffffffff1662000538836200057760201b60201c565b73ffffffffffffffffffffffffffffffffffffffff1614159050919050565b6200056b84848484620005b060201b60201c565b50505050565b50505050565b5f60025f8381526020019081526020015f205f9054906101000a900473ffffffffffffffffffffffffffffffffffffffff169050919050565b620005c4848484846200073c60201b60201c565b60018111156200060b576040517f08c379a00000000000000000000000000000000000000000000000000000000081526004016200060290620012b7565b60405180910390fd5b5f8290505f73ffffffffffffffffffffffffffffffffffffffff168573ffffffffffffffffffffffffffffffffffffffff16036200065a5762000654816200074260201b60201c565b620006a2565b8373ffffffffffffffffffffffffffffffffffffffff168573ffffffffffffffffffffffffffffffffffffffff1614620006a157620006a085826200078660201b60201c565b5b5b5f73ffffffffffffffffffffffffffffffffffffffff168473ffffffffffffffffffffffffffffffffffffffff1603620006ed57620006e781620008e760201b60201c565b62000735565b8473ffffffffffffffffffffffffffffffffffffffff168473ffffffffffffffffffffffffffffffffffffffff16146200073457620007338482620009b260201b60201c565b5b5b5050505050565b50505050565b600980549050600a5f8381526020019081526020015f2081905550600981908060018154018082558091505060019003905f5260205f20015f909190919091505550565b5f60016200079a8462000a3260201b60201c565b620007a6919062001304565b90505f60085f8481526020019081526020015f205490508181146200087e575f60075f8673ffffffffffffffffffffffffffffffffffffffff1673ffffffffffffffffffffffffffffffffffffffff1681526020019081526020015f205f8481526020019081526020015f205490508060075f8773ffffffffffffffffffffffffffffffffffffffff1673ffffffffffffffffffffffffffffffffffffffff1681526020019081526020015f205f8481526020019081526020015f20819055508160085f8381526020019081526020015f2081905550505b60085f8481526020019081526020015f205f905560075f8573ffffffffffffffffffffffffffffffffffffffff1673ffffffffffffffffffffffffffffffffffffffff1681526020019081526020015f205f8381526020019081526020015f205f905550505050565b5f6001600980549050620008fc919062001304565b90505f600a5f8481526020019081526020015f205490505f600983815481106200092b576200092a6200133e565b5b905f5260205f200154905080600983815481106200094e576200094d6200133e565b5b905f5260205f20018190555081600a5f8381526020019081526020015f2081905550600a5f8581526020019081526020015f205f905560098054806200099957620009986200136b565b5b600190038181905f5260205f20015f9055905550505050565b5f620009c48362000a3260201b60201c565b90508160075f8573ffffffffffffffffffffffffffffffffffffffff1673ffffffffffffffffffffffffffffffffffffffff1681526020019081526020015f205f8381526020019081526020015f20819055508060085f8481526020019081526020015f2081905550505050565b5f8073ffffffffffffffffffffffffffffffffffffffff168273ffffffffffffffffffffffffffffffffffffffff160362000aa4576040517f08c379a000000000000000000000000000000000000000000000000000000000815260040162000a9b906200140c565b60405180910390fd5b60035f8373ffffffffffffffffffffffffffffffffffffffff1673ffffffffffffffffffffffffffffffffffffffff1681526020019081526020015f20549050919050565b5f604051905090565b5f80fd5b5f80fd5b5f73ffffffffffffffffffffffffffffffffffffffff82169050919050565b5f62000b258262000afa565b9050919050565b62000b378162000b19565b811462000b42575f80fd5b50565b5f8151905062000b558162000b2c565b92915050565b5f80fd5b5f80fd5b5f601f19601f8301169050919050565b7f4e487b71000000000000000000000000000000000000000000000000000000005f52604160045260245ffd5b62000bab8262000b63565b810181811067ffffffffffffffff8211171562000bcd5762000bcc62000b73565b5b80604052505050565b5f62000be162000ae9565b905062000bef828262000ba0565b919050565b5f67ffffffffffffffff82111562000c115762000c1062000b73565b5b62000c1c8262000b63565b9050602081019050919050565b5f5b8381101562000c4857808201518184015260208101905062000c2b565b5f8484015250505050565b5f62000c6962000c638462000bf4565b62000bd6565b90508281526020810184848401111562000c885762000c8762000b5f565b5b62000c9584828562000c29565b509392505050565b5f82601f83011262000cb45762000cb362000b5b565b5b815162000cc684826020860162000c53565b91505092915050565b5f805f806080858703121562000cea5762000ce962000af2565b5b5f62000cf98782880162000b45565b945050602062000d0c8782880162000b45565b935050604085015167ffffffffffffffff81111562000d305762000d2f62000af6565b5b62000d3e8782880162000c9d565b925050606085015167ffffffffffffffff81111562000d625762000d6162000af6565b5b62000d708782880162000c9d565b91505092959194509250565b5f81519050919050565b7f4e487b71000000000000000000000000000000000000000000000000000000005f52602260045260245ffd5b5f600282049050600182168062000dcb57607f821691505b60208210810362000de15762000de062000d86565b5b50919050565b5f819050815f5260205f209050919050565b5f6020601f8301049050919050565b5f82821b905092915050565b5f6008830262000e457fffffffffffffffffffffffffffffffffffffffffffffffffffffffffffffffff8262000e08565b62000e51868362000e08565b95508019841693508086168417925050509392505050565b5f819050919050565b5f819050919050565b5f62000e9b62000e9562000e8f8462000e69565b62000e72565b62000e69565b9050919050565b5f819050919050565b62000eb68362000e7b565b62000ece62000ec58262000ea2565b84845462000e14565b825550505050565b5f90565b62000ee462000ed6565b62000ef181848462000eab565b505050565b5b8181101562000f185762000f0c5f8262000eda565b60018101905062000ef7565b5050565b601f82111562000f675762000f318162000de7565b62000f3c8462000df9565b8101602085101562000f4c578190505b62000f6462000f5b8562000df9565b83018262000ef6565b50505b505050565b5f82821c905092915050565b5f62000f895f198460080262000f6c565b1980831691505092915050565b5f62000fa3838362000f78565b9150826002028217905092915050565b62000fbe8262000d7c565b67ffffffffffffffff81111562000fda5762000fd962000b73565b5b62000fe6825462000db3565b62000ff382828562000f1c565b5f60209050601f83116001811462001029575f841562001014578287015190505b62001020858262000f96565b8655506200108f565b601f198416620010398662000de7565b5f5b8281101562001062578489015182556001820191506020850194506020810190506200103b565b868310156200108257848901516200107e601f89168262000f78565b8355505b6001600288020188555050505b505050505050565b5f82825260208201905092915050565b7f4552433732313a206d696e7420746f20746865207a65726f20616464726573735f82015250565b5f620010dd60208362001097565b9150620010ea82620010a7565b602082019050919050565b5f6020820190508181035f8301526200110e81620010cf565b9050919050565b7f4552433732313a20746f6b656e20616c7265616479206d696e746564000000005f82015250565b5f6200114b601c8362001097565b9150620011588262001115565b602082019050919050565b5f6020820190508181035f8301526200117c816200113d565b9050919050565b7f45524337323155524953746f726167653a2055524920736574206f66206e6f6e5f8201527f6578697374656e7420746f6b656e000000000000000000000000000000000000602082015250565b5f620011df602e8362001097565b9150620011ec8262001183565b604082019050919050565b5f6020820190508181035f8301526200121081620011d1565b9050919050565b620012228162000e69565b82525050565b5f6020820190506200123d5f83018462001217565b92915050565b7f455243373231456e756d657261626c653a20636f6e73656375746976652074725f8201527f616e7366657273206e6f7420737570706f727465640000000000000000000000602082015250565b5f6200129f60358362001097565b9150620012ac8262001243565b604082019050919050565b5f6020820190508181035f830152620012d08162001291565b9050919050565b7f4e487b71000000000000000000000000000000000000000000000000000000005f52601160045260245ffd5b5f620013108262000e69565b91506200131d8362000e69565b9250828203905081811115620013385762001337620012d7565b5b92915050565b7f4e487b71000000000000000000000000000000000000000000000000000000005f52603260045260245ffd5b7f4e487b71000000000000000000000000000000000000000000000000000000005f52603160045260245ffd5b7f4552433732313a2061646472657373207a65726f206973206e6f7420612076615f8201527f6c6964206f776e65720000000000000000000000000000000000000000000000602082015250565b5f620013f460298362001097565b9150620014018262001398565b604082019050919050565b5f6020820190508181035f8301526200142581620013e6565b9050919050565b608051616cc16200144c5f395f81816119900152611b080152616cc15ff3fe60806040526004361061026a575f3560e01c8063770dd3e311610143578063c41c9a61116100b5578063e878871011610079578063e8788710146108f9578063e985e9c514610921578063ece8453f1461095d578063f274c89714610999578063f2fde38b146109c1578063fea59eea146109e957610271565b8063c41c9a6114610819578063c7acae2e14610841578063c87b56dd1461086b578063cb6a9bc6146108a7578063dc30356d146108d157610271565b80639f35233c116101075780639f35233c146107595780639fd16ed61461076f578063a22cb46514610797578063b88d4fde146107bf578063bff29cee146107e7578063c330cb77146107f157610271565b8063770dd3e31461068b5780637778936c146106b55780638da5cb5b146106dd57806395d89b41146107075780639a212dca1461073157610271565b806342966c68116101dc57806367b88a73116101a057806367b88a731461056f57806369a02b85146105ab5780636c922764146105e757806370a0823114610611578063715018a61461064d578063761ef7b61461066357610271565b806342966c681461047f5780634f6ccce7146104a75780635da58ed8146104e357806360fddde71461050b5780636352211e1461053357610271565b806318160ddd1161022e57806318160ddd146103795780631dadac52146103a357806323b872dd146103cb5780632f745c59146103f35780633b4b1d501461042f57806342842e0e1461045757610271565b806301ffc9a71461027357806306fdde03146102af578063081812fc146102d9578063095ea7b314610315578063150b7a021461033d57610271565b3661027157005b005b34801561027e575f80fd5b506102996004803603810190610294919061478b565b610a13565b6040516102a691906147d0565b60405180910390f35b3480156102ba575f80fd5b506102c3610af4565b6040516102d09190614873565b60405180910390f35b3480156102e4575f80fd5b506102ff60048036038101906102fa91906148c6565b610b83565b60405161030c9190614930565b60405180910390f35b348015610320575f80fd5b5061033b60048036038101906103369190614973565b610bc5565b005b348015610348575f80fd5b50610363600480360381019061035e9190614a12565b610cdb565b6040516103709190614aa5565b60405180910390f35b348015610384575f80fd5b5061038d610cef565b60405161039a9190614acd565b60405180910390f35b3480156103ae575f80fd5b506103c960048036038101906103c49190614b3b565b610cfb565b005b3480156103d6575f80fd5b506103f160048036038101906103ec9190614b86565b610d7a565b005b3480156103fe575f80fd5b5061041960048036038101906104149190614973565b610dda565b6040516104269190614acd565b60405180910390f35b34801561043a575f80fd5b5061045560048036038101906104509190614c0d565b610e7a565b005b348015610462575f80fd5b5061047d60048036038101906104789190614b86565b610ea2565b005b34801561048a575f80fd5b506104a560048036038101906104a091906148c6565b610ec1565b005b3480156104b2575f80fd5b506104cd60048036038101906104c891906148c6565b610f1d565b6040516104da9190614acd565b60405180910390f35b3480156104ee575f80fd5b5061050960048036038101906105049190614d60565b610f8b565b005b348015610516575f80fd5b50610531600480360381019061052c9190614973565b611325565b005b34801561053e575f80fd5b50610559600480360381019061055491906148c6565b61133b565b6040516105669190614930565b60405180910390f35b34801561057a575f80fd5b5061059560048036038101906105909190614d60565b6113bf565b6040516105a29190614930565b60405180910390f35b3480156105b6575f80fd5b506105d160048036038101906105cc9190614b3b565b6113d2565b6040516105de9190614aa5565b60405180910390f35b3480156105f2575f80fd5b506105fb6113e5565b6040516106089190614e15565b60405180910390f35b34801561061c575f80fd5b5061063760048036038101906106329190614e2e565b61140a565b6040516106449190614acd565b60405180910390f35b348015610658575f80fd5b506106616114be565b005b34801561066e575f80fd5b50610689600480360381019061068491906148c6565b6114d1565b005b348015610696575f80fd5b5061069f6114e6565b6040516106ac9190614e68565b60405180910390f35b3480156106c0575f80fd5b506106db60048036038101906106d69190614b3b565b6114fd565b005b3480156106e8575f80fd5b506106f161151b565b6040516106fe9190614930565b60405180910390f35b348015610712575f80fd5b5061071b611543565b6040516107289190614873565b60405180910390f35b34801561073c575f80fd5b506107576004803603810190610752919061478b565b6115d3565b005b348015610764575f80fd5b5061076d611643565b005b34801561077a575f80fd5b5061079560048036038101906107909190614e81565b61164d565b005b3480156107a2575f80fd5b506107bd60048036038101906107b89190614f4e565b61166b565b005b3480156107ca575f80fd5b506107e560048036038101906107e0919061502a565b611681565b005b6107ef6116e3565b005b3480156107fc575f80fd5b5061081760048036038101906108129190614b3b565b6116ed565b005b348015610824575f80fd5b5061083f600480360381019061083a9190614b86565b61170b565b005b34801561084c575f80fd5b50610855611853565b6040516108629190614873565b60405180910390f35b348015610876575f80fd5b50610891600480360381019061088c91906148c6565b6118e3565b60405161089e9190614873565b60405180910390f35b3480156108b2575f80fd5b506108bb6118f5565b6040516108c89190614873565b60405180910390f35b3480156108dc575f80fd5b506108f760048036038101906108f29190614d60565b611985565b005b348015610904575f80fd5b5061091f600480360381019061091a9190614b86565b611d98565b005b34801561092c575f80fd5b50610947600480360381019061094291906150aa565b611ef9565b60405161095491906147d0565b60405180910390f35b348015610968575f80fd5b50610983600480360381019061097e9190614d60565b611f87565b60405161099091906147d0565b60405180910390f35b3480156109a4575f80fd5b506109bf60048036038101906109ba9190615123565b611fba565b005b3480156109cc575f80fd5b506109e760048036038101906109e29190614e2e565b61204d565b005b3480156109f4575f80fd5b506109fd6120cf565b604051610a0a9190614aa5565b60405180910390f35b5f7f150b7a02000000000000000000000000000000000000000000000000000000007bffffffffffffffffffffffffffffffffffffffffffffffffffffffff1916827bffffffffffffffffffffffffffffffffffffffffffffffffffffffff19161480610add57507f7b90f961000000000000000000000000000000000000000000000000000000007bffffffffffffffffffffffffffffffffffffffffffffffffffffffff1916827bffffffffffffffffffffffffffffffffffffffffffffffffffffffff1916145b80610aed5750610aec826120e4565b5b9050919050565b60605f8054610b029061518e565b80601f0160208091040260200160405190810160405280929190818152602001828054610b2e9061518e565b8015610b795780601f10610b5057610100808354040283529160200191610b79565b820191905f5260205f20905b815481529060010190602001808311610b5c57829003601f168201915b5050505050905090565b5f610b8d8261215d565b60045f8381526020019081526020015f205f9054906101000a900473ffffffffffffffffffffffffffffffffffffffff169050919050565b5f610bcf8261133b565b90508073ffffffffffffffffffffffffffffffffffffffff168373ffffffffffffffffffffffffffffffffffffffff1603610c3f576040517f08c379a0000000000000000000000000000000000000000000000000000000008152600401610c369061522e565b60405180910390fd5b8073ffffffffffffffffffffffffffffffffffffffff16610c5e6121a8565b73ffffffffffffffffffffffffffffffffffffffff161480610c8d5750610c8c81610c876121a8565b611ef9565b5b610ccc576040517f08c379a0000000000000000000000000000000000000000000000000000000008152600401610cc3906152bc565b60405180910390fd5b610cd683836121af565b505050565b5f63150b7a0260e01b905095945050505050565b5f600980549050905090565b610d03612265565b5f610d0e83836122e3565b9050610d198161274c565b610d58576040517f08c379a0000000000000000000000000000000000000000000000000000000008152600401610d4f90615324565b60405180910390fd5b8060115f6101000a81548163ffffffff021916908360e01c0217905550505050565b610d8b610d856121a8565b82612854565b610dca576040517f08c379a0000000000000000000000000000000000000000000000000000000008152600401610dc1906153b2565b60405180910390fd5b610dd58383836128e8565b505050565b5f610de48361140a565b8210610e25576040517f08c379a0000000000000000000000000000000000000000000000000000000008152600401610e1c90615440565b60405180910390fd5b60075f8473ffffffffffffffffffffffffffffffffffffffff1673ffffffffffffffffffffffffffffffffffffffff1681526020019081526020015f205f8381526020019081526020015f2054905092915050565b610e82612265565b80601160046101000a81548161ffff021916908361ffff16021790555050565b610ebc83838360405180602001604052805f815250611681565b505050565b610ed2610ecc6121a8565b82612854565b610f11576040517f08c379a0000000000000000000000000000000000000000000000000000000008152600401610f08906153b2565b60405180910390fd5b610f1a81612bd4565b50565b5f610f26610cef565b8210610f67576040517f08c379a0000000000000000000000000000000000000000000000000000000008152600401610f5e906154ce565b60405180910390fd5b60098281548110610f7b57610f7a6154ec565b5b905f5260205f2001549050919050565b610f93612265565b5f81600c811115610fa757610fa6615519565b5b90505f610fb48483612be0565b9050604051806060016040528060405180602001604052805f81525081526020016001600c811115610fe957610fe8615519565b5b81526020015f73ffffffffffffffffffffffffffffffffffffffff16815250600d5f8381526020019081526020015f205f820151815f01908161102c91906156da565b506020820151816001015f6101000a81548160ff0219169083600c81111561105757611056615519565b5b021790555060408201518160010160016101000a81548173ffffffffffffffffffffffffffffffffffffffff021916908373ffffffffffffffffffffffffffffffffffffffff1602179055509050505f5b600c8054905081101561131d57846040516020016110c691906157e3565b60405160208183030381529060405280519060200120600c82815481106110f0576110ef6154ec565b5b905f5260205f2090600202015f0160405160200161110e9190615879565b60405160208183030381529060405280519060200120148015611183575082600c81111561113f5761113e615519565b5b600c8281548110611153576111526154ec565b5b905f5260205f2090600202016001015f9054906101000a900460ff16600c81111561118157611180615519565b5b145b1561130a57600c6001600c8054905061119c91906158bc565b815481106111ad576111ac6154ec565b5b905f5260205f209060020201600c82815481106111cd576111cc6154ec565b5b905f5260205f2090600202015f8201815f0190816111eb9190615904565b50600182015f9054906101000a900460ff16816001015f6101000a81548160ff0219169083600c81111561122257611221615519565b5b02179055506001820160019054906101000a900473ffffffffffffffffffffffffffffffffffffffff168160010160016101000a81548173ffffffffffffffffffffffffffffffffffffffff021916908373ffffffffffffffffffffffffffffffffffffffff160217905550905050600c8054806112a3576112a26159e9565b5b600190038181905f5260205f2090600202015f8082015f6112c491906146cd565b600182015f6101000a81549060ff02191690556001820160016101000a81549073ffffffffffffffffffffffffffffffffffffffff021916905550509055505050611321565b808061131590615a16565b9150506110a8565b5050505b5050565b61132d612265565b6113378282612c24565b5050565b5f8061134683612ca6565b90505f73ffffffffffffffffffffffffffffffffffffffff168173ffffffffffffffffffffffffffffffffffffffff16036113b6576040517f08c379a00000000000000000000000000000000000000000000000000000000081526004016113ad90615aa7565b60405180910390fd5b80915050919050565b5f6113ca8383612cdf565b905092915050565b5f6113dd83836122e3565b905092915050565b60165f9054906101000a900473ffffffffffffffffffffffffffffffffffffffff1681565b5f8073ffffffffffffffffffffffffffffffffffffffff168273ffffffffffffffffffffffffffffffffffffffff1603611479576040517f08c379a000000000000000000000000000000000000000000000000000000000815260040161147090615b35565b60405180910390fd5b60035f8373ffffffffffffffffffffffffffffffffffffffff1673ffffffffffffffffffffffffffffffffffffffff1681526020019081526020015f20549050919050565b6114c6612265565b6114cf5f612e4c565b565b6114d9612265565b6114e35f82612c24565b50565b5f601160049054906101000a900461ffff16905090565b611505612265565b818160139182611516929190615b5d565b505050565b5f600b5f9054906101000a900473ffffffffffffffffffffffffffffffffffffffff16905090565b6060600180546115529061518e565b80601f016020809104026020016040519081016040528092919081815260200182805461157e9061518e565b80156115c95780601f106115a0576101008083540402835291602001916115c9565b820191905f5260205f20905b8154815290600101906020018083116115ac57829003601f168201915b5050505050905090565b6115db612265565b6115e48161274c565b611623576040517f08c379a000000000000000000000000000000000000000000000000000000000815260040161161a90615324565b60405180910390fd5b8060115f6101000a81548163ffffffff021916908360e01c021790555050565b61164b612f0f565b565b611655612265565b611663868686868686612f74565b505050505050565b61167d6116766121a8565b83836131a4565b5050565b61169261168c6121a8565b83612854565b6116d1576040517f08c379a00000000000000000000000000000000000000000000000000000000081526004016116c8906153b2565b60405180910390fd5b6116dd8484848461330b565b50505050565b6116eb612f0f565b565b6116f5612265565b818160129182611706929190615b5d565b505050565b611713612265565b5f839050818173ffffffffffffffffffffffffffffffffffffffff166370a08231306040518263ffffffff1660e01b81526004016117519190614930565b602060405180830381865afa15801561176c573d5f803e3d5ffd5b505050506040513d601f19601f820116820180604052508101906117909190615c3e565b10156117d1576040517f08c379a00000000000000000000000000000000000000000000000000000000081526004016117c890615cd9565b60405180910390fd5b8073ffffffffffffffffffffffffffffffffffffffff1663a9059cbb84846040518363ffffffff1660e01b815260040161180c929190615cf7565b6020604051808303815f875af1158015611828573d5f803e3d5ffd5b505050506040513d601f19601f8201168201806040525081019061184c9190615d32565b5050505050565b6060601380546118629061518e565b80601f016020809104026020016040519081016040528092919081815260200182805461188e9061518e565b80156118d95780601f106118b0576101008083540402835291602001916118d9565b820191905f5260205f20905b8154815290600101906020018083116118bc57829003601f168201915b5050505050905090565b60606118ee82613367565b9050919050565b6060601280546119049061518e565b80601f01602080910402602001604051908101604052809291908181526020018280546119309061518e565b801561197b5780601f106119525761010080835404028352916020019161197b565b820191905f5260205f20905b81548152906001019060200180831161195e57829003601f168201915b5050505050905090565b61198d612265565b5f7f000000000000000000000000000000000000000000000000000000000000000073ffffffffffffffffffffffffffffffffffffffff166367b88a7384846040518363ffffffff1660e01b81526004016119e9929190615d5d565b602060405180830381865afa158015611a04573d5f803e3d5ffd5b505050506040513d601f19601f82011682018060405250810190611a289190615d9f565b90505f73ffffffffffffffffffffffffffffffffffffffff168173ffffffffffffffffffffffffffffffffffffffff1603611a98576040517f08c379a0000000000000000000000000000000000000000000000000000000008152600401611a8f90615e14565b60405180910390fd5b5f82600c811115611aac57611aab615519565b5b90505f611ab98583612be0565b9050611ac58582613471565b15611b05576040517f08c379a0000000000000000000000000000000000000000000000000000000008152600401611afc90615e7c565b60405180910390fd5b5f7f000000000000000000000000000000000000000000000000000000000000000073ffffffffffffffffffffffffffffffffffffffff1663460363c78787336040518463ffffffff1660e01b8152600401611b6393929190615e9a565b6020604051808303815f875af1158015611b7f573d5f803e3d5ffd5b505050506040513d601f19601f82011682018060405250810190611ba39190615d9f565b90505f604051806060016040528088815260200185600c811115611bca57611bc9615519565b5b81526020018373ffffffffffffffffffffffffffffffffffffffff16815250905080600d5f8581526020019081526020015f205f820151815f019081611c1091906156da565b506020820151816001015f6101000a81548160ff0219169083600c811115611c3b57611c3a615519565b5b021790555060408201518160010160016101000a81548173ffffffffffffffffffffffffffffffffffffffff021916908373ffffffffffffffffffffffffffffffffffffffff160217905550905050600c81908060018154018082558091505060019003905f5260205f2090600202015f909190919091505f820151815f019081611cc691906156da565b506020820151816001015f6101000a81548160ff0219169083600c811115611cf157611cf0615519565b5b021790555060408201518160010160016101000a81548173ffffffffffffffffffffffffffffffffffffffff021916908373ffffffffffffffffffffffffffffffffffffffff16021790555050508173ffffffffffffffffffffffffffffffffffffffff167fe05fbd99b3bd14666521f429be65dff2635e36a2d6b23046c5754f9236ac4ce18888604051611d87929190615d5d565b60405180910390a250505050505050565b611da0612265565b5f8390503073ffffffffffffffffffffffffffffffffffffffff168173ffffffffffffffffffffffffffffffffffffffff16636352211e846040518263ffffffff1660e01b8152600401611df49190614acd565b602060405180830381865afa158015611e0f573d5f803e3d5ffd5b505050506040513d601f19601f82011682018060405250810190611e339190615d9f565b73ffffffffffffffffffffffffffffffffffffffff1614611e89576040517f08c379a0000000000000000000000000000000000000000000000000000000008152600401611e8090615f46565b60405180910390fd5b8073ffffffffffffffffffffffffffffffffffffffff166342842e0e3085856040518463ffffffff1660e01b8152600401611ec693929190615f64565b5f604051808303815f87803b158015611edd575f80fd5b505af1158015611eef573d5f803e3d5ffd5b5050505050505050565b5f60055f8473ffffffffffffffffffffffffffffffffffffffff1673ffffffffffffffffffffffffffffffffffffffff1681526020019081526020015f205f8373ffffffffffffffffffffffffffffffffffffffff1673ffffffffffffffffffffffffffffffffffffffff1681526020019081526020015f205f9054906101000a900460ff16905092915050565b5f80611fa58484600c811115611fa057611f9f615519565b5b612be0565b9050611fb18482613471565b91505092915050565b611fc2612265565b80471015612005576040517f08c379a0000000000000000000000000000000000000000000000000000000008152600401611ffc90616009565b60405180910390fd5b8173ffffffffffffffffffffffffffffffffffffffff166108fc8290811502906040515f60405180830381858888f19350505050158015612048573d5f803e3d5ffd5b505050565b612055612265565b5f73ffffffffffffffffffffffffffffffffffffffff168173ffffffffffffffffffffffffffffffffffffffff16036120c3576040517f08c379a00000000000000000000000000000000000000000000000000000000081526004016120ba90616097565b60405180910390fd5b6120cc81612e4c565b50565b5f60115f9054906101000a900460e01b905090565b5f7f780e9d63000000000000000000000000000000000000000000000000000000007bffffffffffffffffffffffffffffffffffffffffffffffffffffffff1916827bffffffffffffffffffffffffffffffffffffffffffffffffffffffff191614806121565750612155826134e0565b5b9050919050565b61216681613540565b6121a5576040517f08c379a000000000000000000000000000000000000000000000000000000000815260040161219c90615aa7565b60405180910390fd5b50565b5f33905090565b8160045f8381526020019081526020015f205f6101000a81548173ffffffffffffffffffffffffffffffffffffffff021916908373ffffffffffffffffffffffffffffffffffffffff160217905550808273ffffffffffffffffffffffffffffffffffffffff1661221f8361133b565b73ffffffffffffffffffffffffffffffffffffffff167f8c5be1e5ebec7d5bd14f71427d1e84f3dd0314c0f7b2291e5b200ac8c7c3b92560405160405180910390a45050565b61226d6121a8565b73ffffffffffffffffffffffffffffffffffffffff1661228b61151b565b73ffffffffffffffffffffffffffffffffffffffff16146122e1576040517f08c379a00000000000000000000000000000000000000000000000000000000081526004016122d8906160ff565b60405180910390fd5b565b5f600783839050101580156122fc5750600f8383905011155b61233b576040517f08c379a000000000000000000000000000000000000000000000000000000000815260040161233290616167565b60405180910390fd5b5f83838080601f0160208091040260200160405190810160405280939291908181526020018383808284375f81840152601f19601f8201169050808301925050505050505090505f80805f90505f5b8451811015612684577f30000000000000000000000000000000000000000000000000000000000000008582815181106123c7576123c66154ec565b5b602001015160f81c60f81b7effffffffffffffffffffffffffffffffffffffffffffffffffffffffffffff19161015801561246157507f3900000000000000000000000000000000000000000000000000000000000000858281518110612431576124306154ec565b5b602001015160f81c60f81b7effffffffffffffffffffffffffffffffffffffffffffffffffffffffffffff191611155b806124ca57507f2e0000000000000000000000000000000000000000000000000000000000000085828151811061249b5761249a6154ec565b5b602001015160f81c60f81b7effffffffffffffffffffffffffffffffffffffffffffffffffffffffffffff1916145b612509576040517f08c379a0000000000000000000000000000000000000000000000000000000008152600401612500906161cf565b60405180910390fd5b7f2e0000000000000000000000000000000000000000000000000000000000000085828151811061253d5761253c6154ec565b5b602001015160f81c60f81b7effffffffffffffffffffffffffffffffffffffffffffffffffffffffffffff19160361262a5760ff8260ff1611156125b6576040517f08c379a00000000000000000000000000000000000000000000000000000000081526004016125ad90616237565b60405180910390fd5b6008846125c39190616261565b60ff1660ff831660f81b7effffffffffffffffffffffffffffffffffffffffffffffffffffffffffffff19167bffffffffffffffffffffffffffffffffffffffffffffffffffffffff1916901c831792505f915083806126229061629d565b945050612671565b603085828151811061263f5761263e6154ec565b5b602001015160f81c60f81b60f81c600a8461265a9190616261565b61266491906162c5565b61266e91906162f9565b91505b808061267c90615a16565b91505061238a565b5060038360ff16146126cb576040517f08c379a00000000000000000000000000000000000000000000000000000000081526004016126c290616377565b60405180910390fd5b60ff8160ff161115612712576040517f08c379a000000000000000000000000000000000000000000000000000000000815260040161270990616237565b60405180910390fd5b60ff811660f81b7effffffffffffffffffffffffffffffffffffffffffffffffffffffffffffff1916821791508194505050505092915050565b5f8060e01b7bffffffffffffffffffffffffffffffffffffffffffffffffffffffff1916827bffffffffffffffffffffffffffffffffffffffffffffffffffffffff19160361279d575f905061284f565b5f825f600481106127b1576127b06154ec565b5b1a60f81b60f81c90505f836001600481106127cf576127ce6154ec565b5b1a60f81b60f81c9050600a8260ff16036127ed575f9250505061284f565b60ac8260ff16148015612814575060108160ff16101580156128135750601f8160ff1611155b5b15612823575f9250505061284f565b60c08260ff16148015612839575060a88160ff16145b15612848575f9250505061284f565b6001925050505b919050565b5f8061285f8361133b565b90508073ffffffffffffffffffffffffffffffffffffffff168473ffffffffffffffffffffffffffffffffffffffff1614806128a157506128a08185611ef9565b5b806128df57508373ffffffffffffffffffffffffffffffffffffffff166128c784610b83565b73ffffffffffffffffffffffffffffffffffffffff16145b91505092915050565b8273ffffffffffffffffffffffffffffffffffffffff166129088261133b565b73ffffffffffffffffffffffffffffffffffffffff161461295e576040517f08c379a000000000000000000000000000000000000000000000000000000000815260040161295590616405565b60405180910390fd5b5f73ffffffffffffffffffffffffffffffffffffffff168273ffffffffffffffffffffffffffffffffffffffff16036129cc576040517f08c379a00000000000000000000000000000000000000000000000000000000081526004016129c390616493565b60405180910390fd5b6129d98383836001613580565b8273ffffffffffffffffffffffffffffffffffffffff166129f98261133b565b73ffffffffffffffffffffffffffffffffffffffff1614612a4f576040517f08c379a0000000000000000000000000000000000000000000000000000000008152600401612a4690616405565b60405180910390fd5b60045f8281526020019081526020015f205f6101000a81549073ffffffffffffffffffffffffffffffffffffffff0219169055600160035f8573ffffffffffffffffffffffffffffffffffffffff1673ffffffffffffffffffffffffffffffffffffffff1681526020019081526020015f205f8282540392505081905550600160035f8473ffffffffffffffffffffffffffffffffffffffff1673ffffffffffffffffffffffffffffffffffffffff1681526020019081526020015f205f82825401925050819055508160025f8381526020019081526020015f205f6101000a81548173ffffffffffffffffffffffffffffffffffffffff021916908373ffffffffffffffffffffffffffffffffffffffff160217905550808273ffffffffffffffffffffffffffffffffffffffff168473ffffffffffffffffffffffffffffffffffffffff167fddf252ad1be2c89b69c2b068fc378daa952ba7f163c4a11628f55a4df523b3ef60405160405180910390a4612bcf8383836001613592565b505050565b612bdd81613598565b50565b5f8282600c811115612bf557612bf4615519565b5b604051602001612c069291906164d1565b60405160208183030381529060405280519060200120905092915050565b60405180604001604052808373ffffffffffffffffffffffffffffffffffffffff16815260200182815250600e5f820151815f015f6101000a81548173ffffffffffffffffffffffffffffffffffffffff021916908373ffffffffffffffffffffffffffffffffffffffff160217905550602082015181600101559050505050565b5f60025f8381526020019081526020015f205f9054906101000a900473ffffffffffffffffffffffffffffffffffffffff169050919050565b5f80612cfd8484600c811115612cf857612cf7615519565b5b612be0565b90505f600d5f8381526020019081526020015f206040518060600160405290815f82018054612d2b9061518e565b80601f0160208091040260200160405190810160405280929190818152602001828054612d579061518e565b8015612da25780601f10612d7957610100808354040283529160200191612da2565b820191905f5260205f20905b815481529060010190602001808311612d8557829003601f168201915b50505050508152602001600182015f9054906101000a900460ff16600c811115612dcf57612dce615519565b5b600c811115612de157612de0615519565b5b81526020016001820160019054906101000a900473ffffffffffffffffffffffffffffffffffffffff1673ffffffffffffffffffffffffffffffffffffffff1673ffffffffffffffffffffffffffffffffffffffff1681525050905080604001519250505092915050565b5f600b5f9054906101000a900473ffffffffffffffffffffffffffffffffffffffff16905081600b5f6101000a81548173ffffffffffffffffffffffffffffffffffffffff021916908373ffffffffffffffffffffffffffffffffffffffff1602179055508173ffffffffffffffffffffffffffffffffffffffff168173ffffffffffffffffffffffffffffffffffffffff167f8be0079c531659141344cd1fd0a4f28419497f9722a3daafe3b4186f6b6457e060405160405180910390a35050565b5f612f18610cef565b11612f58576040517f08c379a0000000000000000000000000000000000000000000000000000000008152600401612f4f90616568565b60405180910390fd5b612f606135e5565b612f7233612f6d5f6118e3565b6138d0565b565b612f7d8661274c565b158015612f8d57505f8561ffff16145b8015612fe45750604051602001612fa3906165a9565b604051602081830303815290604052805190602001208484604051602001612fcc9291906165e1565b60405160208183030381529060405280519060200120145b801561303b5750604051602001612ffa906165a9565b6040516020818303038152906040528051906020012082826040516020016130239291906165e1565b60405160208183030381529060405280519060200120145b1561307b576040517f08c379a000000000000000000000000000000000000000000000000000000000815260040161307290616669565b60405180910390fd5b6130848661274c565b156130a7578560115f6101000a81548163ffffffff021916908360e01c02179055505b5f8561ffff16146130d05784601160046101000a81548161ffff021916908361ffff1602179055505b6040516020016130df906165a9565b6040516020818303038152906040528051906020012084846040516020016131089291906165e1565b604051602081830303815290604052805190602001201461313657838360129182613134929190615b5d565b505b604051602001613145906165a9565b60405160208183030381529060405280519060200120828260405160200161316e9291906165e1565b604051602081830303815290604052805190602001201461319c5781816013918261319a929190615b5d565b505b505050505050565b8173ffffffffffffffffffffffffffffffffffffffff168373ffffffffffffffffffffffffffffffffffffffff1603613212576040517f08c379a0000000000000000000000000000000000000000000000000000000008152600401613209906166d1565b60405180910390fd5b8060055f8573ffffffffffffffffffffffffffffffffffffffff1673ffffffffffffffffffffffffffffffffffffffff1681526020019081526020015f205f8473ffffffffffffffffffffffffffffffffffffffff1673ffffffffffffffffffffffffffffffffffffffff1681526020019081526020015f205f6101000a81548160ff0219169083151502179055508173ffffffffffffffffffffffffffffffffffffffff168373ffffffffffffffffffffffffffffffffffffffff167f17307eab39ab6107e8899845ad3d59bd9653f200f220920489ca2b5937696c31836040516132fe91906147d0565b60405180910390a3505050565b6133168484846128e8565b61332284848484613900565b613361576040517f08c379a00000000000000000000000000000000000000000000000000000000081526004016133589061675f565b60405180910390fd5b50505050565b60606133728261215d565b5f60065f8481526020019081526020015f20805461338f9061518e565b80601f01602080910402602001604051908101604052809291908181526020018280546133bb9061518e565b80156134065780601f106133dd57610100808354040283529160200191613406565b820191905f5260205f20905b8154815290600101906020018083116133e957829003601f168201915b505050505090505f613416613a82565b90505f81510361342a57819250505061346c565b5f8251111561345e57808260405160200161344692919061677d565b6040516020818303038152906040529250505061346c565b61346784613a98565b925050505b919050565b5f808360405160200161348491906157e3565b60405160208183030381529060405280519060200120600d5f8581526020019081526020015f205f016040516020016134bd9190615879565b604051602081830303815290604052805190602001201490508091505092915050565b5f634906490660e01b7bffffffffffffffffffffffffffffffffffffffffffffffffffffffff1916827bffffffffffffffffffffffffffffffffffffffffffffffffffffffff19161480613539575061353882613afd565b5b9050919050565b5f8073ffffffffffffffffffffffffffffffffffffffff1661356183612ca6565b73ffffffffffffffffffffffffffffffffffffffff1614159050919050565b61358c84848484613bde565b50505050565b50505050565b6135a181613d39565b5f60065f8381526020019081526020015f2080546135be9061518e565b9050146135e25760065f8281526020019081526020015f205f6135e191906146cd565b5b50565b5f600e6001015490505f600e5f015f9054906101000a900473ffffffffffffffffffffffffffffffffffffffff1690505f73ffffffffffffffffffffffffffffffffffffffff168173ffffffffffffffffffffffffffffffffffffffff160361368f5781341461368a576040517f08c379a000000000000000000000000000000000000000000000000000000000815260040161368190616810565b60405180910390fd5b613889565b5f819050828173ffffffffffffffffffffffffffffffffffffffff166370a08231336040518263ffffffff1660e01b81526004016136cd9190614930565b602060405180830381865afa1580156136e8573d5f803e3d5ffd5b505050506040513d601f19601f8201168201806040525081019061370c9190615c3e565b101561374d576040517f08c379a00000000000000000000000000000000000000000000000000000000081526004016137449061689e565b60405180910390fd5b828173ffffffffffffffffffffffffffffffffffffffff1663dd62ed3e33306040518363ffffffff1660e01b81526004016137899291906168bc565b602060405180830381865afa1580156137a4573d5f803e3d5ffd5b505050506040513d601f19601f820116820180604052508101906137c89190615c3e565b1015613809576040517f08c379a000000000000000000000000000000000000000000000000000000000815260040161380090616979565b60405180910390fd5b8073ffffffffffffffffffffffffffffffffffffffff166323b872dd3330866040518463ffffffff1660e01b815260040161384693929190615f64565b6020604051808303815f875af1158015613862573d5f803e3d5ffd5b505050506040513d601f19601f820116820180604052508101906138869190615d32565b50505b3373ffffffffffffffffffffffffffffffffffffffff167ff403523e17bf2d1fe8af1a00ba36bc463a7d846dbadf11d117400f7694ba3e6c60405160405180910390a25050565b5f6138db6010613e7a565b90506138e76010613e86565b6138f18382613e9a565b6138fb81836140ad565b505050565b5f6139208473ffffffffffffffffffffffffffffffffffffffff1661414f565b15613a75578373ffffffffffffffffffffffffffffffffffffffff1663150b7a026139496121a8565b8786866040518563ffffffff1660e01b815260040161396b94939291906169e9565b6020604051808303815f875af19250505080156139a657506040513d601f19601f820116820180604052508101906139a39190616a47565b60015b613a25573d805f81146139d4576040519150601f19603f3d011682016040523d82523d5f602084013e6139d9565b606091505b505f815103613a1d576040517f08c379a0000000000000000000000000000000000000000000000000000000008152600401613a149061675f565b60405180910390fd5b805181602001fd5b63150b7a0260e01b7bffffffffffffffffffffffffffffffffffffffffffffffffffffffff1916817bffffffffffffffffffffffffffffffffffffffffffffffffffffffff191614915050613a7a565b600190505b949350505050565b606060405180602001604052805f815250905090565b6060613aa38261215d565b5f613aac613a82565b90505f815111613aca5760405180602001604052805f815250613af5565b80613ad484614171565b604051602001613ae592919061677d565b6040516020818303038152906040525b915050919050565b5f7f80ac58cd000000000000000000000000000000000000000000000000000000007bffffffffffffffffffffffffffffffffffffffffffffffffffffffff1916827bffffffffffffffffffffffffffffffffffffffffffffffffffffffff19161480613bc757507f5b5e139f000000000000000000000000000000000000000000000000000000007bffffffffffffffffffffffffffffffffffffffffffffffffffffffff1916827bffffffffffffffffffffffffffffffffffffffffffffffffffffffff1916145b80613bd75750613bd68261423b565b5b9050919050565b613bea848484846142a4565b6001811115613c2e576040517f08c379a0000000000000000000000000000000000000000000000000000000008152600401613c2590616ae2565b60405180910390fd5b5f8290505f73ffffffffffffffffffffffffffffffffffffffff168573ffffffffffffffffffffffffffffffffffffffff1603613c7357613c6e816142aa565b613cb2565b8373ffffffffffffffffffffffffffffffffffffffff168573ffffffffffffffffffffffffffffffffffffffff1614613cb157613cb085826142ee565b5b5b5f73ffffffffffffffffffffffffffffffffffffffff168473ffffffffffffffffffffffffffffffffffffffff1603613cf357613cee81614444565b613d32565b8473ffffffffffffffffffffffffffffffffffffffff168473ffffffffffffffffffffffffffffffffffffffff1614613d3157613d308482614504565b5b5b5050505050565b5f613d438261133b565b9050613d52815f846001613580565b613d5b8261133b565b905060045f8381526020019081526020015f205f6101000a81549073ffffffffffffffffffffffffffffffffffffffff0219169055600160035f8373ffffffffffffffffffffffffffffffffffffffff1673ffffffffffffffffffffffffffffffffffffffff1681526020019081526020015f205f828254039250508190555060025f8381526020019081526020015f205f6101000a81549073ffffffffffffffffffffffffffffffffffffffff0219169055815f73ffffffffffffffffffffffffffffffffffffffff168273ffffffffffffffffffffffffffffffffffffffff167fddf252ad1be2c89b69c2b068fc378daa952ba7f163c4a11628f55a4df523b3ef60405160405180910390a4613e76815f846001613592565b5050565b5f815f01549050919050565b6001815f015f828254019250508190555050565b5f73ffffffffffffffffffffffffffffffffffffffff168273ffffffffffffffffffffffffffffffffffffffff1603613f08576040517f08c379a0000000000000000000000000000000000000000000000000000000008152600401613eff90616b4a565b60405180910390fd5b613f1181613540565b15613f51576040517f08c379a0000000000000000000000000000000000000000000000000000000008152600401613f4890616bb2565b60405180910390fd5b613f5e5f83836001613580565b613f6781613540565b15613fa7576040517f08c379a0000000000000000000000000000000000000000000000000000000008152600401613f9e90616bb2565b60405180910390fd5b600160035f8473ffffffffffffffffffffffffffffffffffffffff1673ffffffffffffffffffffffffffffffffffffffff1681526020019081526020015f205f82825401925050819055508160025f8381526020019081526020015f205f6101000a81548173ffffffffffffffffffffffffffffffffffffffff021916908373ffffffffffffffffffffffffffffffffffffffff160217905550808273ffffffffffffffffffffffffffffffffffffffff165f73ffffffffffffffffffffffffffffffffffffffff167fddf252ad1be2c89b69c2b068fc378daa952ba7f163c4a11628f55a4df523b3ef60405160405180910390a46140a95f83836001613592565b5050565b6140b682613540565b6140f5576040517f08c379a00000000000000000000000000000000000000000000000000000000081526004016140ec90616c40565b60405180910390fd5b8060065f8481526020019081526020015f20908161411391906156da565b507ff8e1a15aba9398e019f0b49df1a4fde98ee17ae345cb5f6b5e2c27f5033e8ce7826040516141439190614acd565b60405180910390a15050565b5f808273ffffffffffffffffffffffffffffffffffffffff163b119050919050565b60605f600161417f8461457c565b0190505f8167ffffffffffffffff81111561419d5761419c614c3c565b5b6040519080825280601f01601f1916602001820160405280156141cf5781602001600182028036833780820191505090505b5090505f82602001820190505b600115614230578080600190039150507f3031323334353637383961626364656600000000000000000000000000000000600a86061a8153600a858161422557614224616c5e565b5b0494505f85036141dc575b819350505050919050565b5f7f01ffc9a7000000000000000000000000000000000000000000000000000000007bffffffffffffffffffffffffffffffffffffffffffffffffffffffff1916827bffffffffffffffffffffffffffffffffffffffffffffffffffffffff1916149050919050565b50505050565b600980549050600a5f8381526020019081526020015f2081905550600981908060018154018082558091505060019003905f5260205f20015f909190919091505550565b5f60016142fa8461140a565b61430491906158bc565b90505f60085f8481526020019081526020015f205490508181146143db575f60075f8673ffffffffffffffffffffffffffffffffffffffff1673ffffffffffffffffffffffffffffffffffffffff1681526020019081526020015f205f8481526020019081526020015f205490508060075f8773ffffffffffffffffffffffffffffffffffffffff1673ffffffffffffffffffffffffffffffffffffffff1681526020019081526020015f205f8481526020019081526020015f20819055508160085f8381526020019081526020015f2081905550505b60085f8481526020019081526020015f205f905560075f8573ffffffffffffffffffffffffffffffffffffffff1673ffffffffffffffffffffffffffffffffffffffff1681526020019081526020015f205f8381526020019081526020015f205f905550505050565b5f600160098054905061445791906158bc565b90505f600a5f8481526020019081526020015f205490505f60098381548110614483576144826154ec565b5b905f5260205f200154905080600983815481106144a3576144a26154ec565b5b905f5260205f20018190555081600a5f8381526020019081526020015f2081905550600a5f8581526020019081526020015f205f905560098054806144eb576144ea6159e9565b5b600190038181905f5260205f20015f9055905550505050565b5f61450e8361140a565b90508160075f8573ffffffffffffffffffffffffffffffffffffffff1673ffffffffffffffffffffffffffffffffffffffff1681526020019081526020015f205f8381526020019081526020015f20819055508060085f8481526020019081526020015f2081905550505050565b5f805f90507a184f03e93ff9f4daa797ed6e38ed64bf6a1f01000000000000000083106145d8577a184f03e93ff9f4daa797ed6e38ed64bf6a1f01000000000000000083816145ce576145cd616c5e565b5b0492506040810190505b6d04ee2d6d415b85acef81000000008310614615576d04ee2d6d415b85acef8100000000838161460b5761460a616c5e565b5b0492506020810190505b662386f26fc10000831061464457662386f26fc10000838161463a57614639616c5e565b5b0492506010810190505b6305f5e100831061466d576305f5e100838161466357614662616c5e565b5b0492506008810190505b612710831061469257612710838161468857614687616c5e565b5b0492506004810190505b606483106146b557606483816146ab576146aa616c5e565b5b0492506002810190505b600a83106146c4576001810190505b80915050919050565b5080546146d99061518e565b5f825580601f106146ea5750614707565b601f0160209004905f5260205f2090810190614706919061470a565b5b50565b5b80821115614721575f815f90555060010161470b565b5090565b5f604051905090565b5f80fd5b5f80fd5b5f7fffffffff0000000000000000000000000000000000000000000000000000000082169050919050565b61476a81614736565b8114614774575f80fd5b50565b5f8135905061478581614761565b92915050565b5f602082840312156147a05761479f61472e565b5b5f6147ad84828501614777565b91505092915050565b5f8115159050919050565b6147ca816147b6565b82525050565b5f6020820190506147e35f8301846147c1565b92915050565b5f81519050919050565b5f82825260208201905092915050565b5f5b83811015614820578082015181840152602081019050614805565b5f8484015250505050565b5f601f19601f8301169050919050565b5f614845826147e9565b61484f81856147f3565b935061485f818560208601614803565b6148688161482b565b840191505092915050565b5f6020820190508181035f83015261488b818461483b565b905092915050565b5f819050919050565b6148a581614893565b81146148af575f80fd5b50565b5f813590506148c08161489c565b92915050565b5f602082840312156148db576148da61472e565b5b5f6148e8848285016148b2565b91505092915050565b5f73ffffffffffffffffffffffffffffffffffffffff82169050919050565b5f61491a826148f1565b9050919050565b61492a81614910565b82525050565b5f6020820190506149435f830184614921565b92915050565b61495281614910565b811461495c575f80fd5b50565b5f8135905061496d81614949565b92915050565b5f80604083850312156149895761498861472e565b5b5f6149968582860161495f565b92505060206149a7858286016148b2565b9150509250929050565b5f80fd5b5f80fd5b5f80fd5b5f8083601f8401126149d2576149d16149b1565b5b8235905067ffffffffffffffff8111156149ef576149ee6149b5565b5b602083019150836001820283011115614a0b57614a0a6149b9565b5b9250929050565b5f805f805f60808688031215614a2b57614a2a61472e565b5b5f614a388882890161495f565b9550506020614a498882890161495f565b9450506040614a5a888289016148b2565b935050606086013567ffffffffffffffff811115614a7b57614a7a614732565b5b614a87888289016149bd565b92509250509295509295909350565b614a9f81614736565b82525050565b5f602082019050614ab85f830184614a96565b92915050565b614ac781614893565b82525050565b5f602082019050614ae05f830184614abe565b92915050565b5f8083601f840112614afb57614afa6149b1565b5b8235905067ffffffffffffffff811115614b1857614b176149b5565b5b602083019150836001820283011115614b3457614b336149b9565b5b9250929050565b5f8060208385031215614b5157614b5061472e565b5b5f83013567ffffffffffffffff811115614b6e57614b6d614732565b5b614b7a85828601614ae6565b92509250509250929050565b5f805f60608486031215614b9d57614b9c61472e565b5b5f614baa8682870161495f565b9350506020614bbb8682870161495f565b9250506040614bcc868287016148b2565b9150509250925092565b5f61ffff82169050919050565b614bec81614bd6565b8114614bf6575f80fd5b50565b5f81359050614c0781614be3565b92915050565b5f60208284031215614c2257614c2161472e565b5b5f614c2f84828501614bf9565b91505092915050565b5f80fd5b7f4e487b71000000000000000000000000000000000000000000000000000000005f52604160045260245ffd5b614c728261482b565b810181811067ffffffffffffffff82111715614c9157614c90614c3c565b5b80604052505050565b5f614ca3614725565b9050614caf8282614c69565b919050565b5f67ffffffffffffffff821115614cce57614ccd614c3c565b5b614cd78261482b565b9050602081019050919050565b828183375f83830152505050565b5f614d04614cff84614cb4565b614c9a565b905082815260208101848484011115614d2057614d1f614c38565b5b614d2b848285614ce4565b509392505050565b5f82601f830112614d4757614d466149b1565b5b8135614d57848260208601614cf2565b91505092915050565b5f8060408385031215614d7657614d7561472e565b5b5f83013567ffffffffffffffff811115614d9357614d92614732565b5b614d9f85828601614d33565b9250506020614db0858286016148b2565b9150509250929050565b5f819050919050565b5f614ddd614dd8614dd3846148f1565b614dba565b6148f1565b9050919050565b5f614dee82614dc3565b9050919050565b5f614dff82614de4565b9050919050565b614e0f81614df5565b82525050565b5f602082019050614e285f830184614e06565b92915050565b5f60208284031215614e4357614e4261472e565b5b5f614e508482850161495f565b91505092915050565b614e6281614bd6565b82525050565b5f602082019050614e7b5f830184614e59565b92915050565b5f805f805f8060808789031215614e9b57614e9a61472e565b5b5f614ea889828a01614777565b9650506020614eb989828a01614bf9565b955050604087013567ffffffffffffffff811115614eda57614ed9614732565b5b614ee689828a01614ae6565b9450945050606087013567ffffffffffffffff811115614f0957614f08614732565b5b614f1589828a01614ae6565b92509250509295509295509295565b614f2d816147b6565b8114614f37575f80fd5b50565b5f81359050614f4881614f24565b92915050565b5f8060408385031215614f6457614f6361472e565b5b5f614f718582860161495f565b9250506020614f8285828601614f3a565b9150509250929050565b5f67ffffffffffffffff821115614fa657614fa5614c3c565b5b614faf8261482b565b9050602081019050919050565b5f614fce614fc984614f8c565b614c9a565b905082815260208101848484011115614fea57614fe9614c38565b5b614ff5848285614ce4565b509392505050565b5f82601f830112615011576150106149b1565b5b8135615021848260208601614fbc565b91505092915050565b5f805f80608085870312156150425761504161472e565b5b5f61504f8782880161495f565b94505060206150608782880161495f565b9350506040615071878288016148b2565b925050606085013567ffffffffffffffff81111561509257615091614732565b5b61509e87828801614ffd565b91505092959194509250565b5f80604083850312156150c0576150bf61472e565b5b5f6150cd8582860161495f565b92505060206150de8582860161495f565b9150509250929050565b5f6150f2826148f1565b9050919050565b615102816150e8565b811461510c575f80fd5b50565b5f8135905061511d816150f9565b92915050565b5f80604083850312156151395761513861472e565b5b5f6151468582860161510f565b9250506020615157858286016148b2565b9150509250929050565b7f4e487b71000000000000000000000000000000000000000000000000000000005f52602260045260245ffd5b5f60028204905060018216806151a557607f821691505b6020821081036151b8576151b7615161565b5b50919050565b7f4552433732313a20617070726f76616c20746f2063757272656e74206f776e655f8201527f7200000000000000000000000000000000000000000000000000000000000000602082015250565b5f6152186021836147f3565b9150615223826151be565b604082019050919050565b5f6020820190508181035f8301526152458161520c565b9050919050565b7f4552433732313a20617070726f76652063616c6c6572206973206e6f7420746f5f8201527f6b656e206f776e6572206f7220617070726f76656420666f7220616c6c000000602082015250565b5f6152a6603d836147f3565b91506152b18261524c565b604082019050919050565b5f6020820190508181035f8301526152d38161529a565b9050919050565b7f496e76616c6964204950206164647265737300000000000000000000000000005f82015250565b5f61530e6012836147f3565b9150615319826152da565b602082019050919050565b5f6020820190508181035f83015261533b81615302565b9050919050565b7f4552433732313a2063616c6c6572206973206e6f7420746f6b656e206f776e655f8201527f72206f7220617070726f76656400000000000000000000000000000000000000602082015250565b5f61539c602d836147f3565b91506153a782615342565b604082019050919050565b5f6020820190508181035f8301526153c981615390565b9050919050565b7f455243373231456e756d657261626c653a206f776e657220696e646578206f755f8201527f74206f6620626f756e6473000000000000000000000000000000000000000000602082015250565b5f61542a602b836147f3565b9150615435826153d0565b604082019050919050565b5f6020820190508181035f8301526154578161541e565b9050919050565b7f455243373231456e756d657261626c653a20676c6f62616c20696e646578206f5f8201527f7574206f6620626f756e64730000000000000000000000000000000000000000602082015250565b5f6154b8602c836147f3565b91506154c38261545e565b604082019050919050565b5f6020820190508181035f8301526154e5816154ac565b9050919050565b7f4e487b71000000000000000000000000000000000000000000000000000000005f52603260045260245ffd5b7f4e487b71000000000000000000000000000000000000000000000000000000005f52602160045260245ffd5b5f819050815f5260205f209050919050565b5f6020601f8301049050919050565b5f82821b905092915050565b5f600883026155a27fffffffffffffffffffffffffffffffffffffffffffffffffffffffffffffffff82615567565b6155ac8683615567565b95508019841693508086168417925050509392505050565b5f6155de6155d96155d484614893565b614dba565b614893565b9050919050565b5f819050919050565b6155f7836155c4565b61560b615603826155e5565b848454615573565b825550505050565b5f90565b61561f615613565b61562a8184846155ee565b505050565b5b8181101561564d576156425f82615617565b600181019050615630565b5050565b601f8211156156925761566381615546565b61566c84615558565b8101602085101561567b578190505b61568f61568785615558565b83018261562f565b50505b505050565b5f82821c905092915050565b5f6156b25f1984600802615697565b1980831691505092915050565b5f6156ca83836156a3565b9150826002028217905092915050565b6156e3826147e9565b67ffffffffffffffff8111156156fc576156fb614c3c565b5b615706825461518e565b615711828285615651565b5f60209050601f831160018114615742575f8415615730578287015190505b61573a85826156bf565b8655506157a1565b601f19841661575086615546565b5f5b8281101561577757848901518255600182019150602085019450602081019050615752565b868310156157945784890151615790601f8916826156a3565b8355505b6001600288020188555050505b505050505050565b5f81905092915050565b5f6157bd826147e9565b6157c781856157a9565b93506157d7818560208601614803565b80840191505092915050565b5f6157ee82846157b3565b915081905092915050565b5f81546158058161518e565b61580f81866157a9565b9450600182165f8114615829576001811461583e57615870565b60ff1983168652811515820286019350615870565b61584785615546565b5f5b8381101561586857815481890152600182019150602081019050615849565b838801955050505b50505092915050565b5f61588482846157f9565b915081905092915050565b7f4e487b71000000000000000000000000000000000000000000000000000000005f52601160045260245ffd5b5f6158c682614893565b91506158d183614893565b92508282039050818111156158e9576158e861588f565b5b92915050565b5f815490506158fd8161518e565b9050919050565b8181036159125750506159e7565b61591b826158ef565b67ffffffffffffffff81111561593457615933614c3c565b5b61593e825461518e565b615949828285615651565b5f601f831160018114615976575f8415615964578287015490505b61596e85826156bf565b8655506159e0565b601f19841661598487615546565b965061598f86615546565b5f5b828110156159b657848901548255600182019150600185019450602081019050615991565b868310156159d357848901546159cf601f8916826156a3565b8355505b6001600288020188555050505b5050505050505b565b7f4e487b71000000000000000000000000000000000000000000000000000000005f52603160045260245ffd5b5f615a2082614893565b91507fffffffffffffffffffffffffffffffffffffffffffffffffffffffffffffffff8203615a5257615a5161588f565b5b600182019050919050565b7f4552433732313a20696e76616c696420746f6b656e20494400000000000000005f82015250565b5f615a916018836147f3565b9150615a9c82615a5d565b602082019050919050565b5f6020820190508181035f830152615abe81615a85565b9050919050565b7f4552433732313a2061646472657373207a65726f206973206e6f7420612076615f8201527f6c6964206f776e65720000000000000000000000000000000000000000000000602082015250565b5f615b1f6029836147f3565b9150615b2a82615ac5565b604082019050919050565b5f6020820190508181035f830152615b4c81615b13565b9050919050565b5f82905092915050565b615b678383615b53565b67ffffffffffffffff811115615b8057615b7f614c3c565b5b615b8a825461518e565b615b95828285615651565b5f601f831160018114615bc2575f8415615bb0578287013590505b615bba85826156bf565b865550615c21565b601f198416615bd086615546565b5f5b82811015615bf757848901358255600182019150602085019450602081019050615bd2565b86831015615c145784890135615c10601f8916826156a3565b8355505b6001600288020188555050505b50505050505050565b5f81519050615c388161489c565b92915050565b5f60208284031215615c5357615c5261472e565b5b5f615c6084828501615c2a565b91505092915050565b7f4e6f7420656e6f75676820746f6b656e73206f6e20636f6e74726163742062615f8201527f6c616e6365000000000000000000000000000000000000000000000000000000602082015250565b5f615cc36025836147f3565b9150615cce82615c69565b604082019050919050565b5f6020820190508181035f830152615cf081615cb7565b9050919050565b5f604082019050615d0a5f830185614921565b615d176020830184614abe565b9392505050565b5f81519050615d2c81614f24565b92915050565b5f60208284031215615d4757615d4661472e565b5b5f615d5484828501615d1e565b91505092915050565b5f6040820190508181035f830152615d75818561483b565b9050615d846020830184614abe565b9392505050565b5f81519050615d9981614949565b92915050565b5f60208284031215615db457615db361472e565b5b5f615dc184828501615d8b565b91505092915050565b7f496e76616c6964206d6f64756c652061646472657373000000000000000000005f82015250565b5f615dfe6016836147f3565b9150615e0982615dca565b602082019050919050565b5f6020820190508181035f830152615e2b81615df2565b9050919050565b7f4d6f64756c6520616c726561647920696e7374616c6c656400000000000000005f82015250565b5f615e666018836147f3565b9150615e7182615e32565b602082019050919050565b5f6020820190508181035f830152615e9381615e5a565b9050919050565b5f6060820190508181035f830152615eb2818661483b565b9050615ec16020830185614abe565b615ece6040830184614921565b949350505050565b7f54686520636f6e7472616374206973206e6f7420746865206f776e6572206f665f8201527f207468697320746f6b656e000000000000000000000000000000000000000000602082015250565b5f615f30602b836147f3565b9150615f3b82615ed6565b604082019050919050565b5f6020820190508181035f830152615f5d81615f24565b9050919050565b5f606082019050615f775f830186614921565b615f846020830185614921565b615f916040830184614abe565b949350505050565b7f436f6e74726163742068617320696e73756666696369656e742062616c616e635f8201527f6500000000000000000000000000000000000000000000000000000000000000602082015250565b5f615ff36021836147f3565b9150615ffe82615f99565b604082019050919050565b5f6020820190508181035f83015261602081615fe7565b9050919050565b7f4f776e61626c653a206e6577206f776e657220697320746865207a65726f20615f8201527f6464726573730000000000000000000000000000000000000000000000000000602082015250565b5f6160816026836147f3565b915061608c82616027565b604082019050919050565b5f6020820190508181035f8301526160ae81616075565b9050919050565b7f4f776e61626c653a2063616c6c6572206973206e6f7420746865206f776e65725f82015250565b5f6160e96020836147f3565b91506160f4826160b5565b602082019050919050565b5f6020820190508181035f830152616116816160dd565b9050919050565b7f496e76616c696420495020737472696e67206c656e67746800000000000000005f82015250565b5f6161516018836147f3565b915061615c8261611d565b602082019050919050565b5f6020820190508181035f83015261617e81616145565b9050919050565b7f496e76616c6964204950206368617261637465720000000000000000000000005f82015250565b5f6161b96014836147f3565b91506161c482616185565b602082019050919050565b5f6020820190508181035f8301526161e6816161ad565b9050919050565b7f496e76616c6964204950206f637465742076616c7565000000000000000000005f82015250565b5f6162216016836147f3565b915061622c826161ed565b602082019050919050565b5f6020820190508181035f83015261624e81616215565b9050919050565b5f60ff82169050919050565b5f61626b82616255565b915061627683616255565b925082820261628481616255565b91508082146162965761629561588f565b5b5092915050565b5f6162a782616255565b915060ff82036162ba576162b961588f565b5b600182019050919050565b5f6162cf82616255565b91506162da83616255565b9250828201905060ff8111156162f3576162f261588f565b5b92915050565b5f61630382616255565b915061630e83616255565b9250828203905060ff8111156163275761632661588f565b5b92915050565b7f49502073686f756c6420686176652065786163746c79203320646f74730000005f82015250565b5f616361601d836147f3565b915061636c8261632d565b602082019050919050565b5f6020820190508181035f83015261638e81616355565b9050919050565b7f4552433732313a207472616e736665722066726f6d20696e636f7272656374205f8201527f6f776e6572000000000000000000000000000000000000000000000000000000602082015250565b5f6163ef6025836147f3565b91506163fa82616395565b604082019050919050565b5f6020820190508181035f83015261641c816163e3565b9050919050565b7f4552433732313a207472616e7366657220746f20746865207a65726f206164645f8201527f7265737300000000000000000000000000000000000000000000000000000000602082015250565b5f61647d6024836147f3565b915061648882616423565b604082019050919050565b5f6020820190508181035f8301526164aa81616471565b9050919050565b5f819050919050565b6164cb6164c682614893565b6164b1565b82525050565b5f6164dc82856157b3565b91506164e882846164ba565b6020820191508190509392505050565b7f546f6b656e207769746820494420302068617320616c7265616479206265656e5f8201527f206d696e74656400000000000000000000000000000000000000000000000000602082015250565b5f6165526027836147f3565b915061655d826164f8565b604082019050919050565b5f6020820190508181035f83015261657f81616546565b9050919050565b50565b5f6165945f836157a9565b915061659f82616586565b5f82019050919050565b5f6165b382616589565b9150819050919050565b5f6165c883856157a9565b93506165d5838584614ce4565b82840190509392505050565b5f6165ed8284866165bd565b91508190509392505050565b7f416c6c20706172616d65746572732063616e6e6f74206265207a65726f206f725f8201527f20656d7074790000000000000000000000000000000000000000000000000000602082015250565b5f6166536026836147f3565b915061665e826165f9565b604082019050919050565b5f6020820190508181035f83015261668081616647565b9050919050565b7f4552433732313a20617070726f766520746f2063616c6c6572000000000000005f82015250565b5f6166bb6019836147f3565b91506166c682616687565b602082019050919050565b5f6020820190508181035f8301526166e8816166af565b9050919050565b7f4552433732313a207472616e7366657220746f206e6f6e2045524337323152655f8201527f63656976657220696d706c656d656e7465720000000000000000000000000000602082015250565b5f6167496032836147f3565b9150616754826166ef565b604082019050919050565b5f6020820190508181035f8301526167768161673d565b9050919050565b5f61678882856157b3565b915061679482846157b3565b91508190509392505050565b7f54686520616d6f756e74206f662065746865722073656e7420646f6573206e6f5f8201527f74206d617463682074686520726571756972656420616d6f756e742e00000000602082015250565b5f6167fa603c836147f3565b9150616805826167a0565b604082019050919050565b5f6020820190508181035f830152616827816167ee565b9050919050565b7f596f757220746f6b656e2062616c616e6365206973206e6f7420656e6f7567685f8201527f2e00000000000000000000000000000000000000000000000000000000000000602082015250565b5f6168886021836147f3565b91506168938261682e565b604082019050919050565b5f6020820190508181035f8301526168b58161687c565b9050919050565b5f6040820190506168cf5f830185614921565b6168dc6020830184614921565b9392505050565b7f54686520636f6e747261637420646f6573206e6f74207065726d6974207468655f8201527f207472616e73666572206f6620746f6b656e73206f6e20626568616c66206f6660208201527f2074686520757365722e00000000000000000000000000000000000000000000604082015250565b5f616963604a836147f3565b915061696e826168e3565b606082019050919050565b5f6020820190508181035f83015261699081616957565b9050919050565b5f81519050919050565b5f82825260208201905092915050565b5f6169bb82616997565b6169c581856169a1565b93506169d5818560208601614803565b6169de8161482b565b840191505092915050565b5f6080820190506169fc5f830187614921565b616a096020830186614921565b616a166040830185614abe565b8181036060830152616a2881846169b1565b905095945050505050565b5f81519050616a4181614761565b92915050565b5f60208284031215616a5c57616a5b61472e565b5b5f616a6984828501616a33565b91505092915050565b7f455243373231456e756d657261626c653a20636f6e73656375746976652074725f8201527f616e7366657273206e6f7420737570706f727465640000000000000000000000602082015250565b5f616acc6035836147f3565b9150616ad782616a72565b604082019050919050565b5f6020820190508181035f830152616af981616ac0565b9050919050565b7f4552433732313a206d696e7420746f20746865207a65726f20616464726573735f82015250565b5f616b346020836147f3565b9150616b3f82616b00565b602082019050919050565b5f6020820190508181035f830152616b6181616b28565b9050919050565b7f4552433732313a20746f6b656e20616c7265616479206d696e746564000000005f82015250565b5f616b9c601c836147f3565b9150616ba782616b68565b602082019050919050565b5f6020820190508181035f830152616bc981616b90565b9050919050565b7f45524337323155524953746f726167653a2055524920736574206f66206e6f6e5f8201527f6578697374656e7420746f6b656e000000000000000000000000000000000000602082015250565b5f616c2a602e836147f3565b9150616c3582616bd0565b604082019050919050565b5f6020820190508181035f830152616c5781616c1e565b9050919050565b7f4e487b71000000000000000000000000000000000000000000000000000000005f52601260045260245ffdfea26469706673582212209300572ada354ad30513888e6688b73c503c5c2d000a6b7a96a0df79a05b4e1464736f6c63430008150033697066733a2f2f6261666b7265696168726e376b7867323434706e7a6d3563763579376f796a61353474796e326633616f3362363274637871763434686c6a347275a2646970667358221220ec84b3e8b4f5b598f54e773dada4e03db54da0040ba358bef31c2d1faefe461864736f6c63430008150033",
			"opcodes": "PUSH1 0xA0 PUSH1 0x40 MSTORE CALLVALUE DUP1 ISZERO PUSH3 0x10 JUMPI PUSH0 DUP1 REVERT JUMPDEST POP PUSH1 0x40 MLOAD PUSH3 0x9412 CODESIZE SUB DUP1 PUSH3 0x9412 DUP4 CODECOPY DUP2 DUP2 ADD PUSH1 0x40 MSTORE DUP2 ADD SWAP1 PUSH3 0x36 SWAP2 SWAP1 PUSH3 0xD6 JUMP JUMPDEST DUP1 PUSH20 0xFFFFFFFFFFFFFFFFFFFFFFFFFFFFFFFFFFFFFFFF AND PUSH1 0x80 DUP2 PUSH20 0xFFFFFFFFFFFFFFFFFFFFFFFFFFFFFFFFFFFFFFFF AND DUP2 MSTORE POP POP POP PUSH3 0x106 JUMP JUMPDEST PUSH0 DUP1 REVERT JUMPDEST PUSH0 PUSH20 0xFFFFFFFFFFFFFFFFFFFFFFFFFFFFFFFFFFFFFFFF DUP3 AND SWAP1 POP SWAP2 SWAP1 POP JUMP JUMPDEST PUSH0 PUSH3 0xA0 DUP3 PUSH3 0x75 JUMP JUMPDEST SWAP1 POP SWAP2 SWAP1 POP JUMP JUMPDEST PUSH3 0xB2 DUP2 PUSH3 0x94 JUMP JUMPDEST DUP2 EQ PUSH3 0xBD JUMPI PUSH0 DUP1 REVERT JUMPDEST POP JUMP JUMPDEST PUSH0 DUP2 MLOAD SWAP1 POP PUSH3 0xD0 DUP2 PUSH3 0xA7 JUMP JUMPDEST SWAP3 SWAP2 POP POP JUMP JUMPDEST PUSH0 PUSH1 0x20 DUP3 DUP5 SUB SLT ISZERO PUSH3 0xEE JUMPI PUSH3 0xED PUSH3 0x71 JUMP JUMPDEST JUMPDEST PUSH0 PUSH3 0xFD DUP5 DUP3 DUP6 ADD PUSH3 0xC0 JUMP JUMPDEST SWAP2 POP POP SWAP3 SWAP2 POP POP JUMP JUMPDEST PUSH1 0x80 MLOAD PUSH2 0x92E6 PUSH3 0x12C PUSH0 CODECOPY PUSH0 DUP2 DUP2 PUSH1 0x54 ADD MSTORE DUP2 DUP2 PUSH2 0x3D8 ADD MSTORE PUSH2 0x61C ADD MSTORE PUSH2 0x92E6 PUSH0 RETURN INVALID PUSH1 0x80 PUSH1 0x40 MSTORE PUSH1 0x4 CALLDATASIZE LT PUSH3 0x48 JUMPI PUSH0 CALLDATALOAD PUSH1 0xE0 SHR DUP1 PUSH4 0x82303430 EQ PUSH3 0xEF JUMPI DUP1 PUSH4 0x8C632904 EQ PUSH3 0x11E JUMPI DUP1 PUSH4 0xA1F3FD9F EQ PUSH3 0x161 JUMPI DUP1 PUSH4 0xC84ABCE1 EQ PUSH3 0x190 JUMPI PUSH3 0xEB JUMP JUMPDEST CALLDATASIZE PUSH3 0xEB JUMPI PUSH3 0xE9 PUSH32 0x0 PUSH20 0xFFFFFFFFFFFFFFFFFFFFFFFFFFFFFFFFFFFFFFFF AND PUSH4 0xAAF10F42 PUSH1 0x40 MLOAD DUP2 PUSH4 0xFFFFFFFF AND PUSH1 0xE0 SHL DUP2 MSTORE PUSH1 0x4 ADD PUSH1 0x20 PUSH1 0x40 MLOAD DUP1 DUP4 SUB DUP2 DUP7 GAS STATICCALL ISZERO DUP1 ISZERO PUSH3 0xBC JUMPI RETURNDATASIZE PUSH0 DUP1 RETURNDATACOPY RETURNDATASIZE PUSH0 REVERT JUMPDEST POP POP POP POP PUSH1 0x40 MLOAD RETURNDATASIZE PUSH1 0x1F NOT PUSH1 0x1F DUP3 ADD AND DUP3 ADD DUP1 PUSH1 0x40 MSTORE POP DUP2 ADD SWAP1 PUSH3 0xE2 SWAP2 SWAP1 PUSH3 0x93F JUMP JUMPDEST CALLVALUE PUSH3 0x1D3 JUMP JUMPDEST STOP JUMPDEST PUSH0 DUP1 REVERT JUMPDEST CALLVALUE DUP1 ISZERO PUSH3 0xFB JUMPI PUSH0 DUP1 REVERT JUMPDEST POP PUSH3 0x106 PUSH3 0x2CD JUMP JUMPDEST PUSH1 0x40 MLOAD PUSH3 0x115 SWAP2 SWAP1 PUSH3 0xA67 JUMP JUMPDEST PUSH1 0x40 MLOAD DUP1 SWAP2 SUB SWAP1 RETURN JUMPDEST CALLVALUE DUP1 ISZERO PUSH3 0x12A JUMPI PUSH0 DUP1 REVERT JUMPDEST POP PUSH3 0x149 PUSH1 0x4 DUP1 CALLDATASIZE SUB DUP2 ADD SWAP1 PUSH3 0x143 SWAP2 SWAP1 PUSH3 0xBF7 JUMP JUMPDEST PUSH3 0x3D3 JUMP JUMPDEST PUSH1 0x40 MLOAD PUSH3 0x158 SWAP2 SWAP1 PUSH3 0xCB5 JUMP JUMPDEST PUSH1 0x40 MLOAD DUP1 SWAP2 SUB SWAP1 RETURN JUMPDEST CALLVALUE DUP1 ISZERO PUSH3 0x16D JUMPI PUSH0 DUP1 REVERT JUMPDEST POP PUSH3 0x178 PUSH3 0x897 JUMP JUMPDEST PUSH1 0x40 MLOAD PUSH3 0x187 SWAP2 SWAP1 PUSH3 0xCEA JUMP JUMPDEST PUSH1 0x40 MLOAD DUP1 SWAP2 SUB SWAP1 RETURN JUMPDEST CALLVALUE DUP1 ISZERO PUSH3 0x19C JUMPI PUSH0 DUP1 REVERT JUMPDEST POP PUSH3 0x1BB PUSH1 0x4 DUP1 CALLDATASIZE SUB DUP2 ADD SWAP1 PUSH3 0x1B5 SWAP2 SWAP1 PUSH3 0xD05 JUMP JUMPDEST PUSH3 0x8A2 JUMP JUMPDEST PUSH1 0x40 MLOAD PUSH3 0x1CA SWAP2 SWAP1 PUSH3 0xD51 JUMP JUMPDEST PUSH1 0x40 MLOAD DUP1 SWAP2 SUB SWAP1 RETURN JUMPDEST DUP1 SELFBALANCE LT ISZERO PUSH3 0x219 JUMPI PUSH1 0x40 MLOAD PUSH32 0x8C379A000000000000000000000000000000000000000000000000000000000 DUP2 MSTORE PUSH1 0x4 ADD PUSH3 0x210 SWAP1 PUSH3 0xDCA JUMP JUMPDEST PUSH1 0x40 MLOAD DUP1 SWAP2 SUB SWAP1 REVERT JUMPDEST PUSH0 DUP3 PUSH20 0xFFFFFFFFFFFFFFFFFFFFFFFFFFFFFFFFFFFFFFFF AND DUP3 PUSH1 0x40 MLOAD PUSH3 0x240 SWAP1 PUSH3 0xE1B JUMP JUMPDEST PUSH0 PUSH1 0x40 MLOAD DUP1 DUP4 SUB DUP2 DUP6 DUP8 GAS CALL SWAP3 POP POP POP RETURNDATASIZE DUP1 PUSH0 DUP2 EQ PUSH3 0x27C JUMPI PUSH1 0x40 MLOAD SWAP2 POP PUSH1 0x1F NOT PUSH1 0x3F RETURNDATASIZE ADD AND DUP3 ADD PUSH1 0x40 MSTORE RETURNDATASIZE DUP3 MSTORE RETURNDATASIZE PUSH0 PUSH1 0x20 DUP5 ADD RETURNDATACOPY PUSH3 0x281 JUMP JUMPDEST PUSH1 0x60 SWAP2 POP JUMPDEST POP POP SWAP1 POP DUP1 PUSH3 0x2C8 JUMPI PUSH1 0x40 MLOAD PUSH32 0x8C379A000000000000000000000000000000000000000000000000000000000 DUP2 MSTORE PUSH1 0x4 ADD PUSH3 0x2BF SWAP1 PUSH3 0xEA5 JUMP JUMPDEST PUSH1 0x40 MLOAD DUP1 SWAP2 SUB SWAP1 REVERT JUMPDEST POP POP POP JUMP JUMPDEST PUSH1 0x60 PUSH0 DUP1 SLOAD DUP1 PUSH1 0x20 MUL PUSH1 0x20 ADD PUSH1 0x40 MLOAD SWAP1 DUP2 ADD PUSH1 0x40 MSTORE DUP1 SWAP3 SWAP2 SWAP1 DUP2 DUP2 MSTORE PUSH1 0x20 ADD PUSH0 SWAP1 JUMPDEST DUP3 DUP3 LT ISZERO PUSH3 0x3CA JUMPI DUP4 DUP3 SWAP1 PUSH0 MSTORE PUSH1 0x20 PUSH0 KECCAK256 SWAP1 PUSH1 0x2 MUL ADD PUSH1 0x40 MLOAD DUP1 PUSH1 0x40 ADD PUSH1 0x40 MSTORE SWAP1 DUP2 PUSH0 DUP3 ADD PUSH0 SWAP1 SLOAD SWAP1 PUSH2 0x100 EXP SWAP1 DIV PUSH20 0xFFFFFFFFFFFFFFFFFFFFFFFFFFFFFFFFFFFFFFFF AND PUSH20 0xFFFFFFFFFFFFFFFFFFFFFFFFFFFFFFFFFFFFFFFF AND PUSH20 0xFFFFFFFFFFFFFFFFFFFFFFFFFFFFFFFFFFFFFFFF AND DUP2 MSTORE PUSH1 0x20 ADD PUSH1 0x1 DUP3 ADD PUSH0 SWAP1 SLOAD SWAP1 PUSH2 0x100 EXP SWAP1 DIV PUSH20 0xFFFFFFFFFFFFFFFFFFFFFFFFFFFFFFFFFFFFFFFF AND PUSH20 0xFFFFFFFFFFFFFFFFFFFFFFFFFFFFFFFFFFFFFFFF AND PUSH20 0xFFFFFFFFFFFFFFFFFFFFFFFFFFFFFFFFFFFFFFFF AND DUP2 MSTORE POP POP DUP2 MSTORE PUSH1 0x20 ADD SWAP1 PUSH1 0x1 ADD SWAP1 PUSH3 0x2EF JUMP JUMPDEST POP POP POP POP SWAP1 POP SWAP1 JUMP JUMPDEST PUSH0 DUP3 PUSH0 PUSH32 0x0 SWAP1 POP DUP1 PUSH20 0xFFFFFFFFFFFFFFFFFFFFFFFFFFFFFFFFFFFFFFFF AND PUSH4 0xAAF10F42 PUSH1 0x40 MLOAD DUP2 PUSH4 0xFFFFFFFF AND PUSH1 0xE0 SHL DUP2 MSTORE PUSH1 0x4 ADD PUSH1 0x20 PUSH1 0x40 MLOAD DUP1 DUP4 SUB DUP2 DUP7 GAS STATICCALL ISZERO DUP1 ISZERO PUSH3 0x443 JUMPI RETURNDATASIZE PUSH0 DUP1 RETURNDATACOPY RETURNDATASIZE PUSH0 REVERT JUMPDEST POP POP POP POP PUSH1 0x40 MLOAD RETURNDATASIZE PUSH1 0x1F NOT PUSH1 0x1F DUP3 ADD AND DUP3 ADD DUP1 PUSH1 0x40 MSTORE POP DUP2 ADD SWAP1 PUSH3 0x469 SWAP2 SWAP1 PUSH3 0x93F JUMP JUMPDEST PUSH20 0xFFFFFFFFFFFFFFFFFFFFFFFFFFFFFFFFFFFFFFFF AND CALLER PUSH20 0xFFFFFFFFFFFFFFFFFFFFFFFFFFFFFFFFFFFFFFFF AND EQ PUSH3 0x4D9 JUMPI PUSH1 0x40 MLOAD PUSH32 0x8C379A000000000000000000000000000000000000000000000000000000000 DUP2 MSTORE PUSH1 0x4 ADD PUSH3 0x4D0 SWAP1 PUSH3 0xF13 JUMP JUMPDEST PUSH1 0x40 MLOAD DUP1 SWAP2 SUB SWAP1 REVERT JUMPDEST DUP1 PUSH20 0xFFFFFFFFFFFFFFFFFFFFFFFFFFFFFFFFFFFFFFFF AND PUSH4 0x3F683B6A PUSH1 0x40 MLOAD DUP2 PUSH4 0xFFFFFFFF AND PUSH1 0xE0 SHL DUP2 MSTORE PUSH1 0x4 ADD PUSH1 0x20 PUSH1 0x40 MLOAD DUP1 DUP4 SUB DUP2 DUP7 GAS STATICCALL ISZERO DUP1 ISZERO PUSH3 0x523 JUMPI RETURNDATASIZE PUSH0 DUP1 RETURNDATACOPY RETURNDATASIZE PUSH0 REVERT JUMPDEST POP POP POP POP PUSH1 0x40 MLOAD RETURNDATASIZE PUSH1 0x1F NOT PUSH1 0x1F DUP3 ADD AND DUP3 ADD DUP1 PUSH1 0x40 MSTORE POP DUP2 ADD SWAP1 PUSH3 0x549 SWAP2 SWAP1 PUSH3 0xF62 JUMP JUMPDEST ISZERO PUSH3 0x58C JUMPI PUSH1 0x40 MLOAD PUSH32 0x8C379A000000000000000000000000000000000000000000000000000000000 DUP2 MSTORE PUSH1 0x4 ADD PUSH3 0x583 SWAP1 PUSH3 0xFE0 JUMP JUMPDEST PUSH1 0x40 MLOAD DUP1 SWAP2 SUB SWAP1 REVERT JUMPDEST PUSH1 0x1 PUSH0 DUP4 PUSH20 0xFFFFFFFFFFFFFFFFFFFFFFFFFFFFFFFFFFFFFFFF AND PUSH20 0xFFFFFFFFFFFFFFFFFFFFFFFFFFFFFFFFFFFFFFFF AND DUP2 MSTORE PUSH1 0x20 ADD SWAP1 DUP2 MSTORE PUSH1 0x20 ADD PUSH0 KECCAK256 PUSH0 SWAP1 SLOAD SWAP1 PUSH2 0x100 EXP SWAP1 DIV PUSH1 0xFF AND ISZERO PUSH3 0x619 JUMPI PUSH1 0x40 MLOAD PUSH32 0x8C379A000000000000000000000000000000000000000000000000000000000 DUP2 MSTORE PUSH1 0x4 ADD PUSH3 0x610 SWAP1 PUSH3 0x1074 JUMP JUMPDEST PUSH1 0x40 MLOAD DUP1 SWAP2 SUB SWAP1 REVERT JUMPDEST PUSH0 PUSH32 0x0 DUP7 DUP10 DUP10 PUSH1 0x40 MLOAD PUSH3 0x64C SWAP1 PUSH3 0x8BF JUMP JUMPDEST PUSH3 0x65B SWAP5 SWAP4 SWAP3 SWAP2 SWAP1 PUSH3 0x1108 JUMP JUMPDEST PUSH1 0x40 MLOAD DUP1 SWAP2 SUB SWAP1 PUSH0 CREATE DUP1 ISZERO DUP1 ISZERO PUSH3 0x675 JUMPI RETURNDATASIZE PUSH0 DUP1 RETURNDATACOPY RETURNDATASIZE PUSH0 REVERT JUMPDEST POP SWAP1 POP DUP1 PUSH20 0xFFFFFFFFFFFFFFFFFFFFFFFFFFFFFFFFFFFFFFFF AND PUSH4 0xF2FDE38B DUP8 PUSH1 0x40 MLOAD DUP3 PUSH4 0xFFFFFFFF AND PUSH1 0xE0 SHL DUP2 MSTORE PUSH1 0x4 ADD PUSH3 0x6B3 SWAP2 SWAP1 PUSH3 0xCB5 JUMP JUMPDEST PUSH0 PUSH1 0x40 MLOAD DUP1 DUP4 SUB DUP2 PUSH0 DUP8 DUP1 EXTCODESIZE ISZERO DUP1 ISZERO PUSH3 0x6CB JUMPI PUSH0 DUP1 REVERT JUMPDEST POP GAS CALL ISZERO DUP1 ISZERO PUSH3 0x6DE JUMPI RETURNDATASIZE PUSH0 DUP1 RETURNDATACOPY RETURNDATASIZE PUSH0 REVERT JUMPDEST POP POP POP POP PUSH0 PUSH1 0x40 MLOAD DUP1 PUSH1 0x40 ADD PUSH1 0x40 MSTORE DUP1 DUP4 PUSH20 0xFFFFFFFFFFFFFFFFFFFFFFFFFFFFFFFFFFFFFFFF AND DUP2 MSTORE PUSH1 0x20 ADD DUP9 PUSH20 0xFFFFFFFFFFFFFFFFFFFFFFFFFFFFFFFFFFFFFFFF AND DUP2 MSTORE POP SWAP1 POP PUSH1 0x1 DUP1 PUSH0 DUP10 PUSH20 0xFFFFFFFFFFFFFFFFFFFFFFFFFFFFFFFFFFFFFFFF AND PUSH20 0xFFFFFFFFFFFFFFFFFFFFFFFFFFFFFFFFFFFFFFFF AND DUP2 MSTORE PUSH1 0x20 ADD SWAP1 DUP2 MSTORE PUSH1 0x20 ADD PUSH0 KECCAK256 PUSH0 PUSH2 0x100 EXP DUP2 SLOAD DUP2 PUSH1 0xFF MUL NOT AND SWAP1 DUP4 ISZERO ISZERO MUL OR SWAP1 SSTORE POP PUSH0 DUP2 SWAP1 DUP1 PUSH1 0x1 DUP2 SLOAD ADD DUP1 DUP3 SSTORE DUP1 SWAP2 POP POP PUSH1 0x1 SWAP1 SUB SWAP1 PUSH0 MSTORE PUSH1 0x20 PUSH0 KECCAK256 SWAP1 PUSH1 0x2 MUL ADD PUSH0 SWAP1 SWAP2 SWAP1 SWAP2 SWAP1 SWAP2 POP PUSH0 DUP3 ADD MLOAD DUP2 PUSH0 ADD PUSH0 PUSH2 0x100 EXP DUP2 SLOAD DUP2 PUSH20 0xFFFFFFFFFFFFFFFFFFFFFFFFFFFFFFFFFFFFFFFF MUL NOT AND SWAP1 DUP4 PUSH20 0xFFFFFFFFFFFFFFFFFFFFFFFFFFFFFFFFFFFFFFFF AND MUL OR SWAP1 SSTORE POP PUSH1 0x20 DUP3 ADD MLOAD DUP2 PUSH1 0x1 ADD PUSH0 PUSH2 0x100 EXP DUP2 SLOAD DUP2 PUSH20 0xFFFFFFFFFFFFFFFFFFFFFFFFFFFFFFFFFFFFFFFF MUL NOT AND SWAP1 DUP4 PUSH20 0xFFFFFFFFFFFFFFFFFFFFFFFFFFFFFFFFFFFFFFFF AND MUL OR SWAP1 SSTORE POP POP POP CALLER PUSH20 0xFFFFFFFFFFFFFFFFFFFFFFFFFFFFFFFFFFFFFFFF AND DUP3 PUSH20 0xFFFFFFFFFFFFFFFFFFFFFFFFFFFFFFFFFFFFFFFF AND PUSH32 0xF708942EC477396A151A5285651961DCAB8E8A82EA4F5B31A5236F92F6C92710 PUSH1 0x40 MLOAD PUSH1 0x40 MLOAD DUP1 SWAP2 SUB SWAP1 LOG3 DUP2 SWAP5 POP POP POP POP POP SWAP5 SWAP4 POP POP POP POP JUMP JUMPDEST PUSH0 DUP1 DUP1 SLOAD SWAP1 POP SWAP1 POP SWAP1 JUMP JUMPDEST PUSH1 0x1 PUSH1 0x20 MSTORE DUP1 PUSH0 MSTORE PUSH1 0x40 PUSH0 KECCAK256 PUSH0 SWAP2 POP SLOAD SWAP1 PUSH2 0x100 EXP SWAP1 DIV PUSH1 0xFF AND DUP2 JUMP JUMPDEST PUSH2 0x814F DUP1 PUSH3 0x1162 DUP4 CODECOPY ADD SWAP1 JUMP JUMPDEST PUSH0 PUSH1 0x40 MLOAD SWAP1 POP SWAP1 JUMP JUMPDEST PUSH0 DUP1 REVERT JUMPDEST PUSH0 DUP1 REVERT JUMPDEST PUSH0 PUSH20 0xFFFFFFFFFFFFFFFFFFFFFFFFFFFFFFFFFFFFFFFF DUP3 AND SWAP1 POP SWAP2 SWAP1 POP JUMP JUMPDEST PUSH0 PUSH3 0x909 DUP3 PUSH3 0x8DE JUMP JUMPDEST SWAP1 POP SWAP2 SWAP1 POP JUMP JUMPDEST PUSH3 0x91B DUP2 PUSH3 0x8FD JUMP JUMPDEST DUP2 EQ PUSH3 0x926 JUMPI PUSH0 DUP1 REVERT JUMPDEST POP JUMP JUMPDEST PUSH0 DUP2 MLOAD SWAP1 POP PUSH3 0x939 DUP2 PUSH3 0x910 JUMP JUMPDEST SWAP3 SWAP2 POP POP JUMP JUMPDEST PUSH0 PUSH1 0x20 DUP3 DUP5 SUB SLT ISZERO PUSH3 0x957 JUMPI PUSH3 0x956 PUSH3 0x8D6 JUMP JUMPDEST JUMPDEST PUSH0 PUSH3 0x966 DUP5 DUP3 DUP6 ADD PUSH3 0x929 JUMP JUMPDEST SWAP2 POP POP SWAP3 SWAP2 POP POP JUMP JUMPDEST PUSH0 DUP2 MLOAD SWAP1 POP SWAP2 SWAP1 POP JUMP JUMPDEST PUSH0 DUP3 DUP3 MSTORE PUSH1 0x20 DUP3 ADD SWAP1 POP SWAP3 SWAP2 POP POP JUMP JUMPDEST PUSH0 DUP2 SWAP1 POP PUSH1 0x20 DUP3 ADD SWAP1 POP SWAP2 SWAP1 POP JUMP JUMPDEST PUSH3 0x9A3 DUP2 PUSH3 0x8FD JUMP JUMPDEST DUP3 MSTORE POP POP JUMP JUMPDEST PUSH1 0x40 DUP3 ADD PUSH0 DUP3 ADD MLOAD PUSH3 0x9BF PUSH0 DUP6 ADD DUP3 PUSH3 0x998 JUMP JUMPDEST POP PUSH1 0x20 DUP3 ADD MLOAD PUSH3 0x9D4 PUSH1 0x20 DUP6 ADD DUP3 PUSH3 0x998 JUMP JUMPDEST POP POP POP POP JUMP JUMPDEST PUSH0 PUSH3 0x9E7 DUP4 DUP4 PUSH3 0x9A9 JUMP JUMPDEST PUSH1 0x40 DUP4 ADD SWAP1 POP SWAP3 SWAP2 POP POP JUMP JUMPDEST PUSH0 PUSH1 0x20 DUP3 ADD SWAP1 POP SWAP2 SWAP1 POP JUMP JUMPDEST PUSH0 PUSH3 0xA0B DUP3 PUSH3 0x96F JUMP JUMPDEST PUSH3 0xA17 DUP2 DUP6 PUSH3 0x979 JUMP JUMPDEST SWAP4 POP PUSH3 0xA24 DUP4 PUSH3 0x989 JUMP JUMPDEST DUP1 PUSH0 JUMPDEST DUP4 DUP2 LT ISZERO PUSH3 0xA5A JUMPI DUP2 MLOAD PUSH3 0xA3E DUP9 DUP3 PUSH3 0x9DA JUMP JUMPDEST SWAP8 POP PUSH3 0xA4B DUP4 PUSH3 0x9F3 JUMP JUMPDEST SWAP3 POP POP PUSH1 0x1 DUP2 ADD SWAP1 POP PUSH3 0xA27 JUMP JUMPDEST POP DUP6 SWAP4 POP POP POP POP SWAP3 SWAP2 POP POP JUMP JUMPDEST PUSH0 PUSH1 0x20 DUP3 ADD SWAP1 POP DUP2 DUP2 SUB PUSH0 DUP4 ADD MSTORE PUSH3 0xA81 DUP2 DUP5 PUSH3 0x9FF JUMP JUMPDEST SWAP1 POP SWAP3 SWAP2 POP POP JUMP JUMPDEST PUSH0 DUP1 REVERT JUMPDEST PUSH0 DUP1 REVERT JUMPDEST PUSH0 PUSH1 0x1F NOT PUSH1 0x1F DUP4 ADD AND SWAP1 POP SWAP2 SWAP1 POP JUMP JUMPDEST PUSH32 0x4E487B7100000000000000000000000000000000000000000000000000000000 PUSH0 MSTORE PUSH1 0x41 PUSH1 0x4 MSTORE PUSH1 0x24 PUSH0 REVERT JUMPDEST PUSH3 0xAD9 DUP3 PUSH3 0xA91 JUMP JUMPDEST DUP2 ADD DUP2 DUP2 LT PUSH8 0xFFFFFFFFFFFFFFFF DUP3 GT OR ISZERO PUSH3 0xAFB JUMPI PUSH3 0xAFA PUSH3 0xAA1 JUMP JUMPDEST JUMPDEST DUP1 PUSH1 0x40 MSTORE POP POP POP JUMP JUMPDEST PUSH0 PUSH3 0xB0F PUSH3 0x8CD JUMP JUMPDEST SWAP1 POP PUSH3 0xB1D DUP3 DUP3 PUSH3 0xACE JUMP JUMPDEST SWAP2 SWAP1 POP JUMP JUMPDEST PUSH0 PUSH8 0xFFFFFFFFFFFFFFFF DUP3 GT ISZERO PUSH3 0xB3F JUMPI PUSH3 0xB3E PUSH3 0xAA1 JUMP JUMPDEST JUMPDEST PUSH3 0xB4A DUP3 PUSH3 0xA91 JUMP JUMPDEST SWAP1 POP PUSH1 0x20 DUP2 ADD SWAP1 POP SWAP2 SWAP1 POP JUMP JUMPDEST DUP3 DUP2 DUP4 CALLDATACOPY PUSH0 DUP4 DUP4 ADD MSTORE POP POP POP JUMP JUMPDEST PUSH0 PUSH3 0xB7B PUSH3 0xB75 DUP5 PUSH3 0xB22 JUMP JUMPDEST PUSH3 0xB04 JUMP JUMPDEST SWAP1 POP DUP3 DUP2 MSTORE PUSH1 0x20 DUP2 ADD DUP5 DUP5 DUP5 ADD GT ISZERO PUSH3 0xB9A JUMPI PUSH3 0xB99 PUSH3 0xA8D JUMP JUMPDEST JUMPDEST PUSH3 0xBA7 DUP5 DUP3 DUP6 PUSH3 0xB57 JUMP JUMPDEST POP SWAP4 SWAP3 POP POP POP JUMP JUMPDEST PUSH0 DUP3 PUSH1 0x1F DUP4 ADD SLT PUSH3 0xBC6 JUMPI PUSH3 0xBC5 PUSH3 0xA89 JUMP JUMPDEST JUMPDEST DUP2 CALLDATALOAD PUSH3 0xBD8 DUP5 DUP3 PUSH1 0x20 DUP7 ADD PUSH3 0xB65 JUMP JUMPDEST SWAP2 POP POP SWAP3 SWAP2 POP POP JUMP JUMPDEST PUSH0 DUP2 CALLDATALOAD SWAP1 POP PUSH3 0xBF1 DUP2 PUSH3 0x910 JUMP JUMPDEST SWAP3 SWAP2 POP POP JUMP JUMPDEST PUSH0 DUP1 PUSH0 DUP1 PUSH1 0x80 DUP6 DUP8 SUB SLT ISZERO PUSH3 0xC12 JUMPI PUSH3 0xC11 PUSH3 0x8D6 JUMP JUMPDEST JUMPDEST PUSH0 DUP6 ADD CALLDATALOAD PUSH8 0xFFFFFFFFFFFFFFFF DUP2 GT ISZERO PUSH3 0xC32 JUMPI PUSH3 0xC31 PUSH3 0x8DA JUMP JUMPDEST JUMPDEST PUSH3 0xC40 DUP8 DUP3 DUP9 ADD PUSH3 0xBAF JUMP JUMPDEST SWAP5 POP POP PUSH1 0x20 DUP6 ADD CALLDATALOAD PUSH8 0xFFFFFFFFFFFFFFFF DUP2 GT ISZERO PUSH3 0xC64 JUMPI PUSH3 0xC63 PUSH3 0x8DA JUMP JUMPDEST JUMPDEST PUSH3 0xC72 DUP8 DUP3 DUP9 ADD PUSH3 0xBAF JUMP JUMPDEST SWAP4 POP POP PUSH1 0x40 PUSH3 0xC85 DUP8 DUP3 DUP9 ADD PUSH3 0xBE1 JUMP JUMPDEST SWAP3 POP POP PUSH1 0x60 PUSH3 0xC98 DUP8 DUP3 DUP9 ADD PUSH3 0xBE1 JUMP JUMPDEST SWAP2 POP POP SWAP3 SWAP6 SWAP2 SWAP5 POP SWAP3 POP JUMP JUMPDEST PUSH3 0xCAF DUP2 PUSH3 0x8FD JUMP JUMPDEST DUP3 MSTORE POP POP JUMP JUMPDEST PUSH0 PUSH1 0x20 DUP3 ADD SWAP1 POP PUSH3 0xCCA PUSH0 DUP4 ADD DUP5 PUSH3 0xCA4 JUMP JUMPDEST SWAP3 SWAP2 POP POP JUMP JUMPDEST PUSH0 DUP2 SWAP1 POP SWAP2 SWAP1 POP JUMP JUMPDEST PUSH3 0xCE4 DUP2 PUSH3 0xCD0 JUMP JUMPDEST DUP3 MSTORE POP POP JUMP JUMPDEST PUSH0 PUSH1 0x20 DUP3 ADD SWAP1 POP PUSH3 0xCFF PUSH0 DUP4 ADD DUP5 PUSH3 0xCD9 JUMP JUMPDEST SWAP3 SWAP2 POP POP JUMP JUMPDEST PUSH0 PUSH1 0x20 DUP3 DUP5 SUB SLT ISZERO PUSH3 0xD1D JUMPI PUSH3 0xD1C PUSH3 0x8D6 JUMP JUMPDEST JUMPDEST PUSH0 PUSH3 0xD2C DUP5 DUP3 DUP6 ADD PUSH3 0xBE1 JUMP JUMPDEST SWAP2 POP POP SWAP3 SWAP2 POP POP JUMP JUMPDEST PUSH0 DUP2 ISZERO ISZERO SWAP1 POP SWAP2 SWAP1 POP JUMP JUMPDEST PUSH3 0xD4B DUP2 PUSH3 0xD35 JUMP JUMPDEST DUP3 MSTORE POP POP JUMP JUMPDEST PUSH0 PUSH1 0x20 DUP3 ADD SWAP1 POP PUSH3 0xD66 PUSH0 DUP4 ADD DUP5 PUSH3 0xD40 JUMP JUMPDEST SWAP3 SWAP2 POP POP JUMP JUMPDEST PUSH0 DUP3 DUP3 MSTORE PUSH1 0x20 DUP3 ADD SWAP1 POP SWAP3 SWAP2 POP POP JUMP JUMPDEST PUSH32 0x416464726573733A20696E73756666696369656E742062616C616E6365000000 PUSH0 DUP3 ADD MSTORE POP JUMP JUMPDEST PUSH0 PUSH3 0xDB2 PUSH1 0x1D DUP4 PUSH3 0xD6C JUMP JUMPDEST SWAP2 POP PUSH3 0xDBF DUP3 PUSH3 0xD7C JUMP JUMPDEST PUSH1 0x20 DUP3 ADD SWAP1 POP SWAP2 SWAP1 POP JUMP JUMPDEST PUSH0 PUSH1 0x20 DUP3 ADD SWAP1 POP DUP2 DUP2 SUB PUSH0 DUP4 ADD MSTORE PUSH3 0xDE3 DUP2 PUSH3 0xDA4 JUMP JUMPDEST SWAP1 POP SWAP2 SWAP1 POP JUMP JUMPDEST PUSH0 DUP2 SWAP1 POP SWAP3 SWAP2 POP POP JUMP JUMPDEST POP JUMP JUMPDEST PUSH0 PUSH3 0xE04 PUSH0 DUP4 PUSH3 0xDEA JUMP JUMPDEST SWAP2 POP PUSH3 0xE11 DUP3 PUSH3 0xDF4 JUMP JUMPDEST PUSH0 DUP3 ADD SWAP1 POP SWAP2 SWAP1 POP JUMP JUMPDEST PUSH0 PUSH3 0xE27 DUP3 PUSH3 0xDF7 JUMP JUMPDEST SWAP2 POP DUP2 SWAP1 POP SWAP2 SWAP1 POP JUMP JUMPDEST PUSH32 0x416464726573733A20756E61626C6520746F2073656E642076616C75652C2072 PUSH0 DUP3 ADD MSTORE PUSH32 0x6563697069656E74206D61792068617665207265766572746564000000000000 PUSH1 0x20 DUP3 ADD MSTORE POP JUMP JUMPDEST PUSH0 PUSH3 0xE8D PUSH1 0x3A DUP4 PUSH3 0xD6C JUMP JUMPDEST SWAP2 POP PUSH3 0xE9A DUP3 PUSH3 0xE31 JUMP JUMPDEST PUSH1 0x40 DUP3 ADD SWAP1 POP SWAP2 SWAP1 POP JUMP JUMPDEST PUSH0 PUSH1 0x20 DUP3 ADD SWAP1 POP DUP2 DUP2 SUB PUSH0 DUP4 ADD MSTORE PUSH3 0xEBE DUP2 PUSH3 0xE7F JUMP JUMPDEST SWAP1 POP SWAP2 SWAP1 POP JUMP JUMPDEST PUSH32 0x43616C6C6572206973206E6F742074686520696D706C656D656E746174696F6E PUSH0 DUP3 ADD MSTORE POP JUMP JUMPDEST PUSH0 PUSH3 0xEFB PUSH1 0x20 DUP4 PUSH3 0xD6C JUMP JUMPDEST SWAP2 POP PUSH3 0xF08 DUP3 PUSH3 0xEC5 JUMP JUMPDEST PUSH1 0x20 DUP3 ADD SWAP1 POP SWAP2 SWAP1 POP JUMP JUMPDEST PUSH0 PUSH1 0x20 DUP3 ADD SWAP1 POP DUP2 DUP2 SUB PUSH0 DUP4 ADD MSTORE PUSH3 0xF2C DUP2 PUSH3 0xEED JUMP JUMPDEST SWAP1 POP SWAP2 SWAP1 POP JUMP JUMPDEST PUSH3 0xF3E DUP2 PUSH3 0xD35 JUMP JUMPDEST DUP2 EQ PUSH3 0xF49 JUMPI PUSH0 DUP1 REVERT JUMPDEST POP JUMP JUMPDEST PUSH0 DUP2 MLOAD SWAP1 POP PUSH3 0xF5C DUP2 PUSH3 0xF33 JUMP JUMPDEST SWAP3 SWAP2 POP POP JUMP JUMPDEST PUSH0 PUSH1 0x20 DUP3 DUP5 SUB SLT ISZERO PUSH3 0xF7A JUMPI PUSH3 0xF79 PUSH3 0x8D6 JUMP JUMPDEST JUMPDEST PUSH0 PUSH3 0xF89 DUP5 DUP3 DUP6 ADD PUSH3 0xF4C JUMP JUMPDEST SWAP2 POP POP SWAP3 SWAP2 POP POP JUMP JUMPDEST PUSH32 0x4465706C6F79696E672069732073746F70706564000000000000000000000000 PUSH0 DUP3 ADD MSTORE POP JUMP JUMPDEST PUSH0 PUSH3 0xFC8 PUSH1 0x14 DUP4 PUSH3 0xD6C JUMP JUMPDEST SWAP2 POP PUSH3 0xFD5 DUP3 PUSH3 0xF92 JUMP JUMPDEST PUSH1 0x20 DUP3 ADD SWAP1 POP SWAP2 SWAP1 POP JUMP JUMPDEST PUSH0 PUSH1 0x20 DUP3 ADD SWAP1 POP DUP2 DUP2 SUB PUSH0 DUP4 ADD MSTORE PUSH3 0xFF9 DUP2 PUSH3 0xFBA JUMP JUMPDEST SWAP1 POP SWAP2 SWAP1 POP JUMP JUMPDEST PUSH32 0x5468697320616464726573732068617320616C7265616479206465706C6F7965 PUSH0 DUP3 ADD MSTORE PUSH32 0x642074686973206D6F64756C6500000000000000000000000000000000000000 PUSH1 0x20 DUP3 ADD MSTORE POP JUMP JUMPDEST PUSH0 PUSH3 0x105C PUSH1 0x2D DUP4 PUSH3 0xD6C JUMP JUMPDEST SWAP2 POP PUSH3 0x1069 DUP3 PUSH3 0x1000 JUMP JUMPDEST PUSH1 0x40 DUP3 ADD SWAP1 POP SWAP2 SWAP1 POP JUMP JUMPDEST PUSH0 PUSH1 0x20 DUP3 ADD SWAP1 POP DUP2 DUP2 SUB PUSH0 DUP4 ADD MSTORE PUSH3 0x108D DUP2 PUSH3 0x104E JUMP JUMPDEST SWAP1 POP SWAP2 SWAP1 POP JUMP JUMPDEST PUSH0 DUP2 MLOAD SWAP1 POP SWAP2 SWAP1 POP JUMP JUMPDEST PUSH0 JUMPDEST DUP4 DUP2 LT ISZERO PUSH3 0x10BD JUMPI DUP1 DUP3 ADD MLOAD DUP2 DUP5 ADD MSTORE PUSH1 0x20 DUP2 ADD SWAP1 POP PUSH3 0x10A0 JUMP JUMPDEST PUSH0 DUP5 DUP5 ADD MSTORE POP POP POP POP JUMP JUMPDEST PUSH0 PUSH3 0x10D4 DUP3 PUSH3 0x1094 JUMP JUMPDEST PUSH3 0x10E0 DUP2 DUP6 PUSH3 0xD6C JUMP JUMPDEST SWAP4 POP PUSH3 0x10F2 DUP2 DUP6 PUSH1 0x20 DUP7 ADD PUSH3 0x109E JUMP JUMPDEST PUSH3 0x10FD DUP2 PUSH3 0xA91 JUMP JUMPDEST DUP5 ADD SWAP2 POP POP SWAP3 SWAP2 POP POP JUMP JUMPDEST PUSH0 PUSH1 0x80 DUP3 ADD SWAP1 POP PUSH3 0x111D PUSH0 DUP4 ADD DUP8 PUSH3 0xCA4 JUMP JUMPDEST PUSH3 0x112C PUSH1 0x20 DUP4 ADD DUP7 PUSH3 0xCA4 JUMP JUMPDEST DUP2 DUP2 SUB PUSH1 0x40 DUP4 ADD MSTORE PUSH3 0x1140 DUP2 DUP6 PUSH3 0x10C8 JUMP JUMPDEST SWAP1 POP DUP2 DUP2 SUB PUSH1 0x60 DUP4 ADD MSTORE PUSH3 0x1156 DUP2 DUP5 PUSH3 0x10C8 JUMP JUMPDEST SWAP1 POP SWAP6 SWAP5 POP POP POP POP POP JUMP INVALID PUSH1 0xA0 PUSH1 0x40 MSTORE CALLVALUE DUP1 ISZERO PUSH3 0x10 JUMPI PUSH0 DUP1 REVERT JUMPDEST POP PUSH1 0x40 MLOAD PUSH3 0x814F CODESIZE SUB DUP1 PUSH3 0x814F DUP4 CODECOPY DUP2 DUP2 ADD PUSH1 0x40 MSTORE DUP2 ADD SWAP1 PUSH3 0x36 SWAP2 SWAP1 PUSH3 0xCCF JUMP JUMPDEST DUP4 DUP3 DUP3 DUP2 PUSH0 SWAP1 DUP2 PUSH3 0x49 SWAP2 SWAP1 PUSH3 0xFB3 JUMP JUMPDEST POP DUP1 PUSH1 0x1 SWAP1 DUP2 PUSH3 0x5B SWAP2 SWAP1 PUSH3 0xFB3 JUMP JUMPDEST POP POP POP PUSH3 0x7E PUSH3 0x72 PUSH3 0xE8 PUSH1 0x20 SHL PUSH1 0x20 SHR JUMP JUMPDEST PUSH3 0xEF PUSH1 0x20 SHL PUSH1 0x20 SHR JUMP JUMPDEST DUP1 PUSH20 0xFFFFFFFFFFFFFFFFFFFFFFFFFFFFFFFFFFFFFFFF AND PUSH1 0x80 DUP2 PUSH20 0xFFFFFFFFFFFFFFFFFFFFFFFFFFFFFFFFFFFFFFFF AND DUP2 MSTORE POP POP POP PUSH3 0xDE DUP4 PUSH1 0x40 MLOAD DUP1 PUSH1 0x80 ADD PUSH1 0x40 MSTORE DUP1 PUSH1 0x42 DUP2 MSTORE PUSH1 0x20 ADD PUSH3 0x810D PUSH1 0x42 SWAP2 CODECOPY PUSH3 0x1B2 PUSH1 0x20 SHL PUSH1 0x20 SHR JUMP JUMPDEST POP POP POP POP PUSH3 0x142C JUMP JUMPDEST PUSH0 CALLER SWAP1 POP SWAP1 JUMP JUMPDEST PUSH0 PUSH1 0xB PUSH0 SWAP1 SLOAD SWAP1 PUSH2 0x100 EXP SWAP1 DIV PUSH20 0xFFFFFFFFFFFFFFFFFFFFFFFFFFFFFFFFFFFFFFFF AND SWAP1 POP DUP2 PUSH1 0xB PUSH0 PUSH2 0x100 EXP DUP2 SLOAD DUP2 PUSH20 0xFFFFFFFFFFFFFFFFFFFFFFFFFFFFFFFFFFFFFFFF MUL NOT AND SWAP1 DUP4 PUSH20 0xFFFFFFFFFFFFFFFFFFFFFFFFFFFFFFFFFFFFFFFF AND MUL OR SWAP1 SSTORE POP DUP2 PUSH20 0xFFFFFFFFFFFFFFFFFFFFFFFFFFFFFFFFFFFFFFFF AND DUP2 PUSH20 0xFFFFFFFFFFFFFFFFFFFFFFFFFFFFFFFFFFFFFFFF AND PUSH32 0x8BE0079C531659141344CD1FD0A4F28419497F9722A3DAAFE3B4186F6B6457E0 PUSH1 0x40 MLOAD PUSH1 0x40 MLOAD DUP1 SWAP2 SUB SWAP1 LOG3 POP POP JUMP JUMPDEST PUSH0 PUSH3 0x1C5 PUSH1 0x10 PUSH3 0x202 PUSH1 0x20 SHL PUSH1 0x20 SHR JUMP JUMPDEST SWAP1 POP PUSH3 0x1D9 PUSH1 0x10 PUSH3 0x20E PUSH1 0x20 SHL PUSH1 0x20 SHR JUMP JUMPDEST PUSH3 0x1EB DUP4 DUP3 PUSH3 0x222 PUSH1 0x20 SHL PUSH1 0x20 SHR JUMP JUMPDEST PUSH3 0x1FD DUP2 DUP4 PUSH3 0x45E PUSH1 0x20 SHL PUSH1 0x20 SHR JUMP JUMPDEST POP POP POP JUMP JUMPDEST PUSH0 DUP2 PUSH0 ADD SLOAD SWAP1 POP SWAP2 SWAP1 POP JUMP JUMPDEST PUSH1 0x1 DUP2 PUSH0 ADD PUSH0 DUP3 DUP3 SLOAD ADD SWAP3 POP POP DUP2 SWAP1 SSTORE POP POP JUMP JUMPDEST PUSH0 PUSH20 0xFFFFFFFFFFFFFFFFFFFFFFFFFFFFFFFFFFFFFFFF AND DUP3 PUSH20 0xFFFFFFFFFFFFFFFFFFFFFFFFFFFFFFFFFFFFFFFF AND SUB PUSH3 0x293 JUMPI PUSH1 0x40 MLOAD PUSH32 0x8C379A000000000000000000000000000000000000000000000000000000000 DUP2 MSTORE PUSH1 0x4 ADD PUSH3 0x28A SWAP1 PUSH3 0x10F5 JUMP JUMPDEST PUSH1 0x40 MLOAD DUP1 SWAP2 SUB SWAP1 REVERT JUMPDEST PUSH3 0x2A4 DUP2 PUSH3 0x50F PUSH1 0x20 SHL PUSH1 0x20 SHR JUMP JUMPDEST ISZERO PUSH3 0x2E7 JUMPI PUSH1 0x40 MLOAD PUSH32 0x8C379A000000000000000000000000000000000000000000000000000000000 DUP2 MSTORE PUSH1 0x4 ADD PUSH3 0x2DE SWAP1 PUSH3 0x1163 JUMP JUMPDEST PUSH1 0x40 MLOAD DUP1 SWAP2 SUB SWAP1 REVERT JUMPDEST PUSH3 0x2FC PUSH0 DUP4 DUP4 PUSH1 0x1 PUSH3 0x557 PUSH1 0x20 SHL PUSH1 0x20 SHR JUMP JUMPDEST PUSH3 0x30D DUP2 PUSH3 0x50F PUSH1 0x20 SHL PUSH1 0x20 SHR JUMP JUMPDEST ISZERO PUSH3 0x350 JUMPI PUSH1 0x40 MLOAD PUSH32 0x8C379A000000000000000000000000000000000000000000000000000000000 DUP2 MSTORE PUSH1 0x4 ADD PUSH3 0x347 SWAP1 PUSH3 0x1163 JUMP JUMPDEST PUSH1 0x40 MLOAD DUP1 SWAP2 SUB SWAP1 REVERT JUMPDEST PUSH1 0x1 PUSH1 0x3 PUSH0 DUP5 PUSH20 0xFFFFFFFFFFFFFFFFFFFFFFFFFFFFFFFFFFFFFFFF AND PUSH20 0xFFFFFFFFFFFFFFFFFFFFFFFFFFFFFFFFFFFFFFFF AND DUP2 MSTORE PUSH1 0x20 ADD SWAP1 DUP2 MSTORE PUSH1 0x20 ADD PUSH0 KECCAK256 PUSH0 DUP3 DUP3 SLOAD ADD SWAP3 POP POP DUP2 SWAP1 SSTORE POP DUP2 PUSH1 0x2 PUSH0 DUP4 DUP2 MSTORE PUSH1 0x20 ADD SWAP1 DUP2 MSTORE PUSH1 0x20 ADD PUSH0 KECCAK256 PUSH0 PUSH2 0x100 EXP DUP2 SLOAD DUP2 PUSH20 0xFFFFFFFFFFFFFFFFFFFFFFFFFFFFFFFFFFFFFFFF MUL NOT AND SWAP1 DUP4 PUSH20 0xFFFFFFFFFFFFFFFFFFFFFFFFFFFFFFFFFFFFFFFF AND MUL OR SWAP1 SSTORE POP DUP1 DUP3 PUSH20 0xFFFFFFFFFFFFFFFFFFFFFFFFFFFFFFFFFFFFFFFF AND PUSH0 PUSH20 0xFFFFFFFFFFFFFFFFFFFFFFFFFFFFFFFFFFFFFFFF AND PUSH32 0xDDF252AD1BE2C89B69C2B068FC378DAA952BA7F163C4A11628F55A4DF523B3EF PUSH1 0x40 MLOAD PUSH1 0x40 MLOAD DUP1 SWAP2 SUB SWAP1 LOG4 PUSH3 0x45A PUSH0 DUP4 DUP4 PUSH1 0x1 PUSH3 0x571 PUSH1 0x20 SHL PUSH1 0x20 SHR JUMP JUMPDEST POP POP JUMP JUMPDEST PUSH3 0x46F DUP3 PUSH3 0x50F PUSH1 0x20 SHL PUSH1 0x20 SHR JUMP JUMPDEST PUSH3 0x4B1 JUMPI PUSH1 0x40 MLOAD PUSH32 0x8C379A000000000000000000000000000000000000000000000000000000000 DUP2 MSTORE PUSH1 0x4 ADD PUSH3 0x4A8 SWAP1 PUSH3 0x11F7 JUMP JUMPDEST PUSH1 0x40 MLOAD DUP1 SWAP2 SUB SWAP1 REVERT JUMPDEST DUP1 PUSH1 0x6 PUSH0 DUP5 DUP2 MSTORE PUSH1 0x20 ADD SWAP1 DUP2 MSTORE PUSH1 0x20 ADD PUSH0 KECCAK256 SWAP1 DUP2 PUSH3 0x4D1 SWAP2 SWAP1 PUSH3 0xFB3 JUMP JUMPDEST POP PUSH32 0xF8E1A15ABA9398E019F0B49DF1A4FDE98EE17AE345CB5F6B5E2C27F5033E8CE7 DUP3 PUSH1 0x40 MLOAD PUSH3 0x503 SWAP2 SWAP1 PUSH3 0x1228 JUMP JUMPDEST PUSH1 0x40 MLOAD DUP1 SWAP2 SUB SWAP1 LOG1 POP POP JUMP JUMPDEST PUSH0 DUP1 PUSH20 0xFFFFFFFFFFFFFFFFFFFFFFFFFFFFFFFFFFFFFFFF AND PUSH3 0x538 DUP4 PUSH3 0x577 PUSH1 0x20 SHL PUSH1 0x20 SHR JUMP JUMPDEST PUSH20 0xFFFFFFFFFFFFFFFFFFFFFFFFFFFFFFFFFFFFFFFF AND EQ ISZERO SWAP1 POP SWAP2 SWAP1 POP JUMP JUMPDEST PUSH3 0x56B DUP5 DUP5 DUP5 DUP5 PUSH3 0x5B0 PUSH1 0x20 SHL PUSH1 0x20 SHR JUMP JUMPDEST POP POP POP POP JUMP JUMPDEST POP POP POP POP JUMP JUMPDEST PUSH0 PUSH1 0x2 PUSH0 DUP4 DUP2 MSTORE PUSH1 0x20 ADD SWAP1 DUP2 MSTORE PUSH1 0x20 ADD PUSH0 KECCAK256 PUSH0 SWAP1 SLOAD SWAP1 PUSH2 0x100 EXP SWAP1 DIV PUSH20 0xFFFFFFFFFFFFFFFFFFFFFFFFFFFFFFFFFFFFFFFF AND SWAP1 POP SWAP2 SWAP1 POP JUMP JUMPDEST PUSH3 0x5C4 DUP5 DUP5 DUP5 DUP5 PUSH3 0x73C PUSH1 0x20 SHL PUSH1 0x20 SHR JUMP JUMPDEST PUSH1 0x1 DUP2 GT ISZERO PUSH3 0x60B JUMPI PUSH1 0x40 MLOAD PUSH32 0x8C379A000000000000000000000000000000000000000000000000000000000 DUP2 MSTORE PUSH1 0x4 ADD PUSH3 0x602 SWAP1 PUSH3 0x12B7 JUMP JUMPDEST PUSH1 0x40 MLOAD DUP1 SWAP2 SUB SWAP1 REVERT JUMPDEST PUSH0 DUP3 SWAP1 POP PUSH0 PUSH20 0xFFFFFFFFFFFFFFFFFFFFFFFFFFFFFFFFFFFFFFFF AND DUP6 PUSH20 0xFFFFFFFFFFFFFFFFFFFFFFFFFFFFFFFFFFFFFFFF AND SUB PUSH3 0x65A JUMPI PUSH3 0x654 DUP2 PUSH3 0x742 PUSH1 0x20 SHL PUSH1 0x20 SHR JUMP JUMPDEST PUSH3 0x6A2 JUMP JUMPDEST DUP4 PUSH20 0xFFFFFFFFFFFFFFFFFFFFFFFFFFFFFFFFFFFFFFFF AND DUP6 PUSH20 0xFFFFFFFFFFFFFFFFFFFFFFFFFFFFFFFFFFFFFFFF AND EQ PUSH3 0x6A1 JUMPI PUSH3 0x6A0 DUP6 DUP3 PUSH3 0x786 PUSH1 0x20 SHL PUSH1 0x20 SHR JUMP JUMPDEST JUMPDEST JUMPDEST PUSH0 PUSH20 0xFFFFFFFFFFFFFFFFFFFFFFFFFFFFFFFFFFFFFFFF AND DUP5 PUSH20 0xFFFFFFFFFFFFFFFFFFFFFFFFFFFFFFFFFFFFFFFF AND SUB PUSH3 0x6ED JUMPI PUSH3 0x6E7 DUP2 PUSH3 0x8E7 PUSH1 0x20 SHL PUSH1 0x20 SHR JUMP JUMPDEST PUSH3 0x735 JUMP JUMPDEST DUP5 PUSH20 0xFFFFFFFFFFFFFFFFFFFFFFFFFFFFFFFFFFFFFFFF AND DUP5 PUSH20 0xFFFFFFFFFFFFFFFFFFFFFFFFFFFFFFFFFFFFFFFF AND EQ PUSH3 0x734 JUMPI PUSH3 0x733 DUP5 DUP3 PUSH3 0x9B2 PUSH1 0x20 SHL PUSH1 0x20 SHR JUMP JUMPDEST JUMPDEST JUMPDEST POP POP POP POP POP JUMP JUMPDEST POP POP POP POP JUMP JUMPDEST PUSH1 0x9 DUP1 SLOAD SWAP1 POP PUSH1 0xA PUSH0 DUP4 DUP2 MSTORE PUSH1 0x20 ADD SWAP1 DUP2 MSTORE PUSH1 0x20 ADD PUSH0 KECCAK256 DUP2 SWAP1 SSTORE POP PUSH1 0x9 DUP2 SWAP1 DUP1 PUSH1 0x1 DUP2 SLOAD ADD DUP1 DUP3 SSTORE DUP1 SWAP2 POP POP PUSH1 0x1 SWAP1 SUB SWAP1 PUSH0 MSTORE PUSH1 0x20 PUSH0 KECCAK256 ADD PUSH0 SWAP1 SWAP2 SWAP1 SWAP2 SWAP1 SWAP2 POP SSTORE POP JUMP JUMPDEST PUSH0 PUSH1 0x1 PUSH3 0x79A DUP5 PUSH3 0xA32 PUSH1 0x20 SHL PUSH1 0x20 SHR JUMP JUMPDEST PUSH3 0x7A6 SWAP2 SWAP1 PUSH3 0x1304 JUMP JUMPDEST SWAP1 POP PUSH0 PUSH1 0x8 PUSH0 DUP5 DUP2 MSTORE PUSH1 0x20 ADD SWAP1 DUP2 MSTORE PUSH1 0x20 ADD PUSH0 KECCAK256 SLOAD SWAP1 POP DUP2 DUP2 EQ PUSH3 0x87E JUMPI PUSH0 PUSH1 0x7 PUSH0 DUP7 PUSH20 0xFFFFFFFFFFFFFFFFFFFFFFFFFFFFFFFFFFFFFFFF AND PUSH20 0xFFFFFFFFFFFFFFFFFFFFFFFFFFFFFFFFFFFFFFFF AND DUP2 MSTORE PUSH1 0x20 ADD SWAP1 DUP2 MSTORE PUSH1 0x20 ADD PUSH0 KECCAK256 PUSH0 DUP5 DUP2 MSTORE PUSH1 0x20 ADD SWAP1 DUP2 MSTORE PUSH1 0x20 ADD PUSH0 KECCAK256 SLOAD SWAP1 POP DUP1 PUSH1 0x7 PUSH0 DUP8 PUSH20 0xFFFFFFFFFFFFFFFFFFFFFFFFFFFFFFFFFFFFFFFF AND PUSH20 0xFFFFFFFFFFFFFFFFFFFFFFFFFFFFFFFFFFFFFFFF AND DUP2 MSTORE PUSH1 0x20 ADD SWAP1 DUP2 MSTORE PUSH1 0x20 ADD PUSH0 KECCAK256 PUSH0 DUP5 DUP2 MSTORE PUSH1 0x20 ADD SWAP1 DUP2 MSTORE PUSH1 0x20 ADD PUSH0 KECCAK256 DUP2 SWAP1 SSTORE POP DUP2 PUSH1 0x8 PUSH0 DUP4 DUP2 MSTORE PUSH1 0x20 ADD SWAP1 DUP2 MSTORE PUSH1 0x20 ADD PUSH0 KECCAK256 DUP2 SWAP1 SSTORE POP POP JUMPDEST PUSH1 0x8 PUSH0 DUP5 DUP2 MSTORE PUSH1 0x20 ADD SWAP1 DUP2 MSTORE PUSH1 0x20 ADD PUSH0 KECCAK256 PUSH0 SWAP1 SSTORE PUSH1 0x7 PUSH0 DUP6 PUSH20 0xFFFFFFFFFFFFFFFFFFFFFFFFFFFFFFFFFFFFFFFF AND PUSH20 0xFFFFFFFFFFFFFFFFFFFFFFFFFFFFFFFFFFFFFFFF AND DUP2 MSTORE PUSH1 0x20 ADD SWAP1 DUP2 MSTORE PUSH1 0x20 ADD PUSH0 KECCAK256 PUSH0 DUP4 DUP2 MSTORE PUSH1 0x20 ADD SWAP1 DUP2 MSTORE PUSH1 0x20 ADD PUSH0 KECCAK256 PUSH0 SWAP1 SSTORE POP POP POP POP JUMP JUMPDEST PUSH0 PUSH1 0x1 PUSH1 0x9 DUP1 SLOAD SWAP1 POP PUSH3 0x8FC SWAP2 SWAP1 PUSH3 0x1304 JUMP JUMPDEST SWAP1 POP PUSH0 PUSH1 0xA PUSH0 DUP5 DUP2 MSTORE PUSH1 0x20 ADD SWAP1 DUP2 MSTORE PUSH1 0x20 ADD PUSH0 KECCAK256 SLOAD SWAP1 POP PUSH0 PUSH1 0x9 DUP4 DUP2 SLOAD DUP2 LT PUSH3 0x92B JUMPI PUSH3 0x92A PUSH3 0x133E JUMP JUMPDEST JUMPDEST SWAP1 PUSH0 MSTORE PUSH1 0x20 PUSH0 KECCAK256 ADD SLOAD SWAP1 POP DUP1 PUSH1 0x9 DUP4 DUP2 SLOAD DUP2 LT PUSH3 0x94E JUMPI PUSH3 0x94D PUSH3 0x133E JUMP JUMPDEST JUMPDEST SWAP1 PUSH0 MSTORE PUSH1 0x20 PUSH0 KECCAK256 ADD DUP2 SWAP1 SSTORE POP DUP2 PUSH1 0xA PUSH0 DUP4 DUP2 MSTORE PUSH1 0x20 ADD SWAP1 DUP2 MSTORE PUSH1 0x20 ADD PUSH0 KECCAK256 DUP2 SWAP1 SSTORE POP PUSH1 0xA PUSH0 DUP6 DUP2 MSTORE PUSH1 0x20 ADD SWAP1 DUP2 MSTORE PUSH1 0x20 ADD PUSH0 KECCAK256 PUSH0 SWAP1 SSTORE PUSH1 0x9 DUP1 SLOAD DUP1 PUSH3 0x999 JUMPI PUSH3 0x998 PUSH3 0x136B JUMP JUMPDEST JUMPDEST PUSH1 0x1 SWAP1 SUB DUP2 DUP2 SWAP1 PUSH0 MSTORE PUSH1 0x20 PUSH0 KECCAK256 ADD PUSH0 SWAP1 SSTORE SWAP1 SSTORE POP POP POP POP JUMP JUMPDEST PUSH0 PUSH3 0x9C4 DUP4 PUSH3 0xA32 PUSH1 0x20 SHL PUSH1 0x20 SHR JUMP JUMPDEST SWAP1 POP DUP2 PUSH1 0x7 PUSH0 DUP6 PUSH20 0xFFFFFFFFFFFFFFFFFFFFFFFFFFFFFFFFFFFFFFFF AND PUSH20 0xFFFFFFFFFFFFFFFFFFFFFFFFFFFFFFFFFFFFFFFF AND DUP2 MSTORE PUSH1 0x20 ADD SWAP1 DUP2 MSTORE PUSH1 0x20 ADD PUSH0 KECCAK256 PUSH0 DUP4 DUP2 MSTORE PUSH1 0x20 ADD SWAP1 DUP2 MSTORE PUSH1 0x20 ADD PUSH0 KECCAK256 DUP2 SWAP1 SSTORE POP DUP1 PUSH1 0x8 PUSH0 DUP5 DUP2 MSTORE PUSH1 0x20 ADD SWAP1 DUP2 MSTORE PUSH1 0x20 ADD PUSH0 KECCAK256 DUP2 SWAP1 SSTORE POP POP POP POP JUMP JUMPDEST PUSH0 DUP1 PUSH20 0xFFFFFFFFFFFFFFFFFFFFFFFFFFFFFFFFFFFFFFFF AND DUP3 PUSH20 0xFFFFFFFFFFFFFFFFFFFFFFFFFFFFFFFFFFFFFFFF AND SUB PUSH3 0xAA4 JUMPI PUSH1 0x40 MLOAD PUSH32 0x8C379A000000000000000000000000000000000000000000000000000000000 DUP2 MSTORE PUSH1 0x4 ADD PUSH3 0xA9B SWAP1 PUSH3 0x140C JUMP JUMPDEST PUSH1 0x40 MLOAD DUP1 SWAP2 SUB SWAP1 REVERT JUMPDEST PUSH1 0x3 PUSH0 DUP4 PUSH20 0xFFFFFFFFFFFFFFFFFFFFFFFFFFFFFFFFFFFFFFFF AND PUSH20 0xFFFFFFFFFFFFFFFFFFFFFFFFFFFFFFFFFFFFFFFF AND DUP2 MSTORE PUSH1 0x20 ADD SWAP1 DUP2 MSTORE PUSH1 0x20 ADD PUSH0 KECCAK256 SLOAD SWAP1 POP SWAP2 SWAP1 POP JUMP JUMPDEST PUSH0 PUSH1 0x40 MLOAD SWAP1 POP SWAP1 JUMP JUMPDEST PUSH0 DUP1 REVERT JUMPDEST PUSH0 DUP1 REVERT JUMPDEST PUSH0 PUSH20 0xFFFFFFFFFFFFFFFFFFFFFFFFFFFFFFFFFFFFFFFF DUP3 AND SWAP1 POP SWAP2 SWAP1 POP JUMP JUMPDEST PUSH0 PUSH3 0xB25 DUP3 PUSH3 0xAFA JUMP JUMPDEST SWAP1 POP SWAP2 SWAP1 POP JUMP JUMPDEST PUSH3 0xB37 DUP2 PUSH3 0xB19 JUMP JUMPDEST DUP2 EQ PUSH3 0xB42 JUMPI PUSH0 DUP1 REVERT JUMPDEST POP JUMP JUMPDEST PUSH0 DUP2 MLOAD SWAP1 POP PUSH3 0xB55 DUP2 PUSH3 0xB2C JUMP JUMPDEST SWAP3 SWAP2 POP POP JUMP JUMPDEST PUSH0 DUP1 REVERT JUMPDEST PUSH0 DUP1 REVERT JUMPDEST PUSH0 PUSH1 0x1F NOT PUSH1 0x1F DUP4 ADD AND SWAP1 POP SWAP2 SWAP1 POP JUMP JUMPDEST PUSH32 0x4E487B7100000000000000000000000000000000000000000000000000000000 PUSH0 MSTORE PUSH1 0x41 PUSH1 0x4 MSTORE PUSH1 0x24 PUSH0 REVERT JUMPDEST PUSH3 0xBAB DUP3 PUSH3 0xB63 JUMP JUMPDEST DUP2 ADD DUP2 DUP2 LT PUSH8 0xFFFFFFFFFFFFFFFF DUP3 GT OR ISZERO PUSH3 0xBCD JUMPI PUSH3 0xBCC PUSH3 0xB73 JUMP JUMPDEST JUMPDEST DUP1 PUSH1 0x40 MSTORE POP POP POP JUMP JUMPDEST PUSH0 PUSH3 0xBE1 PUSH3 0xAE9 JUMP JUMPDEST SWAP1 POP PUSH3 0xBEF DUP3 DUP3 PUSH3 0xBA0 JUMP JUMPDEST SWAP2 SWAP1 POP JUMP JUMPDEST PUSH0 PUSH8 0xFFFFFFFFFFFFFFFF DUP3 GT ISZERO PUSH3 0xC11 JUMPI PUSH3 0xC10 PUSH3 0xB73 JUMP JUMPDEST JUMPDEST PUSH3 0xC1C DUP3 PUSH3 0xB63 JUMP JUMPDEST SWAP1 POP PUSH1 0x20 DUP2 ADD SWAP1 POP SWAP2 SWAP1 POP JUMP JUMPDEST PUSH0 JUMPDEST DUP4 DUP2 LT ISZERO PUSH3 0xC48 JUMPI DUP1 DUP3 ADD MLOAD DUP2 DUP5 ADD MSTORE PUSH1 0x20 DUP2 ADD SWAP1 POP PUSH3 0xC2B JUMP JUMPDEST PUSH0 DUP5 DUP5 ADD MSTORE POP POP POP POP JUMP JUMPDEST PUSH0 PUSH3 0xC69 PUSH3 0xC63 DUP5 PUSH3 0xBF4 JUMP JUMPDEST PUSH3 0xBD6 JUMP JUMPDEST SWAP1 POP DUP3 DUP2 MSTORE PUSH1 0x20 DUP2 ADD DUP5 DUP5 DUP5 ADD GT ISZERO PUSH3 0xC88 JUMPI PUSH3 0xC87 PUSH3 0xB5F JUMP JUMPDEST JUMPDEST PUSH3 0xC95 DUP5 DUP3 DUP6 PUSH3 0xC29 JUMP JUMPDEST POP SWAP4 SWAP3 POP POP POP JUMP JUMPDEST PUSH0 DUP3 PUSH1 0x1F DUP4 ADD SLT PUSH3 0xCB4 JUMPI PUSH3 0xCB3 PUSH3 0xB5B JUMP JUMPDEST JUMPDEST DUP2 MLOAD PUSH3 0xCC6 DUP5 DUP3 PUSH1 0x20 DUP7 ADD PUSH3 0xC53 JUMP JUMPDEST SWAP2 POP POP SWAP3 SWAP2 POP POP JUMP JUMPDEST PUSH0 DUP1 PUSH0 DUP1 PUSH1 0x80 DUP6 DUP8 SUB SLT ISZERO PUSH3 0xCEA JUMPI PUSH3 0xCE9 PUSH3 0xAF2 JUMP JUMPDEST JUMPDEST PUSH0 PUSH3 0xCF9 DUP8 DUP3 DUP9 ADD PUSH3 0xB45 JUMP JUMPDEST SWAP5 POP POP PUSH1 0x20 PUSH3 0xD0C DUP8 DUP3 DUP9 ADD PUSH3 0xB45 JUMP JUMPDEST SWAP4 POP POP PUSH1 0x40 DUP6 ADD MLOAD PUSH8 0xFFFFFFFFFFFFFFFF DUP2 GT ISZERO PUSH3 0xD30 JUMPI PUSH3 0xD2F PUSH3 0xAF6 JUMP JUMPDEST JUMPDEST PUSH3 0xD3E DUP8 DUP3 DUP9 ADD PUSH3 0xC9D JUMP JUMPDEST SWAP3 POP POP PUSH1 0x60 DUP6 ADD MLOAD PUSH8 0xFFFFFFFFFFFFFFFF DUP2 GT ISZERO PUSH3 0xD62 JUMPI PUSH3 0xD61 PUSH3 0xAF6 JUMP JUMPDEST JUMPDEST PUSH3 0xD70 DUP8 DUP3 DUP9 ADD PUSH3 0xC9D JUMP JUMPDEST SWAP2 POP POP SWAP3 SWAP6 SWAP2 SWAP5 POP SWAP3 POP JUMP JUMPDEST PUSH0 DUP2 MLOAD SWAP1 POP SWAP2 SWAP1 POP JUMP JUMPDEST PUSH32 0x4E487B7100000000000000000000000000000000000000000000000000000000 PUSH0 MSTORE PUSH1 0x22 PUSH1 0x4 MSTORE PUSH1 0x24 PUSH0 REVERT JUMPDEST PUSH0 PUSH1 0x2 DUP3 DIV SWAP1 POP PUSH1 0x1 DUP3 AND DUP1 PUSH3 0xDCB JUMPI PUSH1 0x7F DUP3 AND SWAP2 POP JUMPDEST PUSH1 0x20 DUP3 LT DUP2 SUB PUSH3 0xDE1 JUMPI PUSH3 0xDE0 PUSH3 0xD86 JUMP JUMPDEST JUMPDEST POP SWAP2 SWAP1 POP JUMP JUMPDEST PUSH0 DUP2 SWAP1 POP DUP2 PUSH0 MSTORE PUSH1 0x20 PUSH0 KECCAK256 SWAP1 POP SWAP2 SWAP1 POP JUMP JUMPDEST PUSH0 PUSH1 0x20 PUSH1 0x1F DUP4 ADD DIV SWAP1 POP SWAP2 SWAP1 POP JUMP JUMPDEST PUSH0 DUP3 DUP3 SHL SWAP1 POP SWAP3 SWAP2 POP POP JUMP JUMPDEST PUSH0 PUSH1 0x8 DUP4 MUL PUSH3 0xE45 PUSH32 0xFFFFFFFFFFFFFFFFFFFFFFFFFFFFFFFFFFFFFFFFFFFFFFFFFFFFFFFFFFFFFFFF DUP3 PUSH3 0xE08 JUMP JUMPDEST PUSH3 0xE51 DUP7 DUP4 PUSH3 0xE08 JUMP JUMPDEST SWAP6 POP DUP1 NOT DUP5 AND SWAP4 POP DUP1 DUP7 AND DUP5 OR SWAP3 POP POP POP SWAP4 SWAP3 POP POP POP JUMP JUMPDEST PUSH0 DUP2 SWAP1 POP SWAP2 SWAP1 POP JUMP JUMPDEST PUSH0 DUP2 SWAP1 POP SWAP2 SWAP1 POP JUMP JUMPDEST PUSH0 PUSH3 0xE9B PUSH3 0xE95 PUSH3 0xE8F DUP5 PUSH3 0xE69 JUMP JUMPDEST PUSH3 0xE72 JUMP JUMPDEST PUSH3 0xE69 JUMP JUMPDEST SWAP1 POP SWAP2 SWAP1 POP JUMP JUMPDEST PUSH0 DUP2 SWAP1 POP SWAP2 SWAP1 POP JUMP JUMPDEST PUSH3 0xEB6 DUP4 PUSH3 0xE7B JUMP JUMPDEST PUSH3 0xECE PUSH3 0xEC5 DUP3 PUSH3 0xEA2 JUMP JUMPDEST DUP5 DUP5 SLOAD PUSH3 0xE14 JUMP JUMPDEST DUP3 SSTORE POP POP POP POP JUMP JUMPDEST PUSH0 SWAP1 JUMP JUMPDEST PUSH3 0xEE4 PUSH3 0xED6 JUMP JUMPDEST PUSH3 0xEF1 DUP2 DUP5 DUP5 PUSH3 0xEAB JUMP JUMPDEST POP POP POP JUMP JUMPDEST JUMPDEST DUP2 DUP2 LT ISZERO PUSH3 0xF18 JUMPI PUSH3 0xF0C PUSH0 DUP3 PUSH3 0xEDA JUMP JUMPDEST PUSH1 0x1 DUP2 ADD SWAP1 POP PUSH3 0xEF7 JUMP JUMPDEST POP POP JUMP JUMPDEST PUSH1 0x1F DUP3 GT ISZERO PUSH3 0xF67 JUMPI PUSH3 0xF31 DUP2 PUSH3 0xDE7 JUMP JUMPDEST PUSH3 0xF3C DUP5 PUSH3 0xDF9 JUMP JUMPDEST DUP2 ADD PUSH1 0x20 DUP6 LT ISZERO PUSH3 0xF4C JUMPI DUP2 SWAP1 POP JUMPDEST PUSH3 0xF64 PUSH3 0xF5B DUP6 PUSH3 0xDF9 JUMP JUMPDEST DUP4 ADD DUP3 PUSH3 0xEF6 JUMP JUMPDEST POP POP JUMPDEST POP POP POP JUMP JUMPDEST PUSH0 DUP3 DUP3 SHR SWAP1 POP SWAP3 SWAP2 POP POP JUMP JUMPDEST PUSH0 PUSH3 0xF89 PUSH0 NOT DUP5 PUSH1 0x8 MUL PUSH3 0xF6C JUMP JUMPDEST NOT DUP1 DUP4 AND SWAP2 POP POP SWAP3 SWAP2 POP POP JUMP JUMPDEST PUSH0 PUSH3 0xFA3 DUP4 DUP4 PUSH3 0xF78 JUMP JUMPDEST SWAP2 POP DUP3 PUSH1 0x2 MUL DUP3 OR SWAP1 POP SWAP3 SWAP2 POP POP JUMP JUMPDEST PUSH3 0xFBE DUP3 PUSH3 0xD7C JUMP JUMPDEST PUSH8 0xFFFFFFFFFFFFFFFF DUP2 GT ISZERO PUSH3 0xFDA JUMPI PUSH3 0xFD9 PUSH3 0xB73 JUMP JUMPDEST JUMPDEST PUSH3 0xFE6 DUP3 SLOAD PUSH3 0xDB3 JUMP JUMPDEST PUSH3 0xFF3 DUP3 DUP3 DUP6 PUSH3 0xF1C JUMP JUMPDEST PUSH0 PUSH1 0x20 SWAP1 POP PUSH1 0x1F DUP4 GT PUSH1 0x1 DUP2 EQ PUSH3 0x1029 JUMPI PUSH0 DUP5 ISZERO PUSH3 0x1014 JUMPI DUP3 DUP8 ADD MLOAD SWAP1 POP JUMPDEST PUSH3 0x1020 DUP6 DUP3 PUSH3 0xF96 JUMP JUMPDEST DUP7 SSTORE POP PUSH3 0x108F JUMP JUMPDEST PUSH1 0x1F NOT DUP5 AND PUSH3 0x1039 DUP7 PUSH3 0xDE7 JUMP JUMPDEST PUSH0 JUMPDEST DUP3 DUP2 LT ISZERO PUSH3 0x1062 JUMPI DUP5 DUP10 ADD MLOAD DUP3 SSTORE PUSH1 0x1 DUP3 ADD SWAP2 POP PUSH1 0x20 DUP6 ADD SWAP5 POP PUSH1 0x20 DUP2 ADD SWAP1 POP PUSH3 0x103B JUMP JUMPDEST DUP7 DUP4 LT ISZERO PUSH3 0x1082 JUMPI DUP5 DUP10 ADD MLOAD PUSH3 0x107E PUSH1 0x1F DUP10 AND DUP3 PUSH3 0xF78 JUMP JUMPDEST DUP4 SSTORE POP JUMPDEST PUSH1 0x1 PUSH1 0x2 DUP9 MUL ADD DUP9 SSTORE POP POP POP JUMPDEST POP POP POP POP POP POP JUMP JUMPDEST PUSH0 DUP3 DUP3 MSTORE PUSH1 0x20 DUP3 ADD SWAP1 POP SWAP3 SWAP2 POP POP JUMP JUMPDEST PUSH32 0x4552433732313A206D696E7420746F20746865207A65726F2061646472657373 PUSH0 DUP3 ADD MSTORE POP JUMP JUMPDEST PUSH0 PUSH3 0x10DD PUSH1 0x20 DUP4 PUSH3 0x1097 JUMP JUMPDEST SWAP2 POP PUSH3 0x10EA DUP3 PUSH3 0x10A7 JUMP JUMPDEST PUSH1 0x20 DUP3 ADD SWAP1 POP SWAP2 SWAP1 POP JUMP JUMPDEST PUSH0 PUSH1 0x20 DUP3 ADD SWAP1 POP DUP2 DUP2 SUB PUSH0 DUP4 ADD MSTORE PUSH3 0x110E DUP2 PUSH3 0x10CF JUMP JUMPDEST SWAP1 POP SWAP2 SWAP1 POP JUMP JUMPDEST PUSH32 0x4552433732313A20746F6B656E20616C7265616479206D696E74656400000000 PUSH0 DUP3 ADD MSTORE POP JUMP JUMPDEST PUSH0 PUSH3 0x114B PUSH1 0x1C DUP4 PUSH3 0x1097 JUMP JUMPDEST SWAP2 POP PUSH3 0x1158 DUP3 PUSH3 0x1115 JUMP JUMPDEST PUSH1 0x20 DUP3 ADD SWAP1 POP SWAP2 SWAP1 POP JUMP JUMPDEST PUSH0 PUSH1 0x20 DUP3 ADD SWAP1 POP DUP2 DUP2 SUB PUSH0 DUP4 ADD MSTORE PUSH3 0x117C DUP2 PUSH3 0x113D JUMP JUMPDEST SWAP1 POP SWAP2 SWAP1 POP JUMP JUMPDEST PUSH32 0x45524337323155524953746F726167653A2055524920736574206F66206E6F6E PUSH0 DUP3 ADD MSTORE PUSH32 0x6578697374656E7420746F6B656E000000000000000000000000000000000000 PUSH1 0x20 DUP3 ADD MSTORE POP JUMP JUMPDEST PUSH0 PUSH3 0x11DF PUSH1 0x2E DUP4 PUSH3 0x1097 JUMP JUMPDEST SWAP2 POP PUSH3 0x11EC DUP3 PUSH3 0x1183 JUMP JUMPDEST PUSH1 0x40 DUP3 ADD SWAP1 POP SWAP2 SWAP1 POP JUMP JUMPDEST PUSH0 PUSH1 0x20 DUP3 ADD SWAP1 POP DUP2 DUP2 SUB PUSH0 DUP4 ADD MSTORE PUSH3 0x1210 DUP2 PUSH3 0x11D1 JUMP JUMPDEST SWAP1 POP SWAP2 SWAP1 POP JUMP JUMPDEST PUSH3 0x1222 DUP2 PUSH3 0xE69 JUMP JUMPDEST DUP3 MSTORE POP POP JUMP JUMPDEST PUSH0 PUSH1 0x20 DUP3 ADD SWAP1 POP PUSH3 0x123D PUSH0 DUP4 ADD DUP5 PUSH3 0x1217 JUMP JUMPDEST SWAP3 SWAP2 POP POP JUMP JUMPDEST PUSH32 0x455243373231456E756D657261626C653A20636F6E7365637574697665207472 PUSH0 DUP3 ADD MSTORE PUSH32 0x616E7366657273206E6F7420737570706F727465640000000000000000000000 PUSH1 0x20 DUP3 ADD MSTORE POP JUMP JUMPDEST PUSH0 PUSH3 0x129F PUSH1 0x35 DUP4 PUSH3 0x1097 JUMP JUMPDEST SWAP2 POP PUSH3 0x12AC DUP3 PUSH3 0x1243 JUMP JUMPDEST PUSH1 0x40 DUP3 ADD SWAP1 POP SWAP2 SWAP1 POP JUMP JUMPDEST PUSH0 PUSH1 0x20 DUP3 ADD SWAP1 POP DUP2 DUP2 SUB PUSH0 DUP4 ADD MSTORE PUSH3 0x12D0 DUP2 PUSH3 0x1291 JUMP JUMPDEST SWAP1 POP SWAP2 SWAP1 POP JUMP JUMPDEST PUSH32 0x4E487B7100000000000000000000000000000000000000000000000000000000 PUSH0 MSTORE PUSH1 0x11 PUSH1 0x4 MSTORE PUSH1 0x24 PUSH0 REVERT JUMPDEST PUSH0 PUSH3 0x1310 DUP3 PUSH3 0xE69 JUMP JUMPDEST SWAP2 POP PUSH3 0x131D DUP4 PUSH3 0xE69 JUMP JUMPDEST SWAP3 POP DUP3 DUP3 SUB SWAP1 POP DUP2 DUP2 GT ISZERO PUSH3 0x1338 JUMPI PUSH3 0x1337 PUSH3 0x12D7 JUMP JUMPDEST JUMPDEST SWAP3 SWAP2 POP POP JUMP JUMPDEST PUSH32 0x4E487B7100000000000000000000000000000000000000000000000000000000 PUSH0 MSTORE PUSH1 0x32 PUSH1 0x4 MSTORE PUSH1 0x24 PUSH0 REVERT JUMPDEST PUSH32 0x4E487B7100000000000000000000000000000000000000000000000000000000 PUSH0 MSTORE PUSH1 0x31 PUSH1 0x4 MSTORE PUSH1 0x24 PUSH0 REVERT JUMPDEST PUSH32 0x4552433732313A2061646472657373207A65726F206973206E6F742061207661 PUSH0 DUP3 ADD MSTORE PUSH32 0x6C6964206F776E65720000000000000000000000000000000000000000000000 PUSH1 0x20 DUP3 ADD MSTORE POP JUMP JUMPDEST PUSH0 PUSH3 0x13F4 PUSH1 0x29 DUP4 PUSH3 0x1097 JUMP JUMPDEST SWAP2 POP PUSH3 0x1401 DUP3 PUSH3 0x1398 JUMP JUMPDEST PUSH1 0x40 DUP3 ADD SWAP1 POP SWAP2 SWAP1 POP JUMP JUMPDEST PUSH0 PUSH1 0x20 DUP3 ADD SWAP1 POP DUP2 DUP2 SUB PUSH0 DUP4 ADD MSTORE PUSH3 0x1425 DUP2 PUSH3 0x13E6 JUMP JUMPDEST SWAP1 POP SWAP2 SWAP1 POP JUMP JUMPDEST PUSH1 0x80 MLOAD PUSH2 0x6CC1 PUSH3 0x144C PUSH0 CODECOPY PUSH0 DUP2 DUP2 PUSH2 0x1990 ADD MSTORE PUSH2 0x1B08 ADD MSTORE PUSH2 0x6CC1 PUSH0 RETURN INVALID PUSH1 0x80 PUSH1 0x40 MSTORE PUSH1 0x4 CALLDATASIZE LT PUSH2 0x26A JUMPI PUSH0 CALLDATALOAD PUSH1 0xE0 SHR DUP1 PUSH4 0x770DD3E3 GT PUSH2 0x143 JUMPI DUP1 PUSH4 0xC41C9A61 GT PUSH2 0xB5 JUMPI DUP1 PUSH4 0xE8788710 GT PUSH2 0x79 JUMPI DUP1 PUSH4 0xE8788710 EQ PUSH2 0x8F9 JUMPI DUP1 PUSH4 0xE985E9C5 EQ PUSH2 0x921 JUMPI DUP1 PUSH4 0xECE8453F EQ PUSH2 0x95D JUMPI DUP1 PUSH4 0xF274C897 EQ PUSH2 0x999 JUMPI DUP1 PUSH4 0xF2FDE38B EQ PUSH2 0x9C1 JUMPI DUP1 PUSH4 0xFEA59EEA EQ PUSH2 0x9E9 JUMPI PUSH2 0x271 JUMP JUMPDEST DUP1 PUSH4 0xC41C9A61 EQ PUSH2 0x819 JUMPI DUP1 PUSH4 0xC7ACAE2E EQ PUSH2 0x841 JUMPI DUP1 PUSH4 0xC87B56DD EQ PUSH2 0x86B JUMPI DUP1 PUSH4 0xCB6A9BC6 EQ PUSH2 0x8A7 JUMPI DUP1 PUSH4 0xDC30356D EQ PUSH2 0x8D1 JUMPI PUSH2 0x271 JUMP JUMPDEST DUP1 PUSH4 0x9F35233C GT PUSH2 0x107 JUMPI DUP1 PUSH4 0x9F35233C EQ PUSH2 0x759 JUMPI DUP1 PUSH4 0x9FD16ED6 EQ PUSH2 0x76F JUMPI DUP1 PUSH4 0xA22CB465 EQ PUSH2 0x797 JUMPI DUP1 PUSH4 0xB88D4FDE EQ PUSH2 0x7BF JUMPI DUP1 PUSH4 0xBFF29CEE EQ PUSH2 0x7E7 JUMPI DUP1 PUSH4 0xC330CB77 EQ PUSH2 0x7F1 JUMPI PUSH2 0x271 JUMP JUMPDEST DUP1 PUSH4 0x770DD3E3 EQ PUSH2 0x68B JUMPI DUP1 PUSH4 0x7778936C EQ PUSH2 0x6B5 JUMPI DUP1 PUSH4 0x8DA5CB5B EQ PUSH2 0x6DD JUMPI DUP1 PUSH4 0x95D89B41 EQ PUSH2 0x707 JUMPI DUP1 PUSH4 0x9A212DCA EQ PUSH2 0x731 JUMPI PUSH2 0x271 JUMP JUMPDEST DUP1 PUSH4 0x42966C68 GT PUSH2 0x1DC JUMPI DUP1 PUSH4 0x67B88A73 GT PUSH2 0x1A0 JUMPI DUP1 PUSH4 0x67B88A73 EQ PUSH2 0x56F JUMPI DUP1 PUSH4 0x69A02B85 EQ PUSH2 0x5AB JUMPI DUP1 PUSH4 0x6C922764 EQ PUSH2 0x5E7 JUMPI DUP1 PUSH4 0x70A08231 EQ PUSH2 0x611 JUMPI DUP1 PUSH4 0x715018A6 EQ PUSH2 0x64D JUMPI DUP1 PUSH4 0x761EF7B6 EQ PUSH2 0x663 JUMPI PUSH2 0x271 JUMP JUMPDEST DUP1 PUSH4 0x42966C68 EQ PUSH2 0x47F JUMPI DUP1 PUSH4 0x4F6CCCE7 EQ PUSH2 0x4A7 JUMPI DUP1 PUSH4 0x5DA58ED8 EQ PUSH2 0x4E3 JUMPI DUP1 PUSH4 0x60FDDDE7 EQ PUSH2 0x50B JUMPI DUP1 PUSH4 0x6352211E EQ PUSH2 0x533 JUMPI PUSH2 0x271 JUMP JUMPDEST DUP1 PUSH4 0x18160DDD GT PUSH2 0x22E JUMPI DUP1 PUSH4 0x18160DDD EQ PUSH2 0x379 JUMPI DUP1 PUSH4 0x1DADAC52 EQ PUSH2 0x3A3 JUMPI DUP1 PUSH4 0x23B872DD EQ PUSH2 0x3CB JUMPI DUP1 PUSH4 0x2F745C59 EQ PUSH2 0x3F3 JUMPI DUP1 PUSH4 0x3B4B1D50 EQ PUSH2 0x42F JUMPI DUP1 PUSH4 0x42842E0E EQ PUSH2 0x457 JUMPI PUSH2 0x271 JUMP JUMPDEST DUP1 PUSH4 0x1FFC9A7 EQ PUSH2 0x273 JUMPI DUP1 PUSH4 0x6FDDE03 EQ PUSH2 0x2AF JUMPI DUP1 PUSH4 0x81812FC EQ PUSH2 0x2D9 JUMPI DUP1 PUSH4 0x95EA7B3 EQ PUSH2 0x315 JUMPI DUP1 PUSH4 0x150B7A02 EQ PUSH2 0x33D JUMPI PUSH2 0x271 JUMP JUMPDEST CALLDATASIZE PUSH2 0x271 JUMPI STOP JUMPDEST STOP JUMPDEST CALLVALUE DUP1 ISZERO PUSH2 0x27E JUMPI PUSH0 DUP1 REVERT JUMPDEST POP PUSH2 0x299 PUSH1 0x4 DUP1 CALLDATASIZE SUB DUP2 ADD SWAP1 PUSH2 0x294 SWAP2 SWAP1 PUSH2 0x478B JUMP JUMPDEST PUSH2 0xA13 JUMP JUMPDEST PUSH1 0x40 MLOAD PUSH2 0x2A6 SWAP2 SWAP1 PUSH2 0x47D0 JUMP JUMPDEST PUSH1 0x40 MLOAD DUP1 SWAP2 SUB SWAP1 RETURN JUMPDEST CALLVALUE DUP1 ISZERO PUSH2 0x2BA JUMPI PUSH0 DUP1 REVERT JUMPDEST POP PUSH2 0x2C3 PUSH2 0xAF4 JUMP JUMPDEST PUSH1 0x40 MLOAD PUSH2 0x2D0 SWAP2 SWAP1 PUSH2 0x4873 JUMP JUMPDEST PUSH1 0x40 MLOAD DUP1 SWAP2 SUB SWAP1 RETURN JUMPDEST CALLVALUE DUP1 ISZERO PUSH2 0x2E4 JUMPI PUSH0 DUP1 REVERT JUMPDEST POP PUSH2 0x2FF PUSH1 0x4 DUP1 CALLDATASIZE SUB DUP2 ADD SWAP1 PUSH2 0x2FA SWAP2 SWAP1 PUSH2 0x48C6 JUMP JUMPDEST PUSH2 0xB83 JUMP JUMPDEST PUSH1 0x40 MLOAD PUSH2 0x30C SWAP2 SWAP1 PUSH2 0x4930 JUMP JUMPDEST PUSH1 0x40 MLOAD DUP1 SWAP2 SUB SWAP1 RETURN JUMPDEST CALLVALUE DUP1 ISZERO PUSH2 0x320 JUMPI PUSH0 DUP1 REVERT JUMPDEST POP PUSH2 0x33B PUSH1 0x4 DUP1 CALLDATASIZE SUB DUP2 ADD SWAP1 PUSH2 0x336 SWAP2 SWAP1 PUSH2 0x4973 JUMP JUMPDEST PUSH2 0xBC5 JUMP JUMPDEST STOP JUMPDEST CALLVALUE DUP1 ISZERO PUSH2 0x348 JUMPI PUSH0 DUP1 REVERT JUMPDEST POP PUSH2 0x363 PUSH1 0x4 DUP1 CALLDATASIZE SUB DUP2 ADD SWAP1 PUSH2 0x35E SWAP2 SWAP1 PUSH2 0x4A12 JUMP JUMPDEST PUSH2 0xCDB JUMP JUMPDEST PUSH1 0x40 MLOAD PUSH2 0x370 SWAP2 SWAP1 PUSH2 0x4AA5 JUMP JUMPDEST PUSH1 0x40 MLOAD DUP1 SWAP2 SUB SWAP1 RETURN JUMPDEST CALLVALUE DUP1 ISZERO PUSH2 0x384 JUMPI PUSH0 DUP1 REVERT JUMPDEST POP PUSH2 0x38D PUSH2 0xCEF JUMP JUMPDEST PUSH1 0x40 MLOAD PUSH2 0x39A SWAP2 SWAP1 PUSH2 0x4ACD JUMP JUMPDEST PUSH1 0x40 MLOAD DUP1 SWAP2 SUB SWAP1 RETURN JUMPDEST CALLVALUE DUP1 ISZERO PUSH2 0x3AE JUMPI PUSH0 DUP1 REVERT JUMPDEST POP PUSH2 0x3C9 PUSH1 0x4 DUP1 CALLDATASIZE SUB DUP2 ADD SWAP1 PUSH2 0x3C4 SWAP2 SWAP1 PUSH2 0x4B3B JUMP JUMPDEST PUSH2 0xCFB JUMP JUMPDEST STOP JUMPDEST CALLVALUE DUP1 ISZERO PUSH2 0x3D6 JUMPI PUSH0 DUP1 REVERT JUMPDEST POP PUSH2 0x3F1 PUSH1 0x4 DUP1 CALLDATASIZE SUB DUP2 ADD SWAP1 PUSH2 0x3EC SWAP2 SWAP1 PUSH2 0x4B86 JUMP JUMPDEST PUSH2 0xD7A JUMP JUMPDEST STOP JUMPDEST CALLVALUE DUP1 ISZERO PUSH2 0x3FE JUMPI PUSH0 DUP1 REVERT JUMPDEST POP PUSH2 0x419 PUSH1 0x4 DUP1 CALLDATASIZE SUB DUP2 ADD SWAP1 PUSH2 0x414 SWAP2 SWAP1 PUSH2 0x4973 JUMP JUMPDEST PUSH2 0xDDA JUMP JUMPDEST PUSH1 0x40 MLOAD PUSH2 0x426 SWAP2 SWAP1 PUSH2 0x4ACD JUMP JUMPDEST PUSH1 0x40 MLOAD DUP1 SWAP2 SUB SWAP1 RETURN JUMPDEST CALLVALUE DUP1 ISZERO PUSH2 0x43A JUMPI PUSH0 DUP1 REVERT JUMPDEST POP PUSH2 0x455 PUSH1 0x4 DUP1 CALLDATASIZE SUB DUP2 ADD SWAP1 PUSH2 0x450 SWAP2 SWAP1 PUSH2 0x4C0D JUMP JUMPDEST PUSH2 0xE7A JUMP JUMPDEST STOP JUMPDEST CALLVALUE DUP1 ISZERO PUSH2 0x462 JUMPI PUSH0 DUP1 REVERT JUMPDEST POP PUSH2 0x47D PUSH1 0x4 DUP1 CALLDATASIZE SUB DUP2 ADD SWAP1 PUSH2 0x478 SWAP2 SWAP1 PUSH2 0x4B86 JUMP JUMPDEST PUSH2 0xEA2 JUMP JUMPDEST STOP JUMPDEST CALLVALUE DUP1 ISZERO PUSH2 0x48A JUMPI PUSH0 DUP1 REVERT JUMPDEST POP PUSH2 0x4A5 PUSH1 0x4 DUP1 CALLDATASIZE SUB DUP2 ADD SWAP1 PUSH2 0x4A0 SWAP2 SWAP1 PUSH2 0x48C6 JUMP JUMPDEST PUSH2 0xEC1 JUMP JUMPDEST STOP JUMPDEST CALLVALUE DUP1 ISZERO PUSH2 0x4B2 JUMPI PUSH0 DUP1 REVERT JUMPDEST POP PUSH2 0x4CD PUSH1 0x4 DUP1 CALLDATASIZE SUB DUP2 ADD SWAP1 PUSH2 0x4C8 SWAP2 SWAP1 PUSH2 0x48C6 JUMP JUMPDEST PUSH2 0xF1D JUMP JUMPDEST PUSH1 0x40 MLOAD PUSH2 0x4DA SWAP2 SWAP1 PUSH2 0x4ACD JUMP JUMPDEST PUSH1 0x40 MLOAD DUP1 SWAP2 SUB SWAP1 RETURN JUMPDEST CALLVALUE DUP1 ISZERO PUSH2 0x4EE JUMPI PUSH0 DUP1 REVERT JUMPDEST POP PUSH2 0x509 PUSH1 0x4 DUP1 CALLDATASIZE SUB DUP2 ADD SWAP1 PUSH2 0x504 SWAP2 SWAP1 PUSH2 0x4D60 JUMP JUMPDEST PUSH2 0xF8B JUMP JUMPDEST STOP JUMPDEST CALLVALUE DUP1 ISZERO PUSH2 0x516 JUMPI PUSH0 DUP1 REVERT JUMPDEST POP PUSH2 0x531 PUSH1 0x4 DUP1 CALLDATASIZE SUB DUP2 ADD SWAP1 PUSH2 0x52C SWAP2 SWAP1 PUSH2 0x4973 JUMP JUMPDEST PUSH2 0x1325 JUMP JUMPDEST STOP JUMPDEST CALLVALUE DUP1 ISZERO PUSH2 0x53E JUMPI PUSH0 DUP1 REVERT JUMPDEST POP PUSH2 0x559 PUSH1 0x4 DUP1 CALLDATASIZE SUB DUP2 ADD SWAP1 PUSH2 0x554 SWAP2 SWAP1 PUSH2 0x48C6 JUMP JUMPDEST PUSH2 0x133B JUMP JUMPDEST PUSH1 0x40 MLOAD PUSH2 0x566 SWAP2 SWAP1 PUSH2 0x4930 JUMP JUMPDEST PUSH1 0x40 MLOAD DUP1 SWAP2 SUB SWAP1 RETURN JUMPDEST CALLVALUE DUP1 ISZERO PUSH2 0x57A JUMPI PUSH0 DUP1 REVERT JUMPDEST POP PUSH2 0x595 PUSH1 0x4 DUP1 CALLDATASIZE SUB DUP2 ADD SWAP1 PUSH2 0x590 SWAP2 SWAP1 PUSH2 0x4D60 JUMP JUMPDEST PUSH2 0x13BF JUMP JUMPDEST PUSH1 0x40 MLOAD PUSH2 0x5A2 SWAP2 SWAP1 PUSH2 0x4930 JUMP JUMPDEST PUSH1 0x40 MLOAD DUP1 SWAP2 SUB SWAP1 RETURN JUMPDEST CALLVALUE DUP1 ISZERO PUSH2 0x5B6 JUMPI PUSH0 DUP1 REVERT JUMPDEST POP PUSH2 0x5D1 PUSH1 0x4 DUP1 CALLDATASIZE SUB DUP2 ADD SWAP1 PUSH2 0x5CC SWAP2 SWAP1 PUSH2 0x4B3B JUMP JUMPDEST PUSH2 0x13D2 JUMP JUMPDEST PUSH1 0x40 MLOAD PUSH2 0x5DE SWAP2 SWAP1 PUSH2 0x4AA5 JUMP JUMPDEST PUSH1 0x40 MLOAD DUP1 SWAP2 SUB SWAP1 RETURN JUMPDEST CALLVALUE DUP1 ISZERO PUSH2 0x5F2 JUMPI PUSH0 DUP1 REVERT JUMPDEST POP PUSH2 0x5FB PUSH2 0x13E5 JUMP JUMPDEST PUSH1 0x40 MLOAD PUSH2 0x608 SWAP2 SWAP1 PUSH2 0x4E15 JUMP JUMPDEST PUSH1 0x40 MLOAD DUP1 SWAP2 SUB SWAP1 RETURN JUMPDEST CALLVALUE DUP1 ISZERO PUSH2 0x61C JUMPI PUSH0 DUP1 REVERT JUMPDEST POP PUSH2 0x637 PUSH1 0x4 DUP1 CALLDATASIZE SUB DUP2 ADD SWAP1 PUSH2 0x632 SWAP2 SWAP1 PUSH2 0x4E2E JUMP JUMPDEST PUSH2 0x140A JUMP JUMPDEST PUSH1 0x40 MLOAD PUSH2 0x644 SWAP2 SWAP1 PUSH2 0x4ACD JUMP JUMPDEST PUSH1 0x40 MLOAD DUP1 SWAP2 SUB SWAP1 RETURN JUMPDEST CALLVALUE DUP1 ISZERO PUSH2 0x658 JUMPI PUSH0 DUP1 REVERT JUMPDEST POP PUSH2 0x661 PUSH2 0x14BE JUMP JUMPDEST STOP JUMPDEST CALLVALUE DUP1 ISZERO PUSH2 0x66E JUMPI PUSH0 DUP1 REVERT JUMPDEST POP PUSH2 0x689 PUSH1 0x4 DUP1 CALLDATASIZE SUB DUP2 ADD SWAP1 PUSH2 0x684 SWAP2 SWAP1 PUSH2 0x48C6 JUMP JUMPDEST PUSH2 0x14D1 JUMP JUMPDEST STOP JUMPDEST CALLVALUE DUP1 ISZERO PUSH2 0x696 JUMPI PUSH0 DUP1 REVERT JUMPDEST POP PUSH2 0x69F PUSH2 0x14E6 JUMP JUMPDEST PUSH1 0x40 MLOAD PUSH2 0x6AC SWAP2 SWAP1 PUSH2 0x4E68 JUMP JUMPDEST PUSH1 0x40 MLOAD DUP1 SWAP2 SUB SWAP1 RETURN JUMPDEST CALLVALUE DUP1 ISZERO PUSH2 0x6C0 JUMPI PUSH0 DUP1 REVERT JUMPDEST POP PUSH2 0x6DB PUSH1 0x4 DUP1 CALLDATASIZE SUB DUP2 ADD SWAP1 PUSH2 0x6D6 SWAP2 SWAP1 PUSH2 0x4B3B JUMP JUMPDEST PUSH2 0x14FD JUMP JUMPDEST STOP JUMPDEST CALLVALUE DUP1 ISZERO PUSH2 0x6E8 JUMPI PUSH0 DUP1 REVERT JUMPDEST POP PUSH2 0x6F1 PUSH2 0x151B JUMP JUMPDEST PUSH1 0x40 MLOAD PUSH2 0x6FE SWAP2 SWAP1 PUSH2 0x4930 JUMP JUMPDEST PUSH1 0x40 MLOAD DUP1 SWAP2 SUB SWAP1 RETURN JUMPDEST CALLVALUE DUP1 ISZERO PUSH2 0x712 JUMPI PUSH0 DUP1 REVERT JUMPDEST POP PUSH2 0x71B PUSH2 0x1543 JUMP JUMPDEST PUSH1 0x40 MLOAD PUSH2 0x728 SWAP2 SWAP1 PUSH2 0x4873 JUMP JUMPDEST PUSH1 0x40 MLOAD DUP1 SWAP2 SUB SWAP1 RETURN JUMPDEST CALLVALUE DUP1 ISZERO PUSH2 0x73C JUMPI PUSH0 DUP1 REVERT JUMPDEST POP PUSH2 0x757 PUSH1 0x4 DUP1 CALLDATASIZE SUB DUP2 ADD SWAP1 PUSH2 0x752 SWAP2 SWAP1 PUSH2 0x478B JUMP JUMPDEST PUSH2 0x15D3 JUMP JUMPDEST STOP JUMPDEST CALLVALUE DUP1 ISZERO PUSH2 0x764 JUMPI PUSH0 DUP1 REVERT JUMPDEST POP PUSH2 0x76D PUSH2 0x1643 JUMP JUMPDEST STOP JUMPDEST CALLVALUE DUP1 ISZERO PUSH2 0x77A JUMPI PUSH0 DUP1 REVERT JUMPDEST POP PUSH2 0x795 PUSH1 0x4 DUP1 CALLDATASIZE SUB DUP2 ADD SWAP1 PUSH2 0x790 SWAP2 SWAP1 PUSH2 0x4E81 JUMP JUMPDEST PUSH2 0x164D JUMP JUMPDEST STOP JUMPDEST CALLVALUE DUP1 ISZERO PUSH2 0x7A2 JUMPI PUSH0 DUP1 REVERT JUMPDEST POP PUSH2 0x7BD PUSH1 0x4 DUP1 CALLDATASIZE SUB DUP2 ADD SWAP1 PUSH2 0x7B8 SWAP2 SWAP1 PUSH2 0x4F4E JUMP JUMPDEST PUSH2 0x166B JUMP JUMPDEST STOP JUMPDEST CALLVALUE DUP1 ISZERO PUSH2 0x7CA JUMPI PUSH0 DUP1 REVERT JUMPDEST POP PUSH2 0x7E5 PUSH1 0x4 DUP1 CALLDATASIZE SUB DUP2 ADD SWAP1 PUSH2 0x7E0 SWAP2 SWAP1 PUSH2 0x502A JUMP JUMPDEST PUSH2 0x1681 JUMP JUMPDEST STOP JUMPDEST PUSH2 0x7EF PUSH2 0x16E3 JUMP JUMPDEST STOP JUMPDEST CALLVALUE DUP1 ISZERO PUSH2 0x7FC JUMPI PUSH0 DUP1 REVERT JUMPDEST POP PUSH2 0x817 PUSH1 0x4 DUP1 CALLDATASIZE SUB DUP2 ADD SWAP1 PUSH2 0x812 SWAP2 SWAP1 PUSH2 0x4B3B JUMP JUMPDEST PUSH2 0x16ED JUMP JUMPDEST STOP JUMPDEST CALLVALUE DUP1 ISZERO PUSH2 0x824 JUMPI PUSH0 DUP1 REVERT JUMPDEST POP PUSH2 0x83F PUSH1 0x4 DUP1 CALLDATASIZE SUB DUP2 ADD SWAP1 PUSH2 0x83A SWAP2 SWAP1 PUSH2 0x4B86 JUMP JUMPDEST PUSH2 0x170B JUMP JUMPDEST STOP JUMPDEST CALLVALUE DUP1 ISZERO PUSH2 0x84C JUMPI PUSH0 DUP1 REVERT JUMPDEST POP PUSH2 0x855 PUSH2 0x1853 JUMP JUMPDEST PUSH1 0x40 MLOAD PUSH2 0x862 SWAP2 SWAP1 PUSH2 0x4873 JUMP JUMPDEST PUSH1 0x40 MLOAD DUP1 SWAP2 SUB SWAP1 RETURN JUMPDEST CALLVALUE DUP1 ISZERO PUSH2 0x876 JUMPI PUSH0 DUP1 REVERT JUMPDEST POP PUSH2 0x891 PUSH1 0x4 DUP1 CALLDATASIZE SUB DUP2 ADD SWAP1 PUSH2 0x88C SWAP2 SWAP1 PUSH2 0x48C6 JUMP JUMPDEST PUSH2 0x18E3 JUMP JUMPDEST PUSH1 0x40 MLOAD PUSH2 0x89E SWAP2 SWAP1 PUSH2 0x4873 JUMP JUMPDEST PUSH1 0x40 MLOAD DUP1 SWAP2 SUB SWAP1 RETURN JUMPDEST CALLVALUE DUP1 ISZERO PUSH2 0x8B2 JUMPI PUSH0 DUP1 REVERT JUMPDEST POP PUSH2 0x8BB PUSH2 0x18F5 JUMP JUMPDEST PUSH1 0x40 MLOAD PUSH2 0x8C8 SWAP2 SWAP1 PUSH2 0x4873 JUMP JUMPDEST PUSH1 0x40 MLOAD DUP1 SWAP2 SUB SWAP1 RETURN JUMPDEST CALLVALUE DUP1 ISZERO PUSH2 0x8DC JUMPI PUSH0 DUP1 REVERT JUMPDEST POP PUSH2 0x8F7 PUSH1 0x4 DUP1 CALLDATASIZE SUB DUP2 ADD SWAP1 PUSH2 0x8F2 SWAP2 SWAP1 PUSH2 0x4D60 JUMP JUMPDEST PUSH2 0x1985 JUMP JUMPDEST STOP JUMPDEST CALLVALUE DUP1 ISZERO PUSH2 0x904 JUMPI PUSH0 DUP1 REVERT JUMPDEST POP PUSH2 0x91F PUSH1 0x4 DUP1 CALLDATASIZE SUB DUP2 ADD SWAP1 PUSH2 0x91A SWAP2 SWAP1 PUSH2 0x4B86 JUMP JUMPDEST PUSH2 0x1D98 JUMP JUMPDEST STOP JUMPDEST CALLVALUE DUP1 ISZERO PUSH2 0x92C JUMPI PUSH0 DUP1 REVERT JUMPDEST POP PUSH2 0x947 PUSH1 0x4 DUP1 CALLDATASIZE SUB DUP2 ADD SWAP1 PUSH2 0x942 SWAP2 SWAP1 PUSH2 0x50AA JUMP JUMPDEST PUSH2 0x1EF9 JUMP JUMPDEST PUSH1 0x40 MLOAD PUSH2 0x954 SWAP2 SWAP1 PUSH2 0x47D0 JUMP JUMPDEST PUSH1 0x40 MLOAD DUP1 SWAP2 SUB SWAP1 RETURN JUMPDEST CALLVALUE DUP1 ISZERO PUSH2 0x968 JUMPI PUSH0 DUP1 REVERT JUMPDEST POP PUSH2 0x983 PUSH1 0x4 DUP1 CALLDATASIZE SUB DUP2 ADD SWAP1 PUSH2 0x97E SWAP2 SWAP1 PUSH2 0x4D60 JUMP JUMPDEST PUSH2 0x1F87 JUMP JUMPDEST PUSH1 0x40 MLOAD PUSH2 0x990 SWAP2 SWAP1 PUSH2 0x47D0 JUMP JUMPDEST PUSH1 0x40 MLOAD DUP1 SWAP2 SUB SWAP1 RETURN JUMPDEST CALLVALUE DUP1 ISZERO PUSH2 0x9A4 JUMPI PUSH0 DUP1 REVERT JUMPDEST POP PUSH2 0x9BF PUSH1 0x4 DUP1 CALLDATASIZE SUB DUP2 ADD SWAP1 PUSH2 0x9BA SWAP2 SWAP1 PUSH2 0x5123 JUMP JUMPDEST PUSH2 0x1FBA JUMP JUMPDEST STOP JUMPDEST CALLVALUE DUP1 ISZERO PUSH2 0x9CC JUMPI PUSH0 DUP1 REVERT JUMPDEST POP PUSH2 0x9E7 PUSH1 0x4 DUP1 CALLDATASIZE SUB DUP2 ADD SWAP1 PUSH2 0x9E2 SWAP2 SWAP1 PUSH2 0x4E2E JUMP JUMPDEST PUSH2 0x204D JUMP JUMPDEST STOP JUMPDEST CALLVALUE DUP1 ISZERO PUSH2 0x9F4 JUMPI PUSH0 DUP1 REVERT JUMPDEST POP PUSH2 0x9FD PUSH2 0x20CF JUMP JUMPDEST PUSH1 0x40 MLOAD PUSH2 0xA0A SWAP2 SWAP1 PUSH2 0x4AA5 JUMP JUMPDEST PUSH1 0x40 MLOAD DUP1 SWAP2 SUB SWAP1 RETURN JUMPDEST PUSH0 PUSH32 0x150B7A0200000000000000000000000000000000000000000000000000000000 PUSH28 0xFFFFFFFFFFFFFFFFFFFFFFFFFFFFFFFFFFFFFFFFFFFFFFFFFFFFFFFF NOT AND DUP3 PUSH28 0xFFFFFFFFFFFFFFFFFFFFFFFFFFFFFFFFFFFFFFFFFFFFFFFFFFFFFFFF NOT AND EQ DUP1 PUSH2 0xADD JUMPI POP PUSH32 0x7B90F96100000000000000000000000000000000000000000000000000000000 PUSH28 0xFFFFFFFFFFFFFFFFFFFFFFFFFFFFFFFFFFFFFFFFFFFFFFFFFFFFFFFF NOT AND DUP3 PUSH28 0xFFFFFFFFFFFFFFFFFFFFFFFFFFFFFFFFFFFFFFFFFFFFFFFFFFFFFFFF NOT AND EQ JUMPDEST DUP1 PUSH2 0xAED JUMPI POP PUSH2 0xAEC DUP3 PUSH2 0x20E4 JUMP JUMPDEST JUMPDEST SWAP1 POP SWAP2 SWAP1 POP JUMP JUMPDEST PUSH1 0x60 PUSH0 DUP1 SLOAD PUSH2 0xB02 SWAP1 PUSH2 0x518E JUMP JUMPDEST DUP1 PUSH1 0x1F ADD PUSH1 0x20 DUP1 SWAP2 DIV MUL PUSH1 0x20 ADD PUSH1 0x40 MLOAD SWAP1 DUP2 ADD PUSH1 0x40 MSTORE DUP1 SWAP3 SWAP2 SWAP1 DUP2 DUP2 MSTORE PUSH1 0x20 ADD DUP3 DUP1 SLOAD PUSH2 0xB2E SWAP1 PUSH2 0x518E JUMP JUMPDEST DUP1 ISZERO PUSH2 0xB79 JUMPI DUP1 PUSH1 0x1F LT PUSH2 0xB50 JUMPI PUSH2 0x100 DUP1 DUP4 SLOAD DIV MUL DUP4 MSTORE SWAP2 PUSH1 0x20 ADD SWAP2 PUSH2 0xB79 JUMP JUMPDEST DUP3 ADD SWAP2 SWAP1 PUSH0 MSTORE PUSH1 0x20 PUSH0 KECCAK256 SWAP1 JUMPDEST DUP2 SLOAD DUP2 MSTORE SWAP1 PUSH1 0x1 ADD SWAP1 PUSH1 0x20 ADD DUP1 DUP4 GT PUSH2 0xB5C JUMPI DUP3 SWAP1 SUB PUSH1 0x1F AND DUP3 ADD SWAP2 JUMPDEST POP POP POP POP POP SWAP1 POP SWAP1 JUMP JUMPDEST PUSH0 PUSH2 0xB8D DUP3 PUSH2 0x215D JUMP JUMPDEST PUSH1 0x4 PUSH0 DUP4 DUP2 MSTORE PUSH1 0x20 ADD SWAP1 DUP2 MSTORE PUSH1 0x20 ADD PUSH0 KECCAK256 PUSH0 SWAP1 SLOAD SWAP1 PUSH2 0x100 EXP SWAP1 DIV PUSH20 0xFFFFFFFFFFFFFFFFFFFFFFFFFFFFFFFFFFFFFFFF AND SWAP1 POP SWAP2 SWAP1 POP JUMP JUMPDEST PUSH0 PUSH2 0xBCF DUP3 PUSH2 0x133B JUMP JUMPDEST SWAP1 POP DUP1 PUSH20 0xFFFFFFFFFFFFFFFFFFFFFFFFFFFFFFFFFFFFFFFF AND DUP4 PUSH20 0xFFFFFFFFFFFFFFFFFFFFFFFFFFFFFFFFFFFFFFFF AND SUB PUSH2 0xC3F JUMPI PUSH1 0x40 MLOAD PUSH32 0x8C379A000000000000000000000000000000000000000000000000000000000 DUP2 MSTORE PUSH1 0x4 ADD PUSH2 0xC36 SWAP1 PUSH2 0x522E JUMP JUMPDEST PUSH1 0x40 MLOAD DUP1 SWAP2 SUB SWAP1 REVERT JUMPDEST DUP1 PUSH20 0xFFFFFFFFFFFFFFFFFFFFFFFFFFFFFFFFFFFFFFFF AND PUSH2 0xC5E PUSH2 0x21A8 JUMP JUMPDEST PUSH20 0xFFFFFFFFFFFFFFFFFFFFFFFFFFFFFFFFFFFFFFFF AND EQ DUP1 PUSH2 0xC8D JUMPI POP PUSH2 0xC8C DUP2 PUSH2 0xC87 PUSH2 0x21A8 JUMP JUMPDEST PUSH2 0x1EF9 JUMP JUMPDEST JUMPDEST PUSH2 0xCCC JUMPI PUSH1 0x40 MLOAD PUSH32 0x8C379A000000000000000000000000000000000000000000000000000000000 DUP2 MSTORE PUSH1 0x4 ADD PUSH2 0xCC3 SWAP1 PUSH2 0x52BC JUMP JUMPDEST PUSH1 0x40 MLOAD DUP1 SWAP2 SUB SWAP1 REVERT JUMPDEST PUSH2 0xCD6 DUP4 DUP4 PUSH2 0x21AF JUMP JUMPDEST POP POP POP JUMP JUMPDEST PUSH0 PUSH4 0x150B7A02 PUSH1 0xE0 SHL SWAP1 POP SWAP6 SWAP5 POP POP POP POP POP JUMP JUMPDEST PUSH0 PUSH1 0x9 DUP1 SLOAD SWAP1 POP SWAP1 POP SWAP1 JUMP JUMPDEST PUSH2 0xD03 PUSH2 0x2265 JUMP JUMPDEST PUSH0 PUSH2 0xD0E DUP4 DUP4 PUSH2 0x22E3 JUMP JUMPDEST SWAP1 POP PUSH2 0xD19 DUP2 PUSH2 0x274C JUMP JUMPDEST PUSH2 0xD58 JUMPI PUSH1 0x40 MLOAD PUSH32 0x8C379A000000000000000000000000000000000000000000000000000000000 DUP2 MSTORE PUSH1 0x4 ADD PUSH2 0xD4F SWAP1 PUSH2 0x5324 JUMP JUMPDEST PUSH1 0x40 MLOAD DUP1 SWAP2 SUB SWAP1 REVERT JUMPDEST DUP1 PUSH1 0x11 PUSH0 PUSH2 0x100 EXP DUP2 SLOAD DUP2 PUSH4 0xFFFFFFFF MUL NOT AND SWAP1 DUP4 PUSH1 0xE0 SHR MUL OR SWAP1 SSTORE POP POP POP POP JUMP JUMPDEST PUSH2 0xD8B PUSH2 0xD85 PUSH2 0x21A8 JUMP JUMPDEST DUP3 PUSH2 0x2854 JUMP JUMPDEST PUSH2 0xDCA JUMPI PUSH1 0x40 MLOAD PUSH32 0x8C379A000000000000000000000000000000000000000000000000000000000 DUP2 MSTORE PUSH1 0x4 ADD PUSH2 0xDC1 SWAP1 PUSH2 0x53B2 JUMP JUMPDEST PUSH1 0x40 MLOAD DUP1 SWAP2 SUB SWAP1 REVERT JUMPDEST PUSH2 0xDD5 DUP4 DUP4 DUP4 PUSH2 0x28E8 JUMP JUMPDEST POP POP POP JUMP JUMPDEST PUSH0 PUSH2 0xDE4 DUP4 PUSH2 0x140A JUMP JUMPDEST DUP3 LT PUSH2 0xE25 JUMPI PUSH1 0x40 MLOAD PUSH32 0x8C379A000000000000000000000000000000000000000000000000000000000 DUP2 MSTORE PUSH1 0x4 ADD PUSH2 0xE1C SWAP1 PUSH2 0x5440 JUMP JUMPDEST PUSH1 0x40 MLOAD DUP1 SWAP2 SUB SWAP1 REVERT JUMPDEST PUSH1 0x7 PUSH0 DUP5 PUSH20 0xFFFFFFFFFFFFFFFFFFFFFFFFFFFFFFFFFFFFFFFF AND PUSH20 0xFFFFFFFFFFFFFFFFFFFFFFFFFFFFFFFFFFFFFFFF AND DUP2 MSTORE PUSH1 0x20 ADD SWAP1 DUP2 MSTORE PUSH1 0x20 ADD PUSH0 KECCAK256 PUSH0 DUP4 DUP2 MSTORE PUSH1 0x20 ADD SWAP1 DUP2 MSTORE PUSH1 0x20 ADD PUSH0 KECCAK256 SLOAD SWAP1 POP SWAP3 SWAP2 POP POP JUMP JUMPDEST PUSH2 0xE82 PUSH2 0x2265 JUMP JUMPDEST DUP1 PUSH1 0x11 PUSH1 0x4 PUSH2 0x100 EXP DUP2 SLOAD DUP2 PUSH2 0xFFFF MUL NOT AND SWAP1 DUP4 PUSH2 0xFFFF AND MUL OR SWAP1 SSTORE POP POP JUMP JUMPDEST PUSH2 0xEBC DUP4 DUP4 DUP4 PUSH1 0x40 MLOAD DUP1 PUSH1 0x20 ADD PUSH1 0x40 MSTORE DUP1 PUSH0 DUP2 MSTORE POP PUSH2 0x1681 JUMP JUMPDEST POP POP POP JUMP JUMPDEST PUSH2 0xED2 PUSH2 0xECC PUSH2 0x21A8 JUMP JUMPDEST DUP3 PUSH2 0x2854 JUMP JUMPDEST PUSH2 0xF11 JUMPI PUSH1 0x40 MLOAD PUSH32 0x8C379A000000000000000000000000000000000000000000000000000000000 DUP2 MSTORE PUSH1 0x4 ADD PUSH2 0xF08 SWAP1 PUSH2 0x53B2 JUMP JUMPDEST PUSH1 0x40 MLOAD DUP1 SWAP2 SUB SWAP1 REVERT JUMPDEST PUSH2 0xF1A DUP2 PUSH2 0x2BD4 JUMP JUMPDEST POP JUMP JUMPDEST PUSH0 PUSH2 0xF26 PUSH2 0xCEF JUMP JUMPDEST DUP3 LT PUSH2 0xF67 JUMPI PUSH1 0x40 MLOAD PUSH32 0x8C379A000000000000000000000000000000000000000000000000000000000 DUP2 MSTORE PUSH1 0x4 ADD PUSH2 0xF5E SWAP1 PUSH2 0x54CE JUMP JUMPDEST PUSH1 0x40 MLOAD DUP1 SWAP2 SUB SWAP1 REVERT JUMPDEST PUSH1 0x9 DUP3 DUP2 SLOAD DUP2 LT PUSH2 0xF7B JUMPI PUSH2 0xF7A PUSH2 0x54EC JUMP JUMPDEST JUMPDEST SWAP1 PUSH0 MSTORE PUSH1 0x20 PUSH0 KECCAK256 ADD SLOAD SWAP1 POP SWAP2 SWAP1 POP JUMP JUMPDEST PUSH2 0xF93 PUSH2 0x2265 JUMP JUMPDEST PUSH0 DUP2 PUSH1 0xC DUP2 GT ISZERO PUSH2 0xFA7 JUMPI PUSH2 0xFA6 PUSH2 0x5519 JUMP JUMPDEST JUMPDEST SWAP1 POP PUSH0 PUSH2 0xFB4 DUP5 DUP4 PUSH2 0x2BE0 JUMP JUMPDEST SWAP1 POP PUSH1 0x40 MLOAD DUP1 PUSH1 0x60 ADD PUSH1 0x40 MSTORE DUP1 PUSH1 0x40 MLOAD DUP1 PUSH1 0x20 ADD PUSH1 0x40 MSTORE DUP1 PUSH0 DUP2 MSTORE POP DUP2 MSTORE PUSH1 0x20 ADD PUSH1 0x1 PUSH1 0xC DUP2 GT ISZERO PUSH2 0xFE9 JUMPI PUSH2 0xFE8 PUSH2 0x5519 JUMP JUMPDEST JUMPDEST DUP2 MSTORE PUSH1 0x20 ADD PUSH0 PUSH20 0xFFFFFFFFFFFFFFFFFFFFFFFFFFFFFFFFFFFFFFFF AND DUP2 MSTORE POP PUSH1 0xD PUSH0 DUP4 DUP2 MSTORE PUSH1 0x20 ADD SWAP1 DUP2 MSTORE PUSH1 0x20 ADD PUSH0 KECCAK256 PUSH0 DUP3 ADD MLOAD DUP2 PUSH0 ADD SWAP1 DUP2 PUSH2 0x102C SWAP2 SWAP1 PUSH2 0x56DA JUMP JUMPDEST POP PUSH1 0x20 DUP3 ADD MLOAD DUP2 PUSH1 0x1 ADD PUSH0 PUSH2 0x100 EXP DUP2 SLOAD DUP2 PUSH1 0xFF MUL NOT AND SWAP1 DUP4 PUSH1 0xC DUP2 GT ISZERO PUSH2 0x1057 JUMPI PUSH2 0x1056 PUSH2 0x5519 JUMP JUMPDEST JUMPDEST MUL OR SWAP1 SSTORE POP PUSH1 0x40 DUP3 ADD MLOAD DUP2 PUSH1 0x1 ADD PUSH1 0x1 PUSH2 0x100 EXP DUP2 SLOAD DUP2 PUSH20 0xFFFFFFFFFFFFFFFFFFFFFFFFFFFFFFFFFFFFFFFF MUL NOT AND SWAP1 DUP4 PUSH20 0xFFFFFFFFFFFFFFFFFFFFFFFFFFFFFFFFFFFFFFFF AND MUL OR SWAP1 SSTORE POP SWAP1 POP POP PUSH0 JUMPDEST PUSH1 0xC DUP1 SLOAD SWAP1 POP DUP2 LT ISZERO PUSH2 0x131D JUMPI DUP5 PUSH1 0x40 MLOAD PUSH1 0x20 ADD PUSH2 0x10C6 SWAP2 SWAP1 PUSH2 0x57E3 JUMP JUMPDEST PUSH1 0x40 MLOAD PUSH1 0x20 DUP2 DUP4 SUB SUB DUP2 MSTORE SWAP1 PUSH1 0x40 MSTORE DUP1 MLOAD SWAP1 PUSH1 0x20 ADD KECCAK256 PUSH1 0xC DUP3 DUP2 SLOAD DUP2 LT PUSH2 0x10F0 JUMPI PUSH2 0x10EF PUSH2 0x54EC JUMP JUMPDEST JUMPDEST SWAP1 PUSH0 MSTORE PUSH1 0x20 PUSH0 KECCAK256 SWAP1 PUSH1 0x2 MUL ADD PUSH0 ADD PUSH1 0x40 MLOAD PUSH1 0x20 ADD PUSH2 0x110E SWAP2 SWAP1 PUSH2 0x5879 JUMP JUMPDEST PUSH1 0x40 MLOAD PUSH1 0x20 DUP2 DUP4 SUB SUB DUP2 MSTORE SWAP1 PUSH1 0x40 MSTORE DUP1 MLOAD SWAP1 PUSH1 0x20 ADD KECCAK256 EQ DUP1 ISZERO PUSH2 0x1183 JUMPI POP DUP3 PUSH1 0xC DUP2 GT ISZERO PUSH2 0x113F JUMPI PUSH2 0x113E PUSH2 0x5519 JUMP JUMPDEST JUMPDEST PUSH1 0xC DUP3 DUP2 SLOAD DUP2 LT PUSH2 0x1153 JUMPI PUSH2 0x1152 PUSH2 0x54EC JUMP JUMPDEST JUMPDEST SWAP1 PUSH0 MSTORE PUSH1 0x20 PUSH0 KECCAK256 SWAP1 PUSH1 0x2 MUL ADD PUSH1 0x1 ADD PUSH0 SWAP1 SLOAD SWAP1 PUSH2 0x100 EXP SWAP1 DIV PUSH1 0xFF AND PUSH1 0xC DUP2 GT ISZERO PUSH2 0x1181 JUMPI PUSH2 0x1180 PUSH2 0x5519 JUMP JUMPDEST JUMPDEST EQ JUMPDEST ISZERO PUSH2 0x130A JUMPI PUSH1 0xC PUSH1 0x1 PUSH1 0xC DUP1 SLOAD SWAP1 POP PUSH2 0x119C SWAP2 SWAP1 PUSH2 0x58BC JUMP JUMPDEST DUP2 SLOAD DUP2 LT PUSH2 0x11AD JUMPI PUSH2 0x11AC PUSH2 0x54EC JUMP JUMPDEST JUMPDEST SWAP1 PUSH0 MSTORE PUSH1 0x20 PUSH0 KECCAK256 SWAP1 PUSH1 0x2 MUL ADD PUSH1 0xC DUP3 DUP2 SLOAD DUP2 LT PUSH2 0x11CD JUMPI PUSH2 0x11CC PUSH2 0x54EC JUMP JUMPDEST JUMPDEST SWAP1 PUSH0 MSTORE PUSH1 0x20 PUSH0 KECCAK256 SWAP1 PUSH1 0x2 MUL ADD PUSH0 DUP3 ADD DUP2 PUSH0 ADD SWAP1 DUP2 PUSH2 0x11EB SWAP2 SWAP1 PUSH2 0x5904 JUMP JUMPDEST POP PUSH1 0x1 DUP3 ADD PUSH0 SWAP1 SLOAD SWAP1 PUSH2 0x100 EXP SWAP1 DIV PUSH1 0xFF AND DUP2 PUSH1 0x1 ADD PUSH0 PUSH2 0x100 EXP DUP2 SLOAD DUP2 PUSH1 0xFF MUL NOT AND SWAP1 DUP4 PUSH1 0xC DUP2 GT ISZERO PUSH2 0x1222 JUMPI PUSH2 0x1221 PUSH2 0x5519 JUMP JUMPDEST JUMPDEST MUL OR SWAP1 SSTORE POP PUSH1 0x1 DUP3 ADD PUSH1 0x1 SWAP1 SLOAD SWAP1 PUSH2 0x100 EXP SWAP1 DIV PUSH20 0xFFFFFFFFFFFFFFFFFFFFFFFFFFFFFFFFFFFFFFFF AND DUP2 PUSH1 0x1 ADD PUSH1 0x1 PUSH2 0x100 EXP DUP2 SLOAD DUP2 PUSH20 0xFFFFFFFFFFFFFFFFFFFFFFFFFFFFFFFFFFFFFFFF MUL NOT AND SWAP1 DUP4 PUSH20 0xFFFFFFFFFFFFFFFFFFFFFFFFFFFFFFFFFFFFFFFF AND MUL OR SWAP1 SSTORE POP SWAP1 POP POP PUSH1 0xC DUP1 SLOAD DUP1 PUSH2 0x12A3 JUMPI PUSH2 0x12A2 PUSH2 0x59E9 JUMP JUMPDEST JUMPDEST PUSH1 0x1 SWAP1 SUB DUP2 DUP2 SWAP1 PUSH0 MSTORE PUSH1 0x20 PUSH0 KECCAK256 SWAP1 PUSH1 0x2 MUL ADD PUSH0 DUP1 DUP3 ADD PUSH0 PUSH2 0x12C4 SWAP2 SWAP1 PUSH2 0x46CD JUMP JUMPDEST PUSH1 0x1 DUP3 ADD PUSH0 PUSH2 0x100 EXP DUP2 SLOAD SWAP1 PUSH1 0xFF MUL NOT AND SWAP1 SSTORE PUSH1 0x1 DUP3 ADD PUSH1 0x1 PUSH2 0x100 EXP DUP2 SLOAD SWAP1 PUSH20 0xFFFFFFFFFFFFFFFFFFFFFFFFFFFFFFFFFFFFFFFF MUL NOT AND SWAP1 SSTORE POP POP SWAP1 SSTORE POP POP POP PUSH2 0x1321 JUMP JUMPDEST DUP1 DUP1 PUSH2 0x1315 SWAP1 PUSH2 0x5A16 JUMP JUMPDEST SWAP2 POP POP PUSH2 0x10A8 JUMP JUMPDEST POP POP POP JUMPDEST POP POP JUMP JUMPDEST PUSH2 0x132D PUSH2 0x2265 JUMP JUMPDEST PUSH2 0x1337 DUP3 DUP3 PUSH2 0x2C24 JUMP JUMPDEST POP POP JUMP JUMPDEST PUSH0 DUP1 PUSH2 0x1346 DUP4 PUSH2 0x2CA6 JUMP JUMPDEST SWAP1 POP PUSH0 PUSH20 0xFFFFFFFFFFFFFFFFFFFFFFFFFFFFFFFFFFFFFFFF AND DUP2 PUSH20 0xFFFFFFFFFFFFFFFFFFFFFFFFFFFFFFFFFFFFFFFF AND SUB PUSH2 0x13B6 JUMPI PUSH1 0x40 MLOAD PUSH32 0x8C379A000000000000000000000000000000000000000000000000000000000 DUP2 MSTORE PUSH1 0x4 ADD PUSH2 0x13AD SWAP1 PUSH2 0x5AA7 JUMP JUMPDEST PUSH1 0x40 MLOAD DUP1 SWAP2 SUB SWAP1 REVERT JUMPDEST DUP1 SWAP2 POP POP SWAP2 SWAP1 POP JUMP JUMPDEST PUSH0 PUSH2 0x13CA DUP4 DUP4 PUSH2 0x2CDF JUMP JUMPDEST SWAP1 POP SWAP3 SWAP2 POP POP JUMP JUMPDEST PUSH0 PUSH2 0x13DD DUP4 DUP4 PUSH2 0x22E3 JUMP JUMPDEST SWAP1 POP SWAP3 SWAP2 POP POP JUMP JUMPDEST PUSH1 0x16 PUSH0 SWAP1 SLOAD SWAP1 PUSH2 0x100 EXP SWAP1 DIV PUSH20 0xFFFFFFFFFFFFFFFFFFFFFFFFFFFFFFFFFFFFFFFF AND DUP2 JUMP JUMPDEST PUSH0 DUP1 PUSH20 0xFFFFFFFFFFFFFFFFFFFFFFFFFFFFFFFFFFFFFFFF AND DUP3 PUSH20 0xFFFFFFFFFFFFFFFFFFFFFFFFFFFFFFFFFFFFFFFF AND SUB PUSH2 0x1479 JUMPI PUSH1 0x40 MLOAD PUSH32 0x8C379A000000000000000000000000000000000000000000000000000000000 DUP2 MSTORE PUSH1 0x4 ADD PUSH2 0x1470 SWAP1 PUSH2 0x5B35 JUMP JUMPDEST PUSH1 0x40 MLOAD DUP1 SWAP2 SUB SWAP1 REVERT JUMPDEST PUSH1 0x3 PUSH0 DUP4 PUSH20 0xFFFFFFFFFFFFFFFFFFFFFFFFFFFFFFFFFFFFFFFF AND PUSH20 0xFFFFFFFFFFFFFFFFFFFFFFFFFFFFFFFFFFFFFFFF AND DUP2 MSTORE PUSH1 0x20 ADD SWAP1 DUP2 MSTORE PUSH1 0x20 ADD PUSH0 KECCAK256 SLOAD SWAP1 POP SWAP2 SWAP1 POP JUMP JUMPDEST PUSH2 0x14C6 PUSH2 0x2265 JUMP JUMPDEST PUSH2 0x14CF PUSH0 PUSH2 0x2E4C JUMP JUMPDEST JUMP JUMPDEST PUSH2 0x14D9 PUSH2 0x2265 JUMP JUMPDEST PUSH2 0x14E3 PUSH0 DUP3 PUSH2 0x2C24 JUMP JUMPDEST POP JUMP JUMPDEST PUSH0 PUSH1 0x11 PUSH1 0x4 SWAP1 SLOAD SWAP1 PUSH2 0x100 EXP SWAP1 DIV PUSH2 0xFFFF AND SWAP1 POP SWAP1 JUMP JUMPDEST PUSH2 0x1505 PUSH2 0x2265 JUMP JUMPDEST DUP2 DUP2 PUSH1 0x13 SWAP2 DUP3 PUSH2 0x1516 SWAP3 SWAP2 SWAP1 PUSH2 0x5B5D JUMP JUMPDEST POP POP POP JUMP JUMPDEST PUSH0 PUSH1 0xB PUSH0 SWAP1 SLOAD SWAP1 PUSH2 0x100 EXP SWAP1 DIV PUSH20 0xFFFFFFFFFFFFFFFFFFFFFFFFFFFFFFFFFFFFFFFF AND SWAP1 POP SWAP1 JUMP JUMPDEST PUSH1 0x60 PUSH1 0x1 DUP1 SLOAD PUSH2 0x1552 SWAP1 PUSH2 0x518E JUMP JUMPDEST DUP1 PUSH1 0x1F ADD PUSH1 0x20 DUP1 SWAP2 DIV MUL PUSH1 0x20 ADD PUSH1 0x40 MLOAD SWAP1 DUP2 ADD PUSH1 0x40 MSTORE DUP1 SWAP3 SWAP2 SWAP1 DUP2 DUP2 MSTORE PUSH1 0x20 ADD DUP3 DUP1 SLOAD PUSH2 0x157E SWAP1 PUSH2 0x518E JUMP JUMPDEST DUP1 ISZERO PUSH2 0x15C9 JUMPI DUP1 PUSH1 0x1F LT PUSH2 0x15A0 JUMPI PUSH2 0x100 DUP1 DUP4 SLOAD DIV MUL DUP4 MSTORE SWAP2 PUSH1 0x20 ADD SWAP2 PUSH2 0x15C9 JUMP JUMPDEST DUP3 ADD SWAP2 SWAP1 PUSH0 MSTORE PUSH1 0x20 PUSH0 KECCAK256 SWAP1 JUMPDEST DUP2 SLOAD DUP2 MSTORE SWAP1 PUSH1 0x1 ADD SWAP1 PUSH1 0x20 ADD DUP1 DUP4 GT PUSH2 0x15AC JUMPI DUP3 SWAP1 SUB PUSH1 0x1F AND DUP3 ADD SWAP2 JUMPDEST POP POP POP POP POP SWAP1 POP SWAP1 JUMP JUMPDEST PUSH2 0x15DB PUSH2 0x2265 JUMP JUMPDEST PUSH2 0x15E4 DUP2 PUSH2 0x274C JUMP JUMPDEST PUSH2 0x1623 JUMPI PUSH1 0x40 MLOAD PUSH32 0x8C379A000000000000000000000000000000000000000000000000000000000 DUP2 MSTORE PUSH1 0x4 ADD PUSH2 0x161A SWAP1 PUSH2 0x5324 JUMP JUMPDEST PUSH1 0x40 MLOAD DUP1 SWAP2 SUB SWAP1 REVERT JUMPDEST DUP1 PUSH1 0x11 PUSH0 PUSH2 0x100 EXP DUP2 SLOAD DUP2 PUSH4 0xFFFFFFFF MUL NOT AND SWAP1 DUP4 PUSH1 0xE0 SHR MUL OR SWAP1 SSTORE POP POP JUMP JUMPDEST PUSH2 0x164B PUSH2 0x2F0F JUMP JUMPDEST JUMP JUMPDEST PUSH2 0x1655 PUSH2 0x2265 JUMP JUMPDEST PUSH2 0x1663 DUP7 DUP7 DUP7 DUP7 DUP7 DUP7 PUSH2 0x2F74 JUMP JUMPDEST POP POP POP POP POP POP JUMP JUMPDEST PUSH2 0x167D PUSH2 0x1676 PUSH2 0x21A8 JUMP JUMPDEST DUP4 DUP4 PUSH2 0x31A4 JUMP JUMPDEST POP POP JUMP JUMPDEST PUSH2 0x1692 PUSH2 0x168C PUSH2 0x21A8 JUMP JUMPDEST DUP4 PUSH2 0x2854 JUMP JUMPDEST PUSH2 0x16D1 JUMPI PUSH1 0x40 MLOAD PUSH32 0x8C379A000000000000000000000000000000000000000000000000000000000 DUP2 MSTORE PUSH1 0x4 ADD PUSH2 0x16C8 SWAP1 PUSH2 0x53B2 JUMP JUMPDEST PUSH1 0x40 MLOAD DUP1 SWAP2 SUB SWAP1 REVERT JUMPDEST PUSH2 0x16DD DUP5 DUP5 DUP5 DUP5 PUSH2 0x330B JUMP JUMPDEST POP POP POP POP JUMP JUMPDEST PUSH2 0x16EB PUSH2 0x2F0F JUMP JUMPDEST JUMP JUMPDEST PUSH2 0x16F5 PUSH2 0x2265 JUMP JUMPDEST DUP2 DUP2 PUSH1 0x12 SWAP2 DUP3 PUSH2 0x1706 SWAP3 SWAP2 SWAP1 PUSH2 0x5B5D JUMP JUMPDEST POP POP POP JUMP JUMPDEST PUSH2 0x1713 PUSH2 0x2265 JUMP JUMPDEST PUSH0 DUP4 SWAP1 POP DUP2 DUP2 PUSH20 0xFFFFFFFFFFFFFFFFFFFFFFFFFFFFFFFFFFFFFFFF AND PUSH4 0x70A08231 ADDRESS PUSH1 0x40 MLOAD DUP3 PUSH4 0xFFFFFFFF AND PUSH1 0xE0 SHL DUP2 MSTORE PUSH1 0x4 ADD PUSH2 0x1751 SWAP2 SWAP1 PUSH2 0x4930 JUMP JUMPDEST PUSH1 0x20 PUSH1 0x40 MLOAD DUP1 DUP4 SUB DUP2 DUP7 GAS STATICCALL ISZERO DUP1 ISZERO PUSH2 0x176C JUMPI RETURNDATASIZE PUSH0 DUP1 RETURNDATACOPY RETURNDATASIZE PUSH0 REVERT JUMPDEST POP POP POP POP PUSH1 0x40 MLOAD RETURNDATASIZE PUSH1 0x1F NOT PUSH1 0x1F DUP3 ADD AND DUP3 ADD DUP1 PUSH1 0x40 MSTORE POP DUP2 ADD SWAP1 PUSH2 0x1790 SWAP2 SWAP1 PUSH2 0x5C3E JUMP JUMPDEST LT ISZERO PUSH2 0x17D1 JUMPI PUSH1 0x40 MLOAD PUSH32 0x8C379A000000000000000000000000000000000000000000000000000000000 DUP2 MSTORE PUSH1 0x4 ADD PUSH2 0x17C8 SWAP1 PUSH2 0x5CD9 JUMP JUMPDEST PUSH1 0x40 MLOAD DUP1 SWAP2 SUB SWAP1 REVERT JUMPDEST DUP1 PUSH20 0xFFFFFFFFFFFFFFFFFFFFFFFFFFFFFFFFFFFFFFFF AND PUSH4 0xA9059CBB DUP5 DUP5 PUSH1 0x40 MLOAD DUP4 PUSH4 0xFFFFFFFF AND PUSH1 0xE0 SHL DUP2 MSTORE PUSH1 0x4 ADD PUSH2 0x180C SWAP3 SWAP2 SWAP1 PUSH2 0x5CF7 JUMP JUMPDEST PUSH1 0x20 PUSH1 0x40 MLOAD DUP1 DUP4 SUB DUP2 PUSH0 DUP8 GAS CALL ISZERO DUP1 ISZERO PUSH2 0x1828 JUMPI RETURNDATASIZE PUSH0 DUP1 RETURNDATACOPY RETURNDATASIZE PUSH0 REVERT JUMPDEST POP POP POP POP PUSH1 0x40 MLOAD RETURNDATASIZE PUSH1 0x1F NOT PUSH1 0x1F DUP3 ADD AND DUP3 ADD DUP1 PUSH1 0x40 MSTORE POP DUP2 ADD SWAP1 PUSH2 0x184C SWAP2 SWAP1 PUSH2 0x5D32 JUMP JUMPDEST POP POP POP POP POP JUMP JUMPDEST PUSH1 0x60 PUSH1 0x13 DUP1 SLOAD PUSH2 0x1862 SWAP1 PUSH2 0x518E JUMP JUMPDEST DUP1 PUSH1 0x1F ADD PUSH1 0x20 DUP1 SWAP2 DIV MUL PUSH1 0x20 ADD PUSH1 0x40 MLOAD SWAP1 DUP2 ADD PUSH1 0x40 MSTORE DUP1 SWAP3 SWAP2 SWAP1 DUP2 DUP2 MSTORE PUSH1 0x20 ADD DUP3 DUP1 SLOAD PUSH2 0x188E SWAP1 PUSH2 0x518E JUMP JUMPDEST DUP1 ISZERO PUSH2 0x18D9 JUMPI DUP1 PUSH1 0x1F LT PUSH2 0x18B0 JUMPI PUSH2 0x100 DUP1 DUP4 SLOAD DIV MUL DUP4 MSTORE SWAP2 PUSH1 0x20 ADD SWAP2 PUSH2 0x18D9 JUMP JUMPDEST DUP3 ADD SWAP2 SWAP1 PUSH0 MSTORE PUSH1 0x20 PUSH0 KECCAK256 SWAP1 JUMPDEST DUP2 SLOAD DUP2 MSTORE SWAP1 PUSH1 0x1 ADD SWAP1 PUSH1 0x20 ADD DUP1 DUP4 GT PUSH2 0x18BC JUMPI DUP3 SWAP1 SUB PUSH1 0x1F AND DUP3 ADD SWAP2 JUMPDEST POP POP POP POP POP SWAP1 POP SWAP1 JUMP JUMPDEST PUSH1 0x60 PUSH2 0x18EE DUP3 PUSH2 0x3367 JUMP JUMPDEST SWAP1 POP SWAP2 SWAP1 POP JUMP JUMPDEST PUSH1 0x60 PUSH1 0x12 DUP1 SLOAD PUSH2 0x1904 SWAP1 PUSH2 0x518E JUMP JUMPDEST DUP1 PUSH1 0x1F ADD PUSH1 0x20 DUP1 SWAP2 DIV MUL PUSH1 0x20 ADD PUSH1 0x40 MLOAD SWAP1 DUP2 ADD PUSH1 0x40 MSTORE DUP1 SWAP3 SWAP2 SWAP1 DUP2 DUP2 MSTORE PUSH1 0x20 ADD DUP3 DUP1 SLOAD PUSH2 0x1930 SWAP1 PUSH2 0x518E JUMP JUMPDEST DUP1 ISZERO PUSH2 0x197B JUMPI DUP1 PUSH1 0x1F LT PUSH2 0x1952 JUMPI PUSH2 0x100 DUP1 DUP4 SLOAD DIV MUL DUP4 MSTORE SWAP2 PUSH1 0x20 ADD SWAP2 PUSH2 0x197B JUMP JUMPDEST DUP3 ADD SWAP2 SWAP1 PUSH0 MSTORE PUSH1 0x20 PUSH0 KECCAK256 SWAP1 JUMPDEST DUP2 SLOAD DUP2 MSTORE SWAP1 PUSH1 0x1 ADD SWAP1 PUSH1 0x20 ADD DUP1 DUP4 GT PUSH2 0x195E JUMPI DUP3 SWAP1 SUB PUSH1 0x1F AND DUP3 ADD SWAP2 JUMPDEST POP POP POP POP POP SWAP1 POP SWAP1 JUMP JUMPDEST PUSH2 0x198D PUSH2 0x2265 JUMP JUMPDEST PUSH0 PUSH32 0x0 PUSH20 0xFFFFFFFFFFFFFFFFFFFFFFFFFFFFFFFFFFFFFFFF AND PUSH4 0x67B88A73 DUP5 DUP5 PUSH1 0x40 MLOAD DUP4 PUSH4 0xFFFFFFFF AND PUSH1 0xE0 SHL DUP2 MSTORE PUSH1 0x4 ADD PUSH2 0x19E9 SWAP3 SWAP2 SWAP1 PUSH2 0x5D5D JUMP JUMPDEST PUSH1 0x20 PUSH1 0x40 MLOAD DUP1 DUP4 SUB DUP2 DUP7 GAS STATICCALL ISZERO DUP1 ISZERO PUSH2 0x1A04 JUMPI RETURNDATASIZE PUSH0 DUP1 RETURNDATACOPY RETURNDATASIZE PUSH0 REVERT JUMPDEST POP POP POP POP PUSH1 0x40 MLOAD RETURNDATASIZE PUSH1 0x1F NOT PUSH1 0x1F DUP3 ADD AND DUP3 ADD DUP1 PUSH1 0x40 MSTORE POP DUP2 ADD SWAP1 PUSH2 0x1A28 SWAP2 SWAP1 PUSH2 0x5D9F JUMP JUMPDEST SWAP1 POP PUSH0 PUSH20 0xFFFFFFFFFFFFFFFFFFFFFFFFFFFFFFFFFFFFFFFF AND DUP2 PUSH20 0xFFFFFFFFFFFFFFFFFFFFFFFFFFFFFFFFFFFFFFFF AND SUB PUSH2 0x1A98 JUMPI PUSH1 0x40 MLOAD PUSH32 0x8C379A000000000000000000000000000000000000000000000000000000000 DUP2 MSTORE PUSH1 0x4 ADD PUSH2 0x1A8F SWAP1 PUSH2 0x5E14 JUMP JUMPDEST PUSH1 0x40 MLOAD DUP1 SWAP2 SUB SWAP1 REVERT JUMPDEST PUSH0 DUP3 PUSH1 0xC DUP2 GT ISZERO PUSH2 0x1AAC JUMPI PUSH2 0x1AAB PUSH2 0x5519 JUMP JUMPDEST JUMPDEST SWAP1 POP PUSH0 PUSH2 0x1AB9 DUP6 DUP4 PUSH2 0x2BE0 JUMP JUMPDEST SWAP1 POP PUSH2 0x1AC5 DUP6 DUP3 PUSH2 0x3471 JUMP JUMPDEST ISZERO PUSH2 0x1B05 JUMPI PUSH1 0x40 MLOAD PUSH32 0x8C379A000000000000000000000000000000000000000000000000000000000 DUP2 MSTORE PUSH1 0x4 ADD PUSH2 0x1AFC SWAP1 PUSH2 0x5E7C JUMP JUMPDEST PUSH1 0x40 MLOAD DUP1 SWAP2 SUB SWAP1 REVERT JUMPDEST PUSH0 PUSH32 0x0 PUSH20 0xFFFFFFFFFFFFFFFFFFFFFFFFFFFFFFFFFFFFFFFF AND PUSH4 0x460363C7 DUP8 DUP8 CALLER PUSH1 0x40 MLOAD DUP5 PUSH4 0xFFFFFFFF AND PUSH1 0xE0 SHL DUP2 MSTORE PUSH1 0x4 ADD PUSH2 0x1B63 SWAP4 SWAP3 SWAP2 SWAP1 PUSH2 0x5E9A JUMP JUMPDEST PUSH1 0x20 PUSH1 0x40 MLOAD DUP1 DUP4 SUB DUP2 PUSH0 DUP8 GAS CALL ISZERO DUP1 ISZERO PUSH2 0x1B7F JUMPI RETURNDATASIZE PUSH0 DUP1 RETURNDATACOPY RETURNDATASIZE PUSH0 REVERT JUMPDEST POP POP POP POP PUSH1 0x40 MLOAD RETURNDATASIZE PUSH1 0x1F NOT PUSH1 0x1F DUP3 ADD AND DUP3 ADD DUP1 PUSH1 0x40 MSTORE POP DUP2 ADD SWAP1 PUSH2 0x1BA3 SWAP2 SWAP1 PUSH2 0x5D9F JUMP JUMPDEST SWAP1 POP PUSH0 PUSH1 0x40 MLOAD DUP1 PUSH1 0x60 ADD PUSH1 0x40 MSTORE DUP1 DUP9 DUP2 MSTORE PUSH1 0x20 ADD DUP6 PUSH1 0xC DUP2 GT ISZERO PUSH2 0x1BCA JUMPI PUSH2 0x1BC9 PUSH2 0x5519 JUMP JUMPDEST JUMPDEST DUP2 MSTORE PUSH1 0x20 ADD DUP4 PUSH20 0xFFFFFFFFFFFFFFFFFFFFFFFFFFFFFFFFFFFFFFFF AND DUP2 MSTORE POP SWAP1 POP DUP1 PUSH1 0xD PUSH0 DUP6 DUP2 MSTORE PUSH1 0x20 ADD SWAP1 DUP2 MSTORE PUSH1 0x20 ADD PUSH0 KECCAK256 PUSH0 DUP3 ADD MLOAD DUP2 PUSH0 ADD SWAP1 DUP2 PUSH2 0x1C10 SWAP2 SWAP1 PUSH2 0x56DA JUMP JUMPDEST POP PUSH1 0x20 DUP3 ADD MLOAD DUP2 PUSH1 0x1 ADD PUSH0 PUSH2 0x100 EXP DUP2 SLOAD DUP2 PUSH1 0xFF MUL NOT AND SWAP1 DUP4 PUSH1 0xC DUP2 GT ISZERO PUSH2 0x1C3B JUMPI PUSH2 0x1C3A PUSH2 0x5519 JUMP JUMPDEST JUMPDEST MUL OR SWAP1 SSTORE POP PUSH1 0x40 DUP3 ADD MLOAD DUP2 PUSH1 0x1 ADD PUSH1 0x1 PUSH2 0x100 EXP DUP2 SLOAD DUP2 PUSH20 0xFFFFFFFFFFFFFFFFFFFFFFFFFFFFFFFFFFFFFFFF MUL NOT AND SWAP1 DUP4 PUSH20 0xFFFFFFFFFFFFFFFFFFFFFFFFFFFFFFFFFFFFFFFF AND MUL OR SWAP1 SSTORE POP SWAP1 POP POP PUSH1 0xC DUP2 SWAP1 DUP1 PUSH1 0x1 DUP2 SLOAD ADD DUP1 DUP3 SSTORE DUP1 SWAP2 POP POP PUSH1 0x1 SWAP1 SUB SWAP1 PUSH0 MSTORE PUSH1 0x20 PUSH0 KECCAK256 SWAP1 PUSH1 0x2 MUL ADD PUSH0 SWAP1 SWAP2 SWAP1 SWAP2 SWAP1 SWAP2 POP PUSH0 DUP3 ADD MLOAD DUP2 PUSH0 ADD SWAP1 DUP2 PUSH2 0x1CC6 SWAP2 SWAP1 PUSH2 0x56DA JUMP JUMPDEST POP PUSH1 0x20 DUP3 ADD MLOAD DUP2 PUSH1 0x1 ADD PUSH0 PUSH2 0x100 EXP DUP2 SLOAD DUP2 PUSH1 0xFF MUL NOT AND SWAP1 DUP4 PUSH1 0xC DUP2 GT ISZERO PUSH2 0x1CF1 JUMPI PUSH2 0x1CF0 PUSH2 0x5519 JUMP JUMPDEST JUMPDEST MUL OR SWAP1 SSTORE POP PUSH1 0x40 DUP3 ADD MLOAD DUP2 PUSH1 0x1 ADD PUSH1 0x1 PUSH2 0x100 EXP DUP2 SLOAD DUP2 PUSH20 0xFFFFFFFFFFFFFFFFFFFFFFFFFFFFFFFFFFFFFFFF MUL NOT AND SWAP1 DUP4 PUSH20 0xFFFFFFFFFFFFFFFFFFFFFFFFFFFFFFFFFFFFFFFF AND MUL OR SWAP1 SSTORE POP POP POP DUP2 PUSH20 0xFFFFFFFFFFFFFFFFFFFFFFFFFFFFFFFFFFFFFFFF AND PUSH32 0xE05FBD99B3BD14666521F429BE65DFF2635E36A2D6B23046C5754F9236AC4CE1 DUP9 DUP9 PUSH1 0x40 MLOAD PUSH2 0x1D87 SWAP3 SWAP2 SWAP1 PUSH2 0x5D5D JUMP JUMPDEST PUSH1 0x40 MLOAD DUP1 SWAP2 SUB SWAP1 LOG2 POP POP POP POP POP POP POP JUMP JUMPDEST PUSH2 0x1DA0 PUSH2 0x2265 JUMP JUMPDEST PUSH0 DUP4 SWAP1 POP ADDRESS PUSH20 0xFFFFFFFFFFFFFFFFFFFFFFFFFFFFFFFFFFFFFFFF AND DUP2 PUSH20 0xFFFFFFFFFFFFFFFFFFFFFFFFFFFFFFFFFFFFFFFF AND PUSH4 0x6352211E DUP5 PUSH1 0x40 MLOAD DUP3 PUSH4 0xFFFFFFFF AND PUSH1 0xE0 SHL DUP2 MSTORE PUSH1 0x4 ADD PUSH2 0x1DF4 SWAP2 SWAP1 PUSH2 0x4ACD JUMP JUMPDEST PUSH1 0x20 PUSH1 0x40 MLOAD DUP1 DUP4 SUB DUP2 DUP7 GAS STATICCALL ISZERO DUP1 ISZERO PUSH2 0x1E0F JUMPI RETURNDATASIZE PUSH0 DUP1 RETURNDATACOPY RETURNDATASIZE PUSH0 REVERT JUMPDEST POP POP POP POP PUSH1 0x40 MLOAD RETURNDATASIZE PUSH1 0x1F NOT PUSH1 0x1F DUP3 ADD AND DUP3 ADD DUP1 PUSH1 0x40 MSTORE POP DUP2 ADD SWAP1 PUSH2 0x1E33 SWAP2 SWAP1 PUSH2 0x5D9F JUMP JUMPDEST PUSH20 0xFFFFFFFFFFFFFFFFFFFFFFFFFFFFFFFFFFFFFFFF AND EQ PUSH2 0x1E89 JUMPI PUSH1 0x40 MLOAD PUSH32 0x8C379A000000000000000000000000000000000000000000000000000000000 DUP2 MSTORE PUSH1 0x4 ADD PUSH2 0x1E80 SWAP1 PUSH2 0x5F46 JUMP JUMPDEST PUSH1 0x40 MLOAD DUP1 SWAP2 SUB SWAP1 REVERT JUMPDEST DUP1 PUSH20 0xFFFFFFFFFFFFFFFFFFFFFFFFFFFFFFFFFFFFFFFF AND PUSH4 0x42842E0E ADDRESS DUP6 DUP6 PUSH1 0x40 MLOAD DUP5 PUSH4 0xFFFFFFFF AND PUSH1 0xE0 SHL DUP2 MSTORE PUSH1 0x4 ADD PUSH2 0x1EC6 SWAP4 SWAP3 SWAP2 SWAP1 PUSH2 0x5F64 JUMP JUMPDEST PUSH0 PUSH1 0x40 MLOAD DUP1 DUP4 SUB DUP2 PUSH0 DUP8 DUP1 EXTCODESIZE ISZERO DUP1 ISZERO PUSH2 0x1EDD JUMPI PUSH0 DUP1 REVERT JUMPDEST POP GAS CALL ISZERO DUP1 ISZERO PUSH2 0x1EEF JUMPI RETURNDATASIZE PUSH0 DUP1 RETURNDATACOPY RETURNDATASIZE PUSH0 REVERT JUMPDEST POP POP POP POP POP POP POP POP JUMP JUMPDEST PUSH0 PUSH1 0x5 PUSH0 DUP5 PUSH20 0xFFFFFFFFFFFFFFFFFFFFFFFFFFFFFFFFFFFFFFFF AND PUSH20 0xFFFFFFFFFFFFFFFFFFFFFFFFFFFFFFFFFFFFFFFF AND DUP2 MSTORE PUSH1 0x20 ADD SWAP1 DUP2 MSTORE PUSH1 0x20 ADD PUSH0 KECCAK256 PUSH0 DUP4 PUSH20 0xFFFFFFFFFFFFFFFFFFFFFFFFFFFFFFFFFFFFFFFF AND PUSH20 0xFFFFFFFFFFFFFFFFFFFFFFFFFFFFFFFFFFFFFFFF AND DUP2 MSTORE PUSH1 0x20 ADD SWAP1 DUP2 MSTORE PUSH1 0x20 ADD PUSH0 KECCAK256 PUSH0 SWAP1 SLOAD SWAP1 PUSH2 0x100 EXP SWAP1 DIV PUSH1 0xFF AND SWAP1 POP SWAP3 SWAP2 POP POP JUMP JUMPDEST PUSH0 DUP1 PUSH2 0x1FA5 DUP5 DUP5 PUSH1 0xC DUP2 GT ISZERO PUSH2 0x1FA0 JUMPI PUSH2 0x1F9F PUSH2 0x5519 JUMP JUMPDEST JUMPDEST PUSH2 0x2BE0 JUMP JUMPDEST SWAP1 POP PUSH2 0x1FB1 DUP5 DUP3 PUSH2 0x3471 JUMP JUMPDEST SWAP2 POP POP SWAP3 SWAP2 POP POP JUMP JUMPDEST PUSH2 0x1FC2 PUSH2 0x2265 JUMP JUMPDEST DUP1 SELFBALANCE LT ISZERO PUSH2 0x2005 JUMPI PUSH1 0x40 MLOAD PUSH32 0x8C379A000000000000000000000000000000000000000000000000000000000 DUP2 MSTORE PUSH1 0x4 ADD PUSH2 0x1FFC SWAP1 PUSH2 0x6009 JUMP JUMPDEST PUSH1 0x40 MLOAD DUP1 SWAP2 SUB SWAP1 REVERT JUMPDEST DUP2 PUSH20 0xFFFFFFFFFFFFFFFFFFFFFFFFFFFFFFFFFFFFFFFF AND PUSH2 0x8FC DUP3 SWAP1 DUP2 ISZERO MUL SWAP1 PUSH1 0x40 MLOAD PUSH0 PUSH1 0x40 MLOAD DUP1 DUP4 SUB DUP2 DUP6 DUP9 DUP9 CALL SWAP4 POP POP POP POP ISZERO DUP1 ISZERO PUSH2 0x2048 JUMPI RETURNDATASIZE PUSH0 DUP1 RETURNDATACOPY RETURNDATASIZE PUSH0 REVERT JUMPDEST POP POP POP JUMP JUMPDEST PUSH2 0x2055 PUSH2 0x2265 JUMP JUMPDEST PUSH0 PUSH20 0xFFFFFFFFFFFFFFFFFFFFFFFFFFFFFFFFFFFFFFFF AND DUP2 PUSH20 0xFFFFFFFFFFFFFFFFFFFFFFFFFFFFFFFFFFFFFFFF AND SUB PUSH2 0x20C3 JUMPI PUSH1 0x40 MLOAD PUSH32 0x8C379A000000000000000000000000000000000000000000000000000000000 DUP2 MSTORE PUSH1 0x4 ADD PUSH2 0x20BA SWAP1 PUSH2 0x6097 JUMP JUMPDEST PUSH1 0x40 MLOAD DUP1 SWAP2 SUB SWAP1 REVERT JUMPDEST PUSH2 0x20CC DUP2 PUSH2 0x2E4C JUMP JUMPDEST POP JUMP JUMPDEST PUSH0 PUSH1 0x11 PUSH0 SWAP1 SLOAD SWAP1 PUSH2 0x100 EXP SWAP1 DIV PUSH1 0xE0 SHL SWAP1 POP SWAP1 JUMP JUMPDEST PUSH0 PUSH32 0x780E9D6300000000000000000000000000000000000000000000000000000000 PUSH28 0xFFFFFFFFFFFFFFFFFFFFFFFFFFFFFFFFFFFFFFFFFFFFFFFFFFFFFFFF NOT AND DUP3 PUSH28 0xFFFFFFFFFFFFFFFFFFFFFFFFFFFFFFFFFFFFFFFFFFFFFFFFFFFFFFFF NOT AND EQ DUP1 PUSH2 0x2156 JUMPI POP PUSH2 0x2155 DUP3 PUSH2 0x34E0 JUMP JUMPDEST JUMPDEST SWAP1 POP SWAP2 SWAP1 POP JUMP JUMPDEST PUSH2 0x2166 DUP2 PUSH2 0x3540 JUMP JUMPDEST PUSH2 0x21A5 JUMPI PUSH1 0x40 MLOAD PUSH32 0x8C379A000000000000000000000000000000000000000000000000000000000 DUP2 MSTORE PUSH1 0x4 ADD PUSH2 0x219C SWAP1 PUSH2 0x5AA7 JUMP JUMPDEST PUSH1 0x40 MLOAD DUP1 SWAP2 SUB SWAP1 REVERT JUMPDEST POP JUMP JUMPDEST PUSH0 CALLER SWAP1 POP SWAP1 JUMP JUMPDEST DUP2 PUSH1 0x4 PUSH0 DUP4 DUP2 MSTORE PUSH1 0x20 ADD SWAP1 DUP2 MSTORE PUSH1 0x20 ADD PUSH0 KECCAK256 PUSH0 PUSH2 0x100 EXP DUP2 SLOAD DUP2 PUSH20 0xFFFFFFFFFFFFFFFFFFFFFFFFFFFFFFFFFFFFFFFF MUL NOT AND SWAP1 DUP4 PUSH20 0xFFFFFFFFFFFFFFFFFFFFFFFFFFFFFFFFFFFFFFFF AND MUL OR SWAP1 SSTORE POP DUP1 DUP3 PUSH20 0xFFFFFFFFFFFFFFFFFFFFFFFFFFFFFFFFFFFFFFFF AND PUSH2 0x221F DUP4 PUSH2 0x133B JUMP JUMPDEST PUSH20 0xFFFFFFFFFFFFFFFFFFFFFFFFFFFFFFFFFFFFFFFF AND PUSH32 0x8C5BE1E5EBEC7D5BD14F71427D1E84F3DD0314C0F7B2291E5B200AC8C7C3B925 PUSH1 0x40 MLOAD PUSH1 0x40 MLOAD DUP1 SWAP2 SUB SWAP1 LOG4 POP POP JUMP JUMPDEST PUSH2 0x226D PUSH2 0x21A8 JUMP JUMPDEST PUSH20 0xFFFFFFFFFFFFFFFFFFFFFFFFFFFFFFFFFFFFFFFF AND PUSH2 0x228B PUSH2 0x151B JUMP JUMPDEST PUSH20 0xFFFFFFFFFFFFFFFFFFFFFFFFFFFFFFFFFFFFFFFF AND EQ PUSH2 0x22E1 JUMPI PUSH1 0x40 MLOAD PUSH32 0x8C379A000000000000000000000000000000000000000000000000000000000 DUP2 MSTORE PUSH1 0x4 ADD PUSH2 0x22D8 SWAP1 PUSH2 0x60FF JUMP JUMPDEST PUSH1 0x40 MLOAD DUP1 SWAP2 SUB SWAP1 REVERT JUMPDEST JUMP JUMPDEST PUSH0 PUSH1 0x7 DUP4 DUP4 SWAP1 POP LT ISZERO DUP1 ISZERO PUSH2 0x22FC JUMPI POP PUSH1 0xF DUP4 DUP4 SWAP1 POP GT ISZERO JUMPDEST PUSH2 0x233B JUMPI PUSH1 0x40 MLOAD PUSH32 0x8C379A000000000000000000000000000000000000000000000000000000000 DUP2 MSTORE PUSH1 0x4 ADD PUSH2 0x2332 SWAP1 PUSH2 0x6167 JUMP JUMPDEST PUSH1 0x40 MLOAD DUP1 SWAP2 SUB SWAP1 REVERT JUMPDEST PUSH0 DUP4 DUP4 DUP1 DUP1 PUSH1 0x1F ADD PUSH1 0x20 DUP1 SWAP2 DIV MUL PUSH1 0x20 ADD PUSH1 0x40 MLOAD SWAP1 DUP2 ADD PUSH1 0x40 MSTORE DUP1 SWAP4 SWAP3 SWAP2 SWAP1 DUP2 DUP2 MSTORE PUSH1 0x20 ADD DUP4 DUP4 DUP1 DUP3 DUP5 CALLDATACOPY PUSH0 DUP2 DUP5 ADD MSTORE PUSH1 0x1F NOT PUSH1 0x1F DUP3 ADD AND SWAP1 POP DUP1 DUP4 ADD SWAP3 POP POP POP POP POP POP POP SWAP1 POP PUSH0 DUP1 DUP1 PUSH0 SWAP1 POP PUSH0 JUMPDEST DUP5 MLOAD DUP2 LT ISZERO PUSH2 0x2684 JUMPI PUSH32 0x3000000000000000000000000000000000000000000000000000000000000000 DUP6 DUP3 DUP2 MLOAD DUP2 LT PUSH2 0x23C7 JUMPI PUSH2 0x23C6 PUSH2 0x54EC JUMP JUMPDEST JUMPDEST PUSH1 0x20 ADD ADD MLOAD PUSH1 0xF8 SHR PUSH1 0xF8 SHL PUSH31 0xFFFFFFFFFFFFFFFFFFFFFFFFFFFFFFFFFFFFFFFFFFFFFFFFFFFFFFFFFFFFFF NOT AND LT ISZERO DUP1 ISZERO PUSH2 0x2461 JUMPI POP PUSH32 0x3900000000000000000000000000000000000000000000000000000000000000 DUP6 DUP3 DUP2 MLOAD DUP2 LT PUSH2 0x2431 JUMPI PUSH2 0x2430 PUSH2 0x54EC JUMP JUMPDEST JUMPDEST PUSH1 0x20 ADD ADD MLOAD PUSH1 0xF8 SHR PUSH1 0xF8 SHL PUSH31 0xFFFFFFFFFFFFFFFFFFFFFFFFFFFFFFFFFFFFFFFFFFFFFFFFFFFFFFFFFFFFFF NOT AND GT ISZERO JUMPDEST DUP1 PUSH2 0x24CA JUMPI POP PUSH32 0x2E00000000000000000000000000000000000000000000000000000000000000 DUP6 DUP3 DUP2 MLOAD DUP2 LT PUSH2 0x249B JUMPI PUSH2 0x249A PUSH2 0x54EC JUMP JUMPDEST JUMPDEST PUSH1 0x20 ADD ADD MLOAD PUSH1 0xF8 SHR PUSH1 0xF8 SHL PUSH31 0xFFFFFFFFFFFFFFFFFFFFFFFFFFFFFFFFFFFFFFFFFFFFFFFFFFFFFFFFFFFFFF NOT AND EQ JUMPDEST PUSH2 0x2509 JUMPI PUSH1 0x40 MLOAD PUSH32 0x8C379A000000000000000000000000000000000000000000000000000000000 DUP2 MSTORE PUSH1 0x4 ADD PUSH2 0x2500 SWAP1 PUSH2 0x61CF JUMP JUMPDEST PUSH1 0x40 MLOAD DUP1 SWAP2 SUB SWAP1 REVERT JUMPDEST PUSH32 0x2E00000000000000000000000000000000000000000000000000000000000000 DUP6 DUP3 DUP2 MLOAD DUP2 LT PUSH2 0x253D JUMPI PUSH2 0x253C PUSH2 0x54EC JUMP JUMPDEST JUMPDEST PUSH1 0x20 ADD ADD MLOAD PUSH1 0xF8 SHR PUSH1 0xF8 SHL PUSH31 0xFFFFFFFFFFFFFFFFFFFFFFFFFFFFFFFFFFFFFFFFFFFFFFFFFFFFFFFFFFFFFF NOT AND SUB PUSH2 0x262A JUMPI PUSH1 0xFF DUP3 PUSH1 0xFF AND GT ISZERO PUSH2 0x25B6 JUMPI PUSH1 0x40 MLOAD PUSH32 0x8C379A000000000000000000000000000000000000000000000000000000000 DUP2 MSTORE PUSH1 0x4 ADD PUSH2 0x25AD SWAP1 PUSH2 0x6237 JUMP JUMPDEST PUSH1 0x40 MLOAD DUP1 SWAP2 SUB SWAP1 REVERT JUMPDEST PUSH1 0x8 DUP5 PUSH2 0x25C3 SWAP2 SWAP1 PUSH2 0x6261 JUMP JUMPDEST PUSH1 0xFF AND PUSH1 0xFF DUP4 AND PUSH1 0xF8 SHL PUSH31 0xFFFFFFFFFFFFFFFFFFFFFFFFFFFFFFFFFFFFFFFFFFFFFFFFFFFFFFFFFFFFFF NOT AND PUSH28 0xFFFFFFFFFFFFFFFFFFFFFFFFFFFFFFFFFFFFFFFFFFFFFFFFFFFFFFFF NOT AND SWAP1 SHR DUP4 OR SWAP3 POP PUSH0 SWAP2 POP DUP4 DUP1 PUSH2 0x2622 SWAP1 PUSH2 0x629D JUMP JUMPDEST SWAP5 POP POP PUSH2 0x2671 JUMP JUMPDEST PUSH1 0x30 DUP6 DUP3 DUP2 MLOAD DUP2 LT PUSH2 0x263F JUMPI PUSH2 0x263E PUSH2 0x54EC JUMP JUMPDEST JUMPDEST PUSH1 0x20 ADD ADD MLOAD PUSH1 0xF8 SHR PUSH1 0xF8 SHL PUSH1 0xF8 SHR PUSH1 0xA DUP5 PUSH2 0x265A SWAP2 SWAP1 PUSH2 0x6261 JUMP JUMPDEST PUSH2 0x2664 SWAP2 SWAP1 PUSH2 0x62C5 JUMP JUMPDEST PUSH2 0x266E SWAP2 SWAP1 PUSH2 0x62F9 JUMP JUMPDEST SWAP2 POP JUMPDEST DUP1 DUP1 PUSH2 0x267C SWAP1 PUSH2 0x5A16 JUMP JUMPDEST SWAP2 POP POP PUSH2 0x238A JUMP JUMPDEST POP PUSH1 0x3 DUP4 PUSH1 0xFF AND EQ PUSH2 0x26CB JUMPI PUSH1 0x40 MLOAD PUSH32 0x8C379A000000000000000000000000000000000000000000000000000000000 DUP2 MSTORE PUSH1 0x4 ADD PUSH2 0x26C2 SWAP1 PUSH2 0x6377 JUMP JUMPDEST PUSH1 0x40 MLOAD DUP1 SWAP2 SUB SWAP1 REVERT JUMPDEST PUSH1 0xFF DUP2 PUSH1 0xFF AND GT ISZERO PUSH2 0x2712 JUMPI PUSH1 0x40 MLOAD PUSH32 0x8C379A000000000000000000000000000000000000000000000000000000000 DUP2 MSTORE PUSH1 0x4 ADD PUSH2 0x2709 SWAP1 PUSH2 0x6237 JUMP JUMPDEST PUSH1 0x40 MLOAD DUP1 SWAP2 SUB SWAP1 REVERT JUMPDEST PUSH1 0xFF DUP2 AND PUSH1 0xF8 SHL PUSH31 0xFFFFFFFFFFFFFFFFFFFFFFFFFFFFFFFFFFFFFFFFFFFFFFFFFFFFFFFFFFFFFF NOT AND DUP3 OR SWAP2 POP DUP2 SWAP5 POP POP POP POP POP SWAP3 SWAP2 POP POP JUMP JUMPDEST PUSH0 DUP1 PUSH1 0xE0 SHL PUSH28 0xFFFFFFFFFFFFFFFFFFFFFFFFFFFFFFFFFFFFFFFFFFFFFFFFFFFFFFFF NOT AND DUP3 PUSH28 0xFFFFFFFFFFFFFFFFFFFFFFFFFFFFFFFFFFFFFFFFFFFFFFFFFFFFFFFF NOT AND SUB PUSH2 0x279D JUMPI PUSH0 SWAP1 POP PUSH2 0x284F JUMP JUMPDEST PUSH0 DUP3 PUSH0 PUSH1 0x4 DUP2 LT PUSH2 0x27B1 JUMPI PUSH2 0x27B0 PUSH2 0x54EC JUMP JUMPDEST JUMPDEST BYTE PUSH1 0xF8 SHL PUSH1 0xF8 SHR SWAP1 POP PUSH0 DUP4 PUSH1 0x1 PUSH1 0x4 DUP2 LT PUSH2 0x27CF JUMPI PUSH2 0x27CE PUSH2 0x54EC JUMP JUMPDEST JUMPDEST BYTE PUSH1 0xF8 SHL PUSH1 0xF8 SHR SWAP1 POP PUSH1 0xA DUP3 PUSH1 0xFF AND SUB PUSH2 0x27ED JUMPI PUSH0 SWAP3 POP POP POP PUSH2 0x284F JUMP JUMPDEST PUSH1 0xAC DUP3 PUSH1 0xFF AND EQ DUP1 ISZERO PUSH2 0x2814 JUMPI POP PUSH1 0x10 DUP2 PUSH1 0xFF AND LT ISZERO DUP1 ISZERO PUSH2 0x2813 JUMPI POP PUSH1 0x1F DUP2 PUSH1 0xFF AND GT ISZERO JUMPDEST JUMPDEST ISZERO PUSH2 0x2823 JUMPI PUSH0 SWAP3 POP POP POP PUSH2 0x284F JUMP JUMPDEST PUSH1 0xC0 DUP3 PUSH1 0xFF AND EQ DUP1 ISZERO PUSH2 0x2839 JUMPI POP PUSH1 0xA8 DUP2 PUSH1 0xFF AND EQ JUMPDEST ISZERO PUSH2 0x2848 JUMPI PUSH0 SWAP3 POP POP POP PUSH2 0x284F JUMP JUMPDEST PUSH1 0x1 SWAP3 POP POP POP JUMPDEST SWAP2 SWAP1 POP JUMP JUMPDEST PUSH0 DUP1 PUSH2 0x285F DUP4 PUSH2 0x133B JUMP JUMPDEST SWAP1 POP DUP1 PUSH20 0xFFFFFFFFFFFFFFFFFFFFFFFFFFFFFFFFFFFFFFFF AND DUP5 PUSH20 0xFFFFFFFFFFFFFFFFFFFFFFFFFFFFFFFFFFFFFFFF AND EQ DUP1 PUSH2 0x28A1 JUMPI POP PUSH2 0x28A0 DUP2 DUP6 PUSH2 0x1EF9 JUMP JUMPDEST JUMPDEST DUP1 PUSH2 0x28DF JUMPI POP DUP4 PUSH20 0xFFFFFFFFFFFFFFFFFFFFFFFFFFFFFFFFFFFFFFFF AND PUSH2 0x28C7 DUP5 PUSH2 0xB83 JUMP JUMPDEST PUSH20 0xFFFFFFFFFFFFFFFFFFFFFFFFFFFFFFFFFFFFFFFF AND EQ JUMPDEST SWAP2 POP POP SWAP3 SWAP2 POP POP JUMP JUMPDEST DUP3 PUSH20 0xFFFFFFFFFFFFFFFFFFFFFFFFFFFFFFFFFFFFFFFF AND PUSH2 0x2908 DUP3 PUSH2 0x133B JUMP JUMPDEST PUSH20 0xFFFFFFFFFFFFFFFFFFFFFFFFFFFFFFFFFFFFFFFF AND EQ PUSH2 0x295E JUMPI PUSH1 0x40 MLOAD PUSH32 0x8C379A000000000000000000000000000000000000000000000000000000000 DUP2 MSTORE PUSH1 0x4 ADD PUSH2 0x2955 SWAP1 PUSH2 0x6405 JUMP JUMPDEST PUSH1 0x40 MLOAD DUP1 SWAP2 SUB SWAP1 REVERT JUMPDEST PUSH0 PUSH20 0xFFFFFFFFFFFFFFFFFFFFFFFFFFFFFFFFFFFFFFFF AND DUP3 PUSH20 0xFFFFFFFFFFFFFFFFFFFFFFFFFFFFFFFFFFFFFFFF AND SUB PUSH2 0x29CC JUMPI PUSH1 0x40 MLOAD PUSH32 0x8C379A000000000000000000000000000000000000000000000000000000000 DUP2 MSTORE PUSH1 0x4 ADD PUSH2 0x29C3 SWAP1 PUSH2 0x6493 JUMP JUMPDEST PUSH1 0x40 MLOAD DUP1 SWAP2 SUB SWAP1 REVERT JUMPDEST PUSH2 0x29D9 DUP4 DUP4 DUP4 PUSH1 0x1 PUSH2 0x3580 JUMP JUMPDEST DUP3 PUSH20 0xFFFFFFFFFFFFFFFFFFFFFFFFFFFFFFFFFFFFFFFF AND PUSH2 0x29F9 DUP3 PUSH2 0x133B JUMP JUMPDEST PUSH20 0xFFFFFFFFFFFFFFFFFFFFFFFFFFFFFFFFFFFFFFFF AND EQ PUSH2 0x2A4F JUMPI PUSH1 0x40 MLOAD PUSH32 0x8C379A000000000000000000000000000000000000000000000000000000000 DUP2 MSTORE PUSH1 0x4 ADD PUSH2 0x2A46 SWAP1 PUSH2 0x6405 JUMP JUMPDEST PUSH1 0x40 MLOAD DUP1 SWAP2 SUB SWAP1 REVERT JUMPDEST PUSH1 0x4 PUSH0 DUP3 DUP2 MSTORE PUSH1 0x20 ADD SWAP1 DUP2 MSTORE PUSH1 0x20 ADD PUSH0 KECCAK256 PUSH0 PUSH2 0x100 EXP DUP2 SLOAD SWAP1 PUSH20 0xFFFFFFFFFFFFFFFFFFFFFFFFFFFFFFFFFFFFFFFF MUL NOT AND SWAP1 SSTORE PUSH1 0x1 PUSH1 0x3 PUSH0 DUP6 PUSH20 0xFFFFFFFFFFFFFFFFFFFFFFFFFFFFFFFFFFFFFFFF AND PUSH20 0xFFFFFFFFFFFFFFFFFFFFFFFFFFFFFFFFFFFFFFFF AND DUP2 MSTORE PUSH1 0x20 ADD SWAP1 DUP2 MSTORE PUSH1 0x20 ADD PUSH0 KECCAK256 PUSH0 DUP3 DUP3 SLOAD SUB SWAP3 POP POP DUP2 SWAP1 SSTORE POP PUSH1 0x1 PUSH1 0x3 PUSH0 DUP5 PUSH20 0xFFFFFFFFFFFFFFFFFFFFFFFFFFFFFFFFFFFFFFFF AND PUSH20 0xFFFFFFFFFFFFFFFFFFFFFFFFFFFFFFFFFFFFFFFF AND DUP2 MSTORE PUSH1 0x20 ADD SWAP1 DUP2 MSTORE PUSH1 0x20 ADD PUSH0 KECCAK256 PUSH0 DUP3 DUP3 SLOAD ADD SWAP3 POP POP DUP2 SWAP1 SSTORE POP DUP2 PUSH1 0x2 PUSH0 DUP4 DUP2 MSTORE PUSH1 0x20 ADD SWAP1 DUP2 MSTORE PUSH1 0x20 ADD PUSH0 KECCAK256 PUSH0 PUSH2 0x100 EXP DUP2 SLOAD DUP2 PUSH20 0xFFFFFFFFFFFFFFFFFFFFFFFFFFFFFFFFFFFFFFFF MUL NOT AND SWAP1 DUP4 PUSH20 0xFFFFFFFFFFFFFFFFFFFFFFFFFFFFFFFFFFFFFFFF AND MUL OR SWAP1 SSTORE POP DUP1 DUP3 PUSH20 0xFFFFFFFFFFFFFFFFFFFFFFFFFFFFFFFFFFFFFFFF AND DUP5 PUSH20 0xFFFFFFFFFFFFFFFFFFFFFFFFFFFFFFFFFFFFFFFF AND PUSH32 0xDDF252AD1BE2C89B69C2B068FC378DAA952BA7F163C4A11628F55A4DF523B3EF PUSH1 0x40 MLOAD PUSH1 0x40 MLOAD DUP1 SWAP2 SUB SWAP1 LOG4 PUSH2 0x2BCF DUP4 DUP4 DUP4 PUSH1 0x1 PUSH2 0x3592 JUMP JUMPDEST POP POP POP JUMP JUMPDEST PUSH2 0x2BDD DUP2 PUSH2 0x3598 JUMP JUMPDEST POP JUMP JUMPDEST PUSH0 DUP3 DUP3 PUSH1 0xC DUP2 GT ISZERO PUSH2 0x2BF5 JUMPI PUSH2 0x2BF4 PUSH2 0x5519 JUMP JUMPDEST JUMPDEST PUSH1 0x40 MLOAD PUSH1 0x20 ADD PUSH2 0x2C06 SWAP3 SWAP2 SWAP1 PUSH2 0x64D1 JUMP JUMPDEST PUSH1 0x40 MLOAD PUSH1 0x20 DUP2 DUP4 SUB SUB DUP2 MSTORE SWAP1 PUSH1 0x40 MSTORE DUP1 MLOAD SWAP1 PUSH1 0x20 ADD KECCAK256 SWAP1 POP SWAP3 SWAP2 POP POP JUMP JUMPDEST PUSH1 0x40 MLOAD DUP1 PUSH1 0x40 ADD PUSH1 0x40 MSTORE DUP1 DUP4 PUSH20 0xFFFFFFFFFFFFFFFFFFFFFFFFFFFFFFFFFFFFFFFF AND DUP2 MSTORE PUSH1 0x20 ADD DUP3 DUP2 MSTORE POP PUSH1 0xE PUSH0 DUP3 ADD MLOAD DUP2 PUSH0 ADD PUSH0 PUSH2 0x100 EXP DUP2 SLOAD DUP2 PUSH20 0xFFFFFFFFFFFFFFFFFFFFFFFFFFFFFFFFFFFFFFFF MUL NOT AND SWAP1 DUP4 PUSH20 0xFFFFFFFFFFFFFFFFFFFFFFFFFFFFFFFFFFFFFFFF AND MUL OR SWAP1 SSTORE POP PUSH1 0x20 DUP3 ADD MLOAD DUP2 PUSH1 0x1 ADD SSTORE SWAP1 POP POP POP POP JUMP JUMPDEST PUSH0 PUSH1 0x2 PUSH0 DUP4 DUP2 MSTORE PUSH1 0x20 ADD SWAP1 DUP2 MSTORE PUSH1 0x20 ADD PUSH0 KECCAK256 PUSH0 SWAP1 SLOAD SWAP1 PUSH2 0x100 EXP SWAP1 DIV PUSH20 0xFFFFFFFFFFFFFFFFFFFFFFFFFFFFFFFFFFFFFFFF AND SWAP1 POP SWAP2 SWAP1 POP JUMP JUMPDEST PUSH0 DUP1 PUSH2 0x2CFD DUP5 DUP5 PUSH1 0xC DUP2 GT ISZERO PUSH2 0x2CF8 JUMPI PUSH2 0x2CF7 PUSH2 0x5519 JUMP JUMPDEST JUMPDEST PUSH2 0x2BE0 JUMP JUMPDEST SWAP1 POP PUSH0 PUSH1 0xD PUSH0 DUP4 DUP2 MSTORE PUSH1 0x20 ADD SWAP1 DUP2 MSTORE PUSH1 0x20 ADD PUSH0 KECCAK256 PUSH1 0x40 MLOAD DUP1 PUSH1 0x60 ADD PUSH1 0x40 MSTORE SWAP1 DUP2 PUSH0 DUP3 ADD DUP1 SLOAD PUSH2 0x2D2B SWAP1 PUSH2 0x518E JUMP JUMPDEST DUP1 PUSH1 0x1F ADD PUSH1 0x20 DUP1 SWAP2 DIV MUL PUSH1 0x20 ADD PUSH1 0x40 MLOAD SWAP1 DUP2 ADD PUSH1 0x40 MSTORE DUP1 SWAP3 SWAP2 SWAP1 DUP2 DUP2 MSTORE PUSH1 0x20 ADD DUP3 DUP1 SLOAD PUSH2 0x2D57 SWAP1 PUSH2 0x518E JUMP JUMPDEST DUP1 ISZERO PUSH2 0x2DA2 JUMPI DUP1 PUSH1 0x1F LT PUSH2 0x2D79 JUMPI PUSH2 0x100 DUP1 DUP4 SLOAD DIV MUL DUP4 MSTORE SWAP2 PUSH1 0x20 ADD SWAP2 PUSH2 0x2DA2 JUMP JUMPDEST DUP3 ADD SWAP2 SWAP1 PUSH0 MSTORE PUSH1 0x20 PUSH0 KECCAK256 SWAP1 JUMPDEST DUP2 SLOAD DUP2 MSTORE SWAP1 PUSH1 0x1 ADD SWAP1 PUSH1 0x20 ADD DUP1 DUP4 GT PUSH2 0x2D85 JUMPI DUP3 SWAP1 SUB PUSH1 0x1F AND DUP3 ADD SWAP2 JUMPDEST POP POP POP POP POP DUP2 MSTORE PUSH1 0x20 ADD PUSH1 0x1 DUP3 ADD PUSH0 SWAP1 SLOAD SWAP1 PUSH2 0x100 EXP SWAP1 DIV PUSH1 0xFF AND PUSH1 0xC DUP2 GT ISZERO PUSH2 0x2DCF JUMPI PUSH2 0x2DCE PUSH2 0x5519 JUMP JUMPDEST JUMPDEST PUSH1 0xC DUP2 GT ISZERO PUSH2 0x2DE1 JUMPI PUSH2 0x2DE0 PUSH2 0x5519 JUMP JUMPDEST JUMPDEST DUP2 MSTORE PUSH1 0x20 ADD PUSH1 0x1 DUP3 ADD PUSH1 0x1 SWAP1 SLOAD SWAP1 PUSH2 0x100 EXP SWAP1 DIV PUSH20 0xFFFFFFFFFFFFFFFFFFFFFFFFFFFFFFFFFFFFFFFF AND PUSH20 0xFFFFFFFFFFFFFFFFFFFFFFFFFFFFFFFFFFFFFFFF AND PUSH20 0xFFFFFFFFFFFFFFFFFFFFFFFFFFFFFFFFFFFFFFFF AND DUP2 MSTORE POP POP SWAP1 POP DUP1 PUSH1 0x40 ADD MLOAD SWAP3 POP POP POP SWAP3 SWAP2 POP POP JUMP JUMPDEST PUSH0 PUSH1 0xB PUSH0 SWAP1 SLOAD SWAP1 PUSH2 0x100 EXP SWAP1 DIV PUSH20 0xFFFFFFFFFFFFFFFFFFFFFFFFFFFFFFFFFFFFFFFF AND SWAP1 POP DUP2 PUSH1 0xB PUSH0 PUSH2 0x100 EXP DUP2 SLOAD DUP2 PUSH20 0xFFFFFFFFFFFFFFFFFFFFFFFFFFFFFFFFFFFFFFFF MUL NOT AND SWAP1 DUP4 PUSH20 0xFFFFFFFFFFFFFFFFFFFFFFFFFFFFFFFFFFFFFFFF AND MUL OR SWAP1 SSTORE POP DUP2 PUSH20 0xFFFFFFFFFFFFFFFFFFFFFFFFFFFFFFFFFFFFFFFF AND DUP2 PUSH20 0xFFFFFFFFFFFFFFFFFFFFFFFFFFFFFFFFFFFFFFFF AND PUSH32 0x8BE0079C531659141344CD1FD0A4F28419497F9722A3DAAFE3B4186F6B6457E0 PUSH1 0x40 MLOAD PUSH1 0x40 MLOAD DUP1 SWAP2 SUB SWAP1 LOG3 POP POP JUMP JUMPDEST PUSH0 PUSH2 0x2F18 PUSH2 0xCEF JUMP JUMPDEST GT PUSH2 0x2F58 JUMPI PUSH1 0x40 MLOAD PUSH32 0x8C379A000000000000000000000000000000000000000000000000000000000 DUP2 MSTORE PUSH1 0x4 ADD PUSH2 0x2F4F SWAP1 PUSH2 0x6568 JUMP JUMPDEST PUSH1 0x40 MLOAD DUP1 SWAP2 SUB SWAP1 REVERT JUMPDEST PUSH2 0x2F60 PUSH2 0x35E5 JUMP JUMPDEST PUSH2 0x2F72 CALLER PUSH2 0x2F6D PUSH0 PUSH2 0x18E3 JUMP JUMPDEST PUSH2 0x38D0 JUMP JUMPDEST JUMP JUMPDEST PUSH2 0x2F7D DUP7 PUSH2 0x274C JUMP JUMPDEST ISZERO DUP1 ISZERO PUSH2 0x2F8D JUMPI POP PUSH0 DUP6 PUSH2 0xFFFF AND EQ JUMPDEST DUP1 ISZERO PUSH2 0x2FE4 JUMPI POP PUSH1 0x40 MLOAD PUSH1 0x20 ADD PUSH2 0x2FA3 SWAP1 PUSH2 0x65A9 JUMP JUMPDEST PUSH1 0x40 MLOAD PUSH1 0x20 DUP2 DUP4 SUB SUB DUP2 MSTORE SWAP1 PUSH1 0x40 MSTORE DUP1 MLOAD SWAP1 PUSH1 0x20 ADD KECCAK256 DUP5 DUP5 PUSH1 0x40 MLOAD PUSH1 0x20 ADD PUSH2 0x2FCC SWAP3 SWAP2 SWAP1 PUSH2 0x65E1 JUMP JUMPDEST PUSH1 0x40 MLOAD PUSH1 0x20 DUP2 DUP4 SUB SUB DUP2 MSTORE SWAP1 PUSH1 0x40 MSTORE DUP1 MLOAD SWAP1 PUSH1 0x20 ADD KECCAK256 EQ JUMPDEST DUP1 ISZERO PUSH2 0x303B JUMPI POP PUSH1 0x40 MLOAD PUSH1 0x20 ADD PUSH2 0x2FFA SWAP1 PUSH2 0x65A9 JUMP JUMPDEST PUSH1 0x40 MLOAD PUSH1 0x20 DUP2 DUP4 SUB SUB DUP2 MSTORE SWAP1 PUSH1 0x40 MSTORE DUP1 MLOAD SWAP1 PUSH1 0x20 ADD KECCAK256 DUP3 DUP3 PUSH1 0x40 MLOAD PUSH1 0x20 ADD PUSH2 0x3023 SWAP3 SWAP2 SWAP1 PUSH2 0x65E1 JUMP JUMPDEST PUSH1 0x40 MLOAD PUSH1 0x20 DUP2 DUP4 SUB SUB DUP2 MSTORE SWAP1 PUSH1 0x40 MSTORE DUP1 MLOAD SWAP1 PUSH1 0x20 ADD KECCAK256 EQ JUMPDEST ISZERO PUSH2 0x307B JUMPI PUSH1 0x40 MLOAD PUSH32 0x8C379A000000000000000000000000000000000000000000000000000000000 DUP2 MSTORE PUSH1 0x4 ADD PUSH2 0x3072 SWAP1 PUSH2 0x6669 JUMP JUMPDEST PUSH1 0x40 MLOAD DUP1 SWAP2 SUB SWAP1 REVERT JUMPDEST PUSH2 0x3084 DUP7 PUSH2 0x274C JUMP JUMPDEST ISZERO PUSH2 0x30A7 JUMPI DUP6 PUSH1 0x11 PUSH0 PUSH2 0x100 EXP DUP2 SLOAD DUP2 PUSH4 0xFFFFFFFF MUL NOT AND SWAP1 DUP4 PUSH1 0xE0 SHR MUL OR SWAP1 SSTORE POP JUMPDEST PUSH0 DUP6 PUSH2 0xFFFF AND EQ PUSH2 0x30D0 JUMPI DUP5 PUSH1 0x11 PUSH1 0x4 PUSH2 0x100 EXP DUP2 SLOAD DUP2 PUSH2 0xFFFF MUL NOT AND SWAP1 DUP4 PUSH2 0xFFFF AND MUL OR SWAP1 SSTORE POP JUMPDEST PUSH1 0x40 MLOAD PUSH1 0x20 ADD PUSH2 0x30DF SWAP1 PUSH2 0x65A9 JUMP JUMPDEST PUSH1 0x40 MLOAD PUSH1 0x20 DUP2 DUP4 SUB SUB DUP2 MSTORE SWAP1 PUSH1 0x40 MSTORE DUP1 MLOAD SWAP1 PUSH1 0x20 ADD KECCAK256 DUP5 DUP5 PUSH1 0x40 MLOAD PUSH1 0x20 ADD PUSH2 0x3108 SWAP3 SWAP2 SWAP1 PUSH2 0x65E1 JUMP JUMPDEST PUSH1 0x40 MLOAD PUSH1 0x20 DUP2 DUP4 SUB SUB DUP2 MSTORE SWAP1 PUSH1 0x40 MSTORE DUP1 MLOAD SWAP1 PUSH1 0x20 ADD KECCAK256 EQ PUSH2 0x3136 JUMPI DUP4 DUP4 PUSH1 0x12 SWAP2 DUP3 PUSH2 0x3134 SWAP3 SWAP2 SWAP1 PUSH2 0x5B5D JUMP JUMPDEST POP JUMPDEST PUSH1 0x40 MLOAD PUSH1 0x20 ADD PUSH2 0x3145 SWAP1 PUSH2 0x65A9 JUMP JUMPDEST PUSH1 0x40 MLOAD PUSH1 0x20 DUP2 DUP4 SUB SUB DUP2 MSTORE SWAP1 PUSH1 0x40 MSTORE DUP1 MLOAD SWAP1 PUSH1 0x20 ADD KECCAK256 DUP3 DUP3 PUSH1 0x40 MLOAD PUSH1 0x20 ADD PUSH2 0x316E SWAP3 SWAP2 SWAP1 PUSH2 0x65E1 JUMP JUMPDEST PUSH1 0x40 MLOAD PUSH1 0x20 DUP2 DUP4 SUB SUB DUP2 MSTORE SWAP1 PUSH1 0x40 MSTORE DUP1 MLOAD SWAP1 PUSH1 0x20 ADD KECCAK256 EQ PUSH2 0x319C JUMPI DUP2 DUP2 PUSH1 0x13 SWAP2 DUP3 PUSH2 0x319A SWAP3 SWAP2 SWAP1 PUSH2 0x5B5D JUMP JUMPDEST POP JUMPDEST POP POP POP POP POP POP JUMP JUMPDEST DUP2 PUSH20 0xFFFFFFFFFFFFFFFFFFFFFFFFFFFFFFFFFFFFFFFF AND DUP4 PUSH20 0xFFFFFFFFFFFFFFFFFFFFFFFFFFFFFFFFFFFFFFFF AND SUB PUSH2 0x3212 JUMPI PUSH1 0x40 MLOAD PUSH32 0x8C379A000000000000000000000000000000000000000000000000000000000 DUP2 MSTORE PUSH1 0x4 ADD PUSH2 0x3209 SWAP1 PUSH2 0x66D1 JUMP JUMPDEST PUSH1 0x40 MLOAD DUP1 SWAP2 SUB SWAP1 REVERT JUMPDEST DUP1 PUSH1 0x5 PUSH0 DUP6 PUSH20 0xFFFFFFFFFFFFFFFFFFFFFFFFFFFFFFFFFFFFFFFF AND PUSH20 0xFFFFFFFFFFFFFFFFFFFFFFFFFFFFFFFFFFFFFFFF AND DUP2 MSTORE PUSH1 0x20 ADD SWAP1 DUP2 MSTORE PUSH1 0x20 ADD PUSH0 KECCAK256 PUSH0 DUP5 PUSH20 0xFFFFFFFFFFFFFFFFFFFFFFFFFFFFFFFFFFFFFFFF AND PUSH20 0xFFFFFFFFFFFFFFFFFFFFFFFFFFFFFFFFFFFFFFFF AND DUP2 MSTORE PUSH1 0x20 ADD SWAP1 DUP2 MSTORE PUSH1 0x20 ADD PUSH0 KECCAK256 PUSH0 PUSH2 0x100 EXP DUP2 SLOAD DUP2 PUSH1 0xFF MUL NOT AND SWAP1 DUP4 ISZERO ISZERO MUL OR SWAP1 SSTORE POP DUP2 PUSH20 0xFFFFFFFFFFFFFFFFFFFFFFFFFFFFFFFFFFFFFFFF AND DUP4 PUSH20 0xFFFFFFFFFFFFFFFFFFFFFFFFFFFFFFFFFFFFFFFF AND PUSH32 0x17307EAB39AB6107E8899845AD3D59BD9653F200F220920489CA2B5937696C31 DUP4 PUSH1 0x40 MLOAD PUSH2 0x32FE SWAP2 SWAP1 PUSH2 0x47D0 JUMP JUMPDEST PUSH1 0x40 MLOAD DUP1 SWAP2 SUB SWAP1 LOG3 POP POP POP JUMP JUMPDEST PUSH2 0x3316 DUP5 DUP5 DUP5 PUSH2 0x28E8 JUMP JUMPDEST PUSH2 0x3322 DUP5 DUP5 DUP5 DUP5 PUSH2 0x3900 JUMP JUMPDEST PUSH2 0x3361 JUMPI PUSH1 0x40 MLOAD PUSH32 0x8C379A000000000000000000000000000000000000000000000000000000000 DUP2 MSTORE PUSH1 0x4 ADD PUSH2 0x3358 SWAP1 PUSH2 0x675F JUMP JUMPDEST PUSH1 0x40 MLOAD DUP1 SWAP2 SUB SWAP1 REVERT JUMPDEST POP POP POP POP JUMP JUMPDEST PUSH1 0x60 PUSH2 0x3372 DUP3 PUSH2 0x215D JUMP JUMPDEST PUSH0 PUSH1 0x6 PUSH0 DUP5 DUP2 MSTORE PUSH1 0x20 ADD SWAP1 DUP2 MSTORE PUSH1 0x20 ADD PUSH0 KECCAK256 DUP1 SLOAD PUSH2 0x338F SWAP1 PUSH2 0x518E JUMP JUMPDEST DUP1 PUSH1 0x1F ADD PUSH1 0x20 DUP1 SWAP2 DIV MUL PUSH1 0x20 ADD PUSH1 0x40 MLOAD SWAP1 DUP2 ADD PUSH1 0x40 MSTORE DUP1 SWAP3 SWAP2 SWAP1 DUP2 DUP2 MSTORE PUSH1 0x20 ADD DUP3 DUP1 SLOAD PUSH2 0x33BB SWAP1 PUSH2 0x518E JUMP JUMPDEST DUP1 ISZERO PUSH2 0x3406 JUMPI DUP1 PUSH1 0x1F LT PUSH2 0x33DD JUMPI PUSH2 0x100 DUP1 DUP4 SLOAD DIV MUL DUP4 MSTORE SWAP2 PUSH1 0x20 ADD SWAP2 PUSH2 0x3406 JUMP JUMPDEST DUP3 ADD SWAP2 SWAP1 PUSH0 MSTORE PUSH1 0x20 PUSH0 KECCAK256 SWAP1 JUMPDEST DUP2 SLOAD DUP2 MSTORE SWAP1 PUSH1 0x1 ADD SWAP1 PUSH1 0x20 ADD DUP1 DUP4 GT PUSH2 0x33E9 JUMPI DUP3 SWAP1 SUB PUSH1 0x1F AND DUP3 ADD SWAP2 JUMPDEST POP POP POP POP POP SWAP1 POP PUSH0 PUSH2 0x3416 PUSH2 0x3A82 JUMP JUMPDEST SWAP1 POP PUSH0 DUP2 MLOAD SUB PUSH2 0x342A JUMPI DUP2 SWAP3 POP POP POP PUSH2 0x346C JUMP JUMPDEST PUSH0 DUP3 MLOAD GT ISZERO PUSH2 0x345E JUMPI DUP1 DUP3 PUSH1 0x40 MLOAD PUSH1 0x20 ADD PUSH2 0x3446 SWAP3 SWAP2 SWAP1 PUSH2 0x677D JUMP JUMPDEST PUSH1 0x40 MLOAD PUSH1 0x20 DUP2 DUP4 SUB SUB DUP2 MSTORE SWAP1 PUSH1 0x40 MSTORE SWAP3 POP POP POP PUSH2 0x346C JUMP JUMPDEST PUSH2 0x3467 DUP5 PUSH2 0x3A98 JUMP JUMPDEST SWAP3 POP POP POP JUMPDEST SWAP2 SWAP1 POP JUMP JUMPDEST PUSH0 DUP1 DUP4 PUSH1 0x40 MLOAD PUSH1 0x20 ADD PUSH2 0x3484 SWAP2 SWAP1 PUSH2 0x57E3 JUMP JUMPDEST PUSH1 0x40 MLOAD PUSH1 0x20 DUP2 DUP4 SUB SUB DUP2 MSTORE SWAP1 PUSH1 0x40 MSTORE DUP1 MLOAD SWAP1 PUSH1 0x20 ADD KECCAK256 PUSH1 0xD PUSH0 DUP6 DUP2 MSTORE PUSH1 0x20 ADD SWAP1 DUP2 MSTORE PUSH1 0x20 ADD PUSH0 KECCAK256 PUSH0 ADD PUSH1 0x40 MLOAD PUSH1 0x20 ADD PUSH2 0x34BD SWAP2 SWAP1 PUSH2 0x5879 JUMP JUMPDEST PUSH1 0x40 MLOAD PUSH1 0x20 DUP2 DUP4 SUB SUB DUP2 MSTORE SWAP1 PUSH1 0x40 MSTORE DUP1 MLOAD SWAP1 PUSH1 0x20 ADD KECCAK256 EQ SWAP1 POP DUP1 SWAP2 POP POP SWAP3 SWAP2 POP POP JUMP JUMPDEST PUSH0 PUSH4 0x49064906 PUSH1 0xE0 SHL PUSH28 0xFFFFFFFFFFFFFFFFFFFFFFFFFFFFFFFFFFFFFFFFFFFFFFFFFFFFFFFF NOT AND DUP3 PUSH28 0xFFFFFFFFFFFFFFFFFFFFFFFFFFFFFFFFFFFFFFFFFFFFFFFFFFFFFFFF NOT AND EQ DUP1 PUSH2 0x3539 JUMPI POP PUSH2 0x3538 DUP3 PUSH2 0x3AFD JUMP JUMPDEST JUMPDEST SWAP1 POP SWAP2 SWAP1 POP JUMP JUMPDEST PUSH0 DUP1 PUSH20 0xFFFFFFFFFFFFFFFFFFFFFFFFFFFFFFFFFFFFFFFF AND PUSH2 0x3561 DUP4 PUSH2 0x2CA6 JUMP JUMPDEST PUSH20 0xFFFFFFFFFFFFFFFFFFFFFFFFFFFFFFFFFFFFFFFF AND EQ ISZERO SWAP1 POP SWAP2 SWAP1 POP JUMP JUMPDEST PUSH2 0x358C DUP5 DUP5 DUP5 DUP5 PUSH2 0x3BDE JUMP JUMPDEST POP POP POP POP JUMP JUMPDEST POP POP POP POP JUMP JUMPDEST PUSH2 0x35A1 DUP2 PUSH2 0x3D39 JUMP JUMPDEST PUSH0 PUSH1 0x6 PUSH0 DUP4 DUP2 MSTORE PUSH1 0x20 ADD SWAP1 DUP2 MSTORE PUSH1 0x20 ADD PUSH0 KECCAK256 DUP1 SLOAD PUSH2 0x35BE SWAP1 PUSH2 0x518E JUMP JUMPDEST SWAP1 POP EQ PUSH2 0x35E2 JUMPI PUSH1 0x6 PUSH0 DUP3 DUP2 MSTORE PUSH1 0x20 ADD SWAP1 DUP2 MSTORE PUSH1 0x20 ADD PUSH0 KECCAK256 PUSH0 PUSH2 0x35E1 SWAP2 SWAP1 PUSH2 0x46CD JUMP JUMPDEST JUMPDEST POP JUMP JUMPDEST PUSH0 PUSH1 0xE PUSH1 0x1 ADD SLOAD SWAP1 POP PUSH0 PUSH1 0xE PUSH0 ADD PUSH0 SWAP1 SLOAD SWAP1 PUSH2 0x100 EXP SWAP1 DIV PUSH20 0xFFFFFFFFFFFFFFFFFFFFFFFFFFFFFFFFFFFFFFFF AND SWAP1 POP PUSH0 PUSH20 0xFFFFFFFFFFFFFFFFFFFFFFFFFFFFFFFFFFFFFFFF AND DUP2 PUSH20 0xFFFFFFFFFFFFFFFFFFFFFFFFFFFFFFFFFFFFFFFF AND SUB PUSH2 0x368F JUMPI DUP2 CALLVALUE EQ PUSH2 0x368A JUMPI PUSH1 0x40 MLOAD PUSH32 0x8C379A000000000000000000000000000000000000000000000000000000000 DUP2 MSTORE PUSH1 0x4 ADD PUSH2 0x3681 SWAP1 PUSH2 0x6810 JUMP JUMPDEST PUSH1 0x40 MLOAD DUP1 SWAP2 SUB SWAP1 REVERT JUMPDEST PUSH2 0x3889 JUMP JUMPDEST PUSH0 DUP2 SWAP1 POP DUP3 DUP2 PUSH20 0xFFFFFFFFFFFFFFFFFFFFFFFFFFFFFFFFFFFFFFFF AND PUSH4 0x70A08231 CALLER PUSH1 0x40 MLOAD DUP3 PUSH4 0xFFFFFFFF AND PUSH1 0xE0 SHL DUP2 MSTORE PUSH1 0x4 ADD PUSH2 0x36CD SWAP2 SWAP1 PUSH2 0x4930 JUMP JUMPDEST PUSH1 0x20 PUSH1 0x40 MLOAD DUP1 DUP4 SUB DUP2 DUP7 GAS STATICCALL ISZERO DUP1 ISZERO PUSH2 0x36E8 JUMPI RETURNDATASIZE PUSH0 DUP1 RETURNDATACOPY RETURNDATASIZE PUSH0 REVERT JUMPDEST POP POP POP POP PUSH1 0x40 MLOAD RETURNDATASIZE PUSH1 0x1F NOT PUSH1 0x1F DUP3 ADD AND DUP3 ADD DUP1 PUSH1 0x40 MSTORE POP DUP2 ADD SWAP1 PUSH2 0x370C SWAP2 SWAP1 PUSH2 0x5C3E JUMP JUMPDEST LT ISZERO PUSH2 0x374D JUMPI PUSH1 0x40 MLOAD PUSH32 0x8C379A000000000000000000000000000000000000000000000000000000000 DUP2 MSTORE PUSH1 0x4 ADD PUSH2 0x3744 SWAP1 PUSH2 0x689E JUMP JUMPDEST PUSH1 0x40 MLOAD DUP1 SWAP2 SUB SWAP1 REVERT JUMPDEST DUP3 DUP2 PUSH20 0xFFFFFFFFFFFFFFFFFFFFFFFFFFFFFFFFFFFFFFFF AND PUSH4 0xDD62ED3E CALLER ADDRESS PUSH1 0x40 MLOAD DUP4 PUSH4 0xFFFFFFFF AND PUSH1 0xE0 SHL DUP2 MSTORE PUSH1 0x4 ADD PUSH2 0x3789 SWAP3 SWAP2 SWAP1 PUSH2 0x68BC JUMP JUMPDEST PUSH1 0x20 PUSH1 0x40 MLOAD DUP1 DUP4 SUB DUP2 DUP7 GAS STATICCALL ISZERO DUP1 ISZERO PUSH2 0x37A4 JUMPI RETURNDATASIZE PUSH0 DUP1 RETURNDATACOPY RETURNDATASIZE PUSH0 REVERT JUMPDEST POP POP POP POP PUSH1 0x40 MLOAD RETURNDATASIZE PUSH1 0x1F NOT PUSH1 0x1F DUP3 ADD AND DUP3 ADD DUP1 PUSH1 0x40 MSTORE POP DUP2 ADD SWAP1 PUSH2 0x37C8 SWAP2 SWAP1 PUSH2 0x5C3E JUMP JUMPDEST LT ISZERO PUSH2 0x3809 JUMPI PUSH1 0x40 MLOAD PUSH32 0x8C379A000000000000000000000000000000000000000000000000000000000 DUP2 MSTORE PUSH1 0x4 ADD PUSH2 0x3800 SWAP1 PUSH2 0x6979 JUMP JUMPDEST PUSH1 0x40 MLOAD DUP1 SWAP2 SUB SWAP1 REVERT JUMPDEST DUP1 PUSH20 0xFFFFFFFFFFFFFFFFFFFFFFFFFFFFFFFFFFFFFFFF AND PUSH4 0x23B872DD CALLER ADDRESS DUP7 PUSH1 0x40 MLOAD DUP5 PUSH4 0xFFFFFFFF AND PUSH1 0xE0 SHL DUP2 MSTORE PUSH1 0x4 ADD PUSH2 0x3846 SWAP4 SWAP3 SWAP2 SWAP1 PUSH2 0x5F64 JUMP JUMPDEST PUSH1 0x20 PUSH1 0x40 MLOAD DUP1 DUP4 SUB DUP2 PUSH0 DUP8 GAS CALL ISZERO DUP1 ISZERO PUSH2 0x3862 JUMPI RETURNDATASIZE PUSH0 DUP1 RETURNDATACOPY RETURNDATASIZE PUSH0 REVERT JUMPDEST POP POP POP POP PUSH1 0x40 MLOAD RETURNDATASIZE PUSH1 0x1F NOT PUSH1 0x1F DUP3 ADD AND DUP3 ADD DUP1 PUSH1 0x40 MSTORE POP DUP2 ADD SWAP1 PUSH2 0x3886 SWAP2 SWAP1 PUSH2 0x5D32 JUMP JUMPDEST POP POP JUMPDEST CALLER PUSH20 0xFFFFFFFFFFFFFFFFFFFFFFFFFFFFFFFFFFFFFFFF AND PUSH32 0xF403523E17BF2D1FE8AF1A00BA36BC463A7D846DBADF11D117400F7694BA3E6C PUSH1 0x40 MLOAD PUSH1 0x40 MLOAD DUP1 SWAP2 SUB SWAP1 LOG2 POP POP JUMP JUMPDEST PUSH0 PUSH2 0x38DB PUSH1 0x10 PUSH2 0x3E7A JUMP JUMPDEST SWAP1 POP PUSH2 0x38E7 PUSH1 0x10 PUSH2 0x3E86 JUMP JUMPDEST PUSH2 0x38F1 DUP4 DUP3 PUSH2 0x3E9A JUMP JUMPDEST PUSH2 0x38FB DUP2 DUP4 PUSH2 0x40AD JUMP JUMPDEST POP POP POP JUMP JUMPDEST PUSH0 PUSH2 0x3920 DUP5 PUSH20 0xFFFFFFFFFFFFFFFFFFFFFFFFFFFFFFFFFFFFFFFF AND PUSH2 0x414F JUMP JUMPDEST ISZERO PUSH2 0x3A75 JUMPI DUP4 PUSH20 0xFFFFFFFFFFFFFFFFFFFFFFFFFFFFFFFFFFFFFFFF AND PUSH4 0x150B7A02 PUSH2 0x3949 PUSH2 0x21A8 JUMP JUMPDEST DUP8 DUP7 DUP7 PUSH1 0x40 MLOAD DUP6 PUSH4 0xFFFFFFFF AND PUSH1 0xE0 SHL DUP2 MSTORE PUSH1 0x4 ADD PUSH2 0x396B SWAP5 SWAP4 SWAP3 SWAP2 SWAP1 PUSH2 0x69E9 JUMP JUMPDEST PUSH1 0x20 PUSH1 0x40 MLOAD DUP1 DUP4 SUB DUP2 PUSH0 DUP8 GAS CALL SWAP3 POP POP POP DUP1 ISZERO PUSH2 0x39A6 JUMPI POP PUSH1 0x40 MLOAD RETURNDATASIZE PUSH1 0x1F NOT PUSH1 0x1F DUP3 ADD AND DUP3 ADD DUP1 PUSH1 0x40 MSTORE POP DUP2 ADD SWAP1 PUSH2 0x39A3 SWAP2 SWAP1 PUSH2 0x6A47 JUMP JUMPDEST PUSH1 0x1 JUMPDEST PUSH2 0x3A25 JUMPI RETURNDATASIZE DUP1 PUSH0 DUP2 EQ PUSH2 0x39D4 JUMPI PUSH1 0x40 MLOAD SWAP2 POP PUSH1 0x1F NOT PUSH1 0x3F RETURNDATASIZE ADD AND DUP3 ADD PUSH1 0x40 MSTORE RETURNDATASIZE DUP3 MSTORE RETURNDATASIZE PUSH0 PUSH1 0x20 DUP5 ADD RETURNDATACOPY PUSH2 0x39D9 JUMP JUMPDEST PUSH1 0x60 SWAP2 POP JUMPDEST POP PUSH0 DUP2 MLOAD SUB PUSH2 0x3A1D JUMPI PUSH1 0x40 MLOAD PUSH32 0x8C379A000000000000000000000000000000000000000000000000000000000 DUP2 MSTORE PUSH1 0x4 ADD PUSH2 0x3A14 SWAP1 PUSH2 0x675F JUMP JUMPDEST PUSH1 0x40 MLOAD DUP1 SWAP2 SUB SWAP1 REVERT JUMPDEST DUP1 MLOAD DUP2 PUSH1 0x20 ADD REVERT JUMPDEST PUSH4 0x150B7A02 PUSH1 0xE0 SHL PUSH28 0xFFFFFFFFFFFFFFFFFFFFFFFFFFFFFFFFFFFFFFFFFFFFFFFFFFFFFFFF NOT AND DUP2 PUSH28 0xFFFFFFFFFFFFFFFFFFFFFFFFFFFFFFFFFFFFFFFFFFFFFFFFFFFFFFFF NOT AND EQ SWAP2 POP POP PUSH2 0x3A7A JUMP JUMPDEST PUSH1 0x1 SWAP1 POP JUMPDEST SWAP5 SWAP4 POP POP POP POP JUMP JUMPDEST PUSH1 0x60 PUSH1 0x40 MLOAD DUP1 PUSH1 0x20 ADD PUSH1 0x40 MSTORE DUP1 PUSH0 DUP2 MSTORE POP SWAP1 POP SWAP1 JUMP JUMPDEST PUSH1 0x60 PUSH2 0x3AA3 DUP3 PUSH2 0x215D JUMP JUMPDEST PUSH0 PUSH2 0x3AAC PUSH2 0x3A82 JUMP JUMPDEST SWAP1 POP PUSH0 DUP2 MLOAD GT PUSH2 0x3ACA JUMPI PUSH1 0x40 MLOAD DUP1 PUSH1 0x20 ADD PUSH1 0x40 MSTORE DUP1 PUSH0 DUP2 MSTORE POP PUSH2 0x3AF5 JUMP JUMPDEST DUP1 PUSH2 0x3AD4 DUP5 PUSH2 0x4171 JUMP JUMPDEST PUSH1 0x40 MLOAD PUSH1 0x20 ADD PUSH2 0x3AE5 SWAP3 SWAP2 SWAP1 PUSH2 0x677D JUMP JUMPDEST PUSH1 0x40 MLOAD PUSH1 0x20 DUP2 DUP4 SUB SUB DUP2 MSTORE SWAP1 PUSH1 0x40 MSTORE JUMPDEST SWAP2 POP POP SWAP2 SWAP1 POP JUMP JUMPDEST PUSH0 PUSH32 0x80AC58CD00000000000000000000000000000000000000000000000000000000 PUSH28 0xFFFFFFFFFFFFFFFFFFFFFFFFFFFFFFFFFFFFFFFFFFFFFFFFFFFFFFFF NOT AND DUP3 PUSH28 0xFFFFFFFFFFFFFFFFFFFFFFFFFFFFFFFFFFFFFFFFFFFFFFFFFFFFFFFF NOT AND EQ DUP1 PUSH2 0x3BC7 JUMPI POP PUSH32 0x5B5E139F00000000000000000000000000000000000000000000000000000000 PUSH28 0xFFFFFFFFFFFFFFFFFFFFFFFFFFFFFFFFFFFFFFFFFFFFFFFFFFFFFFFF NOT AND DUP3 PUSH28 0xFFFFFFFFFFFFFFFFFFFFFFFFFFFFFFFFFFFFFFFFFFFFFFFFFFFFFFFF NOT AND EQ JUMPDEST DUP1 PUSH2 0x3BD7 JUMPI POP PUSH2 0x3BD6 DUP3 PUSH2 0x423B JUMP JUMPDEST JUMPDEST SWAP1 POP SWAP2 SWAP1 POP JUMP JUMPDEST PUSH2 0x3BEA DUP5 DUP5 DUP5 DUP5 PUSH2 0x42A4 JUMP JUMPDEST PUSH1 0x1 DUP2 GT ISZERO PUSH2 0x3C2E JUMPI PUSH1 0x40 MLOAD PUSH32 0x8C379A000000000000000000000000000000000000000000000000000000000 DUP2 MSTORE PUSH1 0x4 ADD PUSH2 0x3C25 SWAP1 PUSH2 0x6AE2 JUMP JUMPDEST PUSH1 0x40 MLOAD DUP1 SWAP2 SUB SWAP1 REVERT JUMPDEST PUSH0 DUP3 SWAP1 POP PUSH0 PUSH20 0xFFFFFFFFFFFFFFFFFFFFFFFFFFFFFFFFFFFFFFFF AND DUP6 PUSH20 0xFFFFFFFFFFFFFFFFFFFFFFFFFFFFFFFFFFFFFFFF AND SUB PUSH2 0x3C73 JUMPI PUSH2 0x3C6E DUP2 PUSH2 0x42AA JUMP JUMPDEST PUSH2 0x3CB2 JUMP JUMPDEST DUP4 PUSH20 0xFFFFFFFFFFFFFFFFFFFFFFFFFFFFFFFFFFFFFFFF AND DUP6 PUSH20 0xFFFFFFFFFFFFFFFFFFFFFFFFFFFFFFFFFFFFFFFF AND EQ PUSH2 0x3CB1 JUMPI PUSH2 0x3CB0 DUP6 DUP3 PUSH2 0x42EE JUMP JUMPDEST JUMPDEST JUMPDEST PUSH0 PUSH20 0xFFFFFFFFFFFFFFFFFFFFFFFFFFFFFFFFFFFFFFFF AND DUP5 PUSH20 0xFFFFFFFFFFFFFFFFFFFFFFFFFFFFFFFFFFFFFFFF AND SUB PUSH2 0x3CF3 JUMPI PUSH2 0x3CEE DUP2 PUSH2 0x4444 JUMP JUMPDEST PUSH2 0x3D32 JUMP JUMPDEST DUP5 PUSH20 0xFFFFFFFFFFFFFFFFFFFFFFFFFFFFFFFFFFFFFFFF AND DUP5 PUSH20 0xFFFFFFFFFFFFFFFFFFFFFFFFFFFFFFFFFFFFFFFF AND EQ PUSH2 0x3D31 JUMPI PUSH2 0x3D30 DUP5 DUP3 PUSH2 0x4504 JUMP JUMPDEST JUMPDEST JUMPDEST POP POP POP POP POP JUMP JUMPDEST PUSH0 PUSH2 0x3D43 DUP3 PUSH2 0x133B JUMP JUMPDEST SWAP1 POP PUSH2 0x3D52 DUP2 PUSH0 DUP5 PUSH1 0x1 PUSH2 0x3580 JUMP JUMPDEST PUSH2 0x3D5B DUP3 PUSH2 0x133B JUMP JUMPDEST SWAP1 POP PUSH1 0x4 PUSH0 DUP4 DUP2 MSTORE PUSH1 0x20 ADD SWAP1 DUP2 MSTORE PUSH1 0x20 ADD PUSH0 KECCAK256 PUSH0 PUSH2 0x100 EXP DUP2 SLOAD SWAP1 PUSH20 0xFFFFFFFFFFFFFFFFFFFFFFFFFFFFFFFFFFFFFFFF MUL NOT AND SWAP1 SSTORE PUSH1 0x1 PUSH1 0x3 PUSH0 DUP4 PUSH20 0xFFFFFFFFFFFFFFFFFFFFFFFFFFFFFFFFFFFFFFFF AND PUSH20 0xFFFFFFFFFFFFFFFFFFFFFFFFFFFFFFFFFFFFFFFF AND DUP2 MSTORE PUSH1 0x20 ADD SWAP1 DUP2 MSTORE PUSH1 0x20 ADD PUSH0 KECCAK256 PUSH0 DUP3 DUP3 SLOAD SUB SWAP3 POP POP DUP2 SWAP1 SSTORE POP PUSH1 0x2 PUSH0 DUP4 DUP2 MSTORE PUSH1 0x20 ADD SWAP1 DUP2 MSTORE PUSH1 0x20 ADD PUSH0 KECCAK256 PUSH0 PUSH2 0x100 EXP DUP2 SLOAD SWAP1 PUSH20 0xFFFFFFFFFFFFFFFFFFFFFFFFFFFFFFFFFFFFFFFF MUL NOT AND SWAP1 SSTORE DUP2 PUSH0 PUSH20 0xFFFFFFFFFFFFFFFFFFFFFFFFFFFFFFFFFFFFFFFF AND DUP3 PUSH20 0xFFFFFFFFFFFFFFFFFFFFFFFFFFFFFFFFFFFFFFFF AND PUSH32 0xDDF252AD1BE2C89B69C2B068FC378DAA952BA7F163C4A11628F55A4DF523B3EF PUSH1 0x40 MLOAD PUSH1 0x40 MLOAD DUP1 SWAP2 SUB SWAP1 LOG4 PUSH2 0x3E76 DUP2 PUSH0 DUP5 PUSH1 0x1 PUSH2 0x3592 JUMP JUMPDEST POP POP JUMP JUMPDEST PUSH0 DUP2 PUSH0 ADD SLOAD SWAP1 POP SWAP2 SWAP1 POP JUMP JUMPDEST PUSH1 0x1 DUP2 PUSH0 ADD PUSH0 DUP3 DUP3 SLOAD ADD SWAP3 POP POP DUP2 SWAP1 SSTORE POP POP JUMP JUMPDEST PUSH0 PUSH20 0xFFFFFFFFFFFFFFFFFFFFFFFFFFFFFFFFFFFFFFFF AND DUP3 PUSH20 0xFFFFFFFFFFFFFFFFFFFFFFFFFFFFFFFFFFFFFFFF AND SUB PUSH2 0x3F08 JUMPI PUSH1 0x40 MLOAD PUSH32 0x8C379A000000000000000000000000000000000000000000000000000000000 DUP2 MSTORE PUSH1 0x4 ADD PUSH2 0x3EFF SWAP1 PUSH2 0x6B4A JUMP JUMPDEST PUSH1 0x40 MLOAD DUP1 SWAP2 SUB SWAP1 REVERT JUMPDEST PUSH2 0x3F11 DUP2 PUSH2 0x3540 JUMP JUMPDEST ISZERO PUSH2 0x3F51 JUMPI PUSH1 0x40 MLOAD PUSH32 0x8C379A000000000000000000000000000000000000000000000000000000000 DUP2 MSTORE PUSH1 0x4 ADD PUSH2 0x3F48 SWAP1 PUSH2 0x6BB2 JUMP JUMPDEST PUSH1 0x40 MLOAD DUP1 SWAP2 SUB SWAP1 REVERT JUMPDEST PUSH2 0x3F5E PUSH0 DUP4 DUP4 PUSH1 0x1 PUSH2 0x3580 JUMP JUMPDEST PUSH2 0x3F67 DUP2 PUSH2 0x3540 JUMP JUMPDEST ISZERO PUSH2 0x3FA7 JUMPI PUSH1 0x40 MLOAD PUSH32 0x8C379A000000000000000000000000000000000000000000000000000000000 DUP2 MSTORE PUSH1 0x4 ADD PUSH2 0x3F9E SWAP1 PUSH2 0x6BB2 JUMP JUMPDEST PUSH1 0x40 MLOAD DUP1 SWAP2 SUB SWAP1 REVERT JUMPDEST PUSH1 0x1 PUSH1 0x3 PUSH0 DUP5 PUSH20 0xFFFFFFFFFFFFFFFFFFFFFFFFFFFFFFFFFFFFFFFF AND PUSH20 0xFFFFFFFFFFFFFFFFFFFFFFFFFFFFFFFFFFFFFFFF AND DUP2 MSTORE PUSH1 0x20 ADD SWAP1 DUP2 MSTORE PUSH1 0x20 ADD PUSH0 KECCAK256 PUSH0 DUP3 DUP3 SLOAD ADD SWAP3 POP POP DUP2 SWAP1 SSTORE POP DUP2 PUSH1 0x2 PUSH0 DUP4 DUP2 MSTORE PUSH1 0x20 ADD SWAP1 DUP2 MSTORE PUSH1 0x20 ADD PUSH0 KECCAK256 PUSH0 PUSH2 0x100 EXP DUP2 SLOAD DUP2 PUSH20 0xFFFFFFFFFFFFFFFFFFFFFFFFFFFFFFFFFFFFFFFF MUL NOT AND SWAP1 DUP4 PUSH20 0xFFFFFFFFFFFFFFFFFFFFFFFFFFFFFFFFFFFFFFFF AND MUL OR SWAP1 SSTORE POP DUP1 DUP3 PUSH20 0xFFFFFFFFFFFFFFFFFFFFFFFFFFFFFFFFFFFFFFFF AND PUSH0 PUSH20 0xFFFFFFFFFFFFFFFFFFFFFFFFFFFFFFFFFFFFFFFF AND PUSH32 0xDDF252AD1BE2C89B69C2B068FC378DAA952BA7F163C4A11628F55A4DF523B3EF PUSH1 0x40 MLOAD PUSH1 0x40 MLOAD DUP1 SWAP2 SUB SWAP1 LOG4 PUSH2 0x40A9 PUSH0 DUP4 DUP4 PUSH1 0x1 PUSH2 0x3592 JUMP JUMPDEST POP POP JUMP JUMPDEST PUSH2 0x40B6 DUP3 PUSH2 0x3540 JUMP JUMPDEST PUSH2 0x40F5 JUMPI PUSH1 0x40 MLOAD PUSH32 0x8C379A000000000000000000000000000000000000000000000000000000000 DUP2 MSTORE PUSH1 0x4 ADD PUSH2 0x40EC SWAP1 PUSH2 0x6C40 JUMP JUMPDEST PUSH1 0x40 MLOAD DUP1 SWAP2 SUB SWAP1 REVERT JUMPDEST DUP1 PUSH1 0x6 PUSH0 DUP5 DUP2 MSTORE PUSH1 0x20 ADD SWAP1 DUP2 MSTORE PUSH1 0x20 ADD PUSH0 KECCAK256 SWAP1 DUP2 PUSH2 0x4113 SWAP2 SWAP1 PUSH2 0x56DA JUMP JUMPDEST POP PUSH32 0xF8E1A15ABA9398E019F0B49DF1A4FDE98EE17AE345CB5F6B5E2C27F5033E8CE7 DUP3 PUSH1 0x40 MLOAD PUSH2 0x4143 SWAP2 SWAP1 PUSH2 0x4ACD JUMP JUMPDEST PUSH1 0x40 MLOAD DUP1 SWAP2 SUB SWAP1 LOG1 POP POP JUMP JUMPDEST PUSH0 DUP1 DUP3 PUSH20 0xFFFFFFFFFFFFFFFFFFFFFFFFFFFFFFFFFFFFFFFF AND EXTCODESIZE GT SWAP1 POP SWAP2 SWAP1 POP JUMP JUMPDEST PUSH1 0x60 PUSH0 PUSH1 0x1 PUSH2 0x417F DUP5 PUSH2 0x457C JUMP JUMPDEST ADD SWAP1 POP PUSH0 DUP2 PUSH8 0xFFFFFFFFFFFFFFFF DUP2 GT ISZERO PUSH2 0x419D JUMPI PUSH2 0x419C PUSH2 0x4C3C JUMP JUMPDEST JUMPDEST PUSH1 0x40 MLOAD SWAP1 DUP1 DUP3 MSTORE DUP1 PUSH1 0x1F ADD PUSH1 0x1F NOT AND PUSH1 0x20 ADD DUP3 ADD PUSH1 0x40 MSTORE DUP1 ISZERO PUSH2 0x41CF JUMPI DUP2 PUSH1 0x20 ADD PUSH1 0x1 DUP3 MUL DUP1 CALLDATASIZE DUP4 CALLDATACOPY DUP1 DUP3 ADD SWAP2 POP POP SWAP1 POP JUMPDEST POP SWAP1 POP PUSH0 DUP3 PUSH1 0x20 ADD DUP3 ADD SWAP1 POP JUMPDEST PUSH1 0x1 ISZERO PUSH2 0x4230 JUMPI DUP1 DUP1 PUSH1 0x1 SWAP1 SUB SWAP2 POP POP PUSH32 0x3031323334353637383961626364656600000000000000000000000000000000 PUSH1 0xA DUP7 MOD BYTE DUP2 MSTORE8 PUSH1 0xA DUP6 DUP2 PUSH2 0x4225 JUMPI PUSH2 0x4224 PUSH2 0x6C5E JUMP JUMPDEST JUMPDEST DIV SWAP5 POP PUSH0 DUP6 SUB PUSH2 0x41DC JUMPI JUMPDEST DUP2 SWAP4 POP POP POP POP SWAP2 SWAP1 POP JUMP JUMPDEST PUSH0 PUSH32 0x1FFC9A700000000000000000000000000000000000000000000000000000000 PUSH28 0xFFFFFFFFFFFFFFFFFFFFFFFFFFFFFFFFFFFFFFFFFFFFFFFFFFFFFFFF NOT AND DUP3 PUSH28 0xFFFFFFFFFFFFFFFFFFFFFFFFFFFFFFFFFFFFFFFFFFFFFFFFFFFFFFFF NOT AND EQ SWAP1 POP SWAP2 SWAP1 POP JUMP JUMPDEST POP POP POP POP JUMP JUMPDEST PUSH1 0x9 DUP1 SLOAD SWAP1 POP PUSH1 0xA PUSH0 DUP4 DUP2 MSTORE PUSH1 0x20 ADD SWAP1 DUP2 MSTORE PUSH1 0x20 ADD PUSH0 KECCAK256 DUP2 SWAP1 SSTORE POP PUSH1 0x9 DUP2 SWAP1 DUP1 PUSH1 0x1 DUP2 SLOAD ADD DUP1 DUP3 SSTORE DUP1 SWAP2 POP POP PUSH1 0x1 SWAP1 SUB SWAP1 PUSH0 MSTORE PUSH1 0x20 PUSH0 KECCAK256 ADD PUSH0 SWAP1 SWAP2 SWAP1 SWAP2 SWAP1 SWAP2 POP SSTORE POP JUMP JUMPDEST PUSH0 PUSH1 0x1 PUSH2 0x42FA DUP5 PUSH2 0x140A JUMP JUMPDEST PUSH2 0x4304 SWAP2 SWAP1 PUSH2 0x58BC JUMP JUMPDEST SWAP1 POP PUSH0 PUSH1 0x8 PUSH0 DUP5 DUP2 MSTORE PUSH1 0x20 ADD SWAP1 DUP2 MSTORE PUSH1 0x20 ADD PUSH0 KECCAK256 SLOAD SWAP1 POP DUP2 DUP2 EQ PUSH2 0x43DB JUMPI PUSH0 PUSH1 0x7 PUSH0 DUP7 PUSH20 0xFFFFFFFFFFFFFFFFFFFFFFFFFFFFFFFFFFFFFFFF AND PUSH20 0xFFFFFFFFFFFFFFFFFFFFFFFFFFFFFFFFFFFFFFFF AND DUP2 MSTORE PUSH1 0x20 ADD SWAP1 DUP2 MSTORE PUSH1 0x20 ADD PUSH0 KECCAK256 PUSH0 DUP5 DUP2 MSTORE PUSH1 0x20 ADD SWAP1 DUP2 MSTORE PUSH1 0x20 ADD PUSH0 KECCAK256 SLOAD SWAP1 POP DUP1 PUSH1 0x7 PUSH0 DUP8 PUSH20 0xFFFFFFFFFFFFFFFFFFFFFFFFFFFFFFFFFFFFFFFF AND PUSH20 0xFFFFFFFFFFFFFFFFFFFFFFFFFFFFFFFFFFFFFFFF AND DUP2 MSTORE PUSH1 0x20 ADD SWAP1 DUP2 MSTORE PUSH1 0x20 ADD PUSH0 KECCAK256 PUSH0 DUP5 DUP2 MSTORE PUSH1 0x20 ADD SWAP1 DUP2 MSTORE PUSH1 0x20 ADD PUSH0 KECCAK256 DUP2 SWAP1 SSTORE POP DUP2 PUSH1 0x8 PUSH0 DUP4 DUP2 MSTORE PUSH1 0x20 ADD SWAP1 DUP2 MSTORE PUSH1 0x20 ADD PUSH0 KECCAK256 DUP2 SWAP1 SSTORE POP POP JUMPDEST PUSH1 0x8 PUSH0 DUP5 DUP2 MSTORE PUSH1 0x20 ADD SWAP1 DUP2 MSTORE PUSH1 0x20 ADD PUSH0 KECCAK256 PUSH0 SWAP1 SSTORE PUSH1 0x7 PUSH0 DUP6 PUSH20 0xFFFFFFFFFFFFFFFFFFFFFFFFFFFFFFFFFFFFFFFF AND PUSH20 0xFFFFFFFFFFFFFFFFFFFFFFFFFFFFFFFFFFFFFFFF AND DUP2 MSTORE PUSH1 0x20 ADD SWAP1 DUP2 MSTORE PUSH1 0x20 ADD PUSH0 KECCAK256 PUSH0 DUP4 DUP2 MSTORE PUSH1 0x20 ADD SWAP1 DUP2 MSTORE PUSH1 0x20 ADD PUSH0 KECCAK256 PUSH0 SWAP1 SSTORE POP POP POP POP JUMP JUMPDEST PUSH0 PUSH1 0x1 PUSH1 0x9 DUP1 SLOAD SWAP1 POP PUSH2 0x4457 SWAP2 SWAP1 PUSH2 0x58BC JUMP JUMPDEST SWAP1 POP PUSH0 PUSH1 0xA PUSH0 DUP5 DUP2 MSTORE PUSH1 0x20 ADD SWAP1 DUP2 MSTORE PUSH1 0x20 ADD PUSH0 KECCAK256 SLOAD SWAP1 POP PUSH0 PUSH1 0x9 DUP4 DUP2 SLOAD DUP2 LT PUSH2 0x4483 JUMPI PUSH2 0x4482 PUSH2 0x54EC JUMP JUMPDEST JUMPDEST SWAP1 PUSH0 MSTORE PUSH1 0x20 PUSH0 KECCAK256 ADD SLOAD SWAP1 POP DUP1 PUSH1 0x9 DUP4 DUP2 SLOAD DUP2 LT PUSH2 0x44A3 JUMPI PUSH2 0x44A2 PUSH2 0x54EC JUMP JUMPDEST JUMPDEST SWAP1 PUSH0 MSTORE PUSH1 0x20 PUSH0 KECCAK256 ADD DUP2 SWAP1 SSTORE POP DUP2 PUSH1 0xA PUSH0 DUP4 DUP2 MSTORE PUSH1 0x20 ADD SWAP1 DUP2 MSTORE PUSH1 0x20 ADD PUSH0 KECCAK256 DUP2 SWAP1 SSTORE POP PUSH1 0xA PUSH0 DUP6 DUP2 MSTORE PUSH1 0x20 ADD SWAP1 DUP2 MSTORE PUSH1 0x20 ADD PUSH0 KECCAK256 PUSH0 SWAP1 SSTORE PUSH1 0x9 DUP1 SLOAD DUP1 PUSH2 0x44EB JUMPI PUSH2 0x44EA PUSH2 0x59E9 JUMP JUMPDEST JUMPDEST PUSH1 0x1 SWAP1 SUB DUP2 DUP2 SWAP1 PUSH0 MSTORE PUSH1 0x20 PUSH0 KECCAK256 ADD PUSH0 SWAP1 SSTORE SWAP1 SSTORE POP POP POP POP JUMP JUMPDEST PUSH0 PUSH2 0x450E DUP4 PUSH2 0x140A JUMP JUMPDEST SWAP1 POP DUP2 PUSH1 0x7 PUSH0 DUP6 PUSH20 0xFFFFFFFFFFFFFFFFFFFFFFFFFFFFFFFFFFFFFFFF AND PUSH20 0xFFFFFFFFFFFFFFFFFFFFFFFFFFFFFFFFFFFFFFFF AND DUP2 MSTORE PUSH1 0x20 ADD SWAP1 DUP2 MSTORE PUSH1 0x20 ADD PUSH0 KECCAK256 PUSH0 DUP4 DUP2 MSTORE PUSH1 0x20 ADD SWAP1 DUP2 MSTORE PUSH1 0x20 ADD PUSH0 KECCAK256 DUP2 SWAP1 SSTORE POP DUP1 PUSH1 0x8 PUSH0 DUP5 DUP2 MSTORE PUSH1 0x20 ADD SWAP1 DUP2 MSTORE PUSH1 0x20 ADD PUSH0 KECCAK256 DUP2 SWAP1 SSTORE POP POP POP POP JUMP JUMPDEST PUSH0 DUP1 PUSH0 SWAP1 POP PUSH27 0x184F03E93FF9F4DAA797ED6E38ED64BF6A1F010000000000000000 DUP4 LT PUSH2 0x45D8 JUMPI PUSH27 0x184F03E93FF9F4DAA797ED6E38ED64BF6A1F010000000000000000 DUP4 DUP2 PUSH2 0x45CE JUMPI PUSH2 0x45CD PUSH2 0x6C5E JUMP JUMPDEST JUMPDEST DIV SWAP3 POP PUSH1 0x40 DUP2 ADD SWAP1 POP JUMPDEST PUSH14 0x4EE2D6D415B85ACEF8100000000 DUP4 LT PUSH2 0x4615 JUMPI PUSH14 0x4EE2D6D415B85ACEF8100000000 DUP4 DUP2 PUSH2 0x460B JUMPI PUSH2 0x460A PUSH2 0x6C5E JUMP JUMPDEST JUMPDEST DIV SWAP3 POP PUSH1 0x20 DUP2 ADD SWAP1 POP JUMPDEST PUSH7 0x2386F26FC10000 DUP4 LT PUSH2 0x4644 JUMPI PUSH7 0x2386F26FC10000 DUP4 DUP2 PUSH2 0x463A JUMPI PUSH2 0x4639 PUSH2 0x6C5E JUMP JUMPDEST JUMPDEST DIV SWAP3 POP PUSH1 0x10 DUP2 ADD SWAP1 POP JUMPDEST PUSH4 0x5F5E100 DUP4 LT PUSH2 0x466D JUMPI PUSH4 0x5F5E100 DUP4 DUP2 PUSH2 0x4663 JUMPI PUSH2 0x4662 PUSH2 0x6C5E JUMP JUMPDEST JUMPDEST DIV SWAP3 POP PUSH1 0x8 DUP2 ADD SWAP1 POP JUMPDEST PUSH2 0x2710 DUP4 LT PUSH2 0x4692 JUMPI PUSH2 0x2710 DUP4 DUP2 PUSH2 0x4688 JUMPI PUSH2 0x4687 PUSH2 0x6C5E JUMP JUMPDEST JUMPDEST DIV SWAP3 POP PUSH1 0x4 DUP2 ADD SWAP1 POP JUMPDEST PUSH1 0x64 DUP4 LT PUSH2 0x46B5 JUMPI PUSH1 0x64 DUP4 DUP2 PUSH2 0x46AB JUMPI PUSH2 0x46AA PUSH2 0x6C5E JUMP JUMPDEST JUMPDEST DIV SWAP3 POP PUSH1 0x2 DUP2 ADD SWAP1 POP JUMPDEST PUSH1 0xA DUP4 LT PUSH2 0x46C4 JUMPI PUSH1 0x1 DUP2 ADD SWAP1 POP JUMPDEST DUP1 SWAP2 POP POP SWAP2 SWAP1 POP JUMP JUMPDEST POP DUP1 SLOAD PUSH2 0x46D9 SWAP1 PUSH2 0x518E JUMP JUMPDEST PUSH0 DUP3 SSTORE DUP1 PUSH1 0x1F LT PUSH2 0x46EA JUMPI POP PUSH2 0x4707 JUMP JUMPDEST PUSH1 0x1F ADD PUSH1 0x20 SWAP1 DIV SWAP1 PUSH0 MSTORE PUSH1 0x20 PUSH0 KECCAK256 SWAP1 DUP2 ADD SWAP1 PUSH2 0x4706 SWAP2 SWAP1 PUSH2 0x470A JUMP JUMPDEST JUMPDEST POP JUMP JUMPDEST JUMPDEST DUP1 DUP3 GT ISZERO PUSH2 0x4721 JUMPI PUSH0 DUP2 PUSH0 SWAP1 SSTORE POP PUSH1 0x1 ADD PUSH2 0x470B JUMP JUMPDEST POP SWAP1 JUMP JUMPDEST PUSH0 PUSH1 0x40 MLOAD SWAP1 POP SWAP1 JUMP JUMPDEST PUSH0 DUP1 REVERT JUMPDEST PUSH0 DUP1 REVERT JUMPDEST PUSH0 PUSH32 0xFFFFFFFF00000000000000000000000000000000000000000000000000000000 DUP3 AND SWAP1 POP SWAP2 SWAP1 POP JUMP JUMPDEST PUSH2 0x476A DUP2 PUSH2 0x4736 JUMP JUMPDEST DUP2 EQ PUSH2 0x4774 JUMPI PUSH0 DUP1 REVERT JUMPDEST POP JUMP JUMPDEST PUSH0 DUP2 CALLDATALOAD SWAP1 POP PUSH2 0x4785 DUP2 PUSH2 0x4761 JUMP JUMPDEST SWAP3 SWAP2 POP POP JUMP JUMPDEST PUSH0 PUSH1 0x20 DUP3 DUP5 SUB SLT ISZERO PUSH2 0x47A0 JUMPI PUSH2 0x479F PUSH2 0x472E JUMP JUMPDEST JUMPDEST PUSH0 PUSH2 0x47AD DUP5 DUP3 DUP6 ADD PUSH2 0x4777 JUMP JUMPDEST SWAP2 POP POP SWAP3 SWAP2 POP POP JUMP JUMPDEST PUSH0 DUP2 ISZERO ISZERO SWAP1 POP SWAP2 SWAP1 POP JUMP JUMPDEST PUSH2 0x47CA DUP2 PUSH2 0x47B6 JUMP JUMPDEST DUP3 MSTORE POP POP JUMP JUMPDEST PUSH0 PUSH1 0x20 DUP3 ADD SWAP1 POP PUSH2 0x47E3 PUSH0 DUP4 ADD DUP5 PUSH2 0x47C1 JUMP JUMPDEST SWAP3 SWAP2 POP POP JUMP JUMPDEST PUSH0 DUP2 MLOAD SWAP1 POP SWAP2 SWAP1 POP JUMP JUMPDEST PUSH0 DUP3 DUP3 MSTORE PUSH1 0x20 DUP3 ADD SWAP1 POP SWAP3 SWAP2 POP POP JUMP JUMPDEST PUSH0 JUMPDEST DUP4 DUP2 LT ISZERO PUSH2 0x4820 JUMPI DUP1 DUP3 ADD MLOAD DUP2 DUP5 ADD MSTORE PUSH1 0x20 DUP2 ADD SWAP1 POP PUSH2 0x4805 JUMP JUMPDEST PUSH0 DUP5 DUP5 ADD MSTORE POP POP POP POP JUMP JUMPDEST PUSH0 PUSH1 0x1F NOT PUSH1 0x1F DUP4 ADD AND SWAP1 POP SWAP2 SWAP1 POP JUMP JUMPDEST PUSH0 PUSH2 0x4845 DUP3 PUSH2 0x47E9 JUMP JUMPDEST PUSH2 0x484F DUP2 DUP6 PUSH2 0x47F3 JUMP JUMPDEST SWAP4 POP PUSH2 0x485F DUP2 DUP6 PUSH1 0x20 DUP7 ADD PUSH2 0x4803 JUMP JUMPDEST PUSH2 0x4868 DUP2 PUSH2 0x482B JUMP JUMPDEST DUP5 ADD SWAP2 POP POP SWAP3 SWAP2 POP POP JUMP JUMPDEST PUSH0 PUSH1 0x20 DUP3 ADD SWAP1 POP DUP2 DUP2 SUB PUSH0 DUP4 ADD MSTORE PUSH2 0x488B DUP2 DUP5 PUSH2 0x483B JUMP JUMPDEST SWAP1 POP SWAP3 SWAP2 POP POP JUMP JUMPDEST PUSH0 DUP2 SWAP1 POP SWAP2 SWAP1 POP JUMP JUMPDEST PUSH2 0x48A5 DUP2 PUSH2 0x4893 JUMP JUMPDEST DUP2 EQ PUSH2 0x48AF JUMPI PUSH0 DUP1 REVERT JUMPDEST POP JUMP JUMPDEST PUSH0 DUP2 CALLDATALOAD SWAP1 POP PUSH2 0x48C0 DUP2 PUSH2 0x489C JUMP JUMPDEST SWAP3 SWAP2 POP POP JUMP JUMPDEST PUSH0 PUSH1 0x20 DUP3 DUP5 SUB SLT ISZERO PUSH2 0x48DB JUMPI PUSH2 0x48DA PUSH2 0x472E JUMP JUMPDEST JUMPDEST PUSH0 PUSH2 0x48E8 DUP5 DUP3 DUP6 ADD PUSH2 0x48B2 JUMP JUMPDEST SWAP2 POP POP SWAP3 SWAP2 POP POP JUMP JUMPDEST PUSH0 PUSH20 0xFFFFFFFFFFFFFFFFFFFFFFFFFFFFFFFFFFFFFFFF DUP3 AND SWAP1 POP SWAP2 SWAP1 POP JUMP JUMPDEST PUSH0 PUSH2 0x491A DUP3 PUSH2 0x48F1 JUMP JUMPDEST SWAP1 POP SWAP2 SWAP1 POP JUMP JUMPDEST PUSH2 0x492A DUP2 PUSH2 0x4910 JUMP JUMPDEST DUP3 MSTORE POP POP JUMP JUMPDEST PUSH0 PUSH1 0x20 DUP3 ADD SWAP1 POP PUSH2 0x4943 PUSH0 DUP4 ADD DUP5 PUSH2 0x4921 JUMP JUMPDEST SWAP3 SWAP2 POP POP JUMP JUMPDEST PUSH2 0x4952 DUP2 PUSH2 0x4910 JUMP JUMPDEST DUP2 EQ PUSH2 0x495C JUMPI PUSH0 DUP1 REVERT JUMPDEST POP JUMP JUMPDEST PUSH0 DUP2 CALLDATALOAD SWAP1 POP PUSH2 0x496D DUP2 PUSH2 0x4949 JUMP JUMPDEST SWAP3 SWAP2 POP POP JUMP JUMPDEST PUSH0 DUP1 PUSH1 0x40 DUP4 DUP6 SUB SLT ISZERO PUSH2 0x4989 JUMPI PUSH2 0x4988 PUSH2 0x472E JUMP JUMPDEST JUMPDEST PUSH0 PUSH2 0x4996 DUP6 DUP3 DUP7 ADD PUSH2 0x495F JUMP JUMPDEST SWAP3 POP POP PUSH1 0x20 PUSH2 0x49A7 DUP6 DUP3 DUP7 ADD PUSH2 0x48B2 JUMP JUMPDEST SWAP2 POP POP SWAP3 POP SWAP3 SWAP1 POP JUMP JUMPDEST PUSH0 DUP1 REVERT JUMPDEST PUSH0 DUP1 REVERT JUMPDEST PUSH0 DUP1 REVERT JUMPDEST PUSH0 DUP1 DUP4 PUSH1 0x1F DUP5 ADD SLT PUSH2 0x49D2 JUMPI PUSH2 0x49D1 PUSH2 0x49B1 JUMP JUMPDEST JUMPDEST DUP3 CALLDATALOAD SWAP1 POP PUSH8 0xFFFFFFFFFFFFFFFF DUP2 GT ISZERO PUSH2 0x49EF JUMPI PUSH2 0x49EE PUSH2 0x49B5 JUMP JUMPDEST JUMPDEST PUSH1 0x20 DUP4 ADD SWAP2 POP DUP4 PUSH1 0x1 DUP3 MUL DUP4 ADD GT ISZERO PUSH2 0x4A0B JUMPI PUSH2 0x4A0A PUSH2 0x49B9 JUMP JUMPDEST JUMPDEST SWAP3 POP SWAP3 SWAP1 POP JUMP JUMPDEST PUSH0 DUP1 PUSH0 DUP1 PUSH0 PUSH1 0x80 DUP7 DUP9 SUB SLT ISZERO PUSH2 0x4A2B JUMPI PUSH2 0x4A2A PUSH2 0x472E JUMP JUMPDEST JUMPDEST PUSH0 PUSH2 0x4A38 DUP9 DUP3 DUP10 ADD PUSH2 0x495F JUMP JUMPDEST SWAP6 POP POP PUSH1 0x20 PUSH2 0x4A49 DUP9 DUP3 DUP10 ADD PUSH2 0x495F JUMP JUMPDEST SWAP5 POP POP PUSH1 0x40 PUSH2 0x4A5A DUP9 DUP3 DUP10 ADD PUSH2 0x48B2 JUMP JUMPDEST SWAP4 POP POP PUSH1 0x60 DUP7 ADD CALLDATALOAD PUSH8 0xFFFFFFFFFFFFFFFF DUP2 GT ISZERO PUSH2 0x4A7B JUMPI PUSH2 0x4A7A PUSH2 0x4732 JUMP JUMPDEST JUMPDEST PUSH2 0x4A87 DUP9 DUP3 DUP10 ADD PUSH2 0x49BD JUMP JUMPDEST SWAP3 POP SWAP3 POP POP SWAP3 SWAP6 POP SWAP3 SWAP6 SWAP1 SWAP4 POP JUMP JUMPDEST PUSH2 0x4A9F DUP2 PUSH2 0x4736 JUMP JUMPDEST DUP3 MSTORE POP POP JUMP JUMPDEST PUSH0 PUSH1 0x20 DUP3 ADD SWAP1 POP PUSH2 0x4AB8 PUSH0 DUP4 ADD DUP5 PUSH2 0x4A96 JUMP JUMPDEST SWAP3 SWAP2 POP POP JUMP JUMPDEST PUSH2 0x4AC7 DUP2 PUSH2 0x4893 JUMP JUMPDEST DUP3 MSTORE POP POP JUMP JUMPDEST PUSH0 PUSH1 0x20 DUP3 ADD SWAP1 POP PUSH2 0x4AE0 PUSH0 DUP4 ADD DUP5 PUSH2 0x4ABE JUMP JUMPDEST SWAP3 SWAP2 POP POP JUMP JUMPDEST PUSH0 DUP1 DUP4 PUSH1 0x1F DUP5 ADD SLT PUSH2 0x4AFB JUMPI PUSH2 0x4AFA PUSH2 0x49B1 JUMP JUMPDEST JUMPDEST DUP3 CALLDATALOAD SWAP1 POP PUSH8 0xFFFFFFFFFFFFFFFF DUP2 GT ISZERO PUSH2 0x4B18 JUMPI PUSH2 0x4B17 PUSH2 0x49B5 JUMP JUMPDEST JUMPDEST PUSH1 0x20 DUP4 ADD SWAP2 POP DUP4 PUSH1 0x1 DUP3 MUL DUP4 ADD GT ISZERO PUSH2 0x4B34 JUMPI PUSH2 0x4B33 PUSH2 0x49B9 JUMP JUMPDEST JUMPDEST SWAP3 POP SWAP3 SWAP1 POP JUMP JUMPDEST PUSH0 DUP1 PUSH1 0x20 DUP4 DUP6 SUB SLT ISZERO PUSH2 0x4B51 JUMPI PUSH2 0x4B50 PUSH2 0x472E JUMP JUMPDEST JUMPDEST PUSH0 DUP4 ADD CALLDATALOAD PUSH8 0xFFFFFFFFFFFFFFFF DUP2 GT ISZERO PUSH2 0x4B6E JUMPI PUSH2 0x4B6D PUSH2 0x4732 JUMP JUMPDEST JUMPDEST PUSH2 0x4B7A DUP6 DUP3 DUP7 ADD PUSH2 0x4AE6 JUMP JUMPDEST SWAP3 POP SWAP3 POP POP SWAP3 POP SWAP3 SWAP1 POP JUMP JUMPDEST PUSH0 DUP1 PUSH0 PUSH1 0x60 DUP5 DUP7 SUB SLT ISZERO PUSH2 0x4B9D JUMPI PUSH2 0x4B9C PUSH2 0x472E JUMP JUMPDEST JUMPDEST PUSH0 PUSH2 0x4BAA DUP7 DUP3 DUP8 ADD PUSH2 0x495F JUMP JUMPDEST SWAP4 POP POP PUSH1 0x20 PUSH2 0x4BBB DUP7 DUP3 DUP8 ADD PUSH2 0x495F JUMP JUMPDEST SWAP3 POP POP PUSH1 0x40 PUSH2 0x4BCC DUP7 DUP3 DUP8 ADD PUSH2 0x48B2 JUMP JUMPDEST SWAP2 POP POP SWAP3 POP SWAP3 POP SWAP3 JUMP JUMPDEST PUSH0 PUSH2 0xFFFF DUP3 AND SWAP1 POP SWAP2 SWAP1 POP JUMP JUMPDEST PUSH2 0x4BEC DUP2 PUSH2 0x4BD6 JUMP JUMPDEST DUP2 EQ PUSH2 0x4BF6 JUMPI PUSH0 DUP1 REVERT JUMPDEST POP JUMP JUMPDEST PUSH0 DUP2 CALLDATALOAD SWAP1 POP PUSH2 0x4C07 DUP2 PUSH2 0x4BE3 JUMP JUMPDEST SWAP3 SWAP2 POP POP JUMP JUMPDEST PUSH0 PUSH1 0x20 DUP3 DUP5 SUB SLT ISZERO PUSH2 0x4C22 JUMPI PUSH2 0x4C21 PUSH2 0x472E JUMP JUMPDEST JUMPDEST PUSH0 PUSH2 0x4C2F DUP5 DUP3 DUP6 ADD PUSH2 0x4BF9 JUMP JUMPDEST SWAP2 POP POP SWAP3 SWAP2 POP POP JUMP JUMPDEST PUSH0 DUP1 REVERT JUMPDEST PUSH32 0x4E487B7100000000000000000000000000000000000000000000000000000000 PUSH0 MSTORE PUSH1 0x41 PUSH1 0x4 MSTORE PUSH1 0x24 PUSH0 REVERT JUMPDEST PUSH2 0x4C72 DUP3 PUSH2 0x482B JUMP JUMPDEST DUP2 ADD DUP2 DUP2 LT PUSH8 0xFFFFFFFFFFFFFFFF DUP3 GT OR ISZERO PUSH2 0x4C91 JUMPI PUSH2 0x4C90 PUSH2 0x4C3C JUMP JUMPDEST JUMPDEST DUP1 PUSH1 0x40 MSTORE POP POP POP JUMP JUMPDEST PUSH0 PUSH2 0x4CA3 PUSH2 0x4725 JUMP JUMPDEST SWAP1 POP PUSH2 0x4CAF DUP3 DUP3 PUSH2 0x4C69 JUMP JUMPDEST SWAP2 SWAP1 POP JUMP JUMPDEST PUSH0 PUSH8 0xFFFFFFFFFFFFFFFF DUP3 GT ISZERO PUSH2 0x4CCE JUMPI PUSH2 0x4CCD PUSH2 0x4C3C JUMP JUMPDEST JUMPDEST PUSH2 0x4CD7 DUP3 PUSH2 0x482B JUMP JUMPDEST SWAP1 POP PUSH1 0x20 DUP2 ADD SWAP1 POP SWAP2 SWAP1 POP JUMP JUMPDEST DUP3 DUP2 DUP4 CALLDATACOPY PUSH0 DUP4 DUP4 ADD MSTORE POP POP POP JUMP JUMPDEST PUSH0 PUSH2 0x4D04 PUSH2 0x4CFF DUP5 PUSH2 0x4CB4 JUMP JUMPDEST PUSH2 0x4C9A JUMP JUMPDEST SWAP1 POP DUP3 DUP2 MSTORE PUSH1 0x20 DUP2 ADD DUP5 DUP5 DUP5 ADD GT ISZERO PUSH2 0x4D20 JUMPI PUSH2 0x4D1F PUSH2 0x4C38 JUMP JUMPDEST JUMPDEST PUSH2 0x4D2B DUP5 DUP3 DUP6 PUSH2 0x4CE4 JUMP JUMPDEST POP SWAP4 SWAP3 POP POP POP JUMP JUMPDEST PUSH0 DUP3 PUSH1 0x1F DUP4 ADD SLT PUSH2 0x4D47 JUMPI PUSH2 0x4D46 PUSH2 0x49B1 JUMP JUMPDEST JUMPDEST DUP2 CALLDATALOAD PUSH2 0x4D57 DUP5 DUP3 PUSH1 0x20 DUP7 ADD PUSH2 0x4CF2 JUMP JUMPDEST SWAP2 POP POP SWAP3 SWAP2 POP POP JUMP JUMPDEST PUSH0 DUP1 PUSH1 0x40 DUP4 DUP6 SUB SLT ISZERO PUSH2 0x4D76 JUMPI PUSH2 0x4D75 PUSH2 0x472E JUMP JUMPDEST JUMPDEST PUSH0 DUP4 ADD CALLDATALOAD PUSH8 0xFFFFFFFFFFFFFFFF DUP2 GT ISZERO PUSH2 0x4D93 JUMPI PUSH2 0x4D92 PUSH2 0x4732 JUMP JUMPDEST JUMPDEST PUSH2 0x4D9F DUP6 DUP3 DUP7 ADD PUSH2 0x4D33 JUMP JUMPDEST SWAP3 POP POP PUSH1 0x20 PUSH2 0x4DB0 DUP6 DUP3 DUP7 ADD PUSH2 0x48B2 JUMP JUMPDEST SWAP2 POP POP SWAP3 POP SWAP3 SWAP1 POP JUMP JUMPDEST PUSH0 DUP2 SWAP1 POP SWAP2 SWAP1 POP JUMP JUMPDEST PUSH0 PUSH2 0x4DDD PUSH2 0x4DD8 PUSH2 0x4DD3 DUP5 PUSH2 0x48F1 JUMP JUMPDEST PUSH2 0x4DBA JUMP JUMPDEST PUSH2 0x48F1 JUMP JUMPDEST SWAP1 POP SWAP2 SWAP1 POP JUMP JUMPDEST PUSH0 PUSH2 0x4DEE DUP3 PUSH2 0x4DC3 JUMP JUMPDEST SWAP1 POP SWAP2 SWAP1 POP JUMP JUMPDEST PUSH0 PUSH2 0x4DFF DUP3 PUSH2 0x4DE4 JUMP JUMPDEST SWAP1 POP SWAP2 SWAP1 POP JUMP JUMPDEST PUSH2 0x4E0F DUP2 PUSH2 0x4DF5 JUMP JUMPDEST DUP3 MSTORE POP POP JUMP JUMPDEST PUSH0 PUSH1 0x20 DUP3 ADD SWAP1 POP PUSH2 0x4E28 PUSH0 DUP4 ADD DUP5 PUSH2 0x4E06 JUMP JUMPDEST SWAP3 SWAP2 POP POP JUMP JUMPDEST PUSH0 PUSH1 0x20 DUP3 DUP5 SUB SLT ISZERO PUSH2 0x4E43 JUMPI PUSH2 0x4E42 PUSH2 0x472E JUMP JUMPDEST JUMPDEST PUSH0 PUSH2 0x4E50 DUP5 DUP3 DUP6 ADD PUSH2 0x495F JUMP JUMPDEST SWAP2 POP POP SWAP3 SWAP2 POP POP JUMP JUMPDEST PUSH2 0x4E62 DUP2 PUSH2 0x4BD6 JUMP JUMPDEST DUP3 MSTORE POP POP JUMP JUMPDEST PUSH0 PUSH1 0x20 DUP3 ADD SWAP1 POP PUSH2 0x4E7B PUSH0 DUP4 ADD DUP5 PUSH2 0x4E59 JUMP JUMPDEST SWAP3 SWAP2 POP POP JUMP JUMPDEST PUSH0 DUP1 PUSH0 DUP1 PUSH0 DUP1 PUSH1 0x80 DUP8 DUP10 SUB SLT ISZERO PUSH2 0x4E9B JUMPI PUSH2 0x4E9A PUSH2 0x472E JUMP JUMPDEST JUMPDEST PUSH0 PUSH2 0x4EA8 DUP10 DUP3 DUP11 ADD PUSH2 0x4777 JUMP JUMPDEST SWAP7 POP POP PUSH1 0x20 PUSH2 0x4EB9 DUP10 DUP3 DUP11 ADD PUSH2 0x4BF9 JUMP JUMPDEST SWAP6 POP POP PUSH1 0x40 DUP8 ADD CALLDATALOAD PUSH8 0xFFFFFFFFFFFFFFFF DUP2 GT ISZERO PUSH2 0x4EDA JUMPI PUSH2 0x4ED9 PUSH2 0x4732 JUMP JUMPDEST JUMPDEST PUSH2 0x4EE6 DUP10 DUP3 DUP11 ADD PUSH2 0x4AE6 JUMP JUMPDEST SWAP5 POP SWAP5 POP POP PUSH1 0x60 DUP8 ADD CALLDATALOAD PUSH8 0xFFFFFFFFFFFFFFFF DUP2 GT ISZERO PUSH2 0x4F09 JUMPI PUSH2 0x4F08 PUSH2 0x4732 JUMP JUMPDEST JUMPDEST PUSH2 0x4F15 DUP10 DUP3 DUP11 ADD PUSH2 0x4AE6 JUMP JUMPDEST SWAP3 POP SWAP3 POP POP SWAP3 SWAP6 POP SWAP3 SWAP6 POP SWAP3 SWAP6 JUMP JUMPDEST PUSH2 0x4F2D DUP2 PUSH2 0x47B6 JUMP JUMPDEST DUP2 EQ PUSH2 0x4F37 JUMPI PUSH0 DUP1 REVERT JUMPDEST POP JUMP JUMPDEST PUSH0 DUP2 CALLDATALOAD SWAP1 POP PUSH2 0x4F48 DUP2 PUSH2 0x4F24 JUMP JUMPDEST SWAP3 SWAP2 POP POP JUMP JUMPDEST PUSH0 DUP1 PUSH1 0x40 DUP4 DUP6 SUB SLT ISZERO PUSH2 0x4F64 JUMPI PUSH2 0x4F63 PUSH2 0x472E JUMP JUMPDEST JUMPDEST PUSH0 PUSH2 0x4F71 DUP6 DUP3 DUP7 ADD PUSH2 0x495F JUMP JUMPDEST SWAP3 POP POP PUSH1 0x20 PUSH2 0x4F82 DUP6 DUP3 DUP7 ADD PUSH2 0x4F3A JUMP JUMPDEST SWAP2 POP POP SWAP3 POP SWAP3 SWAP1 POP JUMP JUMPDEST PUSH0 PUSH8 0xFFFFFFFFFFFFFFFF DUP3 GT ISZERO PUSH2 0x4FA6 JUMPI PUSH2 0x4FA5 PUSH2 0x4C3C JUMP JUMPDEST JUMPDEST PUSH2 0x4FAF DUP3 PUSH2 0x482B JUMP JUMPDEST SWAP1 POP PUSH1 0x20 DUP2 ADD SWAP1 POP SWAP2 SWAP1 POP JUMP JUMPDEST PUSH0 PUSH2 0x4FCE PUSH2 0x4FC9 DUP5 PUSH2 0x4F8C JUMP JUMPDEST PUSH2 0x4C9A JUMP JUMPDEST SWAP1 POP DUP3 DUP2 MSTORE PUSH1 0x20 DUP2 ADD DUP5 DUP5 DUP5 ADD GT ISZERO PUSH2 0x4FEA JUMPI PUSH2 0x4FE9 PUSH2 0x4C38 JUMP JUMPDEST JUMPDEST PUSH2 0x4FF5 DUP5 DUP3 DUP6 PUSH2 0x4CE4 JUMP JUMPDEST POP SWAP4 SWAP3 POP POP POP JUMP JUMPDEST PUSH0 DUP3 PUSH1 0x1F DUP4 ADD SLT PUSH2 0x5011 JUMPI PUSH2 0x5010 PUSH2 0x49B1 JUMP JUMPDEST JUMPDEST DUP2 CALLDATALOAD PUSH2 0x5021 DUP5 DUP3 PUSH1 0x20 DUP7 ADD PUSH2 0x4FBC JUMP JUMPDEST SWAP2 POP POP SWAP3 SWAP2 POP POP JUMP JUMPDEST PUSH0 DUP1 PUSH0 DUP1 PUSH1 0x80 DUP6 DUP8 SUB SLT ISZERO PUSH2 0x5042 JUMPI PUSH2 0x5041 PUSH2 0x472E JUMP JUMPDEST JUMPDEST PUSH0 PUSH2 0x504F DUP8 DUP3 DUP9 ADD PUSH2 0x495F JUMP JUMPDEST SWAP5 POP POP PUSH1 0x20 PUSH2 0x5060 DUP8 DUP3 DUP9 ADD PUSH2 0x495F JUMP JUMPDEST SWAP4 POP POP PUSH1 0x40 PUSH2 0x5071 DUP8 DUP3 DUP9 ADD PUSH2 0x48B2 JUMP JUMPDEST SWAP3 POP POP PUSH1 0x60 DUP6 ADD CALLDATALOAD PUSH8 0xFFFFFFFFFFFFFFFF DUP2 GT ISZERO PUSH2 0x5092 JUMPI PUSH2 0x5091 PUSH2 0x4732 JUMP JUMPDEST JUMPDEST PUSH2 0x509E DUP8 DUP3 DUP9 ADD PUSH2 0x4FFD JUMP JUMPDEST SWAP2 POP POP SWAP3 SWAP6 SWAP2 SWAP5 POP SWAP3 POP JUMP JUMPDEST PUSH0 DUP1 PUSH1 0x40 DUP4 DUP6 SUB SLT ISZERO PUSH2 0x50C0 JUMPI PUSH2 0x50BF PUSH2 0x472E JUMP JUMPDEST JUMPDEST PUSH0 PUSH2 0x50CD DUP6 DUP3 DUP7 ADD PUSH2 0x495F JUMP JUMPDEST SWAP3 POP POP PUSH1 0x20 PUSH2 0x50DE DUP6 DUP3 DUP7 ADD PUSH2 0x495F JUMP JUMPDEST SWAP2 POP POP SWAP3 POP SWAP3 SWAP1 POP JUMP JUMPDEST PUSH0 PUSH2 0x50F2 DUP3 PUSH2 0x48F1 JUMP JUMPDEST SWAP1 POP SWAP2 SWAP1 POP JUMP JUMPDEST PUSH2 0x5102 DUP2 PUSH2 0x50E8 JUMP JUMPDEST DUP2 EQ PUSH2 0x510C JUMPI PUSH0 DUP1 REVERT JUMPDEST POP JUMP JUMPDEST PUSH0 DUP2 CALLDATALOAD SWAP1 POP PUSH2 0x511D DUP2 PUSH2 0x50F9 JUMP JUMPDEST SWAP3 SWAP2 POP POP JUMP JUMPDEST PUSH0 DUP1 PUSH1 0x40 DUP4 DUP6 SUB SLT ISZERO PUSH2 0x5139 JUMPI PUSH2 0x5138 PUSH2 0x472E JUMP JUMPDEST JUMPDEST PUSH0 PUSH2 0x5146 DUP6 DUP3 DUP7 ADD PUSH2 0x510F JUMP JUMPDEST SWAP3 POP POP PUSH1 0x20 PUSH2 0x5157 DUP6 DUP3 DUP7 ADD PUSH2 0x48B2 JUMP JUMPDEST SWAP2 POP POP SWAP3 POP SWAP3 SWAP1 POP JUMP JUMPDEST PUSH32 0x4E487B7100000000000000000000000000000000000000000000000000000000 PUSH0 MSTORE PUSH1 0x22 PUSH1 0x4 MSTORE PUSH1 0x24 PUSH0 REVERT JUMPDEST PUSH0 PUSH1 0x2 DUP3 DIV SWAP1 POP PUSH1 0x1 DUP3 AND DUP1 PUSH2 0x51A5 JUMPI PUSH1 0x7F DUP3 AND SWAP2 POP JUMPDEST PUSH1 0x20 DUP3 LT DUP2 SUB PUSH2 0x51B8 JUMPI PUSH2 0x51B7 PUSH2 0x5161 JUMP JUMPDEST JUMPDEST POP SWAP2 SWAP1 POP JUMP JUMPDEST PUSH32 0x4552433732313A20617070726F76616C20746F2063757272656E74206F776E65 PUSH0 DUP3 ADD MSTORE PUSH32 0x7200000000000000000000000000000000000000000000000000000000000000 PUSH1 0x20 DUP3 ADD MSTORE POP JUMP JUMPDEST PUSH0 PUSH2 0x5218 PUSH1 0x21 DUP4 PUSH2 0x47F3 JUMP JUMPDEST SWAP2 POP PUSH2 0x5223 DUP3 PUSH2 0x51BE JUMP JUMPDEST PUSH1 0x40 DUP3 ADD SWAP1 POP SWAP2 SWAP1 POP JUMP JUMPDEST PUSH0 PUSH1 0x20 DUP3 ADD SWAP1 POP DUP2 DUP2 SUB PUSH0 DUP4 ADD MSTORE PUSH2 0x5245 DUP2 PUSH2 0x520C JUMP JUMPDEST SWAP1 POP SWAP2 SWAP1 POP JUMP JUMPDEST PUSH32 0x4552433732313A20617070726F76652063616C6C6572206973206E6F7420746F PUSH0 DUP3 ADD MSTORE PUSH32 0x6B656E206F776E6572206F7220617070726F76656420666F7220616C6C000000 PUSH1 0x20 DUP3 ADD MSTORE POP JUMP JUMPDEST PUSH0 PUSH2 0x52A6 PUSH1 0x3D DUP4 PUSH2 0x47F3 JUMP JUMPDEST SWAP2 POP PUSH2 0x52B1 DUP3 PUSH2 0x524C JUMP JUMPDEST PUSH1 0x40 DUP3 ADD SWAP1 POP SWAP2 SWAP1 POP JUMP JUMPDEST PUSH0 PUSH1 0x20 DUP3 ADD SWAP1 POP DUP2 DUP2 SUB PUSH0 DUP4 ADD MSTORE PUSH2 0x52D3 DUP2 PUSH2 0x529A JUMP JUMPDEST SWAP1 POP SWAP2 SWAP1 POP JUMP JUMPDEST PUSH32 0x496E76616C696420495020616464726573730000000000000000000000000000 PUSH0 DUP3 ADD MSTORE POP JUMP JUMPDEST PUSH0 PUSH2 0x530E PUSH1 0x12 DUP4 PUSH2 0x47F3 JUMP JUMPDEST SWAP2 POP PUSH2 0x5319 DUP3 PUSH2 0x52DA JUMP JUMPDEST PUSH1 0x20 DUP3 ADD SWAP1 POP SWAP2 SWAP1 POP JUMP JUMPDEST PUSH0 PUSH1 0x20 DUP3 ADD SWAP1 POP DUP2 DUP2 SUB PUSH0 DUP4 ADD MSTORE PUSH2 0x533B DUP2 PUSH2 0x5302 JUMP JUMPDEST SWAP1 POP SWAP2 SWAP1 POP JUMP JUMPDEST PUSH32 0x4552433732313A2063616C6C6572206973206E6F7420746F6B656E206F776E65 PUSH0 DUP3 ADD MSTORE PUSH32 0x72206F7220617070726F76656400000000000000000000000000000000000000 PUSH1 0x20 DUP3 ADD MSTORE POP JUMP JUMPDEST PUSH0 PUSH2 0x539C PUSH1 0x2D DUP4 PUSH2 0x47F3 JUMP JUMPDEST SWAP2 POP PUSH2 0x53A7 DUP3 PUSH2 0x5342 JUMP JUMPDEST PUSH1 0x40 DUP3 ADD SWAP1 POP SWAP2 SWAP1 POP JUMP JUMPDEST PUSH0 PUSH1 0x20 DUP3 ADD SWAP1 POP DUP2 DUP2 SUB PUSH0 DUP4 ADD MSTORE PUSH2 0x53C9 DUP2 PUSH2 0x5390 JUMP JUMPDEST SWAP1 POP SWAP2 SWAP1 POP JUMP JUMPDEST PUSH32 0x455243373231456E756D657261626C653A206F776E657220696E646578206F75 PUSH0 DUP3 ADD MSTORE PUSH32 0x74206F6620626F756E6473000000000000000000000000000000000000000000 PUSH1 0x20 DUP3 ADD MSTORE POP JUMP JUMPDEST PUSH0 PUSH2 0x542A PUSH1 0x2B DUP4 PUSH2 0x47F3 JUMP JUMPDEST SWAP2 POP PUSH2 0x5435 DUP3 PUSH2 0x53D0 JUMP JUMPDEST PUSH1 0x40 DUP3 ADD SWAP1 POP SWAP2 SWAP1 POP JUMP JUMPDEST PUSH0 PUSH1 0x20 DUP3 ADD SWAP1 POP DUP2 DUP2 SUB PUSH0 DUP4 ADD MSTORE PUSH2 0x5457 DUP2 PUSH2 0x541E JUMP JUMPDEST SWAP1 POP SWAP2 SWAP1 POP JUMP JUMPDEST PUSH32 0x455243373231456E756D657261626C653A20676C6F62616C20696E646578206F PUSH0 DUP3 ADD MSTORE PUSH32 0x7574206F6620626F756E64730000000000000000000000000000000000000000 PUSH1 0x20 DUP3 ADD MSTORE POP JUMP JUMPDEST PUSH0 PUSH2 0x54B8 PUSH1 0x2C DUP4 PUSH2 0x47F3 JUMP JUMPDEST SWAP2 POP PUSH2 0x54C3 DUP3 PUSH2 0x545E JUMP JUMPDEST PUSH1 0x40 DUP3 ADD SWAP1 POP SWAP2 SWAP1 POP JUMP JUMPDEST PUSH0 PUSH1 0x20 DUP3 ADD SWAP1 POP DUP2 DUP2 SUB PUSH0 DUP4 ADD MSTORE PUSH2 0x54E5 DUP2 PUSH2 0x54AC JUMP JUMPDEST SWAP1 POP SWAP2 SWAP1 POP JUMP JUMPDEST PUSH32 0x4E487B7100000000000000000000000000000000000000000000000000000000 PUSH0 MSTORE PUSH1 0x32 PUSH1 0x4 MSTORE PUSH1 0x24 PUSH0 REVERT JUMPDEST PUSH32 0x4E487B7100000000000000000000000000000000000000000000000000000000 PUSH0 MSTORE PUSH1 0x21 PUSH1 0x4 MSTORE PUSH1 0x24 PUSH0 REVERT JUMPDEST PUSH0 DUP2 SWAP1 POP DUP2 PUSH0 MSTORE PUSH1 0x20 PUSH0 KECCAK256 SWAP1 POP SWAP2 SWAP1 POP JUMP JUMPDEST PUSH0 PUSH1 0x20 PUSH1 0x1F DUP4 ADD DIV SWAP1 POP SWAP2 SWAP1 POP JUMP JUMPDEST PUSH0 DUP3 DUP3 SHL SWAP1 POP SWAP3 SWAP2 POP POP JUMP JUMPDEST PUSH0 PUSH1 0x8 DUP4 MUL PUSH2 0x55A2 PUSH32 0xFFFFFFFFFFFFFFFFFFFFFFFFFFFFFFFFFFFFFFFFFFFFFFFFFFFFFFFFFFFFFFFF DUP3 PUSH2 0x5567 JUMP JUMPDEST PUSH2 0x55AC DUP7 DUP4 PUSH2 0x5567 JUMP JUMPDEST SWAP6 POP DUP1 NOT DUP5 AND SWAP4 POP DUP1 DUP7 AND DUP5 OR SWAP3 POP POP POP SWAP4 SWAP3 POP POP POP JUMP JUMPDEST PUSH0 PUSH2 0x55DE PUSH2 0x55D9 PUSH2 0x55D4 DUP5 PUSH2 0x4893 JUMP JUMPDEST PUSH2 0x4DBA JUMP JUMPDEST PUSH2 0x4893 JUMP JUMPDEST SWAP1 POP SWAP2 SWAP1 POP JUMP JUMPDEST PUSH0 DUP2 SWAP1 POP SWAP2 SWAP1 POP JUMP JUMPDEST PUSH2 0x55F7 DUP4 PUSH2 0x55C4 JUMP JUMPDEST PUSH2 0x560B PUSH2 0x5603 DUP3 PUSH2 0x55E5 JUMP JUMPDEST DUP5 DUP5 SLOAD PUSH2 0x5573 JUMP JUMPDEST DUP3 SSTORE POP POP POP POP JUMP JUMPDEST PUSH0 SWAP1 JUMP JUMPDEST PUSH2 0x561F PUSH2 0x5613 JUMP JUMPDEST PUSH2 0x562A DUP2 DUP5 DUP5 PUSH2 0x55EE JUMP JUMPDEST POP POP POP JUMP JUMPDEST JUMPDEST DUP2 DUP2 LT ISZERO PUSH2 0x564D JUMPI PUSH2 0x5642 PUSH0 DUP3 PUSH2 0x5617 JUMP JUMPDEST PUSH1 0x1 DUP2 ADD SWAP1 POP PUSH2 0x5630 JUMP JUMPDEST POP POP JUMP JUMPDEST PUSH1 0x1F DUP3 GT ISZERO PUSH2 0x5692 JUMPI PUSH2 0x5663 DUP2 PUSH2 0x5546 JUMP JUMPDEST PUSH2 0x566C DUP5 PUSH2 0x5558 JUMP JUMPDEST DUP2 ADD PUSH1 0x20 DUP6 LT ISZERO PUSH2 0x567B JUMPI DUP2 SWAP1 POP JUMPDEST PUSH2 0x568F PUSH2 0x5687 DUP6 PUSH2 0x5558 JUMP JUMPDEST DUP4 ADD DUP3 PUSH2 0x562F JUMP JUMPDEST POP POP JUMPDEST POP POP POP JUMP JUMPDEST PUSH0 DUP3 DUP3 SHR SWAP1 POP SWAP3 SWAP2 POP POP JUMP JUMPDEST PUSH0 PUSH2 0x56B2 PUSH0 NOT DUP5 PUSH1 0x8 MUL PUSH2 0x5697 JUMP JUMPDEST NOT DUP1 DUP4 AND SWAP2 POP POP SWAP3 SWAP2 POP POP JUMP JUMPDEST PUSH0 PUSH2 0x56CA DUP4 DUP4 PUSH2 0x56A3 JUMP JUMPDEST SWAP2 POP DUP3 PUSH1 0x2 MUL DUP3 OR SWAP1 POP SWAP3 SWAP2 POP POP JUMP JUMPDEST PUSH2 0x56E3 DUP3 PUSH2 0x47E9 JUMP JUMPDEST PUSH8 0xFFFFFFFFFFFFFFFF DUP2 GT ISZERO PUSH2 0x56FC JUMPI PUSH2 0x56FB PUSH2 0x4C3C JUMP JUMPDEST JUMPDEST PUSH2 0x5706 DUP3 SLOAD PUSH2 0x518E JUMP JUMPDEST PUSH2 0x5711 DUP3 DUP3 DUP6 PUSH2 0x5651 JUMP JUMPDEST PUSH0 PUSH1 0x20 SWAP1 POP PUSH1 0x1F DUP4 GT PUSH1 0x1 DUP2 EQ PUSH2 0x5742 JUMPI PUSH0 DUP5 ISZERO PUSH2 0x5730 JUMPI DUP3 DUP8 ADD MLOAD SWAP1 POP JUMPDEST PUSH2 0x573A DUP6 DUP3 PUSH2 0x56BF JUMP JUMPDEST DUP7 SSTORE POP PUSH2 0x57A1 JUMP JUMPDEST PUSH1 0x1F NOT DUP5 AND PUSH2 0x5750 DUP7 PUSH2 0x5546 JUMP JUMPDEST PUSH0 JUMPDEST DUP3 DUP2 LT ISZERO PUSH2 0x5777 JUMPI DUP5 DUP10 ADD MLOAD DUP3 SSTORE PUSH1 0x1 DUP3 ADD SWAP2 POP PUSH1 0x20 DUP6 ADD SWAP5 POP PUSH1 0x20 DUP2 ADD SWAP1 POP PUSH2 0x5752 JUMP JUMPDEST DUP7 DUP4 LT ISZERO PUSH2 0x5794 JUMPI DUP5 DUP10 ADD MLOAD PUSH2 0x5790 PUSH1 0x1F DUP10 AND DUP3 PUSH2 0x56A3 JUMP JUMPDEST DUP4 SSTORE POP JUMPDEST PUSH1 0x1 PUSH1 0x2 DUP9 MUL ADD DUP9 SSTORE POP POP POP JUMPDEST POP POP POP POP POP POP JUMP JUMPDEST PUSH0 DUP2 SWAP1 POP SWAP3 SWAP2 POP POP JUMP JUMPDEST PUSH0 PUSH2 0x57BD DUP3 PUSH2 0x47E9 JUMP JUMPDEST PUSH2 0x57C7 DUP2 DUP6 PUSH2 0x57A9 JUMP JUMPDEST SWAP4 POP PUSH2 0x57D7 DUP2 DUP6 PUSH1 0x20 DUP7 ADD PUSH2 0x4803 JUMP JUMPDEST DUP1 DUP5 ADD SWAP2 POP POP SWAP3 SWAP2 POP POP JUMP JUMPDEST PUSH0 PUSH2 0x57EE DUP3 DUP5 PUSH2 0x57B3 JUMP JUMPDEST SWAP2 POP DUP2 SWAP1 POP SWAP3 SWAP2 POP POP JUMP JUMPDEST PUSH0 DUP2 SLOAD PUSH2 0x5805 DUP2 PUSH2 0x518E JUMP JUMPDEST PUSH2 0x580F DUP2 DUP7 PUSH2 0x57A9 JUMP JUMPDEST SWAP5 POP PUSH1 0x1 DUP3 AND PUSH0 DUP2 EQ PUSH2 0x5829 JUMPI PUSH1 0x1 DUP2 EQ PUSH2 0x583E JUMPI PUSH2 0x5870 JUMP JUMPDEST PUSH1 0xFF NOT DUP4 AND DUP7 MSTORE DUP2 ISZERO ISZERO DUP3 MUL DUP7 ADD SWAP4 POP PUSH2 0x5870 JUMP JUMPDEST PUSH2 0x5847 DUP6 PUSH2 0x5546 JUMP JUMPDEST PUSH0 JUMPDEST DUP4 DUP2 LT ISZERO PUSH2 0x5868 JUMPI DUP2 SLOAD DUP2 DUP10 ADD MSTORE PUSH1 0x1 DUP3 ADD SWAP2 POP PUSH1 0x20 DUP2 ADD SWAP1 POP PUSH2 0x5849 JUMP JUMPDEST DUP4 DUP9 ADD SWAP6 POP POP POP JUMPDEST POP POP POP SWAP3 SWAP2 POP POP JUMP JUMPDEST PUSH0 PUSH2 0x5884 DUP3 DUP5 PUSH2 0x57F9 JUMP JUMPDEST SWAP2 POP DUP2 SWAP1 POP SWAP3 SWAP2 POP POP JUMP JUMPDEST PUSH32 0x4E487B7100000000000000000000000000000000000000000000000000000000 PUSH0 MSTORE PUSH1 0x11 PUSH1 0x4 MSTORE PUSH1 0x24 PUSH0 REVERT JUMPDEST PUSH0 PUSH2 0x58C6 DUP3 PUSH2 0x4893 JUMP JUMPDEST SWAP2 POP PUSH2 0x58D1 DUP4 PUSH2 0x4893 JUMP JUMPDEST SWAP3 POP DUP3 DUP3 SUB SWAP1 POP DUP2 DUP2 GT ISZERO PUSH2 0x58E9 JUMPI PUSH2 0x58E8 PUSH2 0x588F JUMP JUMPDEST JUMPDEST SWAP3 SWAP2 POP POP JUMP JUMPDEST PUSH0 DUP2 SLOAD SWAP1 POP PUSH2 0x58FD DUP2 PUSH2 0x518E JUMP JUMPDEST SWAP1 POP SWAP2 SWAP1 POP JUMP JUMPDEST DUP2 DUP2 SUB PUSH2 0x5912 JUMPI POP POP PUSH2 0x59E7 JUMP JUMPDEST PUSH2 0x591B DUP3 PUSH2 0x58EF JUMP JUMPDEST PUSH8 0xFFFFFFFFFFFFFFFF DUP2 GT ISZERO PUSH2 0x5934 JUMPI PUSH2 0x5933 PUSH2 0x4C3C JUMP JUMPDEST JUMPDEST PUSH2 0x593E DUP3 SLOAD PUSH2 0x518E JUMP JUMPDEST PUSH2 0x5949 DUP3 DUP3 DUP6 PUSH2 0x5651 JUMP JUMPDEST PUSH0 PUSH1 0x1F DUP4 GT PUSH1 0x1 DUP2 EQ PUSH2 0x5976 JUMPI PUSH0 DUP5 ISZERO PUSH2 0x5964 JUMPI DUP3 DUP8 ADD SLOAD SWAP1 POP JUMPDEST PUSH2 0x596E DUP6 DUP3 PUSH2 0x56BF JUMP JUMPDEST DUP7 SSTORE POP PUSH2 0x59E0 JUMP JUMPDEST PUSH1 0x1F NOT DUP5 AND PUSH2 0x5984 DUP8 PUSH2 0x5546 JUMP JUMPDEST SWAP7 POP PUSH2 0x598F DUP7 PUSH2 0x5546 JUMP JUMPDEST PUSH0 JUMPDEST DUP3 DUP2 LT ISZERO PUSH2 0x59B6 JUMPI DUP5 DUP10 ADD SLOAD DUP3 SSTORE PUSH1 0x1 DUP3 ADD SWAP2 POP PUSH1 0x1 DUP6 ADD SWAP5 POP PUSH1 0x20 DUP2 ADD SWAP1 POP PUSH2 0x5991 JUMP JUMPDEST DUP7 DUP4 LT ISZERO PUSH2 0x59D3 JUMPI DUP5 DUP10 ADD SLOAD PUSH2 0x59CF PUSH1 0x1F DUP10 AND DUP3 PUSH2 0x56A3 JUMP JUMPDEST DUP4 SSTORE POP JUMPDEST PUSH1 0x1 PUSH1 0x2 DUP9 MUL ADD DUP9 SSTORE POP POP POP JUMPDEST POP POP POP POP POP POP JUMPDEST JUMP JUMPDEST PUSH32 0x4E487B7100000000000000000000000000000000000000000000000000000000 PUSH0 MSTORE PUSH1 0x31 PUSH1 0x4 MSTORE PUSH1 0x24 PUSH0 REVERT JUMPDEST PUSH0 PUSH2 0x5A20 DUP3 PUSH2 0x4893 JUMP JUMPDEST SWAP2 POP PUSH32 0xFFFFFFFFFFFFFFFFFFFFFFFFFFFFFFFFFFFFFFFFFFFFFFFFFFFFFFFFFFFFFFFF DUP3 SUB PUSH2 0x5A52 JUMPI PUSH2 0x5A51 PUSH2 0x588F JUMP JUMPDEST JUMPDEST PUSH1 0x1 DUP3 ADD SWAP1 POP SWAP2 SWAP1 POP JUMP JUMPDEST PUSH32 0x4552433732313A20696E76616C696420746F6B656E2049440000000000000000 PUSH0 DUP3 ADD MSTORE POP JUMP JUMPDEST PUSH0 PUSH2 0x5A91 PUSH1 0x18 DUP4 PUSH2 0x47F3 JUMP JUMPDEST SWAP2 POP PUSH2 0x5A9C DUP3 PUSH2 0x5A5D JUMP JUMPDEST PUSH1 0x20 DUP3 ADD SWAP1 POP SWAP2 SWAP1 POP JUMP JUMPDEST PUSH0 PUSH1 0x20 DUP3 ADD SWAP1 POP DUP2 DUP2 SUB PUSH0 DUP4 ADD MSTORE PUSH2 0x5ABE DUP2 PUSH2 0x5A85 JUMP JUMPDEST SWAP1 POP SWAP2 SWAP1 POP JUMP JUMPDEST PUSH32 0x4552433732313A2061646472657373207A65726F206973206E6F742061207661 PUSH0 DUP3 ADD MSTORE PUSH32 0x6C6964206F776E65720000000000000000000000000000000000000000000000 PUSH1 0x20 DUP3 ADD MSTORE POP JUMP JUMPDEST PUSH0 PUSH2 0x5B1F PUSH1 0x29 DUP4 PUSH2 0x47F3 JUMP JUMPDEST SWAP2 POP PUSH2 0x5B2A DUP3 PUSH2 0x5AC5 JUMP JUMPDEST PUSH1 0x40 DUP3 ADD SWAP1 POP SWAP2 SWAP1 POP JUMP JUMPDEST PUSH0 PUSH1 0x20 DUP3 ADD SWAP1 POP DUP2 DUP2 SUB PUSH0 DUP4 ADD MSTORE PUSH2 0x5B4C DUP2 PUSH2 0x5B13 JUMP JUMPDEST SWAP1 POP SWAP2 SWAP1 POP JUMP JUMPDEST PUSH0 DUP3 SWAP1 POP SWAP3 SWAP2 POP POP JUMP JUMPDEST PUSH2 0x5B67 DUP4 DUP4 PUSH2 0x5B53 JUMP JUMPDEST PUSH8 0xFFFFFFFFFFFFFFFF DUP2 GT ISZERO PUSH2 0x5B80 JUMPI PUSH2 0x5B7F PUSH2 0x4C3C JUMP JUMPDEST JUMPDEST PUSH2 0x5B8A DUP3 SLOAD PUSH2 0x518E JUMP JUMPDEST PUSH2 0x5B95 DUP3 DUP3 DUP6 PUSH2 0x5651 JUMP JUMPDEST PUSH0 PUSH1 0x1F DUP4 GT PUSH1 0x1 DUP2 EQ PUSH2 0x5BC2 JUMPI PUSH0 DUP5 ISZERO PUSH2 0x5BB0 JUMPI DUP3 DUP8 ADD CALLDATALOAD SWAP1 POP JUMPDEST PUSH2 0x5BBA DUP6 DUP3 PUSH2 0x56BF JUMP JUMPDEST DUP7 SSTORE POP PUSH2 0x5C21 JUMP JUMPDEST PUSH1 0x1F NOT DUP5 AND PUSH2 0x5BD0 DUP7 PUSH2 0x5546 JUMP JUMPDEST PUSH0 JUMPDEST DUP3 DUP2 LT ISZERO PUSH2 0x5BF7 JUMPI DUP5 DUP10 ADD CALLDATALOAD DUP3 SSTORE PUSH1 0x1 DUP3 ADD SWAP2 POP PUSH1 0x20 DUP6 ADD SWAP5 POP PUSH1 0x20 DUP2 ADD SWAP1 POP PUSH2 0x5BD2 JUMP JUMPDEST DUP7 DUP4 LT ISZERO PUSH2 0x5C14 JUMPI DUP5 DUP10 ADD CALLDATALOAD PUSH2 0x5C10 PUSH1 0x1F DUP10 AND DUP3 PUSH2 0x56A3 JUMP JUMPDEST DUP4 SSTORE POP JUMPDEST PUSH1 0x1 PUSH1 0x2 DUP9 MUL ADD DUP9 SSTORE POP POP POP JUMPDEST POP POP POP POP POP POP POP JUMP JUMPDEST PUSH0 DUP2 MLOAD SWAP1 POP PUSH2 0x5C38 DUP2 PUSH2 0x489C JUMP JUMPDEST SWAP3 SWAP2 POP POP JUMP JUMPDEST PUSH0 PUSH1 0x20 DUP3 DUP5 SUB SLT ISZERO PUSH2 0x5C53 JUMPI PUSH2 0x5C52 PUSH2 0x472E JUMP JUMPDEST JUMPDEST PUSH0 PUSH2 0x5C60 DUP5 DUP3 DUP6 ADD PUSH2 0x5C2A JUMP JUMPDEST SWAP2 POP POP SWAP3 SWAP2 POP POP JUMP JUMPDEST PUSH32 0x4E6F7420656E6F75676820746F6B656E73206F6E20636F6E7472616374206261 PUSH0 DUP3 ADD MSTORE PUSH32 0x6C616E6365000000000000000000000000000000000000000000000000000000 PUSH1 0x20 DUP3 ADD MSTORE POP JUMP JUMPDEST PUSH0 PUSH2 0x5CC3 PUSH1 0x25 DUP4 PUSH2 0x47F3 JUMP JUMPDEST SWAP2 POP PUSH2 0x5CCE DUP3 PUSH2 0x5C69 JUMP JUMPDEST PUSH1 0x40 DUP3 ADD SWAP1 POP SWAP2 SWAP1 POP JUMP JUMPDEST PUSH0 PUSH1 0x20 DUP3 ADD SWAP1 POP DUP2 DUP2 SUB PUSH0 DUP4 ADD MSTORE PUSH2 0x5CF0 DUP2 PUSH2 0x5CB7 JUMP JUMPDEST SWAP1 POP SWAP2 SWAP1 POP JUMP JUMPDEST PUSH0 PUSH1 0x40 DUP3 ADD SWAP1 POP PUSH2 0x5D0A PUSH0 DUP4 ADD DUP6 PUSH2 0x4921 JUMP JUMPDEST PUSH2 0x5D17 PUSH1 0x20 DUP4 ADD DUP5 PUSH2 0x4ABE JUMP JUMPDEST SWAP4 SWAP3 POP POP POP JUMP JUMPDEST PUSH0 DUP2 MLOAD SWAP1 POP PUSH2 0x5D2C DUP2 PUSH2 0x4F24 JUMP JUMPDEST SWAP3 SWAP2 POP POP JUMP JUMPDEST PUSH0 PUSH1 0x20 DUP3 DUP5 SUB SLT ISZERO PUSH2 0x5D47 JUMPI PUSH2 0x5D46 PUSH2 0x472E JUMP JUMPDEST JUMPDEST PUSH0 PUSH2 0x5D54 DUP5 DUP3 DUP6 ADD PUSH2 0x5D1E JUMP JUMPDEST SWAP2 POP POP SWAP3 SWAP2 POP POP JUMP JUMPDEST PUSH0 PUSH1 0x40 DUP3 ADD SWAP1 POP DUP2 DUP2 SUB PUSH0 DUP4 ADD MSTORE PUSH2 0x5D75 DUP2 DUP6 PUSH2 0x483B JUMP JUMPDEST SWAP1 POP PUSH2 0x5D84 PUSH1 0x20 DUP4 ADD DUP5 PUSH2 0x4ABE JUMP JUMPDEST SWAP4 SWAP3 POP POP POP JUMP JUMPDEST PUSH0 DUP2 MLOAD SWAP1 POP PUSH2 0x5D99 DUP2 PUSH2 0x4949 JUMP JUMPDEST SWAP3 SWAP2 POP POP JUMP JUMPDEST PUSH0 PUSH1 0x20 DUP3 DUP5 SUB SLT ISZERO PUSH2 0x5DB4 JUMPI PUSH2 0x5DB3 PUSH2 0x472E JUMP JUMPDEST JUMPDEST PUSH0 PUSH2 0x5DC1 DUP5 DUP3 DUP6 ADD PUSH2 0x5D8B JUMP JUMPDEST SWAP2 POP POP SWAP3 SWAP2 POP POP JUMP JUMPDEST PUSH32 0x496E76616C6964206D6F64756C65206164647265737300000000000000000000 PUSH0 DUP3 ADD MSTORE POP JUMP JUMPDEST PUSH0 PUSH2 0x5DFE PUSH1 0x16 DUP4 PUSH2 0x47F3 JUMP JUMPDEST SWAP2 POP PUSH2 0x5E09 DUP3 PUSH2 0x5DCA JUMP JUMPDEST PUSH1 0x20 DUP3 ADD SWAP1 POP SWAP2 SWAP1 POP JUMP JUMPDEST PUSH0 PUSH1 0x20 DUP3 ADD SWAP1 POP DUP2 DUP2 SUB PUSH0 DUP4 ADD MSTORE PUSH2 0x5E2B DUP2 PUSH2 0x5DF2 JUMP JUMPDEST SWAP1 POP SWAP2 SWAP1 POP JUMP JUMPDEST PUSH32 0x4D6F64756C6520616C726561647920696E7374616C6C65640000000000000000 PUSH0 DUP3 ADD MSTORE POP JUMP JUMPDEST PUSH0 PUSH2 0x5E66 PUSH1 0x18 DUP4 PUSH2 0x47F3 JUMP JUMPDEST SWAP2 POP PUSH2 0x5E71 DUP3 PUSH2 0x5E32 JUMP JUMPDEST PUSH1 0x20 DUP3 ADD SWAP1 POP SWAP2 SWAP1 POP JUMP JUMPDEST PUSH0 PUSH1 0x20 DUP3 ADD SWAP1 POP DUP2 DUP2 SUB PUSH0 DUP4 ADD MSTORE PUSH2 0x5E93 DUP2 PUSH2 0x5E5A JUMP JUMPDEST SWAP1 POP SWAP2 SWAP1 POP JUMP JUMPDEST PUSH0 PUSH1 0x60 DUP3 ADD SWAP1 POP DUP2 DUP2 SUB PUSH0 DUP4 ADD MSTORE PUSH2 0x5EB2 DUP2 DUP7 PUSH2 0x483B JUMP JUMPDEST SWAP1 POP PUSH2 0x5EC1 PUSH1 0x20 DUP4 ADD DUP6 PUSH2 0x4ABE JUMP JUMPDEST PUSH2 0x5ECE PUSH1 0x40 DUP4 ADD DUP5 PUSH2 0x4921 JUMP JUMPDEST SWAP5 SWAP4 POP POP POP POP JUMP JUMPDEST PUSH32 0x54686520636F6E7472616374206973206E6F7420746865206F776E6572206F66 PUSH0 DUP3 ADD MSTORE PUSH32 0x207468697320746F6B656E000000000000000000000000000000000000000000 PUSH1 0x20 DUP3 ADD MSTORE POP JUMP JUMPDEST PUSH0 PUSH2 0x5F30 PUSH1 0x2B DUP4 PUSH2 0x47F3 JUMP JUMPDEST SWAP2 POP PUSH2 0x5F3B DUP3 PUSH2 0x5ED6 JUMP JUMPDEST PUSH1 0x40 DUP3 ADD SWAP1 POP SWAP2 SWAP1 POP JUMP JUMPDEST PUSH0 PUSH1 0x20 DUP3 ADD SWAP1 POP DUP2 DUP2 SUB PUSH0 DUP4 ADD MSTORE PUSH2 0x5F5D DUP2 PUSH2 0x5F24 JUMP JUMPDEST SWAP1 POP SWAP2 SWAP1 POP JUMP JUMPDEST PUSH0 PUSH1 0x60 DUP3 ADD SWAP1 POP PUSH2 0x5F77 PUSH0 DUP4 ADD DUP7 PUSH2 0x4921 JUMP JUMPDEST PUSH2 0x5F84 PUSH1 0x20 DUP4 ADD DUP6 PUSH2 0x4921 JUMP JUMPDEST PUSH2 0x5F91 PUSH1 0x40 DUP4 ADD DUP5 PUSH2 0x4ABE JUMP JUMPDEST SWAP5 SWAP4 POP POP POP POP JUMP JUMPDEST PUSH32 0x436F6E74726163742068617320696E73756666696369656E742062616C616E63 PUSH0 DUP3 ADD MSTORE PUSH32 0x6500000000000000000000000000000000000000000000000000000000000000 PUSH1 0x20 DUP3 ADD MSTORE POP JUMP JUMPDEST PUSH0 PUSH2 0x5FF3 PUSH1 0x21 DUP4 PUSH2 0x47F3 JUMP JUMPDEST SWAP2 POP PUSH2 0x5FFE DUP3 PUSH2 0x5F99 JUMP JUMPDEST PUSH1 0x40 DUP3 ADD SWAP1 POP SWAP2 SWAP1 POP JUMP JUMPDEST PUSH0 PUSH1 0x20 DUP3 ADD SWAP1 POP DUP2 DUP2 SUB PUSH0 DUP4 ADD MSTORE PUSH2 0x6020 DUP2 PUSH2 0x5FE7 JUMP JUMPDEST SWAP1 POP SWAP2 SWAP1 POP JUMP JUMPDEST PUSH32 0x4F776E61626C653A206E6577206F776E657220697320746865207A65726F2061 PUSH0 DUP3 ADD MSTORE PUSH32 0x6464726573730000000000000000000000000000000000000000000000000000 PUSH1 0x20 DUP3 ADD MSTORE POP JUMP JUMPDEST PUSH0 PUSH2 0x6081 PUSH1 0x26 DUP4 PUSH2 0x47F3 JUMP JUMPDEST SWAP2 POP PUSH2 0x608C DUP3 PUSH2 0x6027 JUMP JUMPDEST PUSH1 0x40 DUP3 ADD SWAP1 POP SWAP2 SWAP1 POP JUMP JUMPDEST PUSH0 PUSH1 0x20 DUP3 ADD SWAP1 POP DUP2 DUP2 SUB PUSH0 DUP4 ADD MSTORE PUSH2 0x60AE DUP2 PUSH2 0x6075 JUMP JUMPDEST SWAP1 POP SWAP2 SWAP1 POP JUMP JUMPDEST PUSH32 0x4F776E61626C653A2063616C6C6572206973206E6F7420746865206F776E6572 PUSH0 DUP3 ADD MSTORE POP JUMP JUMPDEST PUSH0 PUSH2 0x60E9 PUSH1 0x20 DUP4 PUSH2 0x47F3 JUMP JUMPDEST SWAP2 POP PUSH2 0x60F4 DUP3 PUSH2 0x60B5 JUMP JUMPDEST PUSH1 0x20 DUP3 ADD SWAP1 POP SWAP2 SWAP1 POP JUMP JUMPDEST PUSH0 PUSH1 0x20 DUP3 ADD SWAP1 POP DUP2 DUP2 SUB PUSH0 DUP4 ADD MSTORE PUSH2 0x6116 DUP2 PUSH2 0x60DD JUMP JUMPDEST SWAP1 POP SWAP2 SWAP1 POP JUMP JUMPDEST PUSH32 0x496E76616C696420495020737472696E67206C656E6774680000000000000000 PUSH0 DUP3 ADD MSTORE POP JUMP JUMPDEST PUSH0 PUSH2 0x6151 PUSH1 0x18 DUP4 PUSH2 0x47F3 JUMP JUMPDEST SWAP2 POP PUSH2 0x615C DUP3 PUSH2 0x611D JUMP JUMPDEST PUSH1 0x20 DUP3 ADD SWAP1 POP SWAP2 SWAP1 POP JUMP JUMPDEST PUSH0 PUSH1 0x20 DUP3 ADD SWAP1 POP DUP2 DUP2 SUB PUSH0 DUP4 ADD MSTORE PUSH2 0x617E DUP2 PUSH2 0x6145 JUMP JUMPDEST SWAP1 POP SWAP2 SWAP1 POP JUMP JUMPDEST PUSH32 0x496E76616C696420495020636861726163746572000000000000000000000000 PUSH0 DUP3 ADD MSTORE POP JUMP JUMPDEST PUSH0 PUSH2 0x61B9 PUSH1 0x14 DUP4 PUSH2 0x47F3 JUMP JUMPDEST SWAP2 POP PUSH2 0x61C4 DUP3 PUSH2 0x6185 JUMP JUMPDEST PUSH1 0x20 DUP3 ADD SWAP1 POP SWAP2 SWAP1 POP JUMP JUMPDEST PUSH0 PUSH1 0x20 DUP3 ADD SWAP1 POP DUP2 DUP2 SUB PUSH0 DUP4 ADD MSTORE PUSH2 0x61E6 DUP2 PUSH2 0x61AD JUMP JUMPDEST SWAP1 POP SWAP2 SWAP1 POP JUMP JUMPDEST PUSH32 0x496E76616C6964204950206F637465742076616C756500000000000000000000 PUSH0 DUP3 ADD MSTORE POP JUMP JUMPDEST PUSH0 PUSH2 0x6221 PUSH1 0x16 DUP4 PUSH2 0x47F3 JUMP JUMPDEST SWAP2 POP PUSH2 0x622C DUP3 PUSH2 0x61ED JUMP JUMPDEST PUSH1 0x20 DUP3 ADD SWAP1 POP SWAP2 SWAP1 POP JUMP JUMPDEST PUSH0 PUSH1 0x20 DUP3 ADD SWAP1 POP DUP2 DUP2 SUB PUSH0 DUP4 ADD MSTORE PUSH2 0x624E DUP2 PUSH2 0x6215 JUMP JUMPDEST SWAP1 POP SWAP2 SWAP1 POP JUMP JUMPDEST PUSH0 PUSH1 0xFF DUP3 AND SWAP1 POP SWAP2 SWAP1 POP JUMP JUMPDEST PUSH0 PUSH2 0x626B DUP3 PUSH2 0x6255 JUMP JUMPDEST SWAP2 POP PUSH2 0x6276 DUP4 PUSH2 0x6255 JUMP JUMPDEST SWAP3 POP DUP3 DUP3 MUL PUSH2 0x6284 DUP2 PUSH2 0x6255 JUMP JUMPDEST SWAP2 POP DUP1 DUP3 EQ PUSH2 0x6296 JUMPI PUSH2 0x6295 PUSH2 0x588F JUMP JUMPDEST JUMPDEST POP SWAP3 SWAP2 POP POP JUMP JUMPDEST PUSH0 PUSH2 0x62A7 DUP3 PUSH2 0x6255 JUMP JUMPDEST SWAP2 POP PUSH1 0xFF DUP3 SUB PUSH2 0x62BA JUMPI PUSH2 0x62B9 PUSH2 0x588F JUMP JUMPDEST JUMPDEST PUSH1 0x1 DUP3 ADD SWAP1 POP SWAP2 SWAP1 POP JUMP JUMPDEST PUSH0 PUSH2 0x62CF DUP3 PUSH2 0x6255 JUMP JUMPDEST SWAP2 POP PUSH2 0x62DA DUP4 PUSH2 0x6255 JUMP JUMPDEST SWAP3 POP DUP3 DUP3 ADD SWAP1 POP PUSH1 0xFF DUP2 GT ISZERO PUSH2 0x62F3 JUMPI PUSH2 0x62F2 PUSH2 0x588F JUMP JUMPDEST JUMPDEST SWAP3 SWAP2 POP POP JUMP JUMPDEST PUSH0 PUSH2 0x6303 DUP3 PUSH2 0x6255 JUMP JUMPDEST SWAP2 POP PUSH2 0x630E DUP4 PUSH2 0x6255 JUMP JUMPDEST SWAP3 POP DUP3 DUP3 SUB SWAP1 POP PUSH1 0xFF DUP2 GT ISZERO PUSH2 0x6327 JUMPI PUSH2 0x6326 PUSH2 0x588F JUMP JUMPDEST JUMPDEST SWAP3 SWAP2 POP POP JUMP JUMPDEST PUSH32 0x49502073686F756C6420686176652065786163746C79203320646F7473000000 PUSH0 DUP3 ADD MSTORE POP JUMP JUMPDEST PUSH0 PUSH2 0x6361 PUSH1 0x1D DUP4 PUSH2 0x47F3 JUMP JUMPDEST SWAP2 POP PUSH2 0x636C DUP3 PUSH2 0x632D JUMP JUMPDEST PUSH1 0x20 DUP3 ADD SWAP1 POP SWAP2 SWAP1 POP JUMP JUMPDEST PUSH0 PUSH1 0x20 DUP3 ADD SWAP1 POP DUP2 DUP2 SUB PUSH0 DUP4 ADD MSTORE PUSH2 0x638E DUP2 PUSH2 0x6355 JUMP JUMPDEST SWAP1 POP SWAP2 SWAP1 POP JUMP JUMPDEST PUSH32 0x4552433732313A207472616E736665722066726F6D20696E636F727265637420 PUSH0 DUP3 ADD MSTORE PUSH32 0x6F776E6572000000000000000000000000000000000000000000000000000000 PUSH1 0x20 DUP3 ADD MSTORE POP JUMP JUMPDEST PUSH0 PUSH2 0x63EF PUSH1 0x25 DUP4 PUSH2 0x47F3 JUMP JUMPDEST SWAP2 POP PUSH2 0x63FA DUP3 PUSH2 0x6395 JUMP JUMPDEST PUSH1 0x40 DUP3 ADD SWAP1 POP SWAP2 SWAP1 POP JUMP JUMPDEST PUSH0 PUSH1 0x20 DUP3 ADD SWAP1 POP DUP2 DUP2 SUB PUSH0 DUP4 ADD MSTORE PUSH2 0x641C DUP2 PUSH2 0x63E3 JUMP JUMPDEST SWAP1 POP SWAP2 SWAP1 POP JUMP JUMPDEST PUSH32 0x4552433732313A207472616E7366657220746F20746865207A65726F20616464 PUSH0 DUP3 ADD MSTORE PUSH32 0x7265737300000000000000000000000000000000000000000000000000000000 PUSH1 0x20 DUP3 ADD MSTORE POP JUMP JUMPDEST PUSH0 PUSH2 0x647D PUSH1 0x24 DUP4 PUSH2 0x47F3 JUMP JUMPDEST SWAP2 POP PUSH2 0x6488 DUP3 PUSH2 0x6423 JUMP JUMPDEST PUSH1 0x40 DUP3 ADD SWAP1 POP SWAP2 SWAP1 POP JUMP JUMPDEST PUSH0 PUSH1 0x20 DUP3 ADD SWAP1 POP DUP2 DUP2 SUB PUSH0 DUP4 ADD MSTORE PUSH2 0x64AA DUP2 PUSH2 0x6471 JUMP JUMPDEST SWAP1 POP SWAP2 SWAP1 POP JUMP JUMPDEST PUSH0 DUP2 SWAP1 POP SWAP2 SWAP1 POP JUMP JUMPDEST PUSH2 0x64CB PUSH2 0x64C6 DUP3 PUSH2 0x4893 JUMP JUMPDEST PUSH2 0x64B1 JUMP JUMPDEST DUP3 MSTORE POP POP JUMP JUMPDEST PUSH0 PUSH2 0x64DC DUP3 DUP6 PUSH2 0x57B3 JUMP JUMPDEST SWAP2 POP PUSH2 0x64E8 DUP3 DUP5 PUSH2 0x64BA JUMP JUMPDEST PUSH1 0x20 DUP3 ADD SWAP2 POP DUP2 SWAP1 POP SWAP4 SWAP3 POP POP POP JUMP JUMPDEST PUSH32 0x546F6B656E207769746820494420302068617320616C7265616479206265656E PUSH0 DUP3 ADD MSTORE PUSH32 0x206D696E74656400000000000000000000000000000000000000000000000000 PUSH1 0x20 DUP3 ADD MSTORE POP JUMP JUMPDEST PUSH0 PUSH2 0x6552 PUSH1 0x27 DUP4 PUSH2 0x47F3 JUMP JUMPDEST SWAP2 POP PUSH2 0x655D DUP3 PUSH2 0x64F8 JUMP JUMPDEST PUSH1 0x40 DUP3 ADD SWAP1 POP SWAP2 SWAP1 POP JUMP JUMPDEST PUSH0 PUSH1 0x20 DUP3 ADD SWAP1 POP DUP2 DUP2 SUB PUSH0 DUP4 ADD MSTORE PUSH2 0x657F DUP2 PUSH2 0x6546 JUMP JUMPDEST SWAP1 POP SWAP2 SWAP1 POP JUMP JUMPDEST POP JUMP JUMPDEST PUSH0 PUSH2 0x6594 PUSH0 DUP4 PUSH2 0x57A9 JUMP JUMPDEST SWAP2 POP PUSH2 0x659F DUP3 PUSH2 0x6586 JUMP JUMPDEST PUSH0 DUP3 ADD SWAP1 POP SWAP2 SWAP1 POP JUMP JUMPDEST PUSH0 PUSH2 0x65B3 DUP3 PUSH2 0x6589 JUMP JUMPDEST SWAP2 POP DUP2 SWAP1 POP SWAP2 SWAP1 POP JUMP JUMPDEST PUSH0 PUSH2 0x65C8 DUP4 DUP6 PUSH2 0x57A9 JUMP JUMPDEST SWAP4 POP PUSH2 0x65D5 DUP4 DUP6 DUP5 PUSH2 0x4CE4 JUMP JUMPDEST DUP3 DUP5 ADD SWAP1 POP SWAP4 SWAP3 POP POP POP JUMP JUMPDEST PUSH0 PUSH2 0x65ED DUP3 DUP5 DUP7 PUSH2 0x65BD JUMP JUMPDEST SWAP2 POP DUP2 SWAP1 POP SWAP4 SWAP3 POP POP POP JUMP JUMPDEST PUSH32 0x416C6C20706172616D65746572732063616E6E6F74206265207A65726F206F72 PUSH0 DUP3 ADD MSTORE PUSH32 0x20656D7074790000000000000000000000000000000000000000000000000000 PUSH1 0x20 DUP3 ADD MSTORE POP JUMP JUMPDEST PUSH0 PUSH2 0x6653 PUSH1 0x26 DUP4 PUSH2 0x47F3 JUMP JUMPDEST SWAP2 POP PUSH2 0x665E DUP3 PUSH2 0x65F9 JUMP JUMPDEST PUSH1 0x40 DUP3 ADD SWAP1 POP SWAP2 SWAP1 POP JUMP JUMPDEST PUSH0 PUSH1 0x20 DUP3 ADD SWAP1 POP DUP2 DUP2 SUB PUSH0 DUP4 ADD MSTORE PUSH2 0x6680 DUP2 PUSH2 0x6647 JUMP JUMPDEST SWAP1 POP SWAP2 SWAP1 POP JUMP JUMPDEST PUSH32 0x4552433732313A20617070726F766520746F2063616C6C657200000000000000 PUSH0 DUP3 ADD MSTORE POP JUMP JUMPDEST PUSH0 PUSH2 0x66BB PUSH1 0x19 DUP4 PUSH2 0x47F3 JUMP JUMPDEST SWAP2 POP PUSH2 0x66C6 DUP3 PUSH2 0x6687 JUMP JUMPDEST PUSH1 0x20 DUP3 ADD SWAP1 POP SWAP2 SWAP1 POP JUMP JUMPDEST PUSH0 PUSH1 0x20 DUP3 ADD SWAP1 POP DUP2 DUP2 SUB PUSH0 DUP4 ADD MSTORE PUSH2 0x66E8 DUP2 PUSH2 0x66AF JUMP JUMPDEST SWAP1 POP SWAP2 SWAP1 POP JUMP JUMPDEST PUSH32 0x4552433732313A207472616E7366657220746F206E6F6E204552433732315265 PUSH0 DUP3 ADD MSTORE PUSH32 0x63656976657220696D706C656D656E7465720000000000000000000000000000 PUSH1 0x20 DUP3 ADD MSTORE POP JUMP JUMPDEST PUSH0 PUSH2 0x6749 PUSH1 0x32 DUP4 PUSH2 0x47F3 JUMP JUMPDEST SWAP2 POP PUSH2 0x6754 DUP3 PUSH2 0x66EF JUMP JUMPDEST PUSH1 0x40 DUP3 ADD SWAP1 POP SWAP2 SWAP1 POP JUMP JUMPDEST PUSH0 PUSH1 0x20 DUP3 ADD SWAP1 POP DUP2 DUP2 SUB PUSH0 DUP4 ADD MSTORE PUSH2 0x6776 DUP2 PUSH2 0x673D JUMP JUMPDEST SWAP1 POP SWAP2 SWAP1 POP JUMP JUMPDEST PUSH0 PUSH2 0x6788 DUP3 DUP6 PUSH2 0x57B3 JUMP JUMPDEST SWAP2 POP PUSH2 0x6794 DUP3 DUP5 PUSH2 0x57B3 JUMP JUMPDEST SWAP2 POP DUP2 SWAP1 POP SWAP4 SWAP3 POP POP POP JUMP JUMPDEST PUSH32 0x54686520616D6F756E74206F662065746865722073656E7420646F6573206E6F PUSH0 DUP3 ADD MSTORE PUSH32 0x74206D617463682074686520726571756972656420616D6F756E742E00000000 PUSH1 0x20 DUP3 ADD MSTORE POP JUMP JUMPDEST PUSH0 PUSH2 0x67FA PUSH1 0x3C DUP4 PUSH2 0x47F3 JUMP JUMPDEST SWAP2 POP PUSH2 0x6805 DUP3 PUSH2 0x67A0 JUMP JUMPDEST PUSH1 0x40 DUP3 ADD SWAP1 POP SWAP2 SWAP1 POP JUMP JUMPDEST PUSH0 PUSH1 0x20 DUP3 ADD SWAP1 POP DUP2 DUP2 SUB PUSH0 DUP4 ADD MSTORE PUSH2 0x6827 DUP2 PUSH2 0x67EE JUMP JUMPDEST SWAP1 POP SWAP2 SWAP1 POP JUMP JUMPDEST PUSH32 0x596F757220746F6B656E2062616C616E6365206973206E6F7420656E6F756768 PUSH0 DUP3 ADD MSTORE PUSH32 0x2E00000000000000000000000000000000000000000000000000000000000000 PUSH1 0x20 DUP3 ADD MSTORE POP JUMP JUMPDEST PUSH0 PUSH2 0x6888 PUSH1 0x21 DUP4 PUSH2 0x47F3 JUMP JUMPDEST SWAP2 POP PUSH2 0x6893 DUP3 PUSH2 0x682E JUMP JUMPDEST PUSH1 0x40 DUP3 ADD SWAP1 POP SWAP2 SWAP1 POP JUMP JUMPDEST PUSH0 PUSH1 0x20 DUP3 ADD SWAP1 POP DUP2 DUP2 SUB PUSH0 DUP4 ADD MSTORE PUSH2 0x68B5 DUP2 PUSH2 0x687C JUMP JUMPDEST SWAP1 POP SWAP2 SWAP1 POP JUMP JUMPDEST PUSH0 PUSH1 0x40 DUP3 ADD SWAP1 POP PUSH2 0x68CF PUSH0 DUP4 ADD DUP6 PUSH2 0x4921 JUMP JUMPDEST PUSH2 0x68DC PUSH1 0x20 DUP4 ADD DUP5 PUSH2 0x4921 JUMP JUMPDEST SWAP4 SWAP3 POP POP POP JUMP JUMPDEST PUSH32 0x54686520636F6E747261637420646F6573206E6F74207065726D697420746865 PUSH0 DUP3 ADD MSTORE PUSH32 0x207472616E73666572206F6620746F6B656E73206F6E20626568616C66206F66 PUSH1 0x20 DUP3 ADD MSTORE PUSH32 0x2074686520757365722E00000000000000000000000000000000000000000000 PUSH1 0x40 DUP3 ADD MSTORE POP JUMP JUMPDEST PUSH0 PUSH2 0x6963 PUSH1 0x4A DUP4 PUSH2 0x47F3 JUMP JUMPDEST SWAP2 POP PUSH2 0x696E DUP3 PUSH2 0x68E3 JUMP JUMPDEST PUSH1 0x60 DUP3 ADD SWAP1 POP SWAP2 SWAP1 POP JUMP JUMPDEST PUSH0 PUSH1 0x20 DUP3 ADD SWAP1 POP DUP2 DUP2 SUB PUSH0 DUP4 ADD MSTORE PUSH2 0x6990 DUP2 PUSH2 0x6957 JUMP JUMPDEST SWAP1 POP SWAP2 SWAP1 POP JUMP JUMPDEST PUSH0 DUP2 MLOAD SWAP1 POP SWAP2 SWAP1 POP JUMP JUMPDEST PUSH0 DUP3 DUP3 MSTORE PUSH1 0x20 DUP3 ADD SWAP1 POP SWAP3 SWAP2 POP POP JUMP JUMPDEST PUSH0 PUSH2 0x69BB DUP3 PUSH2 0x6997 JUMP JUMPDEST PUSH2 0x69C5 DUP2 DUP6 PUSH2 0x69A1 JUMP JUMPDEST SWAP4 POP PUSH2 0x69D5 DUP2 DUP6 PUSH1 0x20 DUP7 ADD PUSH2 0x4803 JUMP JUMPDEST PUSH2 0x69DE DUP2 PUSH2 0x482B JUMP JUMPDEST DUP5 ADD SWAP2 POP POP SWAP3 SWAP2 POP POP JUMP JUMPDEST PUSH0 PUSH1 0x80 DUP3 ADD SWAP1 POP PUSH2 0x69FC PUSH0 DUP4 ADD DUP8 PUSH2 0x4921 JUMP JUMPDEST PUSH2 0x6A09 PUSH1 0x20 DUP4 ADD DUP7 PUSH2 0x4921 JUMP JUMPDEST PUSH2 0x6A16 PUSH1 0x40 DUP4 ADD DUP6 PUSH2 0x4ABE JUMP JUMPDEST DUP2 DUP2 SUB PUSH1 0x60 DUP4 ADD MSTORE PUSH2 0x6A28 DUP2 DUP5 PUSH2 0x69B1 JUMP JUMPDEST SWAP1 POP SWAP6 SWAP5 POP POP POP POP POP JUMP JUMPDEST PUSH0 DUP2 MLOAD SWAP1 POP PUSH2 0x6A41 DUP2 PUSH2 0x4761 JUMP JUMPDEST SWAP3 SWAP2 POP POP JUMP JUMPDEST PUSH0 PUSH1 0x20 DUP3 DUP5 SUB SLT ISZERO PUSH2 0x6A5C JUMPI PUSH2 0x6A5B PUSH2 0x472E JUMP JUMPDEST JUMPDEST PUSH0 PUSH2 0x6A69 DUP5 DUP3 DUP6 ADD PUSH2 0x6A33 JUMP JUMPDEST SWAP2 POP POP SWAP3 SWAP2 POP POP JUMP JUMPDEST PUSH32 0x455243373231456E756D657261626C653A20636F6E7365637574697665207472 PUSH0 DUP3 ADD MSTORE PUSH32 0x616E7366657273206E6F7420737570706F727465640000000000000000000000 PUSH1 0x20 DUP3 ADD MSTORE POP JUMP JUMPDEST PUSH0 PUSH2 0x6ACC PUSH1 0x35 DUP4 PUSH2 0x47F3 JUMP JUMPDEST SWAP2 POP PUSH2 0x6AD7 DUP3 PUSH2 0x6A72 JUMP JUMPDEST PUSH1 0x40 DUP3 ADD SWAP1 POP SWAP2 SWAP1 POP JUMP JUMPDEST PUSH0 PUSH1 0x20 DUP3 ADD SWAP1 POP DUP2 DUP2 SUB PUSH0 DUP4 ADD MSTORE PUSH2 0x6AF9 DUP2 PUSH2 0x6AC0 JUMP JUMPDEST SWAP1 POP SWAP2 SWAP1 POP JUMP JUMPDEST PUSH32 0x4552433732313A206D696E7420746F20746865207A65726F2061646472657373 PUSH0 DUP3 ADD MSTORE POP JUMP JUMPDEST PUSH0 PUSH2 0x6B34 PUSH1 0x20 DUP4 PUSH2 0x47F3 JUMP JUMPDEST SWAP2 POP PUSH2 0x6B3F DUP3 PUSH2 0x6B00 JUMP JUMPDEST PUSH1 0x20 DUP3 ADD SWAP1 POP SWAP2 SWAP1 POP JUMP JUMPDEST PUSH0 PUSH1 0x20 DUP3 ADD SWAP1 POP DUP2 DUP2 SUB PUSH0 DUP4 ADD MSTORE PUSH2 0x6B61 DUP2 PUSH2 0x6B28 JUMP JUMPDEST SWAP1 POP SWAP2 SWAP1 POP JUMP JUMPDEST PUSH32 0x4552433732313A20746F6B656E20616C7265616479206D696E74656400000000 PUSH0 DUP3 ADD MSTORE POP JUMP JUMPDEST PUSH0 PUSH2 0x6B9C PUSH1 0x1C DUP4 PUSH2 0x47F3 JUMP JUMPDEST SWAP2 POP PUSH2 0x6BA7 DUP3 PUSH2 0x6B68 JUMP JUMPDEST PUSH1 0x20 DUP3 ADD SWAP1 POP SWAP2 SWAP1 POP JUMP JUMPDEST PUSH0 PUSH1 0x20 DUP3 ADD SWAP1 POP DUP2 DUP2 SUB PUSH0 DUP4 ADD MSTORE PUSH2 0x6BC9 DUP2 PUSH2 0x6B90 JUMP JUMPDEST SWAP1 POP SWAP2 SWAP1 POP JUMP JUMPDEST PUSH32 0x45524337323155524953746F726167653A2055524920736574206F66206E6F6E PUSH0 DUP3 ADD MSTORE PUSH32 0x6578697374656E7420746F6B656E000000000000000000000000000000000000 PUSH1 0x20 DUP3 ADD MSTORE POP JUMP JUMPDEST PUSH0 PUSH2 0x6C2A PUSH1 0x2E DUP4 PUSH2 0x47F3 JUMP JUMPDEST SWAP2 POP PUSH2 0x6C35 DUP3 PUSH2 0x6BD0 JUMP JUMPDEST PUSH1 0x40 DUP3 ADD SWAP1 POP SWAP2 SWAP1 POP JUMP JUMPDEST PUSH0 PUSH1 0x20 DUP3 ADD SWAP1 POP DUP2 DUP2 SUB PUSH0 DUP4 ADD MSTORE PUSH2 0x6C57 DUP2 PUSH2 0x6C1E JUMP JUMPDEST SWAP1 POP SWAP2 SWAP1 POP JUMP JUMPDEST PUSH32 0x4E487B7100000000000000000000000000000000000000000000000000000000 PUSH0 MSTORE PUSH1 0x12 PUSH1 0x4 MSTORE PUSH1 0x24 PUSH0 REVERT INVALID LOG2 PUSH5 0x6970667358 0x22 SLT KECCAK256 SWAP4 STOP JUMPI 0x2A 0xDA CALLDATALOAD 0x4A 0xD3 SDIV SGT DUP9 DUP15 PUSH7 0x88B73C503C5C2D STOP EXP PUSH12 0x7A96A0DF79A05B4E1464736F PUSH13 0x63430008150033697066733A2F 0x2F PUSH3 0x61666B PUSH19 0x65696168726E376B7867323434706E7A6D3563 PUSH23 0x3579376F796A61353474796E326633616F336236327463 PUSH25 0x71763434686C6A347275A2646970667358221220EC84B3E8B4 CREATE2 0xB5 SWAP9 CREATE2 0x4E PUSH24 0x3DADA4E03DB54DA0040BA358BEF31C2D1FAEFE461864736F PUSH13 0x63430008150033000000000000 "
		},
		"gasEstimates": {
			"creation": {
				"codeDepositCost": "7521200",
				"executionCost": "infinite",
				"totalCost": "infinite"
			},
			"external": {
				"deployModule(string,string,address,address)": "infinite",
				"getDeployedModules()": "infinite",
				"getNumberOfDeployedModules()": "2462",
				"isDeploy(address)": "2877"
			}
		},
		"methodIdentifiers": {
			"deployModule(string,string,address,address)": "8c632904",
			"getDeployedModules()": "82303430",
			"getNumberOfDeployedModules()": "a1f3fd9f",
			"isDeploy(address)": "c84abce1"
		}
	},
	"abi": [
		{
			"inputs": [
				{
					"internalType": "address",
					"name": "proxyAddress",
					"type": "address"
				}
			],
			"stateMutability": "nonpayable",
			"type": "constructor"
		},
		{
			"anonymous": false,
			"inputs": [
				{
					"indexed": true,
					"internalType": "address",
					"name": "moduleAddress",
					"type": "address"
				},
				{
					"indexed": true,
					"internalType": "address",
					"name": "owner",
					"type": "address"
				}
			],
			"name": "ModuleCreated",
			"type": "event"
		},
		{
			"inputs": [
				{
					"internalType": "string",
					"name": "name",
					"type": "string"
				},
				{
					"internalType": "string",
					"name": "symbol",
					"type": "string"
				},
				{
					"internalType": "address",
					"name": "ownerAddress",
					"type": "address"
				},
				{
					"internalType": "address",
					"name": "",
					"type": "address"
				}
			],
			"name": "deployModule",
			"outputs": [
				{
					"internalType": "address",
					"name": "",
					"type": "address"
				}
			],
			"stateMutability": "nonpayable",
			"type": "function"
		},
		{
			"inputs": [],
			"name": "getDeployedModules",
			"outputs": [
				{
					"components": [
						{
							"internalType": "address",
							"name": "moduleAddress",
							"type": "address"
						},
						{
							"internalType": "address",
							"name": "ownerAddress",
							"type": "address"
						}
					],
					"internalType": "struct IFactory.Deployed[]",
					"name": "",
					"type": "tuple[]"
				}
			],
			"stateMutability": "view",
			"type": "function"
		},
		{
			"inputs": [],
			"name": "getNumberOfDeployedModules",
			"outputs": [
				{
					"internalType": "uint256",
					"name": "",
					"type": "uint256"
				}
			],
			"stateMutability": "view",
			"type": "function"
		},
		{
			"inputs": [
				{
					"internalType": "address",
					"name": "",
					"type": "address"
				}
			],
			"name": "isDeploy",
			"outputs": [
				{
					"internalType": "bool",
					"name": "",
					"type": "bool"
				}
			],
			"stateMutability": "view",
			"type": "function"
		},
		{
			"stateMutability": "payable",
			"type": "receive"
		}
	]
}